:020000040801F1
:1020000000070020C55F020891E30108096102088A
:102010003DE401083FE4010841E4010865180208B5
:10202000000000000000000000000000E1E80208DD
:1020300043E401080000000071E80208CFC1020873
:10204000651802086518020849E4010865180208C5
:10205000651802086518020845E4010865180208B9
:102060006518020865180208651802086DE4010881
:1020700073E4010879E401087FE4010885E40108BC
:102080008BE4010891E4010897E401089DE401084C
:10209000A5E40108ADE40108B5E40108BDE40108C8
:1020A000C5E40108CDE40108D5E40108651802087B
:1020B00065180208DDE40108E9E40108F5E4010817
:1020C0006518020801E501080DE501086518020818
:1020D00065180208651802086518020865180208E4
:1020E00065180208651802086518020865180208D4
:1020F0006518020895E5010819E501086518020848
:1021000065180208651802086518020865180208B3
:1021100065180208651802086518020865180208A3
:102120006518020865180208651802086518020893
:102130006518020851E501086518020865180208CB
:10214000651802086518020825E501084DE5010833
:102150006518020865180208651802086518020863
:0C218800EC750808407608080101000012
:1021A00010B5054C237833B9044B13B10448AFF391
:1021B00000800123237010BD2018002000000000C3
:1021C0007C8C070808B5034B1BB103490348AFF3E8
:1021D000008008BD00000000241800207C8C070847
:1021E000812A010834A10708F0B5DBB004460D468A
:1021F00016461F460D4909A800F090FA6799669A9D
:10220000089165990792649A069163990592629A7A
:10221000049161990392609A02910097019233466A
:102220002A46214600F092FF5BB0F0BDE021010894
:102230001D2E010834A10708F0B5DBB004460D4699
:1022400016461F460D4909A800F068FA6799669A74
:10225000089165990792649A069163990592629A2A
:10226000049161990392609A02910097019233461A
:102270002A46214600F039FF5BB0F0BD302201084C
:1022800002688A4218BF00207047000010B5FFF7AF
:10229000F7FF4FF4803400280EBF034C4FF4A471B5
:1022A00065F02DFD204610BD0300010010B5084C5F
:1022B00060B1FFF7E5FF48B100F5947100220A60B4
:1022C0004A600121016142604FF48034204610BD14
:1022D0000300010070B50C4615461946064E40B184
:1022E000FFF7CEFF28B12A462146083000F06AFFEA
:1022F0000646304670BD00BF030001002DE9F845D9
:102300000D4684B004461746002168460022002688
:10231000002C8C4680E8461018BF002D0FD0F81F07
:1023200007280CD2207900F06200622818BF6448A8
:1023300006D119462046FFF7A3FF060001D16148E8
:10234000BBE006F58278D8F82010C7F10F00C0B2C4
:10235000891E8900401E01F0380100F0070001438A
:10236000D8F8240008B141F040012A78A878120476
:1023700042EA0162697842EA012269460243009218
:102380002A79E8786B79120442EA0062A87942EA75
:10239000032202AB02434A60072014E0C21FA0F1EF
:1023A000070A920815F800E04FEACA0A53F822C05B
:1023B0000AF0180ACAF1180A0EFA0AFE4EEA0C0CC4
:1023C00043F822C0401CB842E8D3CA68D8F82800B5
:1023D0000243CA60B36806F58A7206F10800D3F8B2
:1023E00000C0E0472978C7F10E0000F0070009049B
:1023F00041EA00616A78A87841EA02210143C8F8FD
:1024000000102A79E978A879120442EA0162697910
:1024100042EA01220021C8F808100243C8F804204B
:10242000C8F80C10072014E0C11F8908A0F1070E9E
:1024300006EB81012B5C4FEACE0ED1F80C210EF099
:10244000180ECEF1180E03FA0EF31A43C1F80C2140
:10245000401CB842E8D3D8F80C0040F00100C8F89E
:102460000C00D8F8240000B306F59A700021002271
:102470000023002580E82E00D8F82400B0F57F4F17
:1024800006D20004C8F830000220C8F840000CE072
:102490000D4941EA1041D8F82400C8F8301006214F
:1024A0000004C8F83400C8F84010C8F82C70606800
:1024B00040F0010060604FF4803005B0BDE8F08569
:1024C00004000100030001000000FEFF70B50D468E
:1024D000040011460A4E10D0281F0D280DD2E8071F
:1024E0000BD42046FFF7CCFE38B1C0F82451606809
:1024F0004FF4803640F002006060304670BD00BF8F
:102500000300010070B50D4604001146074E0AD0C5
:10251000FFF7B6FE38B1C0F82C5160684FF4803632
:1025200040F020006060304670BD00BF0300010035
:1025300070B50D4604001146074E0AD0FFF7A0FE05
:1025400038B1C0F8285160684FF4803640F0400040
:102550006060304670BD00BF030001002DE9F84FF8
:10256000044600270D46002C164618BF002D0FD03C
:102570001946FFF785FE58B1217901F005010129BF
:1025800018BF644805D100F594742168B14201D2A6
:102590006148BCE0891B2160E169AB4600F59A7A8D
:1025A00011E08A081BF807504FEAC10E5AF8223092
:1025B0000EF0180ECEF1180E05FA0EF52B434AF860
:1025C00022307F1C491C00F59472D2699219102A9E
:1025D00088BF10229142E4D30021054605EB81001B
:1025E00000F58A700268036A491C5A400260042997
:1025F000F4D3AB6805F58A784246D3F800C041466B
:1026000005F10800E0470020E06120E0002207EB30
:1026100082010BEB0103597893F800C058F82200AF
:10262000090441EA0C6193F802C0DB7841EA0C210D
:102630001943484048F82200521C042AE7D3AB68EB
:10264000424641461F6805F10800B8474F4607F16A
:1026500010094E45DAD2B74257D2206818B96868D7
:1026600040F0040068600021F61B10E00BEB030053
:1026700090F801C003784FEA0C4C4CEA036C837865
:10268000C0784CEA032318434AF8210011464A1C3B
:1026900007EB8103B1EB960FE8D300204AF8210045
:1026A000002710E007EB030E1BF80E905AF82100EC
:1026B0004FEAC70ECEF1180E09FA0EF949EA0000EA
:1026C0004AF821007F1CA6EB81008742EAD307EB82
:1026D0008103E361042A06D2C2F1040189000AEBF6
:1026E000820065F00CFB206878B908EB80010A6A6B
:1026F0000B68401C5A400A620428F6D3AB68424675
:1027000051461C6805F10800A0474FF48030BDE831
:10271000F28F00BF04000100030001000A46536865
:1027200012681968104700000149FFF7AFBD00BFEC
:10273000EC8C07080149FFF7B9BD00BFEC8C070816
:10274000014BFFF7C7BD00BFEC8C0708014BFFF73B
:10275000D5BD00BFEC8C0708014AFFF7B7BE00BF2C
:10276000EC8C0708014AFFF7CDBE00BFEC8C0708D0
:10277000014AFFF7DDBE00BFEC8C0708014BFFF7F5
:10278000EDBE00BFEC8C07082DE9F84F8AB0044677
:102790000E4690461F461022002101A865F08BF9D5
:1027A0009CB10096B8F1000F03D0002E18BF002F87
:1027B0000BD0207910F0180F18BF7F4806D17F4941
:1027C0002046FFF75DFD060001D17D48F0E00025C1
:1027D00006F58A790DF1040A0DF1140B59E0B3687E
:1027E00001AA06F58271D3F800C006F10800E0479F
:1027F000D6F81001401CC6F810010020009901F124
:10280000010E05EB80021EF802E011F802C05AF832
:1028100020304FEA0E4E4EEA0C6E01F1020C1CF80D
:1028200002C04EEA0C2E01F1030C1CF802C04CEA67
:102830000E0E8EEA03034AF8203007F1030E0EF85D
:1028400002305AF8203007F1020C1B0A0CF8023053
:102850005AF8203007F1010C1B0C0CF802305AF822
:1028600020301B0EBB545AF8202059F820305A4013
:102870004BF82020401C0428C1D300910995B3686F
:102880004A4605A9D3F800C006F10800E047099DB3
:10289000103505F110008045A1D2454580F08380B8
:1028A000616801AA06F1080041F008016160B3689F
:1028B00006F582711C68A0470020009B31E003F1FF
:1028C000010E1EF8014013F801C05AF8202024041C
:1028D00044EA0C6403F1020C1CF801E003F1030C60
:1028E0001CF801C044EA0E244CEA040462404AF891
:1028F0002020FC1C62545AF82020BC1C120A62548E
:102900005AF820207C1C120C62545AF82020120E17
:102910007A545AF8201059F8202051404BF82010D2
:10292000401CA8EB050205EB8001B0EB920FC6D36B
:1029300059F820404FF0000E4BF8204000931EE065
:10294000009D0EEB01034FEACE04ED5C5AF820C067
:10295000C4F11804A54085EA0C054AF82050E5406A
:10296000FD545AF820505BF820300EF1010EE5407E
:1029700005F0FF0505FA04F45C404BF82040A2EB9B
:1029800080039E45DCD3009003E059F820104BF8FB
:102990002010401C0428F8D3B3684A4605A91C68D7
:1029A00006F10800A0471498C0F800804FF480306A
:1029B0000BB0BDE8F08F00BF04000100EC8C0708ED
:1029C00003000100F8B588B006460C4617461022F1
:1029D000002104A865F06FF8002E18BF002C05D068
:1029E00022493046FFF74CFC050001D120483AE06F
:1029F000706840F01000706005F58876306A0C2829
:102A000009D33168C0F10F004FF0FF32C00002FA65
:102A100000F0084000E000203060AB6804AA05F533
:102A20008271D3F800C005F10800E047002004A936
:102A300005EB800351F82020D3F814315A4041F8B7
:102A40002020401C0428F3D30A4B1D680A480B4A77
:102A5000716902900192CB1C039700959B0804AA10
:102A6000204607F0B9F909B0F0BD00BFEC8C0708AB
:102A70000300010018A10708936E010026C701009A
:102A800010B1024A02608160704700BFEC8C0708F9
:102A90000149FFF7FBBB00BF188D07080149FFF78D
:102AA00005BC00BF188D0708014BFFF713BC00BF22
:102AB000188D0708014BFFF721BC00BF188D0708D0
:102AC000014AFFF703BD00BF188D0708014AFFF751
:102AD00019BD00BF188D0708014AFFF729BD00BFC7
:102AE000188D0708014BFFF739BD00BF188D070887
:102AF0002DE9F84E8BB004460E4615461F461022AF
:102B00000021684664F0D7FF94B1099608971DB17B
:102B1000099868B138000BD0207910F0180F18BF51
:102B20008D4806D18D492046FFF7AAFB060001D14A
:102B30008B480EE14FF0000B06F58A770DF1100976
:102B400063E000230998421C0BEB8301525C10F8F0
:102B500001C0120442EA0C6200F1020C1CF801E010
:102B600000F1030C1CF8011042EA0E220A4349F856
:102B7000232057F823104A4047F823205B1C042BDE
:102B8000E1D30990B3683A463946D3F800C006F15C
:102B90000800E047B3686A4606F58271D3F800C0C2
:102BA00006F10800E047D6F810010023401CC6F8E3
:102BB0001001089859F823205DF823C00BEB83011E
:102BC00000F1030E82EA0C0C0EF801C05DF823C080
:102BD00000F1020E82EA0C0C4FEA1C2C0EF801C028
:102BE0005DF823C000F1010E82EA0C0C4FEA1C4C88
:102BF0000EF801C05DF823C05B1C82EA0C02120EC5
:102C00004254042BD6D30890D3460BF1100A5545F5
:102C100097D2AB4580F09980606840F00800606012
:102C20000020099914E04A1CD25CCC5C120442EAF0
:102C300004628C1CE45C42EA0422CC1CE35C1A4370
:102C400049F8202057F8204062404DF8202009988C
:102C5000A5EB0B0292080A92421C09920A9C0BEB0C
:102C60008003A042DFD3002249F8202000240CE09A
:102C7000E2188A5C4FEAC40ACAF1180A02FA0AF298
:102C800082EA0C0249F82020641CA5EB0B02A2EB9F
:102C9000800259F820C09442EAD357F8201081EA04
:102CA0000C014DF820100998002106E049F8201089
:102CB00057F820204DF82020401C0428F6D3B36894
:102CC0003A4669461C6806F10800A047B3686A46A0
:102CD00006F582711C6806F10800A04700210898DB
:102CE00014E05E40C41CA6545DF82160841C5E4064
:102CF000360AA6545DF82160441C5E40360CA6548A
:102D00005DF82160491C73401B0E83540A9F5DF8D7
:102D100021600BEB810259F82130B942E1D37340B5
:102D20004DF821300023CDF810B008E05DF82160A7
:102D3000DF00C7F11807FE409F18C6555B1C049EB4
:102D4000AE1BA6EB8106B342F0D3149805604FF496
:102D500080300CB0BDE8F08E04000100188D07082B
:102D600003000100F8B584B007460C461546102252
:102D70000021684664F09FFE002F18BF002C06D08B
:102D80002DB124493846FFF77BFA060001D12248CD
:102D90003DE0786840F01000786006F58877386A82
:102DA0000C2809D33968C0F10F004FF0FF32C00082
:102DB00002FA00F0084000E000203860B3686A467C
:102DC00006F58271D3F800C006F10800E047002044
:102DD00006EB80035DF82020D3F814114A404DF82B
:102DE0002020401C0428F3D300200AE082085DF86C
:102DF0002230C20002F01802C2F11802D34023545C
:102E0000401C7A699042F1D32A604FF4803005B0BB
:102E1000F0BD00BF188D07080300010010B1024A81
:102E200002608160704700BF188D0708F8B50C4636
:102E300011461A4684B00500104B1BD068683A282A
:102E400018BF0F4B16D10D980CB909B112E088B11B
:102E500082B10B9F0C9E07B966B958B1DDF838C036
:102E600002900196CDF80CC0009720460A9B2C6872
:102E7000A0470346184605B0F0BD00BF030001009F
:102E800002000100F8B50C4611461A4684B0050050
:102E9000104B1CD0686810F13B0F18BF0E4B16D1B9
:102EA0000D980CB909B112E088B182B10B9F0C9E4C
:102EB00007B966B958B1DDF838C002900196CDF86F
:102EC0000CC0009720460A9B2C68A0470346184672
:102ED00005B0F0BD03000100020001002DE9F84338
:102EE0008846994688B0050011461A4B2ED068686E
:102EF0003A2818BF184B29D11698B8F1000F01D104
:102F000009B123E010B3109A02B3129CDDF84CE033
:102F100014B9BEF1000F19D1DDF850C0159FBCF1F6
:102F2000000F00D197B988B1179E119B07960690A4
:102F30000844CDF8149004900397CDF808C0CDF85C
:102F400004E000942D684046A8470346184609B09F
:102F5000BDE8F08303000100020001002DE9F84301
:102F60000C46984688B0050011461C4B31D0686865
:102F700010F13B0F18BF1A4B2BD116980CB909B1A1
:102F800027E030B3109A22B3129EDDF84CE016B958
:102F9000BEF1000F1DD1DDF850C0159FBCF1000F30
:102FA00000D1B7B9A8B1DDF85C90A1EB080106909B
:102FB0006018119BCDF81C90CDF8148004900397F5
:102FC000CDF808C0CDF804E000962D682046A8474B
:102FD0000346184609B0BDE8F08300BF03000100B6
:102FE000020001002DE9FC4104460D462168164609
:102FF0001F464A6890478046B8F5803F1DD1236838
:103000003946089A9F682046B8478046B8F5803F01
:1030100013D123680A9A0999DF682046B847804689
:10302000B8F5803F09D129460C9832460B9B009099
:10303000256820462E6AB0478046216820460A68E7
:1030400090474046BDE8F681FEB504460D4621682E
:1030500016461F464A689047B0F5803F44D1236822
:103060003946089A9F682046B847B0F5803F3BD163
:1030700022680D99204613699847B0F5803F33D1F7
:1030800022683146204653699847B0F5803F2BD1DE
:1030900022680C9F2046936939469847B0F5803FD7
:1030A00022D123680A9A0999D3F80CC02046E04738
:1030B000B0F5803F18D123683A460B99DF69204666
:1030C000B847B0F5803F0FD101A800902046246892
:1030D00029460E9B256A3246A847B0F5803F03D1AA
:1030E0000F9909B1019A0A60FEBD78B5054689B00D
:1030F0001598149E169C069012980596119E0490A1
:10310000109803960F9E02900E98079401960090D7
:103110002846FFF799FF0646B6F5803F0ED12B688B
:10312000139908AA5E6A2846B0470646B6F5803F5E
:1031300004D11CB1216808984118216029682846EB
:103140000A68904730460AB070BD0000F8B50446E2
:10315000154688B01698149A159E079012980592F5
:10316000119A049010980F9F039202900E98069661
:10317000019700902A462046FFF766FF0746B7F5FD
:10318000803F0DD12368139900229F6A2046B847DB
:1031900007460748874203D02946304664F0AFFD12
:1031A000216820460A689047384609B0F0BD00BF44
:1031B00026C7010000224260012088604FF4803061
:1031C000704700002DE9F14F8CB09246E84AE94B78
:1031D000E94DDFF8A883EA4EDFF8A8B30DF1040C3F
:1031E000BAF1100F08D0BAF1180F00F09280BAF1BE
:1031F000200F00F01881A8E1DBE900040DF1240E96
:10320000E14FCEE90004387800280CBF4FF00009E8
:103210004FF0040956F809405EF809703C442360F9
:1032200027680123A3608C7B7368D6F80090009414
:10323000099C5F407C40DEF8047084F0040487EA57
:10324000090787F0FC0E009F744484F0520EBE44C0
:103250008CF80EE04FF0010E11F80E400CF80E4005
:103260000EF1010EBEF10E0FF6D3DBE90047002888
:103270000DF1240ECEE900470CBF002704273C4681
:10328000F7595EF80440E419C4F80080D4F80080CF
:103290000127A760099C83EA08080F7884EA0804DC
:1032A00084F00408DEF80440002884EA090484F06D
:1032B000FC04444484F00B08DBE9004EB84409AF39
:1032C000C7E9004E8DF804800EBF4FF0000E0420B9
:1032D000864609AC365854F80E00861935603068B9
:1032E0000125B560CE7B0999434060684B4083F06F
:1032F000040380EA090080F0FC00034483F08503A6
:103300009B198CF80F300C9D287AC10700F11F81A2
:103310001BE1DBE900E909A89B4CC0E900E9207842
:103320000DF1240E00280CBF4FF000094FF00409E6
:1033300056F809405EF809703C442560276801256D
:10334000A5608C7B7568D6F800900094099C6F404E
:103350007C40DEF8047084F0040487EA090787F0F3
:10336000FC0E009F744484F0850EBE448CF80EE081
:103370004FF0010E11F80E400CF80E400EF1010E48
:10338000BEF10E0FF6D3DBE9004700280DF1240E45
:10339000CEE900470CBF002704273C46F7595EF8EA
:1033A0000440E419236027680123A360099B6F4050
:1033B0000C785F40DEF8043087F0040783EA0903E5
:1033C00083F0FC031F4487F052073F198DF8047007
:1033D000DBE90073002809ACC4E900730EBF0023C9
:1033E000042004233658E05801238619C6F80080CB
:1033F0003068B360099B454060685D40CE7B80EAE1
:10340000090085F0040580F0FC00054485F00B05FB
:10341000AD198CF80F5010200B5C0CF80030401CDC
:103420001828F9D36FE7DBE900E909A8564CC0E991
:1034300000E920780DF1240E00280CBF4FF00009A0
:103440004FF0040956F809405EF809703C44C4F88E
:10345000008027684FF00108C4F80880CC7FD6F8B8
:103460000480D6F800900094099C88EA07077C4005
:10347000DEF8047084F0040487EA090787F0FC0E84
:10348000009F744484F00B0EBE448CF81FE04FF094
:10349000000E11F80E400CF80E400EF1010EBEF1B8
:1034A000100FF6D3DBE9004700280DF1240ECEE91A
:1034B00000470CBF002704273C46F7595EF804403C
:1034C000E419256027680125A560099D88EA07079A
:1034D0004C7C6F40DEF8045087F0040785EA09054C
:1034E00085F0FC052F4487F085073F198CF8117093
:1034F000DBE90047002809ADC5E900470EBF4FF0E2
:10350000000B04208346365855F80B0086193360AB
:1035100030680123B360099B88EA00000E7C5840A4
:1035200080F00408686880EA090080F0FC004044EC
:1035300080F05208B0448CF8108012200B5C0CF81C
:103540000030401C1F28F9D3DDE610460DE02B6843
:10355000524601A95E682846B047A868C5F804A08D
:1035600040F00400A8604FF480300DB0BDE8F08F4B
:103570000300010054228EF77D138F2EA40B0E91B1
:10358000B09C0708FC3501083C180020F0B5059CEC
:10359000002C18BF002A01D10D48F0BD00240DE019
:1035A00015446F782E783F0447EA0667AE78ED78C9
:1035B00047EA06272F4341F82470641CA5009D426A
:1035C000EED3416841F0010141604FF48030F0BD1D
:1035D000030001004FF4803070474FF48030704793
:1035E0004FF4803070474FF4803070470048704788
:1035F00002000100004870470200010004B0010110
:103600000017014534A1070830B585B00C9C009324
:103610000B9D03940A9C13460A46014602950194A9
:10362000024807F08BFA05B030BD00BF0436010830
:1036300030B583B00093099C089D13460A460146A5
:1036400002940195024807F094FA03B030BD00BF20
:1036500004360108F1AC010834A10708F0B5CBB07D
:1036600004460D4616461F46094905A807F050FBBB
:103670005399529A049151990392509A029100974A
:10368000019233462A462146FFF7ACFC4BB0F0BD11
:103690005436010810B5040010461A4618BF002918
:1036A0000AD0002818BF002A06D021610146204612
:1036B00004F081FA014B636110BD00BFFEAF1C5ED8
:1036C00010B5040007D004F0BAFA20461821BDE86E
:1036D000104064F014BB10BDFEB504000D46164644
:1036E0001F4618BF002D0DD0002E18BF002F09D087
:1036F000A0692A680168886801688A4224BF3B681B
:103700008B4201D20120FEBD3A466FF0010103F069
:1037100025FFA0692246D0F81CC0206A0290E1690A
:10372000009628460191DCF80430DCF80040394668
:10373000A047FEBD002810B518BF002901D1012007
:1037400010BD002444618161C2610362002010BD8C
:1037500002469069D36900684168006804F05EB968
:1037600002469069D3690068C168806804F056B960
:10377000C16904F0DAB970B50546E8690E4614224D
:1037800004F029FA040049D1316800200861AA69CF
:1037900010680368E8691A6806F024FD040038D14F
:1037A000A869016830680A6800F10801E8691268D0
:1037B00006F018FD040028D1A86931684268D36971
:1037C000032B30D00068091D0268E869126806F012
:1037D00009FD040013D1A86931684268D369022B3E
:1037E0001ED100680C310268E869126806F0FAFC24
:1037F000040013D03068011DE86906F0FEFC306853
:1038000000F10801E86906F0F8FC3168E86906F0A3
:10381000F4FCE8691422314604F0FCF9204670BD3E
:103820000020C860FAE700224A60CA60F6E770B577
:103830000C460025002C06461ABF206800280125EA
:1038400023D0B1694A68D369022B04D100F10C017D
:10385000F06906F0D2FCB0694168C869032804D059
:103860002168F069091D06F0C8FC206800F1080114
:10387000F06906F0C2FC2168F06906F0BEFCF06950
:103880001422214604F0C6F92560284670BD0000C8
:10389000F8B50F4600251646002F044618BF002E27
:1038A0000BD0396800291CBFB868002805D03268E1
:1038B000002A1CBFB068002801D1012519E03B692E
:1038C0002046336106F0D4FC796800291FBF726876
:1038D000002A204606F0CCFCB268B968204606F003
:1038E000C7FCF96800291FBFF268002A204606F0CD
:1038F000BFFC2846F2BD70B50E46B16915460446B8
:103900000A680120D3693BB1022B01D007D370BDF7
:103910004968CB69032B14D0126869680CE01268FF
:103920002968204604F04CF8B1694A68D369022B33
:1039300007D10868E96802682046BDE8704004F0D5
:103940003FB870BD70B506460D462869002440F0AA
:1039500001002861B1690868C2691AB1022A08D059
:1039600018D32DE02868002106F073FC6868012157
:103970000BE049682868CA69032A08BF012104D0FE
:10398000002106F066FC0121686806F062FC002157
:10399000A86812E02868002106F05BFC6868012135
:1039A00006F057FCA868012106F053FCB069416895
:1039B000C869022805D10021E86806F04AFC00E049
:1039C0000124204670BD2DE9FC4B16460025002E33
:1039D00080468B461C461CBF0B9F002F05D03968C4
:1039E00000291CBFB868002803D101252846BDE87E
:1039F000F68B0A9838614A683168404604F0ADF8A1
:103A00003A685060786838B156F82B1042684046E2
:103A100004F0A3F879684860B868002C4268404612
:103A20000CBF0121216804F098F8B9684860F86873
:103A300038B156F83B104268404604F08EF8F968F9
:103A400048604FF00209361F15E0404604F085F843
:103A5000B96841F82900F86858B150F8292009EBF5
:103A60004B0056F82010404604F077F8F96841F80A
:103A7000290009F10109CB45B8D3386856F8291057
:103A800050F82920404604F068F8396841F82900C8
:103A9000786858B150F829200BEB090056F820102F
:103AA000404604F05AF8796841F82900B868002CBB
:103AB00050F829200EBF0021201F50F82910C4E71C
:103AC00070B50446A0690D4600264168C869032800
:103AD00018D8DFE800F00707020C226AE8682146E0
:103AE00003F0B5FF226A6868214603F0B0FF226A3E
:103AF0002868214603F0ABFF226AA868214603F03C
:103B0000A6FF00E00126286940F004002861304645
:103B100070BD000038B50446A0690D464168C8690B
:103B200003281FD8DFE800F009090210236AE269C0
:103B3000E868214603F093FFA8B9236AE269686840
:103B4000214603F08CFF70B9236AE2692868214698
:103B500003F085FF38B9236AE269A868214603F0BB
:103B60007EFF00E00120296921F00401296132BDB6
:103B7000F8B5044600260D46002C18BF002D5ED077
:103B8000287C002100F0010003F0EFFF012856D04F
:103B9000A868002106F008FC012850D0A06901683F
:103BA0002868096806F0BFFB002848D5A06941686D
:103BB000CA69032A06D000680168686806F0B3FB8A
:103BC00000283CD5A1690968086900281CBF48691C
:103BD000002835D0C86918B1022831D032D32EE080
:103BE0006069236A22460168286803F07DFFA069A6
:103BF000616900680B6802680169184603F06AFB96
:103C00006069216A2346026800912968104603F022
:103C100048FFA0696269016810680A68496903463B
:103C200003F058FB6069236A22464168686803F024
:103C30005BFF60694168006806F075FB00B104260F
:103C40003046F2BD6069236A22460168286803F0A5
:103C50004BFF6069236A22464168686803F044FFAD
:103C60006069226A234601680092A0690A460768D3
:103C7000386903F016FFA269616917680868496826
:103C80003A68034603F026FB6069216A23464068D0
:103C900000912968024603F004FF6069216A234607
:103CA000406800912968024603F0FBFE6069216AC2
:103CB000234640680091A76902463F68796903F08E
:103CC000F0FEA16960690A68A96840681268034645
:103CD00003F000FBADE70000F0B50F4685B0002112
:103CE000064603910491B06903A901250368F069B0
:103CF0001C68226806F076FA040040F0C680B069BD
:103D00000168F0690A6804A9126806F06BFA0400F9
:103D100040F0B780387C002100F0040003F025FF5C
:103D200020B9394630460025FFF7CAFEDFF8782172
:103D3000D2E900345649CDE900340878554B0028C3
:103D40000EBF0021042004211A585DF801005249D9
:103D5000821811601068012191605A6800995040E2
:103D60001A6841404D4880EA010C01994C484A408C
:103D70004240B06994444B4A036892EA0C0F049A9B
:103D8000186814BF6FF002016FF0010103F0E6FB49
:103D9000B0693246C469306A0290F16903980191B2
:103DA000049900906368B8682468A0470446B06925
:103DB0004168C86903284AD8DFE800F0021F29409B
:103DC000336A04990398324603F08EFE306A3A68EB
:103DD000049900903346104603F063FE306A049A5B
:103DE000334600900398114603F05BFE316A786811
:103DF000334600910246049926E0316A386833461A
:103E000000910399024603F04CFE786817E0316A8E
:103E10003868334600910399024603F042FE316A46
:103E20007868334600910399024603F03AFE306AFF
:103E300033460090FA687968386805E03868316A76
:103E4000334602460091039903F02BFE00E0012463
:103E5000316AB868334600910399024603F021FEA7
:103E6000002D08BF002C04D139463046FFF752FE22
:103E70000446386904A940F002003861F06906F090
:103E8000BCF9F06903A906F0B8F9204605B0F0BD09
:103E90003C180020B09C07082C7E82AD04850012DF
:103EA000FC68017AA8E29B8E6C5401082DE9F0476A
:103EB00088B00646B0691D4689469246016A006888
:103EC00009EB0A0212F8017C0368F069D1F8088056
:103ED0001A6806A9FF0906F085F9040040F041813F
:103EE000B0690168F0690A6807A9126806F07AF9F2
:103EF000040040F03281B0690168F0690A6803A9E2
:103F0000126806F06FF9040040F02381B06901687F
:103F1000F0690A6805A9126806F064F9040040F027
:103F20001481B0690168F0690A6804A9126806F092
:103F300059F904001AD1039A5146484606F050FB3D
:103F400003980399006851F8202022F0004241F8BC
:103F50002020B06901680398096806F0E4F9002898
:103F600005D4F06904A9042406F047F9E9E068687B
:103F7000002106F06EF96A680399012006F078F9CD
:103F8000326A0398314603F062FD336A059903985B
:103F9000324603F0A9FDB0690168C0680A68011DD6
:103FA0000498126806F034F9B069079B0168059817
:103FB0000A68049903F01FFA306A069A33460090A3
:103FC000B06901680598496903F06BFDB069069B0B
:103FD00001680A680499184603F07CF9336A03996A
:103FE0000698324603F080FD306A039A06990090E5
:103FF0003346104603F055FD306A059A0399009048
:104000000798334603F04DFD0399336A324608465C
:1040100003F06AFD306A039A069900903346104611
:1040200003F03FFD306A039A07990090334610462B
:1040300003F037FDB069049A6FF004010368186853
:1040400003F08CFA049A0321104603F018F9B069C2
:10405000C469306A0290F169039801912A68049951
:104060000092636824683246A0470446F06904A9B8
:1040700006F0C3F8002C64D1316A286833460091F9
:104080000599024603F00DFD336A0399286832460C
:1040900003F02AFD306A039A3346009006981146D1
:1040A00003F0FFFC0799039806F03DF998B1B06959
:1040B000059A07990368186803F01CFA0599039894
:1040C00006F031F9B8B9316A2868334600910246E2
:1040D000414603F0E6FC336AF2692868314603F092
:1040E000BEFC04002DD1012F07D12868002106F065
:1040F0005BF9012801D1042423E0B0692968026832
:104100000879126800F00100784003F059FC286932
:10411000012140F002002861A86806F09AF8B06911
:104120004168C86902280CD1306A33460090EA68B9
:104130006968286803F0B5FC326AE868314603F024
:1041400086FCF06905A906F058F8F06903A906F0A5
:1041500054F8F06907A906F050F8F06906A906F0CE
:104160004CF8204608B0BDE8F0872DE9F0431F4623
:1041700005468846914687B008EB090010F8016CA7
:10418000A86905A9F6090368E8691C68226806F0B1
:1041900029F8040040F01381A8690168E8690A68F9
:1041A00006A9126806F01EF8040040F00481A86910
:1041B0000168E8690A6803A9126806F013F80400A8
:1041C00040F0F580A8690168E8690A6804A91268E6
:1041D00006F008F8040040F0E6807A68A9F10101D1
:1041E000404606F0FDF9A86901687868096806F09C
:1041F0009AF8002840F1BF800398002106F029F8C2
:10420000039A7968012006F033F82A6A0398294650
:1042100003F01DFC2B6A049903982A4603F064FC02
:10422000A8690168C0680A68011D3868126805F04D
:10423000EFFFA869069B016804980A68396803F0D3
:10424000DAF8286A059A2B460090A8690168049854
:10425000496903F026FCA869059B01680A6839686A
:10426000184603F0C8F82B6A039906982A4603F00B
:104270003BFC03992B6A2A46084603F035FC286A62
:10428000039A069900902B46104603F00AFC2B6A0D
:10429000049905982A4603F027FC286A049A2B46BD
:1042A00000900598114603F0FCFB286A039A0499D4
:1042B00000902B46104603F0F4FBA869049A6FF0B7
:1042C00002010368186803F049F9049A02211046B4
:1042D00002F0D5FFA869C469286A0290E9690398C9
:1042E00001913A6804990092636824682A46A047BD
:1042F000040054D1286A039A0599009006982B4629
:1043000003F0CFFB2B6A049906982A4603F0ECFBD6
:10431000286A039A049900902B46104603F0C1FBCB
:10432000296A38682B4600910399024603F0B9FBCD
:104330002B6A039938682A4603F0D6FB286A039A49
:104340002B4600900598114603F0ABFB06990398A5
:1043500005F0E9FF78B92B6AEA693868294603F065
:104360007EFB04001BD1012E07D13868002106F026
:104370001BF8012801D1042411E0A86939680268FA
:104380000879126800F00100704003F019FBB8686A
:10439000012105F05EFF386940F002003861E869EC
:1043A00004A905F02AFFE86903A905F026FFE869DA
:1043B00006A905F022FFE86905A905F01EFF2046C1
:1043C00007B0BDE8F08370B50646B0690C461546E7
:1043D00001680868026850F8220003F0D2FBB16956
:1043E00062680B684FF0FF319E69761E4E40324086
:1043F0006260C0F12002D14022680126401E54F8BC
:10440000223086400B4044F82230226854F8223093
:10441000334344F822302868026850F822301940AB
:1044200040F8221070BD2DE9F44F05460E461F4698
:1044300084B06869D0F80080D0F80490D0F808A063
:10444000C0680E9C2A4601907968D7F800B00391A5
:10445000B868414602902B6AB06803F045FB286AB1
:104460002B464A460090B068414603F01AFB286A82
:1044700004992B46009009684246404603F011FB20
:10448000286A04992B46009049684A46484603F03A
:1044900008FBA8694346016840460A68316802F093
:1044A000AAFFA8694B46016848460A68716802F08D
:1044B000A2FFECB10021404605F076FF20603A688B
:1044C000494605F02BFF83467A682068494605F087
:1044D00025FF0390BA682068494605F01FFF029047
:1044E0000021484605F060FF216841EA4001216053
:1044F000286A029A2B460090B068414603F0D1FA30
:104500002B6A2A465146404603F0EEFA286A019A81
:104510002B4600905146404603F0C3FA286A2B46CA
:10452000524600903068514603F0BBFAA8694346F2
:10453000016850460A68514602F0CCFE2B6A2A46B2
:104540005946484603F0D0FAA8695B4601685846C8
:104550000A68414602F04FFFA8695B460168584669
:104560000A68019902F047FFA8695346016850465E
:104570000A68594602F03FFF286A2B4652460090CF
:104580005146484603F08DFA286A019A2B4600905E
:104590007168104603F085FAA869039B01685046CC
:1045A0000A68019905B0BDE8F04F02F024BF2DE97B
:1045B000F84F044660691E46D0F80090D0F804A079
:1045C000D0F80880D0F80CB0236A0D46A8681746CA
:1045D0002246494603F088FA206A23465246009054
:1045E0003868494603F05DFA206A23464A4600903F
:1045F000A868494603F055FA206A23464A460090C7
:104600007868494603F04DFA236AB8682246414665
:1046100003F06AFA206A23465A4600902868414609
:1046200003F03FFA206A234642460090B8684146AC
:1046300003F037FA206A23464246009068684146F4
:1046400003F02FFAA0695346016850460A6859469C
:1046500002F0D1FEA0694B46016848460A6841460F
:1046600002F0C9FE206A2346514600903268B868BD
:1046700003F017FA206A23460090B2683168A868F0
:1046800003F00FFA236A31682246504603F02CFAF1
:10469000206A2346009072683168504603F001FAA0
:1046A000206A2346524600903168584603F0F9F9D3
:1046B000236A31682246484603F016FAA169306839
:1046C0000A6871680346126802F095FE206A7168F4
:1046D000234600900A46404603F0E3F9A0694246AB
:1046E00001685046096803F00CF9A16930680A684E
:1046F00041460346126802F07EFEA06953460168F7
:1047000050460A68316802F076FE206A23464A461F
:1047100000905146484603F0C4F9A06971680268E8
:1047200048460B46126801B0BDE8F04F02F063BE88
:104730002DE9FE4F04460D4660691646984681688D
:104740000768D0F8049001913168D0F80CA03A467F
:10475000404605F0E3FD716883463A46404605F061
:10476000DDFD0290B1683A46404605F0D7FD0646A9
:10477000236AA8682246394603F0B6F9A0694B4679
:10478000016828680A68394602F0A4FDA0693B4622
:10479000016828680A68394602F02DFE206A23461F
:1047A0003A4600904946384603F07BF9A0694A46EC
:1047B00001683846096803F052F8A0693B46016871
:1047C00038460A68494602F085FD236A6868224631
:1047D000494603F089F9206A019A23460090286827
:1047E000494603F05EF9236A22465146384603F0F3
:1047F0007BF9A0695346016850460A68019902F0A6
:10480000FAFDA0695B46016850460A68019902F00A
:10481000F2FD206A234632460090A968686803F0DA
:1048200040F9236A22464946484603F05DF9A069EB
:104830005346016801980A68594602F0DCFD206A77
:1048400023463A4600905146384603F02AF9A069BB
:10485000029B016838460A68494603B0BDE8F04F3C
:1048600002F0C9BD2DE9FE4F044660690768D0F823
:104870000480D0F80890C0680D4616460190316853
:1048800002983A4605F04AFD8246716802983A4617
:1048900005F044FD8346B16802983A4605F03EFDB6
:1048A0000646A0693B46016868680A68A96802F084
:1048B00011FD236A28682246414603F015F9236A50
:1048C00068682246494603F00FF9A069534601681B
:1048D00028680A68494602F0FDFC236A0199A86825
:1048E000224603F001F9236A22465146504603F05E
:1048F000FBF8A0695346016850460A68414602F039
:104900007AFDA0695A4601684046096802F0F9FF3D
:10491000A0694346016840460A68594602F0DAFC3D
:10492000236A22465946484603F0DEF8236A2246A7
:104930003946384603F0D8F8A0693B460168384646
:104940000A68494602F057FDA069334601683846B7
:104950000A68019902F04FFD0199236A2246084630
:1049600003F0C2F8206A019A23460090A06911461C
:104970000568286903F095F8A0693B460168404640
:104980000A68019902F0A6FCA069434601680A681A
:104990005946504602F02FFDA06942460168404644
:1049A000096802F0AEFF236A22464946384603F002
:1049B0009BF8A069019A01684046096802F0A1FFCE
:1049C000A0695346016848460A68019902F013FD40
:1049D000A0694346016840460A68514602F00BFD53
:1049E000A0694A4601685846096802F08AFFA06932
:1049F0004A4601684846096802F083FFA0694A46B2
:104A000001684846096802F07CFF206A23463A465E
:104A100000904146384603F044F8A0695B460168BF
:104A200038460A68494603B0BDE8F04F02F0E3BCDF
:104A30002DE9FC47044665690A98D5F80080D5F849
:104A40000490D5F808A008B1002505601646226A32
:104A50000F461D460092316838682346424603F0EF
:104A600020F8A0694B46016838680A68796802F046
:104A700031FCA0692B68016830680A68716802F02F
:104A800029FC206A234600906A687168786803F000
:104A900008F8206A2346524600906968404603F0B1
:104AA00000F8206A234652460090A06951460668E5
:104AB000706902F0F6FF206A23464A460090296892
:104AC000484602F0EEFFA0694B46016848460A6876
:104AD000414602F090FCA0694B46016848460A68CE
:104AE000696802F088FC206A234642460090A0696B
:104AF00041460668306902F0D4FFA16968680A6817
:104B000041460346126802F076FC236A2968B868B9
:104B1000224602F0E9FFA0694346016828680A6856
:104B2000514602F068FCA0695346016828680A688B
:104B3000514602F0CFFB206A23464A460090494680
:104B4000404602F0AEFF206A2346494600902A689C
:104B5000B86802F0A6FF206A23464A4600906968BA
:104B6000504602F09EFF206A2346494600906A683C
:104B7000B86802F096FF206A234651460090AA6862
:104B8000404602F08EFFBDE8F3872DE9FC4704465E
:104B90006069D0F800A0D0F80480D0F80890206AAE
:104BA0000D4617460090B968A8681E46234652462F
:104BB00002F077FF206A23460090B26839682868BF
:104BC00002F06FFFA0694346016828680A686968B7
:104BD00002F080FBA0693368016838680A68796868
:104BE00002F078FB206A2346009072687968686852
:104BF00002F057FF206A23464A4600907168B06869
:104C000002F04FFF206A23464A460090A0694946B9
:104C10000568686902F045FF206A23464246009015
:104C20003168404602F03DFFA069434601684046B6
:104C30000A68B16802F0DFFBA0694346016840469C
:104C40000A68716802F0D7FB206AB16823460090B9
:104C5000A0690A460568286902F023FFA169706807
:104C60000A68B1680346126802F0C5FB236A31681E
:104C70002246504602F038FFA069B36801683068E8
:104C80000A68494602F0B7FBA0694B4601683068E4
:104C90000A68494602F01EFB206A234642460090FD
:104CA000B068414602F0FDFE206A2346414600906E
:104CB0003268504602F0F5FE206A234642460090D4
:104CC0007168484602F0EDFE206A23464146009096
:104CD0007268504602F0E5FE216AB06823460091F2
:104CE0000246494602F0DDFEBDE8F3872DE9F84FA4
:104CF000044660690D461746066839689B46D0F839
:104D000004A03246584605F009FB796880463246D1
:104D1000584605F003FBB96881463246584605F00F
:104D2000FDFA0746A0693346016828680A68696881
:104D300002F0D0FA236A28682246514602F0D4FED7
:104D4000206A234642460090A0695146D0F800E010
:104D5000DEF8100002F0A5FE236A224631463046F6
:104D600002F0C2FEA0693346016830460A68514627
:104D700002F041FB236A68682246494602F0B4FE0D
:104D8000A0695346016840460A68494602F0A2FA03
:104D9000A0694346016840460A68494602F02BFB79
:104DA000A0693346016830460A68494602F023FB91
:104DB000236AA8682246394602F096FEA0693A4660
:104DC00001683846096802F09CFD206A23464A467D
:104DD00000904146504602F064FEA0693B460168DF
:104DE00050460A68394602F006FB206A23464246CE
:104DF00000903946304602F054FE206A23463A4677
:104E000000903946504602F04CFEBDE8F18F2DE986
:104E1000F8430D4604466169089817461E46D1F8C6
:104E20000080D1F8049008B100210160A0692968D0
:104E3000434600680268686802F0DDFAA0694B46E4
:104E4000016878680A68396802F044FA206A2346E3
:104E5000424600904946404602F023FEA0694B4678
:104E6000016868680A68296802F034FAA069336842
:104E7000016878680A68396802F0BDFA206A23463A
:104E80004A4600903168484602F00BFEA06933683C
:104E9000016848460A68414602F0ADFAA0694B46EF
:104EA000016848460A68414602F014FAA06972682F
:104EB0000168F868096802F024FD206A71682346D9
:104EC0000090A8680A4602F0ECFDA069F26801684B
:104ED000E868096802F015FDA06943460168F068BA
:104EE0000A68716802F0F6F9A169F0680A687168E9
:104EF0000346126802F07FFA206A23464946009072
:104F0000B268306802F0CDFD206A31682346009017
:104F10000A46404602F0C5FD206A234600907268AA
:104F2000F168484602F0BDFD206AF1682346009012
:104F30000A46404602F0B5FDBDE8F1832DE9F8438D
:104F40000446606917460D46D0F80490D0F80080FA
:104F5000A06929681E46006843460268686802F036
:104F60004AFAA0694B46016878680A68396802F015
:104F7000B1F9206A2346424600904946404602F075
:104F800090FDA0694B46016868680A68296802F0CC
:104F9000A1F9A0693368016878680A68396802F085
:104FA0002AFA206A23464A4600903168484602F0B1
:104FB00078FDA0693368016848460A68414602F0F6
:104FC0001AFAA0694B46016848460A68414602F051
:104FD00081F9A06972680168F868096802F091FCBB
:104FE000206A716823460090A8680A4602F059FDBD
:104FF000A069B2680168B868096802F082FC206A9A
:1050000023460090F268B168E86802F04AFDA069A2
:1050100043460168F0680A68716802F05BF9A169AB
:10502000F0680A6871680346126802F0E4F9206AC1
:10503000234649460090B268306802F032FD206A8B
:105040003168234600900A46404602F02AFD206A55
:10505000234600907268F168484602F022FD206AFB
:10506000F168234600900A46404602F01AFDBDE86A
:10507000F1832DE9FE4F0446984660690D461646B9
:10508000436807684046019331683A4605F046F99F
:10509000716881463A46404605F040F9B16882465B
:1050A0003A46404605F03AF9F16883463A464046AA
:1050B00005F034F90646236A28682246394602F08C
:1050C00013FD236A68682246314602F00DFD236A0B
:1050D000A8682246594602F007FDA0695A460168B1
:1050E0005846096802F00DFCA0694B460168286823
:1050F0000A68696802F0EEF8236A22464946484683
:1051000002F0F2FCA0694B46016848460A6839463D
:1051100002F071F9A069524639460368186802F036
:10512000E9F9A0693B46016848460A68314602F041
:1051300062F9A069019B016850460A68314602F095
:10514000C9F8A0693346016850460A68314602F042
:1051500052F9A0695346016801980A68594602F05D
:105160004AF9206A0199234600905A46504602F0B7
:1051700098FC206A23464A4600905146384602F081
:1051800090FC206A2346524600900198314602F076
:1051900088FC206A2346324600903146384602F0A9
:1051A00080FCBDE8F78F2DE9F84304466069164698
:1051B0000D46D0F80490D0F80080A0691F46B96869
:1051C000006843460268386802F084F8A0694B46DC
:1051D000016838680A68B96802F00DF9A0693B688F
:1051E000016830680A68B16802F074F8A069BB68A9
:1051F000016830680A68B16802F0FDF8216AB86891
:10520000234600910246414602F04BFC236A2246A7
:105210004146404602F068FC216A38682346009106
:105220000246494602F03DFC236A2246494648466A
:1052300002F05AFCA06933680168B8680A683968E6
:1052400002F048F8A169B8680A683968034612682C
:1052500002F0D1F83068236A2246014602F044FC8D
:10526000B868236A2246014602F03EFC206A2346C3
:105270000090B268B968286802F013FC206A2346DF
:10528000494600903A68404602F00BFCA0694B4644
:10529000016840460A68494602F0ADF8206A234694
:1052A0000090A069BA6801684846096902F0F9FBF4
:1052B000A0694346016840460A68B96802F00AF8E6
:1052C000206A234649460090BA68404602F0E9FB4E
:1052D000BDE8F183FEB5064600200C461746019056
:1052E00022691D4600212A61207C00F0010002F0A5
:1052F0003CFC012807D1387C002100F0010002F0BD
:1053000034FC012836D0207C002100F0010002F09E
:105310002CFC012802D12A46394609E0387C0021BC
:1053200000F0010002F021FC012804D12A462146A8
:10533000FEF7AEFAF7BD3A4601A80090B7692B46D2
:105340002146D7F804C03046DCF80470B84701980D
:10535000C10713D5C0F3400060B13046B6690123E0
:105360002A4677682146D7F800C0E0472069400800
:10537000400002E0286940F001002861F7BDF8B55F
:1053800006460F4638691D4614462861387C0021C0
:1053900000F0010002F0E9FB012807D1207C002188
:1053A00000F0010002F0E1FB01283BD0387C002135
:1053B00000F0010002F0D9FB012802D12A46214663
:1053C00009E0207C002100F0010002F0CEFB012862
:1053D00005D12A463946BDE8F840FEF759BA3946A4
:1053E000B7692B462246D7F804C03046DCF808706F
:1053F000B847A868002104F0D7FF012816D1286813
:10540000002104F0D1FF01280CD13046B6690123F8
:105410002A4677682146D7F800C0E047206940084F
:10542000400002E0286940F001002861F1BDF8B5B4
:1054300005460E463069144600212061307C00F09C
:10544000010002F092FB012803D1206940F0010025
:105450000AE02846AD69314601236E682246376866
:10546000B8472069400840002061F1BD04B0010147
:10547000001701452DE9F84F0C468EB00025002C91
:105480000295009501951CBF0492002A4FF4C02894
:105490003DD0002B03931CBF189F002F37D0DDF8A1
:1054A00064A0BAF1000F1CBFDDF86890B9F1000FDD
:1054B0002DD005002BD068696549884227D128691D
:1054C000C169606A014208BFDFF8888121D094F881
:1054D0002800010758BFDFF880811AD521680868C5
:1054E00004F078FFC61D2068F608806804F072FF9B
:1054F0006168C01DC969032901D1B24507D10329DB
:1055000012BFBAEB460F0399B1EBD00F02D0DFF810
:105510004C8199E020682B692A46C16905A80229B7
:1055200021464F4C07BFDFF83CB1DFF83CA1DFF864
:105530003CB1DFF83CA1FEF7FDF805A8FEF708F93D
:1055400008B1A04680E001A905A8FEF714F908B14A
:10555000A04676E0694605A8FEF70DF908B1A04619
:105560006BE00B98016828468A6802A9126804F06B
:1055700039FE08B1A0465CE0029A03990498D84726
:105580000098314602683846D8470B984168C86988
:10559000032804D0009831464268B819D8470098CB
:1055A0000121806804F055FE0098016941F0020174
:1055B00001610B980168CA69022A04D1009A029914
:1055C00005A8FEF700FF0B9F019B009ABF69029997
:1055D00005A8D7F800B0D84748B1042808BFDFF8BD
:1055E000948022D0012807D1DFF870801DE0019956
:1055F00005A8FEF771FB08B1A04616E001981B9CB8
:10560000324600684946D04704B126600B9841688D
:10561000C869032809D00198324609EB06014068A1
:10562000D04714B120683618266002A9284604F035
:10563000E4FD694605A8FEF7FAF801A905A8FEF7FA
:10564000F6F805A8FEF794F840460FB0BDE8F08FD5
:10565000FEAF1C5E0E0006000F00060003000600F1
:105660000C000600E1A5010879A60108E5A40108DF
:105670006BA50108080006002DE9F04F0C468DB01F
:105680000021002C009102919B461CBF0392002A2E
:105690004FF4C02A0BD0169900291CBF189D002D6D
:1056A00005D0019018B14169564A914202D0DFF805
:1056B00058A1A2E00169C869616A084208BFDFF821
:1056C0004CA1F6D094F82800C10758BFDFF840A1DC
:1056D000EFD520688068016850F8210002F051FA87
:1056E00080462068816800680A68521E08EB4219EB
:1056F00004F070FEC61D179809F10707F608FF08A9
:1057000000B10760199808B1710001605846C000E7
:10571000DFF800B1484538BFDA466ED30198036917
:105720002146024604A8FEF705F804A83A4CFEF705
:105730000FF808B1A24660E00A98016801988A68EB
:105740006946126804F04EFD08B1A24652E002A973
:1057500004A8FEF710F808B1A24647E0009A0398A3
:105760003946C8F1200804F0BDFE009A08F0070190
:10577000104601F084FD009A0221104601F0EEFE71
:1057800038B90A9801680098896804F0CCFD0128AE
:1057900001DBDA4626E0009A4FF0FF31104601F0B7
:1057A000DDFE169900983A4604F0DFFE0A9B029A45
:1057B00000991B6904A8D3F800C0E04720B90299FA
:1057C00004A8FEF789FA08B1A2460BE00298324617
:1057D0002946006804F0C9FE02983246A9194068BB
:1057E00004F0C3FE02A904A8FEF721F80198694657
:1057F00004F003FD04A8FDF7BBFF50460DB0BDE863
:10580000F08F00BFFEAF1C5E030006000E00060016
:105810000F0006000B0006000C0006002DE9F04FFB
:105820001C468FB000230E460593019302934FF45C
:10583000C0280393BEB3110000921CBF1899002921
:1058400031D01A9900291CBFDDF87090B9F1000F12
:1058500029D0050027D068699249884223D1286958
:10586000C169706A014208BFDFF83C821DD096F81A
:105870002800C10758BFDFF8348216D53068DDF83C
:1058800064A08068016850F8210002F07AF931685C
:10589000834688680268511E0BEB4113DF1DFF0829
:1058A0000493BA4502D0DFF80882F6E02046C00033
:1058B0001D9C984204D204B12760DFF8F881ECE027
:1058C00005A92846DFF8F0A104F08CFC08B1D04609
:1058D000E3E03068816828460A6801A904F082FC88
:1058E00008B1D046D5E03068816828460A6802A928
:1058F00004F078FC08B1D046C7E0029A0098394617
:10590000CBF1200B04F0EEFD029A0BF00701DFF85B
:10591000A4B1104601F0B3FC3068019A6FF00101A8
:10592000806801F01BFE0199029804F0FCFC01283C
:10593000A8BFD84610DA029A0121104601F00EFEE7
:105940002B692A46314606A8FDF7F4FE03A906A8EE
:10595000FDF711FF08B1D04693E006A8FDF7F8FE69
:1059600008B1D04689E00C9B039A02991E6906A8EB
:10597000D6F800C0E047B0B9039906A8FEF7ACF925
:1059800088B906A8FDF7F4FE06A8FDF7E9FE0E9A11
:10599000029806A902F05BF8019B059A029906A8F5
:1059A000FDF79AFE08B1D04664E00C98029B0168AE
:1059B0000398896800680A4601F01DFD02980021DD
:1059C00004F0F2FC01284AD002981B9E3A46494650
:1059D00004F0CBFD019A1898394604F083FD0E9A25
:1059E000029806A902F033F80E98029A01990090E5
:1059F00006AB104602F055F80498019AB0EBC60FBA
:105A00000BD21A98394604F06DFD019A0499C1EB46
:105A1000C701104601F033FC03E01A98314604F048
:105A200061FD0C98019B0168896818460A4601F0DF
:105A3000E2FC0C98019B01688A680299184601F003
:105A400049FC0E98019A06AB00900598114602F0A9
:105A500028F80198002104F0A7FC012801D1D846BC
:105A600008E001983A4609EB070104F07EFD0CB10D
:105A70007F00276006A8FDF77BFE03A906A8FDF7B7
:105A8000D6FE02A9284604F0B8FB01A9284604F076
:105A9000B4FB05A9284604F0B0FB40460FB0BDE8B2
:105AA000F08F00BFFEAF1C5E0E0006000F00060068
:105AB000030006000B0006000C0006002DE9F84F5D
:105AC00092B000240D46059404940894079406941B
:105AD000A5B316001FBF1C9F002FDDF87880B8F11A
:105AE000000F2BD0040029D06069A449884225D139
:105AF0002069C169686A014208BFA14E1FD095F8AC
:105B00002800C10758BF9F4E7AD50093296888683E
:105B100004F060FC814609F107004FEAD00A2868CA
:105B2000006804F057FCC01D4FEAD00B0098B0EBA2
:105B30004B0F04BF1F98B0EB4A0F01D0924E5FE0AD
:105B400023692246294609A8FDF7F4FD0F988F4DD9
:105B5000016820468A6805A9126804F043FB08B171
:105B60002E464DE00F98016820468A6804A9126805
:105B700004F038FB08B12E463EE00F98016820463D
:105B80008A6808A9126804F02DFB002840F088807C
:105B9000059A514608EB0A0004F0A4FC0598002180
:105BA00004F002FC012807D00F9801680598896865
:105BB00004F0B9FB002801D4754E15E009A8FDF7E3
:105BC000CFFD08B12E460FE0119A059809A901F002
:105BD0003EFF049B089A059909A8FDF77DFD98B141
:105BE0002E4609A8FDF7C4FD08A9204604F005FBD0
:105BF00004A9204604F001FB05A9204604F0FDFAA3
:105C0000304613B0BDE8F08F1D99049AB9EBC10F6F
:105C10000BD25146384604F065FC049AC9EBCA0918
:105C20004946104601F02BFB02E0384604F05AFCCE
:105C30000F98049B0168896818460A4601F0DBFB4F
:105C40001198049A0899009009AB104601F029FFB9
:105C5000059A5146404604F045FC0598002104F0A1
:105C6000A3FB012807D00F9801680598896804F004
:105C70005AFB002801D4464EB3E71198059A0899BB
:105C8000009009AB104601F00CFF09A8FDF770FD6C
:105C900008A9204604F0B1FA09A8FDF759FD08B19A
:105CA0002E46A5E707A909A8FDF765FD08B12E4610
:105CB0005FE006A909A8FDF75EFD08B12E4654E095
:105CC000069859460268304604F00CFC069859467E
:105CD000426806EB0B0004F005FC06980121806881
:105CE00004F0B7FA0698016941F0020101610F9EC4
:105CF0000799049B069A00917769059909A8D7F836
:105D000000C0E04718B1042810D1224E29E00798BE
:105D10000021214E007C00F0010001F026FF012847
:105D20001FD0079909A8FDF7D7FF08B12E4618E044
:105D30000F98049B01680798896800680A4601F07B
:105D40005AFB2098154A1368039004981449029648
:105D5000019100930368021D5146404604F03CF84F
:105D6000064606A909A8FDF762FD07A909A8FDF7DF
:105D70005EFD09A8FDF7FCFC3AE700BFFEAF1C5E24
:105D80000E0006000F000600030006000C000600CF
:105D90000900060008000600936E060028A1070807
:105DA00026C706002DE9F04F8FB000240F4604945B
:105DB0004FF4C0290394029497B1110005921CBFBF
:105DC000DDF86080B8F1000F0AD01A99002918BFD9
:105DD0005FEA000B04D0DBF814007949884202D056
:105DE000DFF8E091E7E0DBF81000C169786A014272
:105DF00008BFDFF8D491F5D097F82800810758BF85
:105E0000DFF8C891EED5009338680068016850F853
:105E1000210001F0B6FE39680546199C0868DDF8D6
:105E20006CA00268009805EB4216183EF608B042D6
:105E300009D204B12660BAF1000FDFF8949118BFBF
:105E4000CAF80060B7E0DBF810305A46394606A8B9
:105E5000FDF770FCF21C920804A9584604F0C2F940
:105E600010B1DFF87091A6E0324602A9584601F061
:105E7000B2FE002858D1019000960C98029B05991B
:105E8000006A32467700D0F800E0DEF8000001F04A
:105E90001BF8B0F5003F07D03A4602A95846DFF894
:105EA000389101F0B7FE82E0029805F00705ED1D7C
:105EB00001780C9802689369029A581E80F0FF00DE
:105EC00001401170012000FA05F50298ADB26A1E7A
:105ED000401E815D01EA122181550299681E891ECA
:105EE0008A5D02408A550299491E8A5D42EA15225E
:105EF0008A550299881E825D314615438555049A5C
:105F0000029804F06DFB324602A9584601F082FE69
:105F10000C98049A5B4601681046896801F03DFBC5
:105F200006A8FDF715FC10B1DFF8A8903FE003A923
:105F300006A8FDF720FC10B1DFF8989034E00C9B28
:105F4000039A04991B6906A81D68A84720B90399FC
:105F500006A8FDF7C1FE10B1DFF8789020E00398A5
:105F60001A993246406804F087FB039A1A9813681E
:105F7000401E815D5A68BAF1000F41EAC2113246F3
:105F8000815518BFCAF800600599404661F0B5FE1A
:105F90001A99324608EB060061F0AFFE04B12760A3
:105FA00003A906A8FDF743FC06A8FDF7E1FB04A939
:105FB000584604F022F948460FB0BDE8F08F00BF04
:105FC000FEAF1C5E030006000E0006000F00060078
:105FD0000B0006000C000600010006002DE9F04F42
:105FE00093B000240E460594049407944FF4C02AFD
:105FF0000694029403949EB3110008921FBF1C994B
:106000000029DDF87880B8F1000F29D0040027D0EE
:106010006069DFF89813884222D12069C169706AEB
:10602000014208BFDFF888A31CD096F8280081073A
:1060300058BFDFF880A315D530689B46006801681B
:1060400050F8210001F09DFD31680746086802689C
:1060500007EB4215183DED084FEA4509CB4502D044
:10606000DFF854A39DE123692246314609A8FDF7D4
:1060700061FBEA1C920805A9204604F0B3F810B1B0
:10608000DFF838A38DE14A4602A9204601F0A3FDBE
:1060900010B1DFF828A380E101900F98CDF80090AF
:1060A000029B066A08992A463668306800F00CFFA1
:1060B000B0F5003F71D102981D9E07F007070178E7
:1060C0000F98FF1D02689369029A581E80F0FF0026
:1060D00001401170012000FA07F70298BFB27A1E42
:1060E000401E415D01EA122141550299781E891E28
:1060F0004A5D02404A550299491E4A5D42EA17220A
:106100004A550299881E425D294617434755059A0C
:10611000029804F065FA0F98016A2046CA6803A93C
:10612000AA18B21801F057FD002842D10F98006A52
:10613000C2680169039861F0E0FD0298039B2A465A
:1061400041190F98076AF868184461F0D6FD0F9B53
:1061500003981C991F6A3246FB68EB18184461F0DB
:10616000CCFD0F980021029B006A0191CDF80090B0
:10617000C26800680399AA180068B21800F0A4FE6B
:1061800007460F98016A2046CA6803A9AA18B218E0
:1061900001F040FDB7F5003F02D0DFF824A2F7E0A0
:1061A0000F98016820468A6807A9126804F01AF857
:1061B00010B1DFF808A2EBE0E81C80081290420062
:1061C00004A9204604F00EF8A8B9049A029849469A
:1061D00004F006FA0F98079A234601680498896824
:1061E00001F0DBF904A9204604F007F806A909A884
:1061F000FDF7C1FA10B1DFF8C4A1C5E009A8FDF7A9
:10620000A7FA6E4F002840F080800F9B069A0799EE
:106210001B6909A8D3F800B0D84700BB069909A8A4
:10622000FDF75AFDD8B909A8FDF7A2FA06982A4643
:106230004146406804F020FA069AA8F10100415D49
:1062400013685A6841EAC21141550F98016A204605
:10625000CA6803A94A44B21801F0BDFC20B109A8DC
:10626000BA46FDF785FA8BE00F98006AC2680169AB
:10627000039861F042FD0F9B03982A46D3F820C093
:106280004146DCF80C30184461F037FD0898039B58
:106290002A4641190F98D0F820C0DCF80C002818C5
:1062A000184461F02AFD0F9B03981C99D3F820C075
:1062B0003246DCF80C304B44184461F01EFD0F9858
:1062C0000021029B006A0191CDF80090C26800682D
:1062D00003994A440068B21800F0F6FD83460F980F
:1062E000016AC86803A948443218204601F092FCAC
:1062F000BBF5003F18BFDFF8C8A041D1129A04A92E
:106300002046520003F06EFF08B1BA4638E0049A06
:106310000298494604F064F90F98049A23460168EC
:106320001046896801F039F909A8FDF719FA08B192
:10633000BA4621E0119A05981F9E09A901F087FB32
:106340001198059A09AB00900498114601F0A9FB39
:106350000F98059B01688A680799184600F0BAFFF4
:1063600005982A4608EB050104F086F90EB1C6F837
:10637000009009A8FDF7FCF904A9204603F03DFFB1
:1063800006A909A8FDF753FA07A9204603F035FF2F
:106390004A4602A9204601F03DFC05A9204603F02B
:1063A0002CFF504613B0BDE8F08F00BFFEAF1C5E5F
:1063B0000E0006000F000600030006000C00060099
:1063C000010006002DE9F84F94B000250C460A950F
:1063D0000995089506950795059504956CB31100E8
:1063E00002921FBF1E9F002FDDF880B0BBF1000F8F
:1063F00023D0050021D06869A24988421DD12869AF
:10640000C169606A014208BF9F4C17D094F8280008
:10641000810758BF9D4C11D503932168086803F08C
:10642000D9FF08304FEAD0090398484502BFDDF88C
:1064300084A04FEA4908C24501D0954C1EE12B6962
:106440002A4621460BA8FDF775F9424605A92846BC
:1064500001F0C1FB8F4C0028F0D111981F9E016AFA
:106460002846CA6804A94244B21801F0B4FB0028C7
:106470004ED11198006AC2680169049861F03DFC30
:10648000119B04984A46D3F820C05946DCF80C30DA
:10649000184461F032FC119B04980299D3F820C093
:1064A0004A46DCF80C304B44184461F026FC119B42
:1064B000394604981F6A3246FB684344184461F029
:1064C0001CFC11980021059B006A0191CDF8008009
:1064D000C2680068049942440068B21800F0F4FCF5
:1064E00007461198016AC86804A940443218284632
:1064F00001F090FBB7F5003F18BF674C08D1119829
:10650000016828468A680AA9126803F06BFE002811
:1065100040F0AF8009F10307BF087A0009A92846B7
:1065200003F060FE002816D1099A0598414604F050
:1065300057F811980A9A2B4601680998896801F062
:106540002CF809A9284603F058FE3A4608A928461F
:1065500003F048FE002840F088800BEB0800801E06
:106560004178077811984FF6FF7647EA01270168CE
:10657000886803F02FFFC0EBC900C640F6433742DE
:106580000DD1089A49460BEB090004F029F811983F
:1065900001680898896803F0C6FE002801D43F4CC2
:1065A0005FE006A90BA8FDF7E6F8002859D107A976
:1065B0000BA8FDF7E0F800284FD10BA8FDF7C8F8AD
:1065C000002846D1119F079B039A3E6A02990BA8A7
:1065D0007768B84718B1042838D1314C36E0079AAB
:1065E0000BA90120FDF787F9119F0698089B079AD0
:1065F0000A9900907F690BA83E68B04730BB0699A6
:106600000BA8FDF769FB08BB069805994A46406848
:1066100004F032F8069A05981368224A401E10F8D2
:1066200009105C68204B41EAC41100F80910229857
:1066300001921E4903901868059A029100904B46FA
:106640004FEA5A01584603F0C7FB04460BA8FDF772
:106650008FF807A90BA8FDF7EAF806A90BA8FDF724
:10666000E6F808A9284603F0C8FD0AA9284603F061
:10667000C4FD424605A9284601F0CCFA204615B0D3
:10668000BDE8F08FFEAF1C5E0E0006000F00060096
:10669000030006000C0006000100060009000600C9
:1066A0000800060026C7060008A10708936E06002A
:1066B000C96D010834A10708F0B5ADF5106D97B0AC
:1066C00004460D4616461F46124909A800F00DFB68
:1066D000DDF88C19DDF888290891DDF88419079216
:1066E000DDF880290691DDF87C190592DDF878291E
:1066F0000491DDF874190392DDF870290291009776
:10670000019233462A462146FCF720FD0DF5106D17
:1067100017B0F0BDB0660108AD6E010834A10708DE
:10672000F0B5ADF5106D97B004460D4616461F4600
:10673000124909A800F0D9FADDF88C19DDF888298A
:106740000891DDF884190792DDF880290691DDF8BB
:106750007C190592DDF878290491DDF8741903920B
:10676000DDF8702902910097019233462A462146AE
:10677000FCF7BBFC0DF5106D17B0F0BD18670108F4
:106780002DE9F042074690B000200D46914600905A
:106790000190029003900490059006900790089055
:1067A00009900A900B900C900D900E900F9004247D
:1067B0003E6805F580636A46360E06F00F0C03EB63
:1067C0000C11684626F00F0604F0A7FA6A46A919CC
:1067D000684604F0A2FA3E6805F5806004AA360215
:1067E000360E06F00F0100EB011104A826F00F068B
:1067F00004F093FA04AAA91904A804F08EFA3E68DA
:1068000005F5806008AA3604360E06F00F0100EB8D
:10681000011108A826F00F0604F07FFA08AAA919AA
:1068200008A804F07AFA57F8046B05F580600CAA02
:10683000F6B206F00F0100EB01110CA826F00F06CE
:1068400004F06BFA0CAAA9190CA804F066FA05F575
:106850008075641EACD10E990F982E4C0A0642EA40
:10686000102200F0FF000F920D9A130643EA112345
:106870000C990E930B0643EA122308AA0D9334F8E1
:106880001000000480EA11200CA90C9008A804F064
:1068900044FA0A990B980A0642EA102200F0FF0017
:1068A0000B92099A130643EA112308990A930B06DF
:1068B00043EA122304AA099334F81000000480EA82
:1068C000112008A9089004A804F027FA069907984F
:1068D0000A0642EA102200F0FF000792059A13060A
:1068E00043EA1123049906930B0643EA12236A46EE
:1068F000059334F81000000480EA112004A90490E4
:10690000684604F00AFA4946684604F018FA10B0DE
:10691000BDE8F082389A070810B502684FF4803459
:106920008A4200D110B9044C204610BD40F6341103
:1069300061F0E5F9204610BD0300010000B581B00B
:1069400002688A4201D1010002D1054801B000BDB0
:1069500000F1080104F04AFA4FF4803001B000BDA4
:10696000030001002DE9F04784B08046D8F800000C
:10697000984202D1B8F1000F04D19F4D284604B0CF
:10698000BDE8F08708F10800FCF71CFC0546B5F5EA
:10699000803F40F02D816846002100220023002422
:1069A00080E81E00D8F808306A4669461C6808F17D
:1069B0000800A04708F5DA716846042404F0BFF91E
:1069C00008F59A7000EB041108F59A7202EB441076
:1069D00004F0BEF96408F3D14FF0020903E000BFF0
:1069E000B9F1010F14D908EB091108F5A277A9F143
:1069F000010401F5A27608F59A7101EB091A3246F5
:106A00003946504604F089F910371036641EF6D125
:106A10004FEA4909B9F1090FE2D30020C8F834015F
:106A2000C8F83801C8F83C01C8F8400108F23451F0
:106A300008F59A7004F0AAF908F2445108F5A2701A
:106A400004F0A4F908F2545108F5AA7004F09EF974
:106A500008F2645108F5B27004F098F908F2745124
:106A600008F5BA7004F092F908F2845108F5C27082
:106A700004F08CF908F2945108F5CA7004F086F914
:106A800008F2A45108F5D27004F080F908F2B4516C
:106A900008F5DA7004F07AF908F2C45108F5E270EA
:106AA00004F074F908F2D45108F5EA7004F06EF9B4
:106AB00008F2E45108F5F27004F068F908F2F451B4
:106AC00008F5FA7004F062F908F2046108F5017043
:106AD00004F05CF908F2146108F5057004F056F949
:106AE00008F2246108F5097004F050F908F50D78F2
:106AF0000324424E5FF00007A8F580718A68C868D9
:106B00007F1C120642EA102200F0FF0CC8F80C208D
:106B10004B6888681B0643EA1023C8F808300868E9
:106B2000D1F804E0000640EA1E2002F0FF0EC8F88B
:106B3000040036F81CC009684FEA0C4C8CEA112C92
:106B4000190641EA1221020642EA13224FEA0C63B7
:106B500043EA1023C8F800C0C8F80C10C8F8082091
:106B6000C8F8043036F81E0001F0FF0E000480EA79
:106B70001C204FEA026C4CEA112C190641EA122142
:106B8000020642EA1322C8F80000C8F80CC0C8F890
:106B90000810C8F8042036F81E304FEA016E4EEA9D
:106BA0001C2E1B0483EA10230CF0FF004FEA026C3A
:106BB0004CEA112C190641EA1221C8F80030C8F835
:106BC0000CE0C8F808C0C8F8041036F8100008F542
:106BD0008061000480EA1320C8F80000404604F0F9
:106BE000D5F808F11008102F86D3641E7FF482AF09
:106BF000284604B0BDE8F08703000100389A070872
:106C00000C2A30B404BF02689A4201D1020002D1BA
:106C1000174830BC70474C780B788D78240444EAD0
:106C20000364CB78426844EA05241C43C0F804415D
:106C30004D790C79CB792D0445EA04658C7942F0C5
:106C4000010245EA04251D43C0F808514B7A0C7A2D
:106C50001B0443EA04638C7AC97A426043EA042342
:106C60000B43C0F80C314FF4803030BC704700BF8C
:106C70000300010031B1112904D20368934201D10C
:106C8000020001D105487047C0F81411416841F075
:106C9000020141604FF48030704700BF03000100E3
:106CA00030B581B004689C4201D1040002D10A4889
:106CB00001B030BD03795D0748BF08480AD400F52C
:106CC0009A73009313460A4600F1080104F0A2F8F3
:106CD0004FF4803001B030BD03000100040001001A
:106CE00002688A4218BF002070470A46002818BF71
:106CF000002A01D1002070475368126819681047B4
:106D00000149FFF709BE00BF409C07080149FFF792
:106D100015BE00BF409C0708014BFFF723BE00BF14
:106D2000409C0708014BFFF76BBF00BF409C070862
:106D3000014AFFF79FBF00BF409C0708014BFFF7C8
:106D4000AFBF00BF409C0708F0B50D4685B00446B4
:106D500016461F460B49FFF7C3FF10B90A4805B096
:106D6000F0BD0A9900F59A7300F10802039100F151
:106D70000801029701960095204604F073FA05B0C9
:106D8000F0BD00BF409C07080300010070B50D4630
:106D900082B0044616460A49FFF7A2FF10B9094817
:106DA00002B070BD00F59A7300F1080200F108010D
:106DB00001960095204604F061FB02B070BD00BF53
:106DC000409C07080300010038B1044A0260044BEC
:106DD000D3F800C08160C0F830C17047409C0708FC
:106DE0003C9C07080149FFF797BD00BF6C9C070852
:106DF0000149FFF7A3BD00BF6C9C0708014BFFF7DB
:106E0000B1BD00BF6C9C0708014BFFF7F9BE00BF86
:106E10006C9C0708014AFFF72DBF00BF6C9C070858
:106E2000014BFFF73DBF00BF6C9C0708F0B50D4656
:106E300085B0044616461F460B49FFF751FF10B9AF
:106E40000A4805B0F0BD0A9900F59A7300F10802EE
:106E5000039100F10801029701960095204604F085
:106E600097F805B0F0BD00BF6C9C07080300010057
:106E700070B50D4682B0044616460A49FFF730FF4A
:106E800010B9094802B070BD00F59A7300F108020C
:106E900000F1080101960095204604F091F902B036
:106EA00070BD00BF6C9C07080300010038B1044AA4
:106EB0000260044BD3F800C08160C0F830C1704755
:106EC0006C9C07083C9C070838B50C460028114606
:106ED0001A46094B1CBF0568002D0AD04AB104B9F7
:106EE00039B9049828B1059B009303462046A8476A
:106EF0000346184632BD00BF030002002DE9F041F1
:106F000004460E46216817461D464A68904780464B
:106F1000B8F5003F19D12268069920469368984732
:106F20008046B8F5003F10D1236831463A46DE6806
:106F30002046B0478046B8F5003F06D12368294671
:106F4000079A1D692046A8478046216820460A689E
:106F500090474046BDE8F0812021416070472020E5
:106F60007047406A70470000596F01085F6F010861
:106F7000636F0108796F010810B5044604F1100031
:106F800002F0A6F8C4F8F8000148C4F87C0110BD6E
:106F9000686F0108F8B5E6B004460D4616461F4670
:106FA0000A4906A804F0E2FC70996F9A00970591CF
:106FB0006E9904926D9A03916C99029233460191F5
:106FC0002A46214600F088F867B0F0BD746F0108CA
:106FD000F8B5E6B004460D4616461F46094906A810
:106FE00004F0C4FC6F996E9A04916D9903926C9AA7
:106FF00002910097019233462A46214600F0AFF8ED
:1070000067B0F0BD746F01084021416070474020B7
:107010007047406A70470000097001080F7001084E
:10702000137001082970010810B5044604F110001E
:1070300002F000FAC4F8F8000148C4F87C0110BD61
:1070400018700108F8B5E6B004460D4616461F460E
:107050000A4906A804F08AFC70996F9A0097059176
:107060006E9904926D9A03916C9902923346019144
:107070002A46214600F030F867B0F0BD24700108C0
:10708000F8B5E6B004460D4616461F46094906A85F
:1070900004F06CFC6F996E9A04916D9903926C9A4E
:1070A00002910097019233462A46214600F057F894
:1070B00067B0F0BD2470010840B1016829B1044AED
:1070C000914202D10121034B197040681AF084BE2D
:1070D000000037483C1800202DE9F04104460D46D9
:1070E000216816461F464A6890478046B8F5403FDB
:1070F0002ED122680A992046936898478046B8F5B1
:10710000403F25D12368089A0799D3F80CC0204640
:10711000E0478046B8F5403F1AD123683946069AC1
:107120001F692046B8478046B8F5403F10D1236814
:10713000294632465D692046A8478046B8F5403F5B
:1071400006D123680B9A09999D692046A847804675
:10715000216820460A6890474046BDE8F0812DE945
:10716000F04104460D46216816461F464A6890477E
:107170008046B8F5403F2ED122680A992046936890
:1071800098478046B8F5403F25D12368089A07996B
:10719000D3F80CC02046E0478046B8F5403F1AD1EE
:1071A00023683946069A1F692046B8478046B8F5D5
:1071B000403F10D12368294632465D692046A847E2
:1071C0008046B8F5403F06D1236809990022DD6961
:1071D0002046A8478046216820460A6890474046D6
:1071E000BDE8F0814FF44030704700000028F0B552
:1071F0000C46114685B01CBF0568002D1A460B4B86
:1072000011D082B104B971B90D9860B10F9E02908E
:107210000B9804960E9F0C9E0A9B00900397019674
:107220002046A8470346184605B0F0BD02000300FB
:1072300010B5002204E050F8224043F82240521CCE
:107240008A42F8D310BDF0B503460E4601274FF031
:10725000030C02241F22002507FB03F000210CEA87
:107260000000001BA94124EA0101CF1964004FEA84
:107270004C0080F0010C521EEED13760F0BD0023AF
:107280002029F0B528BF012322D214680568AC423A
:1072900038BF03231CD301240AE000EB84077F6876
:1072A000C1F1200E07FA0EF73E4342F824602C4647
:1072B00050F824600768651CCE40BC42EDD342F80C
:1072C000246002E042F825306D1C1068A842F9D213
:1072D0001846F0BD2DE9FF4E8246002017469C4619
:1072E000CDE902003A68DCF800300E4600219342F6
:1072F00021BFDAF800B093453568954201D20320EA
:1073000076E0AB4503D3CDF804A0009503E0CDF8BB
:1073100000B00196AB465B454FF0010E38BF9B466F
:10732000002515E05AF82E2056F82E40801841EB23
:107330000509021957F82E0049EB05030021101A20
:1073400063EB01014CF82E000846C9170EF1010E3F
:107350003A687245E6D2009C74451CD35AF82E2038
:1073600056F82E400023002514195D41001969418B
:107370004CF82E000846C9170EF1010EEBE7019CF0
:10738000002354F82E20801859414CF82E0008464E
:10739000C9170EF1010EF345F1D2664686464FF04D
:1073A000010CDDE90201002510E057F82C2056F809
:1073B0002C40002302EA0E02A2186B4180185941AA
:1073C00046F82C00084600210CF1010C3A68624591
:1073D000EBD2346864450AD356F82C2080186941F2
:1073E00046F82C00084600210CF1010CF1E70020C2
:1073F00004B0BDE8F08E2DE9F44F8E4684B0049AB7
:107400000021CDE902111C6815688346AC4238BFE3
:1074100003206CD3DEF80050DBF80090A94506D3BA
:10742000CDF80090CDF804B0A9468C4604E0CDF824
:1074300004E000954FF0FF3C009D98464FF0010A94
:10744000AC4238BF00940022002300250FE05BF817
:107450002A005EF82A40161843EB0107321B67EB3F
:10746000050348F82A201A46DB170AF1010AD1451C
:10747000EDD20098504511D3019E56F82A0020EA1B
:107480000C0412196B4100EA0C00121A8B4148F8E7
:107490002A201A46DB170AF1010AEAE716460127F5
:1074A000DDF810C0DDE902010EE05CF8272058F895
:1074B000274000233240A2186B418018594148F8F8
:1074C0002700084600217F1CDCF80020BA42ECD2DD
:1074D000D8F80040BC4209D358F8272080186941E9
:1074E00048F82700084600217F1CF1E7002005B07E
:1074F000BDE8F08FF0B51368066800240025B3429C
:1075000001D20320F0BD8E464FF0010C064617460F
:1075100000210FE056F82C2000235EF82C00A21862
:107520006B41141A63EB010547F82C402C46ED170C
:107530000CF1010CDEF800006045EBD232686245C8
:107540000AD356F82C0024184D4147F82C402C46FD
:10755000ED170CF1010CF1E70020F0BDF0B5044689
:10756000666815460027721847EBE1736A600226C9
:107570001A46DB1708E054F8260012187B4145F83C
:1075800026201A46DB17761C2068B042F3D210463C
:10759000524222EA0000C00FF0BD2DE9FE4F8AB032
:1075A0000C462168054654F8210000F0EAFA002153
:1075B0000690099122680C98694602F013FE10B1FA
:1075C0000220099047E10121049502940AE0049AFF
:1075D0001468201A081802EB80004268009840F8EE
:1075E0002120491C029800688142F0D300980022B3
:1075F00040F821200499029B0A681868121A06981C
:10760000521C0592C0F120008DF804001AE058F8D1
:107610002620002382185AF826004B417942084060
:107620000021101A63EB010148F826000846C9172B
:10763000761CDAF80020B242E9D20598CDF808A00D
:10764000401E05900598002800F0F78004980599E1
:10765000009C236850F821209DF8040054F8235022
:10766000211F51F8236085400698C6403543079591
:10767000029D2E6854F826000890039405E051F806
:107680002300039C44F823005B1E012BF7D80398CA
:1076900000271F244260029A9DF804509DF8046060
:1076A0001068134653F820201B1F53F8200002FADD
:1076B00005F5069AD04005430398039A006852F8EE
:1076C000203051F82000069903FA06F6C840064318
:1076D0000798294600F049FA00F044FA079A002179
:1076E00000F03BFA8046C4F1200908FA09F126FAB5
:1076F00004F040EA010A5146284600F03BFA00F047
:1077000031FA014628FA04F040EA010BAAEB050021
:1077100020FA09F14246584600F01FFA804605FA61
:1077200004F0311A3246584600F017FA06460BFAB2
:1077300004F00743641ED6D13146284600F01AFAF9
:1077400000F010FA074348EA07070021384600F026
:107750000CFA00F007FA7A1E002100F0FEF9044648
:1077600007982946012700F000FA00F0FBF92246AD
:107770004FF0FF3100F0F1F9039E00240025B846D8
:10778000DDF808A0039024E05AF82800039A02903C
:1077900056F82810E2FB0045A1EB04092C464846A8
:1077A000002500F0E7F946F82890029924186D4169
:1077B000484600F0DFF902998346484600F0D5F9C3
:1077C00000F0D0F95A46394600F0C7F9074608F1EB
:1077D0000108DAF800004045D6D2B046089926469E
:1077E000304600F0C7F940EA0504089831462646BD
:1077F00000F0C0F920EA05052F43A743002000212F
:107800004FF0010C002510E05AF82C2058F82C40BD
:1078100073421A400023A2186B418018594148F85E
:107820002C000846C9170CF1010CDAF8002062455B
:10783000EAD2002000210126FBE60B9C0021204615
:1078400002F007FD00992246012002F011FD0C987C
:10785000694602F0D2FC09980DB0BDE8F08F2DE921
:10786000F045154642688E460168DEF8003002F0A9
:1078700001067642994202D12C688C4201D2012045
:107880003DE0DEF80470002300243740D219634144
:1078900004466A6000214FF00208184618E00746C7
:1078A0005EF8280054F828200023304010185CF8B7
:1078B000042C59413818594145F8280055F828300A
:1078C00008460021DB0743EA5203D0464CF8043C4B
:1078D000226805EB880C08F1010A4245DFD25CF80A
:1078E000043CC00740EA53004CF8040C03E045F8A0
:1078F0002A100AF1010A28685045F8D20020BDE894
:10790000F0852DE9F047904602680B689A4203D152
:10791000D8F80040944201D201204FE044684A6800
:10792000002364004FF00009A21A69EB0303154617
:107930001A46DB17022784468E4618E00CEB8704B4
:1079400054F8040C5CF827105EF82740C00F40EA9A
:107950004100161843EB090A08EB8700321B40F878
:10796000045C6AEB090315461A46DB177F1CDCF83A
:107970000000B842E2D2644654F82010464646F869
:10798000205002EBD173C84600254FF0010C11E0E6
:107990005EF82C0056F82C2000211840101849EBF6
:1079A000010118EB00004D4146F82C00A846ED17E8
:1079B0000CF1010C20686045EAD20020BDE8F08798
:1079C0002DE9F84300240025002918BF002A03D020
:1079D0000B681668B34201D201201DE001278146E1
:1079E0000E46904613E058F82700002156F827204D
:1079F000201869410023841A61EB0305214648469B
:107A000000F0ABF846F827002C46ED177F1CD8F89D
:107A10000000B842E7D20020BDE8F283F8B517466F
:107A200005462A680E461846520007F1080102F082
:107A3000D9FB040009D17E603D60686807F10C0144
:107A4000FFF701FCF8684042F8602046F2BD0B46A3
:107A500080B500925968024600F023F802BD2DE976
:107A6000FC411F4600230546904601932A680E46B6
:107A700001A9404602F0B6FB04000FD10198012194
:107A800002F0E7FB0097019933462A46284600F0AA
:107A900008F8044601A9404602F0AFFB2046BDE8C5
:107AA000F681FEB514461D462A6823681668B3425F
:107AB00001D20320FEBDEB68089F121D01930092C6
:107AC000AA68D7F800C0091D131D3246001DE04703
:107AD000E868231D00902968A8687C680A1D314663
:107AE000001DA0470020FEBDF8B50C4615462968CC
:107AF00022681F460E68B24201D20320F2BDEA6836
:107B00000B1D001D0092A968D7F808C00A1D314658
