:020000040800F2
:1000000000070020E1D2000815860008BDD70008CF
:10001000DD860008DF860008E1860008BD90000844
:10002000000000000000000000000000D17901087D
:10003000E38600080000000061790108F94B01081F
:10004000BD900008BD900008ED860008BD90000836
:10005000BD900008BD900008E5860008BD9000082E
:10006000BD900008BD900008BD90000819870008E9
:10007000238700082D87000837870008418700087C
:100080004B870008558700085F87000869870008CC
:1000900075870008818700088D8700089987000808
:1000A000A5870008B1870008BD870008BD9000083B
:1000B000BD900008C9870008D9870008E9870008B3
:1000C000BD900008F987000809880008BD90000865
:1000D000BD900008BD900008BD900008BD900008CC
:1000E000BD900008BD900008BD900008BD900008BC
:1000F000BD9000089D88000819880008BD90000880
:10010000BD900008BD900008BD900008BD9000089B
:10011000BD900008BD900008BD900008BD9000088B
:10012000BD900008BD900008BD900008BD9000087B
:10013000BD90000851880008BD900008BD900008DF
:10014000BD900008BD90000829880008BD900008F7
:10015000BD900008BD900008BD900008BD9000084B
:1001600010B5054C237833B9044B13B10448AFF3F1
:1001700000800123237010BDC00E0020000000008D
:10018000EC57030808B5034B1BB103490348AFF311
:10019000008008BD00000000C40E0020EC570308DA
:1001A00010B5040010461A4618BF00290AD00028CE
:1001B00018BF002A06D021610146204603F019FD30
:1001C000014B636110BD00BFFEAF1C5E10B50400A3
:1001D00007D003F052FD20461821BDE8104034F04E
:1001E0001EBC10BDFEB504000D4616461F4618BFC6
:1001F000002D0DD0002E18BF002F09D0A0692A684D
:100200000168886801688A4224BF3B688B4201D23A
:100210000120FEBD3A466FF0010103F0BDF9A0696F
:100220002246D0F81CC0206A0290E1690096284658
:100230000191DCF80430DCF800403946A047FEBDEF
:10024000002810B518BF002901D1012010BD0024DD
:1002500044618161C2610362002010BD0246906961
:10026000D36900684168006803F0F6BB02469069F4
:10027000D3690068C168806803F0EEBBC16903F010
:1002800072BC70B50546E8690E46142203F0C1FC45
:10029000040049D1316800200861AA691068036828
:1002A000E8691A6805F066FD040038D1A86901689C
:1002B00030680A6800F10801E869126805F05AFD23
:1002C000040028D1A86931684268D369032B30D073
:1002D0000068091D0268E869126805F04BFD04001A
:1002E00013D1A86931684268D369022B1ED1006816
:1002F0000C310268E869126805F03CFD040013D077
:100300003068011DE86905F040FD306800F1080122
:10031000E86905F03AFD3168E86905F036FDE869FD
:100320001422314603F094FC204670BD0020C860C2
:10033000FAE700224A60CA60F6E770B50C4600256D
:10034000002C06461ABF20680028012523D0B16979
:100350004A68D369022B04D100F10C01F06905F061
:1003600014FDB0694168C869032804D02168F069A8
:10037000091D05F00AFD206800F10801F06905F08B
:1003800004FD2168F06905F000FDF06914222146A2
:1003900003F05EFC2560284670BD0000F8B50F46EE
:1003A00000251646002F044618BF002E0BD03968D2
:1003B00000291CBFB868002805D03268002A1CBF7D
:1003C000B068002801D1012519E03B69204633615E
:1003D00005F016FD796800291FBF7268002A2046C3
:1003E00005F00EFDB268B968204605F009FDF96810
:1003F00000291FBFF268002A204605F001FD2846AB
:10040000F2BD70B50E46B169154604460A68012072
:10041000D3693BB1022B01D007D370BD4968CB69CA
:10042000032B14D0126869680CE012682968204612
:1004300003F0E4FAB1694A68D369022B07D108686E
:10044000E96802682046BDE8704003F0D7BA70BD85
:1004500070B506460D462869002440F00100286169
:10046000B1690868C2691AB1022A08D018D32DE010
:100470002868002105F0B5FC686801210BE0496897
:100480002868CA69032A08BF012104D0002105F0A9
:10049000A8FC0121686805F0A4FC0021A86812E00E
:1004A0002868002105F09DFC6868012105F099FC91
:1004B000A868012105F095FCB0694168C869022867
:1004C00005D10021E86805F08CFC00E001242046FD
:1004D00070BD2DE9FC4B16460025002E80468B464C
:1004E0001C461CBF0B9F002F05D0396800291CBF7C
:1004F000B868002803D101252846BDE8F68B0A9884
:1005000038614A683168404603F045FB3A685060FC
:10051000786838B156F82B104268404603F03BFB30
:1005200079684860B868002C426840460CBF0121D9
:10053000216803F030FBB9684860F86838B156F8B4
:100540003B104268404603F026FBF96848604FF0D4
:100550000209361F15E0404603F01DFBB96841F85B
:100560002900F86858B150F8292009EB4B0056F8DB
:100570002010404603F00FFBF96841F8290009F10B
:100580000109CB45B8D3386856F8291050F829200E
:10059000404603F000FB396841F82900786858B1FB
:1005A00050F829200BEB090056F82010404603F0C4
:1005B000F2FA796841F82900B868002C50F829202F
:1005C0000EBF0021201F50F82910C4E770B5044663
:1005D000A0690D4600264168C869032818D8DFE8DD
:1005E00000F00707020C226AE868214603F04DFA82
:1005F000226A6868214603F048FA226A2868214680
:1006000003F043FA226AA868214603F03EFA00E0AC
:100610000126286940F004002861304670BD0000C2
:1006200038B50446A0690D464168C86903281FD83B
:10063000DFE800F009090210236AE269E868214650
:1006400003F02BFAA8B9236AE2696868214603F02F
:1006500024FA70B9236AE2692868214603F01DFA7A
:1006600038B9236AE269A868214603F016FA00E067
:100670000120296921F00401296132BDF8B5044641
:1006800000260D46002C18BF002D5ED0287C0021CE
:1006900000F0010003F087FA012856D0A868002175
:1006A00005F04AFC012850D0A06901682868096853
:1006B00005F001FC002848D5A0694168CA69032AF1
:1006C00006D000680168686805F0F5FB00283CD595
:1006D000A1690968086900281CBF4869002835D04D
:1006E000C86918B1022831D032D32EE06069236A7C
:1006F00022460168286803F015FAA069616900685C
:100700000B6802680169184602F002FE6069216AFE
:100710002346026800912968104603F0E0F9A069B9
:100720006269016810680A684969034602F0F0FDD1
:100730006069236A22464168686803F0F3F96069DA
:100740004168006805F0B7FB00B104263046F2BDF1
:100750006069236A22460168286803F0E3F960694A
:10076000236A22464168686803F0DCF96069226AFE
:10077000234601680092A0690A460768386903F0B9
:10078000AEF9A26961691768086849683A68034662
:1007900002F0BEFD6069216A234640680091296825
:1007A000024603F09CF96069216A23464068009183
:1007B0002968024603F093F96069216A234640687C
:1007C0000091A76902463F68796903F088F9A16939
:1007D00060690A68A96840681268034602F098FDDB
:1007E000ADE70000F0B50F4685B000210646039145
:1007F0000491B06903A901250368F0691C682268A7
:1008000005F0B8FA040040F0C680B0690168F069EC
:100810000A6804A9126805F0ADFA040040F0B78038
:10082000387C002100F0040003F0BDF920B93946FE
:1008300030460025FFF7CAFEDFF87821D2E9003400
:100840005649CDE900340878554B00280EBF0021E9
:10085000042004211A585DF80100524982181160E1
:100860001068012191605A68009950401A6841400F
:100870004D4880EA010C01994C484A404240B06919
:1008800094444B4A036892EA0C0F049A186814BF08
:100890006FF002016FF0010102F07EFEB069324696
:1008A000C469306A0290F16903980191049900903B
:1008B0006368B8682468A0470446B0694168C8699D
:1008C00003284AD8DFE800F0021F2940336A049960
:1008D0000398324603F026F9306A3A68049900908A
:1008E0003346104603F0FBF8306A049A3346009012
:1008F0000398114603F0F3F8316A786833460091A3
:100900000246049926E0316A38683346009103991B
:10091000024603F0E4F8786817E0316A3868334635
:1009200000910399024603F0DAF8316A7868334699
:1009300000910399024603F0D2F8306A33460090E2
:10094000FA687968386805E03868316A33460246E3
:100950000091039903F0C3F800E00124316AB868FC
:10096000334600910399024603F0B9F8002D08BF01
:10097000002C04D139463046FFF752FE0446386950
:1009800004A940F002003861F06905F0FEF9F06951
:1009900003A905F0FAF9204605B0F0BDDC0E0020F1
:1009A000DC6403082C7E82AD04850012FC68017AA9
:1009B000A8E29B8E781F00082DE9F04788B0064614
:1009C000B0691D4689469246016A006809EB0A0231
:1009D00012F8017C0368F069D1F808801A6806A94A
:1009E000FF0905F0C7F9040040F04181B0690168D2
:1009F000F0690A6807A9126805F0BCF9040040F024
:100A00003281B0690168F0690A6803A9126805F0CB
:100A1000B1F9040040F02381B0690168F0690A6807
:100A200005A9126805F0A6F9040040F01481B06928
:100A30000168F0690A6804A9126805F09BF90400CE
:100A40001AD1039A5146484605F092FB0398039940
:100A5000006851F8202022F0004241F82020B069BF
:100A600001680398096805F026FA002805D4F069A2
:100A700004A9042405F089F9E9E06868002105F07B
:100A8000B0F96A680399012005F0BAF9326A03984F
:100A9000314602F0FAFF336A05990398324603F0B3
:100AA00041F8B0690168C0680A68011D04981268BD
:100AB00005F076F9B069079B016805980A68049902
:100AC00002F0B7FC306A069A33460090B0690168BC
:100AD0000598496903F003F8B069069B01680A6844
:100AE0000499184602F014FC336A039906983246BA
:100AF00003F018F8306A039A0699009033461046BE
:100B000002F0EDFF306A059A03990090079833468A
:100B100002F0E5FF0399336A3246084603F002F813
:100B2000306A039A069900903346104602F0D7FFC8
:100B3000306A039A079900903346104602F0CFFFBF
:100B4000B069049A6FF004010368186802F024FD8C
:100B5000049A0321104602F0B0FBB069C469306A00
:100B60000290F169039801912A68049900926368E0
:100B700024683246A0470446F06904A905F005F947
:100B8000002C64D1316A28683346009105990246E9
:100B900002F0A5FF336A03992868324602F0C2FFCB
:100BA000306A039A334600900698114602F097FF88
:100BB0000799039805F07FF998B1B069059A0799EC
:100BC0000368186802F0B4FC0599039805F073F9FE
:100BD000B8B9316A2868334600910246414602F0AE
:100BE0007EFF336AF2692868314602F056FF04003E
:100BF0002DD1012F07D12868002105F09DF901288A
:100C000001D1042423E0B0692968026808791268D8
:100C100000F00100784002F0F1FE2869012140F067
:100C200002002861A86805F0DCF8B0694168C8696D
:100C300002280CD1306A33460090EA686968286857
:100C400002F04DFF326AE868314602F01EFFF0699B
:100C500005A905F09AF8F06903A905F096F8F0697E
:100C600007A905F092F8F06906A905F08EF820466C
:100C700008B0BDE8F0872DE9F0431F4605468846D9
:100C8000914687B008EB090010F8016CA86905A926
:100C9000F6090368E8691C68226805F06BF804002F
:100CA00040F01381A8690168E8690A6806A912681A
:100CB00005F060F8040040F00481A8690168E86963
:100CC0000A6803A9126805F055F8040040F0F580A1
:100CD000A8690168E8690A6804A9126805F04AF879
:100CE000040040F0E6807A68A9F10101404605F071
:100CF0003FFAA86901687868096805F0DCF80028FF
:100D000040F1BF800398002105F06BF8039A7968E1
:100D1000012005F075F82A6A0398294602F0B5FE0D
:100D20002B6A049903982A4602F0FCFEA869016820
:100D3000C0680A68011D3868126805F031F8A869B2
:100D4000069B016804980A68396802F072FB286AF9
:100D5000059A2B460090A86901680498496902F039
:100D6000BEFEA869059B01680A683968184602F04A
:100D700060FB2B6A039906982A4602F0D3FE03997A
:100D80002B6A2A46084602F0CDFE286A039A069985
:100D900000902B46104602F0A2FE2B6A049905989B
:100DA0002A4602F0BFFE286A049A2B460090059856
:100DB000114602F094FE286A039A049900902B468B
:100DC000104602F08CFEA869049A6FF002010368D5
:100DD000186802F0E1FB049A0221104602F06DFA55
:100DE000A869C469286A0290E969039801913A6880
:100DF00004990092636824682A46A047040054D1ED
:100E0000286A039A0599009006982B4602F067FE1F
:100E10002B6A049906982A4602F084FE286A039AEF
:100E2000049900902B46104602F059FE296A386852
:100E30002B4600910399024602F051FE2B6A03995A
:100E400038682A4602F06EFE286A039A2B46009004
:100E50000598114602F043FE0699039805F02BF819
:100E600078B92B6AEA693868294602F016FE040050
:100E70001BD1012E07D13868002105F05DF801284B
:100E800001D1042411E0A869396802680879126860
:100E900000F00100704002F0B1FDB868012104F0DB
:100EA000A0FF386940F002003861E86904A904F045
:100EB0006CFFE86903A904F068FFE86906A904F07B
:100EC00064FFE86905A904F060FF204607B0BDE8AB
:100ED000F08370B50646B0690C461546016808688F
:100EE000026850F8220002F06AFEB16962680B687D
:100EF0004FF0FF319E69761E4E4032406260C0F175
:100F00002002D14022680126401E54F8223086403B
:100F10000B4044F82230226854F82230334344F81E
:100F200022302868026850F82230194040F8221018
:100F300070BD2DE9F44F05460E461F4684B0686922
:100F4000D0F80080D0F80490D0F808A0C0680E9CBB
:100F50002A4601907968D7F800B00391B8684146F5
:100F600002902B6AB06802F0DDFD286A2B464A46E3
:100F70000090B068414602F0B2FD286A04992B4601
:100F8000009009684246404602F0A9FD286A04998B
:100F90002B46009049684A46484602F0A0FDA869E1
:100FA0004346016840460A68316802F042FAA8697F
:100FB0004B46016848460A68716802F03AFAECB19B
:100FC0000021404604F0B8FF20603A68494604F02A
:100FD0006DFF83467A682068494604F067FF0390F6
:100FE000BA682068494604F061FF02900021484633
:100FF00004F0A2FF216841EA40012160286A029AB8
:101000002B460090B068414602F069FD2B6A2A46E3
:101010005146404602F086FD286A019A2B46009010
:101020005146404602F05BFD286A2B46524600902E
:101030003068514602F053FDA869434601685046A6
:101040000A68514602F064F92B6A2A465946484616
:1010500002F068FDA8695B46016858460A68414687
:1010600002F0E7F9A8695B46016858460A680199E9
:1010700002F0DFF9A8695346016850460A685946EC
:1010800002F0D7F9286A2B4652460090514648464E
:1010900002F025FD286A019A2B46009071681046DF
:1010A00002F01DFDA869039B016850460A6801997A
:1010B00005B0BDE8F04F02F0BCB92DE9F84F044689
:1010C00060691E46D0F80090D0F804A0D0F80880DF
:1010D000D0F80CB0236A0D46A86817462246494648
:1010E00002F020FD206A23465246009038684946A7
:1010F00002F0F5FC206A23464A460090A86849465B
:1011000002F0EDFC206A23464A4600907868494682
:1011100002F0E5FC236AB8682246414602F002FD6F
:10112000206A23465A4600902868414602F0D7FCC0
:10113000206A234642460090B868414602F0CFFC40
:10114000206A2346424600906868414602F0C7FC88
:10115000A0695346016850460A68594602F069F989
:10116000A0694B46016848460A68414602F061F9A9
:10117000206A2346514600903268B86802F0AFFCFE
:10118000206A23460090B2683168A86802F0A7FC84
:10119000236A31682246504602F0C4FC206A234686
:1011A000009072683168504602F099FC206A23462C
:1011B000524600903168584602F091FC236A31682B
:1011C0002246484602F0AEFCA16930680A687168A0
:1011D0000346126802F02DF9206A716823460090D8
:1011E0000A46404602F07BFCA06942460168504630
:1011F000096802F0A4FBA16930680A684146034609
:10120000126802F016F9A0695346016850460A6850
:10121000316802F00EF9206A23464A460090514692
:10122000484602F05CFCA0697168026848460B46BB
:10123000126801B0BDE8F04F02F0FBB82DE9FE4F97
:1012400004460D4660691646984681680768D0F8DE
:10125000049001913168D0F80CA03A46404604F061
:1012600025FE716883463A46404604F01FFE029010
:10127000B1683A46404604F019FE0646236AA8685B
:101280002246394602F04EFCA0694B4601682868A8
:101290000A68394602F03CF8A0693B4601682868B4
:1012A0000A68394602F0C5F8206A23463A4600909B
:1012B0004946384602F013FCA0694A4601683846A0
:1012C000096802F0EAFAA0693B46016838460A68F4
:1012D000494602F01DF8236A68682246494602F032
:1012E00021FC206A019A234600902868494602F0B2
:1012F000F6FB236A22465146384602F013FCA069E9
:101300005346016850460A68019902F092F8A069B4
:101310005B46016850460A68019902F08AF8206A23
:10132000234632460090A968686802F0D8FB236A19
:1013300022464946484602F0F5FBA069534601683B
:1013400001980A68594602F074F8206A23463A4622
:1013500000905146384602F0C2FBA069029B01682A
:1013600038460A68494603B0BDE8F04F02F061B85C
:101370002DE9FE4F044660690768D0F80480D0F874
:101380000890C0680D4616460190316802983A46AA
:1013900004F08CFD8246716802983A4604F086FD9E
:1013A0008346B16802983A4604F080FD0646A0697B
:1013B0003B46016868680A68A96801F0A9FF236ACA
:1013C00028682246414602F0ADFB236A686822463F
:1013D000494602F0A7FBA0695346016828680A68DD
:1013E000494601F095FF236A0199A868224602F058
:1013F00099FB236A22465146504602F093FBA069AE
:101400005346016850460A68414602F012F8A06946
:101410005A4601684046096802F091FAA0694346BD
:10142000016840460A68594601F072FF236A224665
:101430005946484602F076FB236A2246394638462A
:1014400002F070FBA0693B46016838460A684946CD
:1014500001F0EFFFA0693346016838460A68019938
:1014600001F0E7FF0199236A2246084602F05AFB81
:10147000206A019A23460090A069114605682869F0
:1014800002F02DFBA0693B46016840460A680199BD
:1014900001F03EFFA069434601680A68594650467C
:1014A00001F0C7FFA069424601684046096802F0A2
:1014B00046FA236A22464946384602F033FBA069C1
:1014C000019A01684046096802F039FAA06953465A
:1014D000016848460A68019901F0ABFFA0694346DC
:1014E000016840460A68514601F0A3FFA0694A46D8
:1014F00001685846096802F022FAA0694A46016864
:101500004846096802F01BFAA0694A460168484645
:10151000096802F014FA206A23463A4600904146D0
:10152000384602F0DCFAA0695B46016838460A6872
:10153000494603B0BDE8F04F01F07BBF2DE9FC4701
:10154000044665690A98D5F80080D5F80490D5F866
:1015500008A008B1002505601646226A0F461D4600
:101560000092316838682346424602F0B8FAA06912
:101570004B46016838680A68796801F0C9FEA069BD
:101580002B68016830680A68716801F0C1FE206A42
:10159000234600906A687168786802F0A0FA206AB1
:1015A0002346524600906968404602F098FA206A45
:1015B000234652460090A06951460668706902F0C1
:1015C0008EFA206A23464A4600902968484602F06F
:1015D00086FAA0694B46016848460A68414601F010
:1015E00028FFA0694B46016848460A68696801F00F
:1015F00020FF206A234642460090A06941460668C3
:10160000306902F06CFAA16968680A6841460346CD
:10161000126801F00EFF236A2968B868224602F0BA
:1016200081FAA0694346016828680A68514601F0BA
:1016300000FFA0695346016828680A68514601F016
:1016400067FE206A23464A4600904946404602F01B
:1016500046FA206A2346494600902A68B86802F094
:101660003EFA206A23464A4600906968504602F0D6
:1016700036FA206A2346494600906A68B86802F044
:101680002EFA206A234651460090AA68404602F08E
:1016900026FABDE8F3872DE9FC4704466069D0F8D7
:1016A00000A0D0F80480D0F80890206A0D461746B4
:1016B0000090B968A8681E462346524602F00FFA09
:1016C000206A23460090B2683968286802F007FA59
:1016D000A0694346016828680A68696801F018FE35
:1016E000A0693368016838680A68796801F010FEFB
:1016F000206A2346009072687968686802F0EFF902
:10170000206A23464A4600907168B06802F0E7F903
:10171000206A23464A460090A069494605686869E0
:1017200002F0DDF9206A23464246009031684046C7
:1017300002F0D5F9A0694346016840460A68B168DD
:1017400001F077FEA0694346016840460A68716867
:1017500001F06FFE206AB16823460090A0690A4636
:101760000568286902F0BBF9A16970680A68B16868
:101770000346126801F05DFE236A31682246504636
:1017800002F0D0F9A069B368016830680A68494678
:1017900001F04FFEA0694B46016830680A6849466F
:1017A00001F0B6FD206A234642460090B0684146EB
:1017B00002F095F9206A234641460090326850466F
:1017C00002F08DF9206A234642460090716848462F
:1017D00002F085F9206A234641460090726850461F
:1017E00002F07DF9216AB06823460091024649461D
:1017F00002F075F9BDE8F3872DE9F84F04466069FA
:101800000D461746066839689B46D0F804A0324654
:10181000584604F04BFB796880463246584604F03F
:1018200045FBB96881463246584604F03FFB0746FF
:10183000A0693346016828680A68696801F068FD94
:10184000236A28682246514602F06CF9206A234632
:1018500042460090A0695146D0F800E0DEF8100042
:1018600002F03DF9236A22463146304602F05AF929
:10187000A0693346016830460A68514601F0D9FD37
:10188000236A68682246494602F04CF9A06953462B
:10189000016840460A68494601F03AFDA06943469E
:1018A000016840460A68494601F0C3FDA069334615
:1018B000016830460A68494601F0BBFD236AA86802
:1018C0002246394602F02EF9A0693A4601683846A8
:1018D000096802F034F8206A23464A4600904146DF
:1018E000504602F0FCF8A0693B46016850460A6881
:1018F000394601F09EFD206A234642460090394653
:10190000304602F0ECF8206A23463A460090394609
:10191000504602F0E4F8BDE8F18F2DE9F8430D469A
:1019200004466169089817461E46D1F80080D1F830
:10193000049008B100210160A0692968434600684D
:101940000268686801F075FDA0694B460168786817
:101950000A68396801F0DCFC206A234642460090A0
:101960004946404602F0BBF8A0694B4601686868EA
:101970000A68296801F0CCFCA069336801687868BE
:101980000A68396801F055FD206A23464A460090EE
:101990003168484602F0A3F8A069336801684846F8
:1019A0000A68414601F045FDA0694B46016848467A
:1019B0000A68414601F0ACFCA06972680168F868E9
:1019C000096801F0BCFF206A716823460090A8688E
:1019D0000A4602F084F8A069F2680168E8680968BC
:1019E00001F0ADFFA06943460168F0680A687168BC
:1019F00001F08EFCA169F0680A68716803461268FC
:101A000001F017FD206A234649460090B26830680D
:101A100002F065F8206A3168234600900A46404685
:101A200002F05DF8206A234600907268F16848462B
:101A300002F055F8206AF168234600900A464046B5
:101A400002F04DF8BDE8F1832DE9F84304466069E2
:101A500017460D46D0F80490D0F80080A069296898
:101A60001E46006843460268686801F0E2FCA0690F
:101A70004B46016878680A68396801F049FC206AB9
:101A80002346424600904946404602F028F8A069A5
:101A90004B46016868680A68296801F039FCA0694A
:101AA0003368016878680A68396801F0C2FC206A06
:101AB00023464A4600903168484602F010F8A06973
:101AC0003368016848460A68414601F0B2FCA069E3
:101AD0004B46016848460A68414601F019FCA06976
:101AE00072680168F868096801F029FF206A716866
:101AF00023460090A8680A4601F0F1FFA069B26889
:101B00000168B868096801F01AFF206A234600904E
:101B1000F268B168E86801F0E2FFA0694346016835
:101B2000F0680A68716801F0F3FBA169F0680A685F
:101B300071680346126801F07CFC206A234649461E
:101B40000090B268306801F0CAFF206A316823460D
:101B500000900A46404601F0C2FF206A23460090EA
:101B60007268F168484601F0BAFF206AF1682346BE
:101B700000900A46404601F0B2FFBDE8F1832DE92E
:101B8000FE4F0446984660690D461646436807684E
:101B90004046019331683A4604F088F971688146FD
:101BA0003A46404604F082F9B16882463A464046D9
:101BB00004F07CF9F16883463A46404604F076F931
:101BC0000646236A28682246394601F0ABFF236A9D
:101BD00068682246314601F0A5FF236AA8682246BC
:101BE000594601F09FFFA0695A46016858460968A6
:101BF00001F0A5FEA0694B46016828680A6869687B
:101C000001F086FB236A22464946484601F08AFFD6
:101C1000A0694B46016848460A68394601F009FC4C
:101C2000A069524639460368186801F081FCA06932
:101C30003B46016848460A68314601F0FAFBA06954
:101C4000019B016850460A68314601F061FBA069BA
:101C50003346016850460A68314601F0EAFBA06944
:101C60005346016801980A68594601F0E2FB206A70
:101C70000199234600905A46504601F030FF206AF1
:101C800023464A4600905146384601F028FF206A14
:101C90002346524600900198314601F020FF206A09
:101CA0002346324600903146384601F018FFBDE821
:101CB000F78F2DE9F8430446606916460D46D0F8C3
:101CC0000490D0F80080A0691F46B96800684346B8
:101CD0000268386801F01CFBA0694B46016838684F
:101CE0000A68B96801F0A5FBA0693B680168306823
:101CF0000A68B16801F00CFBA069BB680168306834
:101D00000A68B16801F095FB216AB8682346009122
:101D10000246414601F0E3FE236A22464146404620
:101D200001F000FF216A38682346009102464946C7
:101D300001F0D5FE236A22464946484601F0F2FEEC
:101D4000A06933680168B8680A68396801F0E0FA88
:101D5000A169B8680A6839680346126801F069FB2E
:101D60003068236A2246014601F0DCFEB868236A27
:101D70002246014601F0D6FE206A23460090B26852
:101D8000B968286801F0ABFE206A234649460090F6
:101D90003A68404601F0A3FEA0694B460168404600
:101DA0000A68494601F045FB206A23460090A06975
:101DB000BA6801684846096901F091FEA069434686
:101DC000016840460A68B96801F0A2FA206A234611
:101DD00049460090BA68404601F081FEBDE8F183B3
:101DE000FEB5064600200C461746019022691D46A6
:101DF00000212A61207C00F0010001F0D4FE0128BE
:101E000007D1387C002100F0010001F0CCFE012850
:101E100036D0207C002100F0010001F0C4FE012832
:101E200002D12A46394609E0387C002100F0010041
:101E300001F0B9FE012804D12A462146FEF7AEFA88
:101E4000F7BD3A4601A80090B7692B462146D7F85E
:101E500004C03046DCF80470B8470198C10713D5B8
:101E6000C0F3400060B13046B66901232A46776866
:101E70002146D7F800C0E04720694008400002E052
:101E8000286940F001002861F7BDF8B506460F4605
:101E900038691D4614462861387C002100F0010095
:101EA00001F081FE012807D1207C002100F0010013
:101EB00001F079FE01283BD0387C002100F00100C0
:101EC00001F071FE012802D12A46214609E0207C5A
:101ED000002100F0010001F066FE012805D12A462C
:101EE0003946BDE8F840FEF759BA3946B7692B467E
:101EF0002246D7F804C03046DCF80870B847A86816
:101F0000002104F019F8012816D12868002104F0F6
:101F100013F801280CD13046B66901232A467768A8
:101F20002146D7F800C0E04720694008400002E0A1
:101F3000286940F001002861F1BDF8B505460E465C
:101F40003069144600212061307C00F0010001F06E
:101F50002AFE012803D1206940F001000AE028464A
:101F6000AD69314601236E6822463768B84720695B
:101F7000400840002061F1BD04B001010017014597
:101F80002DE9F84F0C468EB00025002C02950095E7
:101F900001951CBF0492002A4FF4C0283DD0002BAD
:101FA00003931CBF189F002F37D0DDF864A0BAF14F
:101FB000000F1CBFDDF86890B9F1000F2DD00500AF
:101FC0002BD068696549884227D12869C169606A50
:101FD000014208BFDFF8888121D094F8280001076A
:101FE00058BFDFF880811AD52168086803F0BAFF6E
:101FF000C61D2068F608806803F0B4FF6168C01D44
:10200000C969032901D1B24507D1032912BFBAEB2F
:10201000460F0399B1EBD00F02D0DFF84C8199E065
:1020200020682B692A46C16905A8022921464F4C20
:1020300007BFDFF83CB1DFF83CA1DFF83CB1DFF8C7
:102040003CA1FEF7FDF805A8FEF708F908B1A04687
:1020500080E001A905A8FEF714F908B1A04676E0D2
:10206000694605A8FEF70DF908B1A0466BE00B988C
:10207000016828468A6802A9126803F07BFE08B14D
:10208000A0465CE0029A03990498D847009831462C
:1020900002683846D8470B984168C869032804D0BD
:1020A000009831464268B819D847009801218068E5
:1020B00003F097FE0098016941F0020101610B985D
:1020C0000168CA69022A04D1009A029905A8FEF79C
:1020D00000FF0B9F019B009ABF69029905A8D7F8E2
:1020E00000B0D84748B1042808BFDFF8948022D058
:1020F000012807D1DFF870801DE0019905A8FEF7DF
:1021000071FB08B1A04616E001981B9C324600689E
:102110004946D04704B126600B984168C869032836
:1021200009D00198324609EB06014068D04714B146
:1021300020683618266002A9284603F026FE694664
:1021400005A8FEF7FAF801A905A8FEF7F6F805A814
:10215000FEF794F840460FB0BDE8F08FFEAF1C5E6E
:102160000E0006000F000600030006000C0006002B
:10217000716100080962000875600008FB600008D2
:10218000080006002DE9F04F0C468DB00021002C10
:10219000009102919B461CBF0392002A4FF4C02A73
:1021A0000BD0169900291CBF189D002D05D0019059
:1021B00018B14169564A914202D0DFF858A1A2E015
:1021C0000169C869616A084208BFDFF84CA1F6D00E
:1021D00094F82800C10758BFDFF840A1EFD5206868
:1021E0008068016850F8210001F0E9FC8046206811
:1021F000816800680A68521E08EB421903F0B2FEBB
:10220000C61D179809F10707F608FF0800B1076017
:10221000199808B1710001605846C000DFF800B19C
:10222000484538BFDA466ED3019803692146024615
:1022300004A8FEF705F804A83A4CFEF70FF808B119
:10224000A24660E00A98016801988A6869461268A7
:1022500003F090FD08B1A24652E002A904A8FEF7DF
:1022600010F808B1A24647E0009A03983946C8F131
:10227000200803F0FFFE009A08F00701104601F065
:102280001CF8009A0221104601F086F938B90A9824
:1022900001680098896803F00EFE012801DBDA4628
:1022A00026E0009A4FF0FF31104601F075F91699BB
:1022B00000983A4603F021FF0A9B029A00991B6995
:1022C00004A8D3F800C0E04720B9029904A8FEF79B
:1022D00089FA08B1A2460BE0029832462946006806
:1022E00003F00BFF02983246A919406803F005FF7E
:1022F00002A904A8FEF721F80198694603F045FDFC
:1023000004A8FDF7BBFF50460DB0BDE8F08F00BF3D
:10231000FEAF1C5E030006000E0006000F00060064
:102320000B0006000C0006002DE9F04F1C468FB094
:1023300000230E460593019302934FF4C0280393A4
:10234000BEB3110000921CBF1899002931D01A9910
:1023500000291CBFDDF87090B9F1000F29D00500ED
:1023600027D068699249884223D12869C169706A77
:10237000014208BFDFF83C821DD096F82800C10753
:1023800058BFDFF8348216D53068DDF864A0806865
:10239000016850F8210001F012FC3168834688681A
:1023A0000268511E0BEB4113DF1DFF080493BA4571
:1023B00002D0DFF80882F6E02046C0001D9C98425B
:1023C00004D204B12760DFF8F881ECE005A92846C3
:1023D000DFF8F0A103F0CEFC08B1D046E3E03068AE
:1023E000816828460A6801A903F0C4FC08B1D046F8
:1023F000D5E03068816828460A6802A903F0BAFC73
:1024000008B1D046C7E0029A00983946CBF1200BBC
:1024100003F030FE029A0BF00701DFF8A4B110467A
:1024200000F04BFF3068019A6FF00101806801F005
:10243000B3F80199029803F03EFD0128A8BFD846E1
:1024400010DA029A0121104601F0A6F82B692A46FB
:10245000314606A8FDF7F4FE03A906A8FDF711FF13
:1024600008B1D04693E006A8FDF7F8FE08B1D046C3
:1024700089E00C9B039A02991E6906A8D6F800C051
:10248000E047B0B9039906A8FEF7ACF988B906A8E9
:10249000FDF7F4FE06A8FDF7E9FE0E9A029806A9DC
:1024A00001F0F3FA019B059A029906A8FDF79AFE3E
:1024B00008B1D04664E00C98029B016803988968D3
:1024C00000680A4600F0B5FF0298002103F034FDD1
:1024D00001284AD002981B9E3A46494603F00DFE59
:1024E000019A1898394603F0C5FD0E9A029806A97C
:1024F00001F0CBFA0E98029A0199009006AB1046B3
:1025000001F0EDFA0498019AB0EBC60F0BD21A98BD
:10251000394603F0AFFD019A0499C1EBC70110469B
:1025200000F0CBFE03E01A98314603F0A3FD0C98AF
:10253000019B0168896818460A4600F07AFF0C98EA
:10254000019B01688A680299184600F0E1FE0E9826
:10255000019A06AB00900598114601F0C0FA019867
:10256000002103F0E9FC012801D1D84608E00198D8
:102570003A4609EB070103F0C0FD0CB17F0027606C
:1025800006A8FDF77BFE03A906A8FDF7D6FE02A963
:10259000284603F0FAFB01A9284603F0F6FB05A93B
:1025A000284603F0F2FB40460FB0BDE8F08F00BFB5
:1025B000FEAF1C5E0E0006000F00060003000600C2
:1025C0000B0006000C0006002DE9F84F92B0002425
:1025D0000D4605940494089407940694A5B3160038
:1025E0001FBF1C9F002FDDF87880B8F1000F2BD0A3
:1025F000040029D06069A449884225D12069C169B5
:10260000686A014208BFA14E1FD095F82800C10793
:1026100058BF9F4E7AD500932968886803F0A2FCC2
:10262000814609F107004FEAD00A2868006803F0E4
:1026300099FCC01D4FEAD00B0098B0EB4B0F04BFC4
:102640001F98B0EB4A0F01D0924E5FE023692246FB
:10265000294609A8FDF7F4FD0F988F4D0168204623
:102660008A6805A9126803F085FB08B12E464DE083
:102670000F98016820468A6804A9126803F07AFB63
:1026800008B12E463EE00F98016820468A6808A9E6
:10269000126803F06FFB002840F08880059A5146CD
:1026A00008EB0A0003F0E6FC0598002103F044FC67
:1026B000012807D00F9801680598896803F0FBFB93
:1026C000002801D4754E15E009A8FDF7CFFD08B12B
:1026D0002E460FE0119A059809A901F0D6F9049B3E
:1026E000089A059909A8FDF77DFD98B12E4609A81D
:1026F000FDF7C4FD08A9204603F047FB04A92046C6
:1027000003F043FB05A9204603F03FFB304613B01E
:10271000BDE8F08F1D99049AB9EBC10F0BD2514659
:10272000384603F0A7FC049AC9EBCA09494610468B
:1027300000F0C3FD02E0384603F09CFC0F98049BB8
:102740000168896818460A4600F073FE1198049AD9
:102750000899009009AB104601F0C1F9059A51465D
:10276000404603F087FC0598002103F0E5FB0128B3
:1027700007D00F9801680598896803F09CFB002832
:1027800001D4464EB3E71198059A0899009009AB19
:10279000104601F0A4F909A8FDF770FD08A920462C
:1027A00003F0F3FA09A8FDF759FD08B12E46A5E795
:1027B00007A909A8FDF765FD08B12E465FE006A947
:1027C00009A8FDF75EFD08B12E4654E0069859466B
:1027D0000268304603F04EFC06985946426806EB04
:1027E0000B0003F047FC06980121806803F0F9FA1A
:1027F0000698016941F0020101610F9E0799049B4F
:10280000069A00917769059909A8D7F800C0E047B2
:1028100018B1042810D1224E29E007980021214E3A
:10282000007C00F0010001F0BEF901281FD00799DB
:1028300009A8FDF7D7FF08B12E4618E00F98049BB2
:1028400001680798896800680A4600F0F2FD209840
:10285000154A136803900498144902960191009355
:102860000368021D5146404603F00CFA064606A9CD
:1028700009A8FDF762FD07A909A8FDF75EFD09A8F3
:10288000FDF7FCFC3AE700BFFEAF1C5E0E00060041
:102890000F000600030006000C00060009000600F9
:1028A00008000600936E06004869030826C7060064
:1028B0002DE9F04F8FB000240F4604944FF4C02947
:1028C0000394029497B1110005921CBFDDF860805B
:1028D000B8F1000F0AD01A99002918BF5FEA000B5F
:1028E00004D0DBF814007949884202D0DFF8E09187
:1028F000E7E0DBF81000C169786A014208BFDFF841
:10290000D491F5D097F82800810758BFDFF8C89117
:10291000EED5009338680068016850F8210001F096
:102920004EF939680546199C0868DDF86CA0026804
:10293000009805EB4216183EF608B04209D204B1E1
:102940002660BAF1000FDFF8949118BFCAF8006052
:10295000B7E0DBF810305A46394606A8FDF770FCA0
:10296000F21C920804A9584603F004FA10B1DFF8EB
:102970007091A6E0324602A9584601F04AF90028B3
:1029800058D1019000960C98029B0599006A324636
:102990007700D0F800E0DEF8000000F00FFCB0F5A2
:1029A000003F07D03A4602A95846DFF8389101F0B7
:1029B0004FF982E0029805F00705ED1D01780C98AB
:1029C00002689369029A581E80F0FF00014011705E
:1029D000012000FA05F50298ADB26A1E401E815D25
:1029E00001EA122181550299681E891E8A5D024002
:1029F0008A550299491E8A5D42EA15228A55029932
:102A0000881E825D314615438555049A029803F06D
:102A1000AFFB324602A9584601F01AF90C98049A05
:102A20005B4601681046896800F0D5FD06A8FDF7F1
:102A300015FC10B1DFF8A8903FE003A906A8FDF748
:102A400020FC10B1DFF8989034E00C9B039A0499B5
:102A50001B6906A81D68A84720B9039906A8FDF7B9
:102A6000C1FE10B1DFF8789020E003981A99324641
:102A7000406803F0C9FB039A1A981368401E815DF1
:102A80005A68BAF1000F41EAC2113246815518BFA7
:102A9000CAF800600599404631F0BFFF1A993246E6
:102AA00008EB060031F0B9FF04B1276003A906A8BE
:102AB000FDF743FC06A8FDF7E1FB04A9584603F027
:102AC00064F948460FB0BDE8F08F00BFFEAF1C5E52
:102AD000030006000E0006000F0006000B000600B3
:102AE0000C000600010006002DE9F04F93B0002411
:102AF0000E460594049407944FF4C02A0694029459
:102B000003949EB3110008921FBF1C990029DDF8A1
:102B10007880B8F1000F29D0040027D06069DFF871
:102B20009813884222D12069C169706A014208BFA6
:102B3000DFF888A31CD096F82800810758BFDFF87B
:102B400080A315D530689B460068016850F82100C5
:102B500001F035F8316807460868026807EB42154E
:102B6000183DED084FEA4509CB4502D0DFF854A3E4
:102B70009DE123692246314609A8FDF761FBEA1C65
:102B8000920805A9204603F0F5F810B1DFF838A344
:102B90008DE14A4602A9204601F03BF810B1DFF86A
:102BA00028A380E101900F98CDF80090029B066A5F
:102BB00008992A463668306800F000FBB0F5003FFF
:102BC00071D102981D9E07F0070701780F98FF1D2D
:102BD00002689369029A581E80F0FF00014011704C
:102BE000012000FA07F70298BFB27A1E401E415D2D
:102BF00001EA122141550299781E891E4A5D024060
:102C00004A550299491E4A5D42EA17224A550299DD
:102C1000881E425D294617434755059A029803F0DE
:102C2000A7FA0F98016A2046CA6803A9AA18B21821
:102C300000F0EFFF002842D10F98006AC2680169D6
:102C4000039831F0EAFE0298039B2A4641190F9837
:102C5000076AF868184431F0E0FE0F9B03981C994E
:102C60001F6A3246FB68EB18184431F0D6FE0F9805
:102C70000021029B006A0191CDF80090C2680068B3
:102C80000399AA180068B21800F098FA07460F983E
:102C9000016A2046CA6803A9AA18B21800F0D8FF32
:102CA000B7F5003F02D0DFF824A2F7E00F980168E3
:102CB00020468A6807A9126803F05CF810B1DFF8B3
:102CC00008A2EBE0E81C80081290420004A920460C
:102CD00003F050F8A8B9049A0298494603F048FA5C
:102CE0000F98079A234601680498896800F073FCDE
:102CF00004A9204603F049F806A909A8FDF7C1FA7E
:102D000010B1DFF8C4A1C5E009A8FDF7A7FA6E4F1E
:102D1000002840F080800F9B069A07991B6909A83C
:102D2000D3F800B0D84700BB069909A8FDF75AFDB3
:102D3000D8B909A8FDF7A2FA06982A464146406884
:102D400003F062FA069AA8F10100415D13685A681F
:102D500041EAC21141550F98016A2046CA6803A989
:102D60004A44B21800F055FF20B109A8BA46FDF751
:102D700085FA8BE00F98006AC2680169039831F008
:102D80004CFE0F9B03982A46D3F820C04146DCF83E
:102D90000C30184431F041FE0898039B2A46411933
:102DA0000F98D0F820C0DCF80C002818184431F037
:102DB00034FE0F9B03981C99D3F820C03246DCF8F0
:102DC0000C304B44184431F028FE0F980021029B30
:102DD000006A0191CDF80090C268006803994A44E6
:102DE0000068B21800F0EAF983460F98016AC868D3
:102DF00003A948443218204600F02AFFBBF5003FE3
:102E000018BFDFF8C8A041D1129A04A92046520089
:102E100002F0B0FF08B1BA4638E0049A0298494679
:102E200003F0A6F90F98049A2346016810468968B2
:102E300000F0D1FB09A8FDF719FA08B1BA4621E064
:102E4000119A05981F9E09A900F01FFE1198059A76
:102E500009AB00900498114600F041FE0F98059BC5
:102E600001688A680799184600F052FA05982A46C0
:102E700008EB050103F0C8F90EB1C6F8009009A8E7
:102E8000FDF7FCF904A9204602F07FFF06A909A876
:102E9000FDF753FA07A9204602F077FF4A4602A938
:102EA000204600F0D5FE05A9204602F06EFF5046F0
:102EB00013B0BDE8F08F00BFFEAF1C5E0E00060031
:102EC0000F000600030006000C00060001000600CB
:102ED0002DE9F84F94B000250C460A950995089500
:102EE00006950795059504956CB3110002921FBFD6
:102EF0001E9F002FDDF880B0BBF1000F23D005002E
:102F000021D06869A24988421DD12869C169606AD7
:102F1000014208BF9F4C17D094F82800810758BF82
:102F20009D4C11D503932168086803F01BF8083005
:102F30004FEAD0090398484502BFDDF884A04FEA64
:102F40004908C24501D0954C1EE12B692A4621460D
:102F50000BA8FDF775F9424605A9284600F059FE71
:102F60008F4C0028F0D111981F9E016A2846CA682C
:102F700004A94244B21800F04CFE00284ED111982A
:102F8000006AC2680169049831F047FD119B0498FA
:102F90004A46D3F820C05946DCF80C30184431F0CA
:102FA0003CFD119B04980299D3F820C04A46DCF8F6
:102FB0000C304B44184431F030FD119B39460498D5
:102FC0001F6A3246FB684344184431F026FD1198CD
:102FD0000021059B006A0191CDF80080C26800685D
:102FE000049942440068B21800F0E8F807461198C6
:102FF000016AC86804A940443218284600F028FE37
:10300000B7F5003F18BF674C08D1119801682846F2
:103010008A680AA9126802F0ADFE002840F0AF806D
:1030200009F10307BF087A0009A9284602F0A2FEA9
:10303000002816D1099A0598414603F099F811988D
:103040000A9A2B4601680998896800F0C4FA09A910
:10305000284602F09AFE3A4608A9284602F08AFE5F
:10306000002840F088800BEB0800801E417807782C
:1030700011984FF6FF7647EA01270168886802F049
:1030800071FFC0EBC900C640F64337420DD1089A24
:1030900049460BEB090003F06BF81198016808989A
:1030A000896802F008FF002801D43F4C5FE006A9C0
:1030B0000BA8FDF7E6F8002859D107A90BA8FDF7E2
:1030C000E0F800284FD10BA8FDF7C8F8002846D13A
:1030D000119F079B039A3E6A02990BA87768B8472D
:1030E00018B1042838D1314C36E0079A0BA90120D9
:1030F000FDF787F9119F0698089B079A0A99009097
:103100007F690BA83E68B04730BB06990BA8FDF756
:1031100069FB08BB069805994A46406803F074F8B5
:10312000069A05981368224A401E10F809105C6838
:10313000204B41EAC41100F80910229801921E495F
:1031400003901868059A029100904B464FEA5A0185
:10315000584602F097FD04460BA8FDF78FF807A923
:103160000BA8FDF7EAF806A90BA8FDF7E6F808A9F1
:10317000284602F00AFE0AA9284602F006FE424648
:1031800005A9284600F064FD204615B0BDE8F08F83
:10319000FEAF1C5E0E0006000F00060003000600D6
:1031A0000C000600010006000900060008000600E9
:1031B00026C7060038690308936E060038B50C462A
:1031C000002811461A46094B1CBF0568002D0AD07D
:1031D0004AB104B939B9049828B1059B0093034654
:1031E0002046A8470346184632BD00BF0300020030
:1031F0002DE9F04104460E46216817461D464A68EF
:1032000090478046B8F5003F19D1226806992046BC
:10321000936898478046B8F5003F10D1236831463F
:103220003A46DE682046B0478046B8F5003F06D1F2
:1032300023682946079A1D692046A84780462168C9
:1032400020460A6890474046BDE8F08140B10168D9
:1032500029B1044A914202D10121034B19704068FF
:1032600018F014BC00003748DC0E002010B5002216
:1032700004E050F8224043F82240521C8A42F8D31E
:1032800010BDF0B503460E4601274FF0030C022493
:103290001F22002507FB03F000210CEA0000001BA1
:1032A000A94124EA0101CF1964004FEA4C0080F0E3
:1032B000010C521EEED13760F0BD00232029F0B57D
:1032C00028BF012322D214680568AC4238BF03230B
:1032D0001CD301240AE000EB84077F68C1F1200EB3
:1032E00007FA0EF73E4342F824602C4650F824605B
:1032F0000768651CCE40BC42EDD342F8246002E072
:1033000042F825306D1C1068A842F9D21846F0BD6D
:103310002DE9FF4E8246002017469C46CDE902006B
:103320003A68DCF800300E460021934221BFDAF8FB
:1033300000B093453568954201D2032076E0AB4555
:1033400003D3CDF804A0009503E0CDF800B00196BA
:10335000AB465B454FF0010E38BF9B46002515E09C
:103360005AF82E2056F82E40801841EB0509021914
:1033700057F82E0049EB05030021101A63EB0101F9
:103380004CF82E000846C9170EF1010E3A68724536
:10339000E6D2009C74451CD35AF82E2056F82E40D5
:1033A0000023002514195D41001969414CF82E00D5
:1033B0000846C9170EF1010EEBE7019C002354F8F3
:1033C0002E20801859414CF82E000846C9170EF1DE
:1033D000010EF345F1D2664686464FF0010CDDE959
:1033E0000201002510E057F82C2056F82C4000234D
:1033F00002EA0E02A2186B418018594146F82C00CF
:10340000084600210CF1010C3A686245EBD23468A1
:1034100064450AD356F82C208018694146F82C00E0
:10342000084600210CF1010CF1E7002004B0BDE8D2
:10343000F08E2DE9F44F8E4684B0049A0021CDE938
:1034400002111C6815688346AC4238BF03206CD358
:10345000DEF80050DBF80090A94506D3CDF80090C7
:10346000CDF804B0A9468C4604E0CDF804E0009500
:103470004FF0FF3C009D98464FF0010AAC4238BF28
:1034800000940022002300250FE05BF82A005EF87C
:103490002A40161843EB0107321B67EB050348F877
:1034A0002A201A46DB170AF1010AD145EDD200980D
:1034B000504511D3019E56F82A0020EA0C04121937
:1034C0006B4100EA0C00121A8B4148F82A201A4678
:1034D000DB170AF1010AEAE716460127DDF810C0FA
:1034E000DDE902010EE05CF8272058F827400023B0
:1034F0003240A2186B418018594148F8270008460D
:1035000000217F1CDCF80020BA42ECD2D8F8004041
:10351000BC4209D358F827208018694148F8270091
:10352000084600217F1CF1E7002005B0BDE8F08FC0
:10353000F0B51368066800240025B34201D20320C9
:10354000F0BD8E464FF0010C0646174600210FE0F5
:1035500056F82C2000235EF82C00A2186B41141A98
:1035600063EB010547F82C402C46ED170CF1010CDC
:10357000DEF800006045EBD2326862450AD356F8A7
:103580002C0024184D4147F82C402C46ED170CF127
:10359000010CF1E70020F0BDF0B504466668154661
:1035A0000027721847EBE1736A6002261A46DB17A0
:1035B00008E054F8260012187B4145F826201A46E8
:1035C000DB17761C2068B042F3D21046524222EA42
:1035D0000000C00FF0BD2DE9FE4F8AB00C462168F7
:1035E000054654F8210000F0EAFA002106900991FE
:1035F00022680C98694602F0BDFB10B102200990C8
:1036000047E10121049502940AE0049A1468201A03
:10361000081802EB80004268009840F82120491CFD
:10362000029800688142F0D30098002240F82120DF
:103630000499029B0A681868121A0698521C05928F
:10364000C0F120008DF804001AE058F8262000236D
:1036500082185AF826004B41794208400021101A7E
:1036600063EB010148F826000846C917761CDAF812
:103670000020B242E9D20598CDF808A0401E05907E
:103680000598002800F0F78004980599009C2368AD
:1036900050F821209DF8040054F82350211F51F8C0
:1036A000236085400698C64035430795029D2E68E5
:1036B00054F826000890039405E051F82300039C79
:1036C00044F823005B1E012BF7D8039800271F2422
:1036D0004260029A9DF804509DF8046010681346F9
:1036E00053F820201B1F53F8200002FA05F5069A14
:1036F000D04005430398039A006852F8203051F8EF
:103700002000069903FA06F6C840064307982946A2
:1037100000F049FA00F044FA079A002100F03BFA61
:103720008046C4F1200908FA09F126FA04F040EABB
:10373000010A5146284600F03BFA00F031FA0146F2
:1037400028FA04F040EA010BAAEB050020FA09F17F
:103750004246584600F01FFA804605FA04F0311A36
:103760003246584600F017FA06460BFA04F00743B3
:10377000641ED6D13146284600F01AFA00F010FA3D
:10378000074348EA07070021384600F00CFA00F02A
:1037900007FA7A1E002100F0FEF904460798294630
:1037A000012700F000FA00F0FBF922464FF0FF314C
:1037B00000F0F1F9039E00240025B846DDF808A0CA
:1037C000039024E05AF82800039A029056F8281033
:1037D000E2FB0045A1EB04092C464846002500F019
:1037E000E7F946F82890029924186D41484600F000
:1037F000DFF902998346484600F0D5F900F0D0F988
:103800005A46394600F0C7F9074608F10108DAF8C8
:1038100000004045D6D2B04608992646304600F012
:10382000C7F940EA050408983146264600F0C0F979
:1038300020EA05052F43A743002000214FF0010C8B
:10384000002510E05AF82C2058F82C4073421A40FA
:103850000023A2186B418018594148F82C000846F3
:10386000C9170CF1010CDAF800206245EAD20020F9
:1038700000210126FBE60B9C0021204602F0B1FA54
:1038800000992246012002F0BBFA0C98694602F02A
:103890007CFA09980DB0BDE8F08F2DE9F04515468A
:1038A00042688E460168DEF8003002F0010676427A
:1038B000994202D12C688C4201D201203DE0DEF811
:1038C0000470002300243740D219634104466A6023
:1038D00000214FF00208184618E007465EF828005D
:1038E00054F828200023304010185CF8042C59416B
:1038F0003818594145F8280055F828300846002165
:10390000DB0743EA5203D0464CF8043C226805EB3F
:10391000880C08F1010A4245DFD25CF8043CC0077C
:1039200040EA53004CF8040C03E045F82A100AF171
:10393000010A28685045F8D20020BDE8F0852DE93D
:10394000F047904602680B689A4203D1D8F80040CD
:10395000944201D201204FE044684A680023640089
:103960004FF00009A21A69EB030315461A46DB174C
:10397000022784468E4618E00CEB870454F8040CAA
:103980005CF827105EF82740C00F40EA4100161887
:1039900043EB090A08EB8700321B40F8045C6AEB32
:1039A000090315461A46DB177F1CDCF80000B842F5
:1039B000E2D2644654F82010464646F8205002EB06
:1039C000D173C84600254FF0010C11E05EF82C00C1
:1039D00056F82C2000211840101849EB010118EB73
:1039E00000004D4146F82C00A846ED170CF1010CE3
:1039F00020686045EAD20020BDE8F0872DE9F84351
:103A000000240025002918BF002A03D00B6816687F
:103A1000B34201D201201DE0012781460E469046A7
:103A200013E058F82700002156F827202018694194
:103A30000023841A61EB03052146484600F0ABF8E9
:103A400046F827002C46ED177F1CD8F80000B84236
:103A5000E7D20020BDE8F283F8B5174605462A688C
:103A60000E461846520007F1080102F083F90400DF
:103A700009D17E603D60686807F10C01FFF701FC29
:103A8000F8684042F8602046F2BD0B4680B50092CF
:103A90005968024600F023F802BD2DE9FC411F469B
:103AA00000230546904601932A680E4601A9404628
:103AB00002F060F904000FD10198012102F091F9A0
:103AC0000097019933462A46284600F008F8044634
:103AD00001A9404602F059F92046BDE8F681FEB53D
:103AE00014461D462A6823681668B34201D2032093
:103AF000FEBDEB68089F121D01930092AA68D7F8DB
:103B000000C0091D131D3246001DE047E868231D53
:103B100000902968A8687C680A1D3146001DA047EE
:103B20000020FEBDF8B50C461546296822681F46E0
:103B30000E68B24201D20320F2BDEA680B1D001DDF
:103B40000092A968D7F808C00A1D3146E047E86826
:103B5000231D00902968A868FC680A1D3146001DD5
:103B6000A0470020F2BD0A4600210160C1608168C3
:103B700021B100F10801104602F007B9704710B5F5
:103B800082B0049C009313460A460194014602F059
:103B90006CFB02B010BD404251400840504070479D
:103BA00080F001007047484041420843C00F704711
:103BB0000A1A4140504008405040C00F704701462B
:103BC00010B5202001221F2321FA03F404F0010480
:103BD00084F001042240801A5B1E13F1010FF3D11F
:103BE00010BD0146484201EAE07200EAE17010436C
:103BF00070470023002918BF002A04D0016000216B
:103C000042608360C1607047014648688968401A15
:103C1000704720B511B11AB900200860012020BDFD
:103C20008368D21C4568920803EB8202954203D256
:103C300000200860022020BD05682B440B608260D4
:103C40001146C268914238BF1146C160002020BDB4
:103C500010B50446002000291CBF0B68002B03D0C0
:103C600012B1A368934201D2012010BDD21C920868
:103C70000860A3EB8202A26010BD10B50446616823
:103C8000206830F0CCFE002000210022002384E8D0
:103C90000F0010BD04B00101001701450000000035
:103CA000000000002DE9F24F83468AB001208DF814
:103CB00008000A9800240126DDF8549017460025D4
:103CC000079501950168AA46012988BFDEB2012146
:103CD000701E8140890009910A4601A94846FFF7F4
:103CE00098FF0490002840F0EF80A8460CE0386868
:103CF00001990268484601EB880102F03BF8049004
:103D0000002875D108F101080120721E904006902C
:103D10008045ECD30198CDF80CB00021006802F08A
:103D200060F81498002102F05CF801980399026889
:103D3000012002F065F8DDF858B00097002707E091
:103D40000198009A5B4600687F1C0146FFF7EAFE77
:103D5000701E8742F4D3009958460596731E0127BA
:103D60008DF809308B4606460CE00096019850F815
:103D70002720039900EB870C5CF8040C5B467F1C42
:103D8000FFF7ADFE06988742EFD316960A980168B2
:103D900014980691002102F024F8149A0399012046
:103DA00002F02EF80120089015E00A9806992022CA
:103DB00050F8210006998DF808200790491E0691B9
:103DC00007980799C00F490007912A003BD10028A6
:103DD00001D043D001259DF80800411E8DF8081040
:103DE0009DF808000028EBD106980028DDD1022DAF
:103DF0001CD1E0B2D0B1E5B2149C169E059F3346AB
:103E00005A4621462046FFF78DFE08994FEA4A0A96
:103E10005FFA8AF0B940084206D0009603995B46E3
:103E200022462046FFF75BFE6D1EE8D1B8F1000F79
:103E300045D0019800EB8801091F484601F0A5FF15
:103E4000A8F10108F2E7012D08BF002806D1149956
:103E5000169B5A460846FFF765FEBCE70599641CA9
:103E6000059A091B884040EA0A0A0225E0B29042FE
:103E7000B1D10027149D169C164606E023465A46EB
:103E800029462846FFF74EFE7F1CB742F6D314950D
:103E900016940596169A089D9DF9090001990092BD
:103EA0005FFA8AF48540149A24EA050A51F82A1028
:103EB0005B4610460024FFF712FEA2468AE7099AE5
:103EC00001A94846FFF7C4FE04980BB0BDE8F08F87
:103ED0002DE9F8430D469146089FD9F80010804619
:103EE00038680A68904238BF012022D30A9C012119
:103EF000384601F076FF224649463846FFF7C5FDB1
:103F00002E6800E0761E002E03DD55F826000028FE
:103F1000F8D0760108E0281D710950F8212006F03C
:103F20001F00C240D10706D4761EF4D5002E02D55C
:103F30000020BDE8F28323464A4639463846FFF75B
:103F4000F1FD281D710950F8212006F01F00C24024
:103F5000D10706D500944B463A4641463846FFF70E
:103F6000BEFD761EE2E72DE9F44F07468CB0012036
:103F70008B460990B96900221C4688690021466871
:103F80000492584601F0D8FF50B9B8690068C16979
:103F9000012908D08168584601F08DFF002802D41D
:103FA0004FF00108D7E1B8694168F8698A6907F1FB
:103FB00014019200FFF72DFE5FEA0008F2D1002500
:103FC0000CE009680A687969126801EB850101F063
:103FD000D1FE5FEA000840F0B3816D1CB969F86951
:103FE0004A6893699D42ECD34FF00109721E09FAA9
:103FF00002F29200089201A9FFF70BFEAA465FEABF
:10400000000840F09481002510E0019800EB850144
:104010003846FCF736F95FEA000840F081810198E4
:1040200050F8251038466D1CFCF712FA711E09FA7B
:1040300001F18D42E9D302970B9503940298214632
:104040004FF00008FCF704FA9BF80400344600F037
:10405000010007900298816907980A685946C0F1E3
:1040600001009268FFF7CAFCDBF80000C6EB4015C0
:104070005BF82000FFF7A3FDDBF8001009FA06F259
:10408000491E00EB4110711E09FA01F1491E05910C
:1040900006920A902DE04246611C584601F07BFFD3
:1040A00006460698301AFFF79CFD074604EB080009
:1040B000009001462846FFF77BFD06990022E64066
:1040C000FFF769FD40EA57070A98414606F00106E6
:1040D000FFF76EFD059A631E9E4046EA0701FFF753
:1040E0005AFD03464246611C584601F078FFDDF850
:1040F0000080A845CFD3651C42462946584601F0AA
:104100004AFF430842462946584601F068FF0C988A
:104110000021007C00F00400FFF745FD20B9099064
:104120000C990298FCF752FA0C990298FCF7A6FA3F
:104130005FEA000840F0E98001980C9901230268C9
:104140000298866975682E68B04701990020009032
:1041500002984B680C9A866909687568D5F804C09E
:104160000225E047611E8DF800109DF80000029FB7
:1041700009FA00F60EE0D7F818C000EB850151F8F7
:10418000041CDCF804E050F825303846DEF808C09E
:104190006D1CE0470198B5420268ECD30C990120F0
:1041A000FCF7FCF8DBF80050611E58466D012A1B35
:1041B00001F0F1FE0199039AA5EB440551F8201096
:1041C0000120FCF7EBF802952EE0D7F818C0012388
:1041D0004A46DCF804E049463846DEF800C0E047CD
:1041E0006D1EF2D1049D06980199F54005F0010578
:1041F000CDF80C90454085F0010551F82620394650
:104200002846FCF7FEF80498B540039B454001980A
:104210000495BD6950F8262019466E683846B56881
:10422000A8470298001B02900298A04210D30246B1
:104230002146584601F0AFFE9DF800200599250063
:1042400020FA02F3069301EA0006DDF80C90C8E7B5
:1042500000222146584601F09EFE9DF80020059957
:1042600020FA02F3254601EA000B0198394650F87E
:104270002B20049820FA0BF000F00100434083F05B
:104280000100FCF7BEF8039C07E0D6F800C001234C
:10429000224621463846E0476D1EB869002D466823
:1042A000F3D102970198B568036850F82B20214696
:1042B0003846A847019800210268906801F03CFE4A
:1042C0000346019821460268029886697568D5F808
:1042D00000C0E0470198224601680120FCF75EF823
:1042E000079802992246C0F10100FCF78AF8099864
:1042F00058B90C990298FCF793F980460C98A042A3
:1043000003D002982146FCF78BF9029F0B9D07E032
:10431000019800EB8501091F3846FCF70EF86D1E69
:10432000002DF5D1089AF86901A9FFF791FC5546CF
:1043300006E0796901EB8502111F01F026FD6D1E73
:10434000F869002DF5D1B9694A6807F1140192693D
:104350009200FFF77DFC40460DB0BDE8F08F2DE9DF
:10436000F64F8BB006468946B16900270A68906807
:1043700001F0F8FDB1698A681368B0FBF3F81D46D7
:104380005A1E05FB18058DF810209DF810000093AB
:10439000012383405B1E09930A6813681C6802238B
:1043A0000297059407938A6806924868C1690229B2
:1043B00004BF032007900021484601F0BDFD50B91D
:1043C000B0690068C169012907D08168484601F0D9
:1043D00072FD002801D4012493E1B0694168F069BD
:1043E0008A6906F114019200FFF713FC0400F3D16F
:1043F000BA460DE00068016870690A6800EB8A013E
:10440000F06901F0B7FC040040F06F810AF1010A85
:10441000B06941688A699245ECDBCDF828A002A911
:104420003046FBF72EFF040040F0548102993046DD
:104430004446FCF70DF899F80400B84600F0010076
:104440000890B1690868494682680898C0F101007F
:10445000FFF7D4FADDF800A00BE008F1010B04FB34
:104460000B520121484601F096FD00FA08F007437F
:10447000D846AAF101008045EFD30C9930467F1C45
:10448000FBF7E6FF0C98069A062101900798009129
:10449000131D111D4743059A01207F1C574301EB53
:1044A00087020599A71EFCF714F852E07A1904FB5D
:1044B0000B2201214846521C01F06DFD00FA0BF061
:1044C00040EA08080BF1010BD345EFD3D6F818E00A
:1044D0009DF810000C9ADEF804C028FA00F000F0F5
:1044E000010BDCF800C0012311463046E04702987A
:1044F0000621009101900698ABF10101DDF81CE066
:10450000021D099881EA0801DDF814C00840401C2A
:1045100000FB0EF000236146401C00FB0CF0CBF1C9
:10452000010B7F1E02EB80020120FBF7D2FF029AF3
:1045300031465846FBF765FF0C9B0020029A00901D
:10454000D6F818C019463046DCF804E0DEF804C09E
:10455000E047681E8041B7EBD07F03DB4FF00008D7
:10456000C346B1E79DBB002709E004FB07F2012128
:104570004846521C01F00FFDB84005437F1C5745CB
:10458000F3D3B4690C9A0123646811469DF81000B6
:10459000D4F800C025FA00F73046E047029806211B
:1045A00007F00107019006980091791E021D0998F5
:1045B000DDF81CA04D4005406D1C05FB0AF5059C6F
:1045C00000236D1C6543214602EB85024BE00698F3
:1045D000059A6F1E011D01EB82040C9D924629E095
:1045E00001232A4629463046E0477A1C01214846E5
:1045F00001F0D1FC80460298062100910190002331
:10460000224651460120FBF764FF029AC8F10108D7
:1046100031464046FBF7F5FE0020029A0090D6F89E
:1046200018C02B462946DCF804E030467F1EDEF831
:1046300004C0E047B069002F4168D1F800C0CFDC6A
:104640002A460C95012311463046E04701220121FC
:10465000484601F0A0FC074602980621009101900F
:104660000023224651460120FBF733FF029AC7F18F
:10467000010731463846FBF7C4FE0C9B03A8029A9B
:104680000090B4691946304665686C68A047B46903
:10469000039B0C9A656803F001031146D5F800A04E
:1046A0003046D047B069089C0168C4F10104204637
:1046B0008A684946FFF7A2F90C9A31462046FBF773
:1046C000A0FE0C993046FBF7ABFF044602A930462A
:1046D000FBF733FEDDF828A007E0716901EB8A02E1
:1046E000111F01F052FBAAF1010AF069BAF1000FA3
:1046F000F3DCB1694A6806F1140192699200FFF790
:10470000A7FA20460DB0BDE8F08F00002DE9F04F6C
:104710000E4699B04FF0FF3117461291119110914A
:104720000191012100220546179107920692A9697D
:104730001C464FF002090868026813680A93CA68A9
:1047400013680992DFF83C2604930498401E400841
:1047500002EB80031A1F0C92DFF82C2602EB80007C
:10476000031F0B934868DDF88880C1692846022939
:10477000414608BF4FF00309FBF76AFE4146284651
:10478000FBF724FFA86900680894C169012910D0CB
:104790008168304601F08FFB002807D5A8690168C1
:1047A0000898896801F087FB002802D40120059051
:1047B000E3E2A8694168E8698A6905F11401920099
:1047C000FFF727FA05900028F2D100240CE00968D1
:1047D0000A686969126801EB840101F0CBFA05905F
:1047E000002840F0BF82641CA969E8694A6893699F
:1047F0009C42ECD3049B0122A346991E8A4092005E
:10480000159202A9FFF705FA0590002840F0A18251
:10481000049901200024891E00FA01FA10E0029890
:1048200000EB84012846FBF72CFD0590002840F0A2
:104830008982029850F824102846641CFBF708FE71
:104840005445ECD3039518943C46207C002100F09D
:104850000400FFF7A8F920B9179003982146FBF749
:10486000B5FE03982146FBF709FF0590002840F0AC
:104870005E820398029F012385693A6821466D682C
:10488000EF68B84702990020009003984B680968C8
:10489000856922466D682F690225B847039F10E09D
:1048A000D7F818C00298DCF804E050F82530026808
:1048B00000EB8500DEF814C050F8041C38466D1C6F
:1048C000E04701200E905545EAD3089801F04AFBD5
:1048D0000546304601F046FB85422CBF089830461D
:1048E00001F040FB0D960F94019DCDF85890129C5D
:1048F000119EDDF840A0814675E0DDF830C0039AD6
:1049000006980191169E101AA0F1010E4FEADE0ED4
:10491000401E8000099A00F01C00062100915CF8FE
:104920002EC0131D111D2CFA00F000F00F0046439D
:104930000A9A0120761C724301EB82020A99FBF766
:10494000C8FD0298394602680120FBF75AFD3AE09B
:104950000399081A0B99421ED20851F82250401EA2
:10496000800000F01C00C5409DF8026005F00F05B6
:10497000761B76B2AEBB0298069A01680198824215
:10498000BBDADDF818C00C9E169A4FEADC0C0191D8
:104990000621009156F82C60DDF818C00A99099894
:1049A0004FEA8C0E0EF01C0E26FA0EF606F00F06DD
:1049B0007243031D001D521C514300EB81020A99F2
:1049C0000120FBF786FD029900200090BE690A686D
:1049D0004346D6F804C041463846DCF81060B0477C
:1049E000109EA9F10109B9F1000FD8BF002C06DC17
:1049F000BAF1000FDCBF002E002D40F33C81B9F16D
:104A0000000F0AD4D7F818C001234246DCF804E0AE
:104A100041463846DEF80CC0E047002C02DD641E3B
:104A200064B206E0BAF1000FC4BFAAF101004FFA68
:104A300080FA002E02DD761E76B203E0002DC4BFA0
:104A40006D1E6DB204990E98491C8840401E8DF869
:104A5000030004980E99421E049891400191411E52
:104A60008DF802100E980499049A884004990390D6
:104A7000A2EB0902A9EB0101149104998DF8012020
:104A80000498A9EB0101C9F1010212918DF80020EF
:104A9000401C002CA9F101014FF0FF321390C8BF58
:104AA000BAF1000F1191109256DCB9F1000F06DD3A
:104AB000119A0D98022101F06EFAC0B207E00D982C
:104AC00041689DF8000001FA00F000F00300002C9E
:104AD00041D5BAF1000F3FDC00F0010191EA600F0F
:104AE00000F082801498002805D4129A13990D982A
:104AF00001F051FA08E00D9841689DF8010001FAB3
:104B000000F09DF803100840019A0199801AC0B284
:104B1000079088420BDA07990B98C90850F82120B2
:104B20000798810001F01C0122FA01F00CE00399C2
:104B3000081A0B99421ED20851F82210401E80001C
:104B400000F01C0021FA00F09DF8024000F00F0A6E
:104B5000A4EB0A0464B2002C46D10798019988425C
:104B600018DA07990C984346C90850F821000799AC
:104B70008A00B96902F01C02D0404A6810F00F00A8
:104B8000546901D10F9A02E0029951F82020414660
:104B9000384627E003980799411A0C984A1ED20814
:104BA00050F82200491E890001F01C01C8400299FA
:104BB00010F00F000A680CBF0F9951F82010012067
:104BC000FBF7ECFB0298394602680120FBF719FC61
:104BD000BC6902984346D4F804C00268414638468E
:104BE000DCF81440A047109C002EC8BF002D15DC37
:104BF000B9F1000F06DD119A0898022101F0CBF9F6
:104C0000C0B207E0089841689DF8000001FA00F082
:104C100000F00300002E7FF5ADAE002D3FF7E1AEB2
:104C200000F0010191EA600F3FF4DBAE1498002818
:104C300005D4129A1399089801F0ADF908E0089884
:104C400041689DF8010001FA00F09DF8031008404A
:104C5000019A0199801AC0B206908842BFF678AED8
:104C600006990B98C90850F821500698810001F068
:104C70001C01CD4078E603970D9C0F9E089FDDF840
:104C800028A0099DB9F1000F46D10398012342469F
:104C9000D0F818E04146DEF80490D9F80CC0E0479F
:104CA0002079C10717D50298314602680120FBF729
:104CB00075FB0298039902680120FBF7A2FB039899
:104CC000029A4346D0F818C012684146DCF8044006
:104CD000D4F814C0E0473879C1071DD502980622E0
:104CE0002B1D01680092281D019100EB8A0251469C
:104CF0000120FBF7EEFB0298039902680120FBF705
:104D000080FB02990020009003980A684346876957
:104D100041467C682769B847179840B903983146DF
:104D2000FBF77EFC059003984146FBF779FC039D59
:104D3000189C07E0029800EB8401091F2846FBF746
:104D4000FCFA641E002CF5D1159AE86902A9FEF759
:104D50007FFF5C4606E0696901EB8402111F01F0E8
:104D600014F8641EE869002CF5D1A9694A6805F1B8
:104D7000140192699200FEF76BFF059819B0BDE827
:104D8000F08F00BF8C4D0008984D00081001000006
:104D900040245215613673070120000003100120E2
:104DA000021001402DE9FC47814600200F46924643
:104DB00000903A681E4669464846002500F0DAFF32
:104DC0005FEA000838D100980021012401F009F8B9
:104DD000009A39460120AAF1010701F011F804FAFE
:104DE00007F71CE00021715513E000984168C807DF
:104DF000F8D504FA0AF0421E11404AB27BB29A4238
:104E0000A8BFC91B7155009A49B249421046FEF726
:104E1000C3FB009A01216D1C1046FEF74EFA009864
:104E2000002101F089F80028DFD00A9800B1056060
:104E30006946484600F0A9FF4046BDE8F6872DE9DF
:104E4000FE4F054600200F460090A96991461C467A
:104E5000486805F114014FF0010A8269E86992007F
:104E6000FEF7D7FE5FEA000840F09D8000260CE0C8
:104E70000068016868690A6800EB8601E86900F06B
:104E800079FF5FEA00080BD1761CA86941688A693E
:104E90009642EDDB69462846FBF7F3F95FEA000826
:104EA00076D199F81000002100F00400FEF77BFE97
:104EB00028B9494628464FF0000AFBF787FB0099BE
:104EC0002846FBF7C5FA009A49460120FBF766FA27
:104ED00021462846FBF7BCFA21462846FBF776FB1D
:104EE00049462846FBF7CAFB5FEA000843D1386809
:104EF00057F82000FEF763FE3968019700EB411078
:104F00002138074629E00198790900EB81025168B0
:104F100007F01F007F1E21FA00F0009900F0010B3E
:104F200058460A68216800F0A3FF0098A1688268CB
:104F3000584600F09DFF009A234649462846FCF754
:104F4000B8FE009821680268584600F091FF00986A
:104F5000A1688268584600F08BFF002FD3D54946E0
:104F6000BAF1000F07D12846FBF75AFB80462146CD
:104F70002846FBF755FB69462846FBF7DEF907E0B4
:104F8000686900EB8601E869091F761E00F0FDFEE6
:104F9000002EF5DCA8694168E8698A6905F1140109
:104FA0009200FEF755FE4046BDE8FE8F00B581B089
:104FB0000168074A914200D110B9064801B000BD0E
:104FC0007C212FF02CFD4FF4003001B000BD00BF5C
:104FD000BC500008030002000D4A2DE9F04792E89A
:104FE000F85188B0694681E8F851D0F80090DFF8B0
:104FF00024A0D14500D118B9074808B0BDE8F08712
:105000002022083001F05EFD08B0BDE8F08700BF47
:105010009C500008BC50000803000200212904D263
:105020000268044B9A4200D108B90348704708301F
:1050300001F057BDBC5000080300020010B481B05D
:1050400013460268074CA24200D118B901B00648C5
:1050500010BC704700F1240201B0083010BC01F010
:1050600045BD00BFBC5000080300020010B481B071
:1050700013460268074CA24200D118B901B0064895
:1050800010BC70470A4600F1240101B0083010BC82
:1050900001F080BDBC5000080300020067E6096A09
:1050A00085AE67BB72F36E3C3AF54FA57F520E5149
:1050B0008C68059BABD9831F19CDE05BAD4F000811
:1050C000D94F00081D5000083D5000086D500008E1
:1050D000F0B50446A3B00B480D4616461F46029095
:1050E000094B0822402104A801F0E8FC2898009709
:1050F000334601902A46214602A8FEF779F823B0EC
:10510000F0BD00BFBC5000084C6603082DE9F04F0D
:10511000C1B00B68024601A81BBA01934B680DF1A0
:10512000440C1BBA43608B681BBA8360CB681BBA04
:10513000C3600B691BBA03614B691BBA43618B697E
:105140001BBA8361CB691BBAC3610B6A1BBA0362CA
:105150004B6A1BBA43628B6A1BBA8362CB6A1BBA67
:10516000C3620B6B1BBA03634B6B1BBA43638B6B42
:105170001BBA8363C96B09BAC16318205CF808ECD9
:105180004FEAFE4191EA7E435CF83C1C4FEAB1478E
:1051900097EAF11683EA9E235CF81CEC86EAD106B6
:1051A0007344F3185CF8406CF318CCF800305CF8EA
:1051B00004EC4FEAFE4696EA7E435CF8386C4FEA10
:1051C000B64A8AEAF61783EA9E235CF818EC87EA67
:1051D000D6077344FB18C918CCF804100CF1080C5E
:1051E000401ECBD100921046C16DC36ED0F860E076
:1051F000D0F87080426E446FD0F868A0856FDFF8F9
:10520000FC900DF1040C20204FEAB31686EAF32639
:105210005CF8047B4EEA010B86EA73660BEA020B2C
:10522000751984EA08061E406640751959F8046B22
:1052300075197E194FEAB10787EA71370EEA010541
:105240004BEA050587EAB157EF19454606EB0A0810
:105250009246724607EB060E4FEAB81686EAF82623
:105260005CF8047B41EA0E0B86EA78660BEA020BD7
:10527000341985EA030606EA08066E40341959F81F
:10528000046B34193E194FEABE0787EA7E3701EAFC
:105290000E044BEA040487EABE57E7191C4606EBE6
:1052A0000A0392460A46B919401EADD10098D0F8BB
:1052B0005C904944C1650099086E8644C1F860E07D
:1052C0000098416E521842660099886E8244C1F877
:1052D00068A00098C16E5B18C3660099086F80448F
:1052E000C1F870800098416F641844670099886F16
:1052F0002D188D6741B0BDE8F08F00BF4C650308E5
:1053000000B581B00168074A914200D110B9064842
:1053100001B000BD7C212FF082FB4FF4003001B0C2
:1053200000BD00BFF8530008030002000F4A2DE93A
:10533000F04790B0B2E8F8516946DFF834A0A1E830
:10534000F851B2E8F851A1E8F851D0F80090D145F1
:1053500000D118B9074810B0BDE8F087402269466F
:10536000083001F0AFFB10B0BDE8F08760660308BD
:10537000F853000803000200412904D20268044BDC
:105380009A4200D108B903487047083001F0A9BB20
:10539000F85300080300020010B481B013460268FD
:1053A000074CA24200D118B901B0064810BC7047A2
:1053B00000F1240201B0083010BC01F097BB00BF1F
:1053C000F85300080300020010B481B013460268CD
:1053D000074CA24200D118B901B0064810BC704772
:1053E0000A4600F1240101B0083010BC01F0D2BB24
:1053F000F853000803000200015300082D53000871
:105400007953000899530008C9530008F0B50446C1
:10541000BDB00B480D4616461F460290094B1022A0
:10542000802104A801F04AFB42980097334601907E
:105430002A46214602A8FDF7DBFE3DB0F0BD00BFC5
:10544000F8530008286903082DE9F14FADF5327DC6
:105450000A6812A80DF1C80C13BA4A684FF0100E72
:1054600012BACDE912238A6813BACA6812BAC0E91F
:1054700002230A6913BA4A6912BAC0E904238A6985
:1054800013BACA6912BAC0E906230A6A13BA4A6A89
:1054900012BAC0E908238A6A13BACA6A12BAC0E902
:1054A0000A230A6B13BA4A6B12BAC0E90C238A6B3F
:1054B00013BACA6B12BAC0E90E230A6C13BA4A6C4B
:1054C00012BAC0E910238A6C13BACA6C12BAC0E9C6
:1054D00012230A6D13BA4A6D12BAC0E914238A6DF9
:1054E00013BACA6D12BAC0E916230A6E13BA4A6E0D
:1054F00012BAC0E918238A6E13BACA6E12BAC0E98A
:105500001A230A6F13BA4A6F12BAC0E91C238A6FB2
:10551000C96F13BA91FA81F2C0E91E235CE9040154
:10552000C70C43034FEAC10AC60047EA413743EAC2
:10553000D1434AEA507A46EA5176800940EA8160CE
:105540007E4083EA0A0A86EA00078AEA911B5CE940
:105550000E015CE91E4838184BEB010122465FEA58
:1055600058034FEA3202250A45EA08654FEA046A01
:1055700043EAC4734AEA182A82EA0506E20942EAC3
:10558000486283EA0A0A8AEAD81372405CE9207BFF
:1055900080185941C01941EB0B01CCE900015CE9CD
:1055A000026AF70C47EA4A374FEA463949EADA49CC
:1055B0005CE91C23F500CDE900794FEACA0949EA04
:1055C000567945EA5A75DDE9007BB60946EA8A66EE
:1055D0007D408BEA0909754089EA9A195CE90C6AF1
:1055E000AE19154649EB0A0A5FEA53094FEA350539
:1055F000CDE9006A2F46150A4FEA026A49EAC27BE2
:1056000045EA03654AEA132AD60946EA43667D401D
:105610008BEA0A096E4089EAD31ADDE90059AE190E
:1056200049EB0A0A34194FEA40394AEB0808C70C1B
:1056300047EA413749EAD149CCE902485CE91A6AAC
:10564000CDE900794FEAC109C50049EA507945EA38
:105650005175DDE9007B800940EA81607D408BEA7D
:105660000909454089EA91195CE90A01281835467B
:1056700049EB01015FEA5A094FEA3505CDE900011E
:105680002F46350A310649EAC67B45EA0A6541EAF2
:105690001A21F00940EA4A607D408BEA010968401E
:1056A00089EADA11DDE90059281849EB010182186D
:1056B0004B41CCE90423E50C5CE9180145EA483785
:1056C000630343EAD84B4FEAC803E20043EA54734A
:1056D00042EA5872A40944EA88647A408BEA0303D8
:1056E000544083EA98185CE90823A71848EB030B99
:1056F00004465FEA510848EAC0734FEA34044FEAAF
:105700000068050A48EA112845EA0165C00940EA2F
:10571000416083EA0809654089EAD1116840381878
:105720004BEB0101801941EB0A01CCE906010CF1B8
:10573000200CBEF1010E7FF4F1AEB298B29EDDF8FE
:10574000C8C2D0E92848D0E92A23DCE93259DDF87B
:10575000C8E2D0E92C01D6E92E6ADCE9307BCDE93C
:105760000859DEE93459DDF8C8E2DFF858C3CDE95D
:105770000659DEE93659CDE90401CDE90A6ACDE9D9
:1057800010592825CDF838C00DF1480E3846594635
:10579000DDE9106AAC460E9D08350E95083DD5E949
:1057A0000059CDE90C59FEE8027BCDE9006A850B72
:1057B000CDE9027B4FEA804A870C4FEA803945EAFF
:1057C00081464AEA913A47EA813749EA914986EAAD
:1057D0000705C6058AEA09094FEAC15A4AEA502A6A
:1057E00046EA51266E4089EA0A0ADDE90059AE19F7
:1057F00049EB0A0ADDE9085900EA050701EA090B45
:10580000DDE9065985437D4029EA01098BEA09094A
:1058100075194AEB0909DDE90C6ACDE90C48AD19A7
:1058200049EB0A09DDE9026AAE1949EB0A0A270FBA
:105830004FEA041947EA081749EA1879A50745EA23
:105840009805CDE900794FEA887949EA9409DDE9BC
:10585000007B7D408BEA0909CDE900594FEA486990
:10586000650649EAD41945EAD815DDE9007B7D4093
:105870008BEA0909CDE90059DDE90459554004EAEC
:10588000050783EA090908EA090BDDE9045915400F
:105890007D4003EA09098BEA0909DDE9007B0E9CDA
:1058A0007D194BEB0909DDE9067BCDE9107BDDE9CC
:1058B000087BCDE90801DDE90A01CDE9067BDDE9D8
:1058C000047B801941EB0A01CDE9042372194AEBEC
:1058D000090308340E94DDE91059CDE90A7B083C30
:1058E000D4E90048FEE8026ACDE90259870B4FEA85
:1058F000804947EA814749EA9139CDE90079870C27
:1059000047EA81354FEA803949EA9149DDE9007B70
:105910007D408BEA0909CDE900594FEAC159C50517
:1059200049EA502945EA5125DDE9007B7D408BEAB3
:105930000909DDE9027B7D194BEB0909CDE9005925
:10594000DDE9085900EA050701EA090BDDE9065916
:10595000854329EA01097D408BEA0909DDE9007BDD
:105960007D194BEB09092C1949EB0808A41948EBE0
:105970000A08150F45EA03164FEA021A4FEA83791F
:1059800095074AEA137A49EA920945EA9305754070
:105990008AEA09094FEA436A56064AEAD21A46EAEF
:1059A000D3166E4089EA0A0ACDE9006ADDE90C598E
:1059B000DDE9046ADDE90C7B6E4089EA0A0ADDE96B
:1059C0000459164003EA0A0A3D400BEA09096E40F1
:1059D0008AEA090ADDE90059DDE9087BCDE9080119
:1059E000AD1949EB0A09DDE9066ACDE9067BDDE977
:1059F0000A01DDE9047B001941EB0801CDE90A7BCE
:105A0000DDE90C7B641948EB0908CDE9047BBCF1A6
:105A1000010C7FF4C0AEDDF8C8C2CDE90C23DDE98E
:105A20000823DCE9287BDDE906593C194BEB080823
:105A3000CCE92848B29CDDF8C8C2D4E92A7BDDE96C
:105A40000C483C194BEB0808CCE92A48B29CDDF81D
:105A5000C8C2D4E92C7BDDE904483C194BEB0808AB
:105A6000CCE92C48B29CDDF8C8C2D4E92E7BDDE934
:105A70000A483C194BEB0808CCE92E48B29CD4E903
:105A8000307B38184BEB0101C4E93001B298D0E902
:105A90003248A21848EB0303C0E93223B299D1E996
:105AA0003423521943EB0903C1E93423B299D1E9F4
:105AB0003623921943EB0A03C1E936230DF5337DF2
:105AC000BDE8F08FA8660308F8B501240094002310
:105AD00000240DE0009D065D0F5D641C7E40F643D2
