:020000040800F2
:1000000000080020B5A20008111700087D090008AB
:100010001317000815170008171700080000000044
:10002000000000000000000000000000F11A0108BC
:100030001917000800000000911B01081DF30008BB
:10004000B1A20008B1A200081D170008B1A2000863
:10005000B1A20008B1A200082D170008451700083A
:10006000B1A20008B1A20008B1A20008B1A2000824
:1000700091170008A1170008B1A200088117000815
:10008000B1A20008B1A20008B1A20008B1A2000804
:10009000B1A20008B1A20008B1A20008B1A20008F4
:1000A000B1A20008B1A20008B1A20008B1A20008E4
:1000B000B1A20008B1A20008B1A20008B1A20008D4
:1000C000B1A20008B1A2000895420008B1A2000840
:1000D000B1A20008B1170008B1A20008B1A200083F
:1000E000B1A20008B1A20008C1170008B1A200081F
:1000F000B1A20008B1A20008B1A20008B1A2000894
:10010000B1A20008B1A20008912C0008B1A2000819
:10011000B1A20008B1A20008B1A20008B1A2000873
:10012000B1A20008B1A20008B1A20008B1A2000863
:08013000B1A20008B1A2000811
:1001400010B5054C237833B9044B13B10448AFF311
:1001500000800123237010BDA808002000000000CB
:10016000B82B010808B5034B1BB103490348AFF393
:10017000008008BD00000000AC080020B82B01087A
:10018000034613F8012B002AFBD1181A01387047D7
:1001900053B94AB9002908BF00281CBF4FF0FF31EE
:1001A0004FF0FF3000F088B9ADF1080C6DE904CED6
:1001B00000F006F8DDF804E0DDE9022304B0704742
:1001C0002DE9F047089D0F4604468C46002B48D188
:1001D0008A42164661D9B2FA82F34BB1C3F12002CA
:1001E00001FA03FC20FA02F29E4042EA0C0C9C4009
:1001F0004FEA164EB7B2BCFBFEF1220C0EFB11CC3F
:1002000042EA0C4201FB07F0904209D9B21801F111
:10021000FF3C80F0EE80904240F2EB8002393244A5
:10022000121AA4B2B2FBFEF00EFB102244EA024402
:1002300000FB07F7A74209D9341900F1FF3280F01B
:10024000DA80A74240F2D7803444023840EA0140C5
:10025000E41B00211DB1DC400023C5E90043BDE8DB
:10026000F0878B4206D90DB1C5E90001002108468F
:10027000BDE8F087B3FA83F1002948D1BB4202D32D
:10028000824200F20781841A67EB03020120944640
:10029000002DE4D0C5E9004CE1E7002A00F092808F
:1002A000B2FA82F3002B40F0A8808A1A4FEA164E69
:1002B0001FFA86FC0121200CB2FBFEF70EFB172271
:1002C00040EA02420CFB07F0904207D9B21807F14E
:1002D000FF3802D2904200F2E2804746121AA4B2DE
:1002E000B2FBFEF00EFB102244EA02440CFB00FCC1
:1002F000A44507D9341900F1FF3202D2A44500F217
:10030000CB801046A4EB0C0440EA0740A2E7C1F101
:1003100020068B4022FA06FC4CEA030C07FA01F493
:1003200020FA06F3F7404FEA1C49234300FA01F88C
:100330001FFA8CFEB7FBF9F01C0C09FB107744EA9E
:10034000074400FB0EF7A74202FA01F20AD91CEBA0
:10035000040400F1FF3A80F09B80A74240F29880AD
:1003600002386444E41B9FB2B4FBF9F309FB134465
:1003700047EA044403FB0EFEA64509D91CEB04041E
:1003800003F1FF3780F08280A6457FD9023B6444A9
:1003900043EA0040A4EB0E04A0FB02E7BC42734614
:1003A000B94663D360D05DB1B8EB030264EB0904D6
:1003B00004FA06F622FA01F31E43CC40C5E90064B4
:1003C00000214CE76208480842EAC1710B0C43EA7D
:1003D00000438AB242EA0342B3FBF6F1E407B446B3
:1003E0003746B6461F23B0FBF6F0D21B41EA004168
:1003F00061E7614614E7104628E7C3F1200120FABF
:1004000001F29E4027FA01F19F403A434FEA164E0F
:100410001FFA86FCB1FBFEF70EFB1710110C41EA28
:10042000004107FB0CF8884504FA03F43AD9711827
:1004300007F1FF3001D288451FD8A1EB0801B1FBBD
:10044000FEF808FB0CF70EFB181192B242EA0142CB
:10045000BA422FD2B21808F1FF31C6D2BA42C4D282
:10046000A8F102013244C0E7F0459CD2BEEB020382
:1004700067EB0C070138B94695E7A6EB080841443D
:10048000B81EB1FBFEF808FB0CF7DCE73B467FE744
:10049000504667E70846FBE63444023832E7023F3D
:1004A00032441BE7A1EB08013846B1FBFEF808FB1C
:1004B0000CF7C8E7414698E7704700BF014B024A76
:1004C0001A607047C408002000240140084A1268DE
:1004D00041F20103B3EB124F09D2064B5A6892075F
:1004E00005D55A68022122F002025A60D96070478D
:1004F000002004E000080058704700BF08B54FF026
:1005000090431B699B070FD50B4A126841F2010308
:10051000B3EB124F04D2094A536843F0020353600D
:10052000BDE8084011F0BCBD0121042011F08CFD94
:10053000BDE8084011F0B4BD002004E000080058F8
:1005400010B5044612F058F801F0C2FA02288CBF28
:100550002046002010BD00BF2DE9F041064672B6CE
:10056000BFF34F8FBFF36F8F4FF0E024236923F069
:100570000103236110F07CFC80B9A36963612369E6
:100580002A4A43F0010323611368294AA2FB03238B
:100590009B09013B636162B6BDE8F081054601F04D
:1005A000ABFB022D044606F1FF362CD1FFF7A6FF68
:1005B000FFF78CFF01F0A0FB001B01F089FA4FF060
:1005C000E02307469D692C2D22D9DFF860804FF08B
:1005D000E024B7423846656128BF304610F05CF829
:1005E0002369134A43F001032361D8F80030A2FBCA
:1005F00003239B09013B636162B6BFF34F8FBFF3D7
:100600006F8FBDE8F08131460A4811F01DFFCDE73C
:10061000DFF81880012010F03FF8D8F80030044AC5
:100620002E3DA2FB032305EB9315D0E7180800200D
:10063000D34D62102C09002070B588B000210091C4
:100640004F4B0A464F4811F02DFE01F0CBF9032025
:1006500011F010FC0DF10E05284601F067FB4FF478
:100660007A74BDF80E10484A04FB0011474811F097
:1006700079FC284601F05AFBBDF80E10444A04FBF1
:100680000011444811F06EFC284601F04FFBBDF804
:100690000E10414A04FB0011404811F063FC28464B
:1006A00001F044FBBDF80E103D4E324604FB001134
:1006B0003C4811F057FC284601F038FBBDF80E10FD
:1006C000324604FB0011384811F04CFC284601F07A
:1006D0002DFBBDF80E10354A04FB0011344811F013
:1006E00041FC09F0C5FE0646284601F01FFBBDF897
:1006F0000E10C6F307230093C6F30743320E04FB24
:1007000000112C4811F02EFC04A811F007FD28461A
:1007100001F00CFBBDF80E10069B0193079B0093A4
:10072000049B059A04FB0011234811F01BFC234B8A
:100730001A68234B9A420BD0284601F0F7FABDF80D
:100740000E3004FB00311F4811F00CFC00F056F98C
:1007500002F01EF9044608B908B070BD0DF10E0094
:1007600001F0E4FABDF80E3022464FF47A7101FB35
:100770000031154811F0F6FB00F040F9ECE700BF3E
:10078000F90400082C090020DC2B0108042C0108C6
:10079000342C01083C2C01086C2C0108742C010835
:1007A000A82C0108AC2C0108E02C01081C2D010824
:1007B000242D0108502D0108802D0108C40A0020B5
:1007C00000300140C42D01085C2E010808B503F07B
:1007D0008DFB00B908BD01F04BFDFBE708B5074BE9
:1007E0001B6803B108BD06480EF064FF034B186098
:1007F0000028F7D100F002F9F4E700BF2809002033
:10080000B86F010810B50B4B4FF0FF3118680EF0B0
:10081000A0FF10B172B6002010BDEFF3108472B6C5
:10082000252009F0B9FE0F2009F0B6FE84F31088E8
:10083000012010BD2809002008B962B6704710B524
:10084000EFF3108472B60F2009F090FE252009F016
:100850008DFE84F31088034BBDE8104018680EF03D
:10086000B7BF00BF2809002000B583B04FF0B043E8
:100870009A6C42F004029A649A6C02F004020192AB
:10088000019A9A6C42F001029A649B6C03F0010396
:100890000093009B00220F21084609F023FE0F2041
:1008A00009F064FE002211460C2009F01BFE0C200A
:1008B00009F05CFE002205210D2009F013FE0D2039
:1008C00009F054FE002205210B2009F00BFE0B203D
:1008D00009F04CFE002205210E2009F003FE0E2037
:1008E00009F044FE03B000BD002810DB08B5084B3A
:1008F0009B68103053F82030064A934206D3064ACC
:10090000934203D213F0010F00D0984708BD7047FF
:1009100000ED00E0000000080000040870B501F0E0
:100920009FF806460F24252516E000BF204609F053
:100930009BFE48B9284609F097FE28B901F090F8C7
:10094000801BB0F5FA7FF0D3204609F08DFE68B920
:10095000284609F089FE68B911F07CFA28B901F03F
:100960007FF8801BB0F5FA7FE0D370BD2046FFF71B
:10097000BBFFEDE72520FFF7B7FFEDE7DFF85CC031
:100980001EF0040F0CBFEFF30888EFF30988B8E8F6
:10099000FF00ACE8FF00DFF848C0DFF848E00224C1
:1009A00060467146224651F8043B1B684CF8043BF4
:1009B000013AF8D1FFF7B2FF0B4B0C4A1A600C4A10
:1009C0005A60BFF34F8F0B49CA6802F4E0620A4BCA
:1009D0001343CB60BFF34F8F00BFFDE788080020B3
:1009E00080080020C86F010878080020EFBEADDE47
:1009F00017A0DF8200ED00E00400FA0500B583B027
:100A000072B60DF1060001F091F9BDF806304FF411
:100A10007A7101FB0031034811F0A4FAFFF77EFF61
:100A200000BFFDE7B02E0108EFF3108372B6C14A94
:100A30001168C14A914202D083F310887047BD4AC1
:100A40005168BE4A9142F7D1BA4A00211160516003
:100A5000BB4A1268B2F1004FEED070B582B00DF112
:100A60000605284601F062F94FF47A74BDF80610C5
:100A700004FB0011B34811F075FA284601F056F94D
:100A8000BDF8061004FB0011AF4811F06BFA2846C0
:100A900001F04CF9BDF80610AC4E326804FB0011B1
:100AA000AB4811F05FFA284601F040F9BDF8061096
:100AB000726804FB0011A74811F054FA284601F0AF
:100AC00035F9BDF80610B26804FB0011A24811F018
:100AD00049FA284601F02AF9BDF80610F26804FB2D
:100AE00000119E4811F03EFA284601F01FF9BDF8AA
:100AF0000610326904FB0011994811F033FA2846B8
:100B000001F014F9BDF80610726904FB0011954854
:100B100011F028FA284601F009F9BDF80610B2696B
:100B200004FB0011904811F01DFA284601F0FEF870
:100B3000BDF80610F26904FB00118C4811F012FA9E
:100B4000284601F0F3F8BDF8061004FB00118848B0
:100B500011F008FA284601F0E9F8BDF8061004FB88
:100B60000011844811F0FEF9284601F0DFF8BDF8C5
:100B70000610734D2A6804FB00117F4811F0F2F94A
:100B80002B68002B13DB6E4B1B6813F0804F1AD1C0
:100B90000DF1060001F0CAF8BDF806304FF47A7185
:100BA00001FB0031724811F0DDF9FFF727FF0DF16D
:100BB000060001F0BBF8BDF8063004FB00316F48B9
:100BC00011F0D0F9DFE70DF10604204601F0AEF890
:100BD0004FF47A75BDF8061005FB0011684811F056
:100BE000C1F9204601F0A2F8BDF80610544C626825
:100BF00005FB0011634811F0B5F96368B3F5803F58
:100C000047D24F4B5B6813F47F4F40F0F3804C4B5F
:100C10001B79002BBCD00DF1060001F087F8BDF860
:100C200006304FF47A7101FB0031574811F09AF900
:100C3000434B5B6813F0800F40F05C81404B5B6876
:100C400013F0200F40F064813D4B5B6813F0100FF0
:100C500040F06C813A4B5B6813F0080F40F07481F0
:100C6000374B5B6813F0020F40F07C81344B5B68BC
:100C700013F0010F8CD00DF1060001F057F8BDF80C
:100C800006304FF47A7101FB0031404811F06AF9E7
:100C90007EE70DF1060001F049F8BDF8063005FBCE
:100CA00000313B4811F05EF9636813F0007F26D1F4
:100CB000234B5B6813F0807F2DD1214B5B6813F4CD
:100CC000002F6DD11E4B5B6813F4802F76D11C4B27
:100CD0005B6813F4003F7FD1194B5B6813F4803FCE
:100CE0008FD00DF1060001F021F8BDF806304FF469
:100CF0007A7101FB0031274811F034F981E70DF1D9
:100D0000060001F013F8BDF8063005FB003122485B
:100D100011F028F9CCE70DF1060001F007F8BDF855
:100D200006304FF47A7101FB00311C4811F01AF9BA
:100D3000C3E700BF78080020EFBEADDE17A0DF825A
:100D400080080020F02E0108202F010888080020CC
:100D5000582F0108802F0108A82F0108D02F010863
:100D6000F82F0108203001084830010870300108D0
:100D700098300108D03001080831010834310108E9
:100D80006031010890310108E43401083836010867
:100D9000BC31010824330108E83101081832010888
:100DA0000DF1060000F0C2FFBDF806304FF47A7175
:100DB00001FB0031724811F0D5F883E70DF1060010
:100DC00000F0B4FFBDF806304FF47A7101FB00313A
:100DD0006C4811F0C7F87AE70DF1060000F0A6FFA5
:100DE000BDF806304FF47A7101FB0031664811F00E
:100DF000B9F871E70DF1060000F098FFBDF8063074
:100E00004FF47A7101FB0031604811F0ABF8604B90
:100E10005B6813F4004F27D15D4B5B6813F4005FF0
:100E200030D15B4B5B6813F4805F39D1584B5B6802
:100E300013F4006F42D1564B5B6813F4007F4BD123
:100E4000534B5B6813F4807F3FF4E1AE0DF1060075
:100E500000F06CFFBDF806304FF47A7101FB0031F1
:100E60004C4811F07FF8D2E60DF1060000F05EFF6D
:100E7000BDF806304FF47A7101FB0031464811F09D
:100E800071F8C9E70DF1060000F050FFBDF806301B
:100E90004FF47A7101FB0031404811F063F8C0E76C
:100EA0000DF1060000F042FFBDF806304FF47A71F4
:100EB00001FB00313A4811F055F8B7E70DF1060093
:100EC00000F034FFBDF806304FF47A7101FB0031B9
:100ED000344811F047F8AEE70DF1060000F026FFA8
:100EE000BDF806304FF47A7101FB00312E4811F045
:100EF00039F8A5E70DF1060000F018FFBDF806303F
:100F00004FF47A7101FB0031284811F02BF895E677
:100F10000DF1060000F00AFFBDF806304FF47A71BB
:100F200001FB0031224811F01DF88DE60DF106009D
:100F300000F0FCFEBDF806304FF47A7101FB003181
:100F40001C4811F00FF885E60DF1060000F0EEFEEA
:100F5000BDF806304FF47A7101FB0031164811F0EC
:100F600001F87DE60DF1060000F0E0FEBDF8063068
:100F70004FF47A7101FB0031104810F0F3FF75E671
:100F80004C3201087C320108D83201085C33010878
:100F900080080020A834010888330108C433010800
:100FA00008340108383401086C3401081035010890
:100FB0004C35010890350108C43501080036010898
:100FC00084B04FF0B043DA6C42F00202DA64DA6CBB
:100FD00002F002020392039ADA6C42F00402DA642D
:100FE000DA6C02F004020292029ADA6C42F0010218
:100FF000DA64DB6C03F001030193019B04B07047DA
:1010000030B59BB008AD48220021284611F0E4FC21
:101010000024019402940394049405940694079484
:101020000AF0ACF94FF0B042D2F8903023F0180338
:10103000C2F8903002F58062136823F4C06343F471
:1010400000731360136803F4C0630093009B0523CF
:10105000089381230B934FF4041309930A940223FA
:1010600013930323149310231593062316934FF41D
:10107000003317934FF0005319934FF000731893F8
:1010800028460AF061FB80B96F2301930323029382
:10109000002303930493059306930793022101A869
:1010A0000AF0AAFF20B91BB030BDFFF7A7FCEBE7A1
:1010B000FFF7A4FCF7E7000008B51048104B0360E9
:1010C0000023436083604FF4E062C26003614361C8
:1010D0004FF400728261036243624FF400528262F5
:1010E00041F22102C2620222026343630CF030F833
:1010F00000B908BDFFF782FCFBE700BFC40A00206F
:101100000030014008B509F089F9FFF779FFFFF7D2
:1011100057FFFFF7A9FBFFF7CFFF0EF009F9FFF725
:101120008BFA0EF02DF9FEE730B583B005460C467C
:1011300072B60DF1060000F0F9FDBDF806C02B46B1
:1011400022464FF47A7101FB00C1034810F00AFFF8
:10115000FFF754FC03B030BD7836010808B500F045
:1011600037FB08BD08B500F095FB08BD08B500F0D9
:10117000E7FB08BD08B500F0E5FB08BD08B500F0C9
:10118000E3FB08BD00B58DB02C22002101A811F0B1
:1011900023FC1848184B03600023836003614361FC
:1011A00083614FF08042C26103624FF480734362F7
:1011B0000BF028FCA0B90F480BF060FF98B9002293
:1011C0000892029206924FF0005307934FF48073F7
:1011D0000B9301A907480BF0F7FC38B90DB000BD1F
:1011E000FFF70CFCE7E7FFF709FCE8E7FFF706FC71
:1011F000F4E700BF280B00200028004010B590B095
:1012000004463822002102A811F0E6FB22681A4B9E
:101210009A4201D010B010BD4FF4803302934FF4C6
:1012200080730F9302A80BF0EBF808BB4FF0B043AC
:10123000D3F8902042F40042C3F890209A6D42F413
:1012400080629A659B6D03F480630193019B002289
:101250000621022009F046F9022009F087F9002250
:1012600007212A2009F03EF92A2009F07FF9D1E769
:10127000FFF7C4FBDAE700BF00280040094B1A68FB
:1012800041F20103B3EB124F00D07047064B5B698C
:1012900013F0100FF9D1044A00BF536913F0100F77
:1012A000FAD0F2E7002004E0000400587047000084
:1012B00008B5114B1A6841F20103B3EB124F0FD07E
:1012C0004FF0B0439B6803F00C030C4A136009F025
:1012D000C1F801200A4BC3F888000AF0E9F808BDFC
:1012E000074B5B6913F0100FEAD1054A00BF536941
:1012F00013F0100FFAD0E3E7002004E010080020FC
:101300000004005808B54D4B1B680C2B00F292806E
:10131000DFE803F007909090269090904490909092
:1013200066004FF0B042136843F001031360136886
:1013300013F0020FFBD04FF0B042936823F0030389
:101340009360936813F00C0FFBD14FF0B042136819
:1013500023F48073136009F005F809F082F808BDE2
:101360004FF0B042136843F480731360136813F4B2
:10137000806FFBD04FF0B042936823F0030343F03B
:1013800001039360936803F00C03042BFAD14FF030
:10139000B042136823F001031360DCE74FF0B04262
:1013A000136843F480331360136813F4003FFBD0D9
:1013B0004FF0B042936823F0030343F002039360BD
:1013C000936803F00C03082BFAD14FF0B0431A686E
:1013D00022F001021A601A6822F480721A60BAE7D9
:1013E0004FF0B042136843F480331360136813F472
:1013F000003FFBD04FF0B042136843F0807313609E
:10140000136813F0007FFBD04FF0B042936843F0B5
:1014100003039360936803F00C030C2BFAD14FF095
:10142000B0431A6822F001021A601A6822F480722E
:101430001A6090E7FFF7E2FA91E700BF100800207A
:1014400008B509F00EF808BD08B509F003F8012148
:10145000002009F09BFF08BD08B500220F216FF0A6
:10146000010009F03FF808BD2DE9F04F8BB00023D3
:1014700005930693079308930993029303930493A8
:10148000984B1C68240C0268974B9A426AD0974884
:10149000974B036001234360102383600023C360E4
:1014A000802303614FF4807343614FF48063836151
:1014B0002023C3614FF44053036209F05FF9002811
:1014C00040F0FD801021894809F034FC002840F0EC
:1014D000F9800123029341F201039C4294BF4FF42F
:1014E00000334FF4C02303930123049302A97F48E0
:1014F00009F042FC002840F0E8807E487E4B036003
:1015000002234360102383600023C36080220261B2
:10151000436183612023C3614FF44053036209F0A8
:101520002DF9002840F0D4801021724809F002FC07
:10153000002840F0D0800123029341F201039C4235
:1015400094BF4FF400344FF4C02403940123049358
:1015500002A9684809F010FC002840F0BF800BB0D9
:10156000BDE8F08F05464FF0B0431A6E42F480524A
:101570001A661A6E02F480520192019ADA6C42F0F5
:101580000102DA64DB6C03F001030093009B4FF06F
:10159000200BCDF814B00227069707974FF00309E8
:1015A000CDF820904FF0050ACDF824A00DF11408D5
:1015B0004146524809F0E8FC10230593069700269F
:1015C0000796CDF82090CDF824A041464B4809F06D
:1015D000DBFCCDF814B006970796CDF82090CDF837
:1015E00024A041464FF0904009F0CEFC05970696A6
:1015F00001230793CDF8209041464FF0904009F029
:10160000C3FC32460621222008F06CFF222008F09D
:10161000ADFF3B483B4B03600823436010238360CE
:10162000C660802303614FF4807343614FF480638D
:101630008361C6614FF44053036209F09FF80028AC
:1016400031D110212E4809F075FB00282ED12C4BEA
:101650006B659D622C482D4B03600723436000237C
:101660008360C360802303614FF4807343614FF450
:10167000806383612023C3614FF40053036209F048
:101680007DF8B0B91021204809F054FBA0B91E4BD9
:10169000AB659D6200220521072008F023FF07208B
:1016A00008F064FFF3E6FFF7A9F9CAE7FFF7A6F928
:1016B000CDE7FFF7A3F9E5E7FFF7A0F9E7E7FFF7C5
:1016C0009DF9FFE6FFF79AF903E7FFF797F914E7AB
:1016D000FFF794F928E7FFF791F92CE7FFF78EF968
:1016E0003DE700BF002004E000300140A4090020D5
:1016F0004400024044090020080002400004004861
:10170000640A00201C000240040A0020300002404D
:10171000FEE7FEE7FEE7FEE77047000008B5024877
:101720000BF0D8FC08BD00BF280B002008B5044B07
:10173000DB6813F0010F00D108BD01F0E5F8FBE70D
:101740000008005808B50C4B0222DA604FF09043B5
:101750001B6913F0020F0BD0084B1B689B6813F03A
:10176000100F06D002F096FD0021042010F06CFC52
:1017700008BD02F087FDF7E700080058C40A002002
:1017800008B5024809F066FA08BD00BF740B0020D6
:1017900008B5024809F05EFA08BD00BF640A0020DF
:1017A00008B5024809F056FA08BD00BF040A002037
:1017B00008B502480CF01EFB08BD00BFD40B00208A
:1017C00008B502480BF08EF808BD00BF280B0020BA
:1017D0002DE9F0438BB000240794089409944FF04E
:1017E000B043DA6C42F00102DA64DA6C02F0010212
:1017F0000492049ADA6C42F00202DA64DA6C02F0C3
:1018000002020392039ADA6C42F00102DA64DA6CA3
:1018100002F001020292029ADA6C42F00202DA64E9
:10182000DB6C03F002030193019B4FF48078CDF849
:101830001480012306930323089305AD144F294612
:10184000384609F0A1FB4FF04009CDF81490294625
:101850004FF0904009F098FB8026059629464FF0FE
:10186000904009F091FB224649464FF0904009F024
:101870006BFD22464146384609F066FD2246314658
:101880004FF0904009F060FD20460BB0BDE8F083BA
:101890000004004808B5032815D8DFE800F0021658
:1018A000293C002280214FF0904009F04DFD00229C
:1018B0004FF48071214809F047FD002240214FF08C
:1018C000904009F041FD002008BD012280214FF029
:1018D000904009F039FD01224FF48071174809F05A
:1018E00033FD002240214FF0904009F02DFDEAE742
:1018F000012280214FF0904009F026FD01224FF493
:1019000080710E4809F020FD012240214FF09040E7
:1019100009F01AFDD7E7012280214FF0904009F02D
:1019200013FD00224FF48071044809F00DFD0122DF
:1019300040214FF0904009F007FDC4E70004004843
:1019400000207047012070470120704708B5054806
:10195000082303600BF0DAFD00B908BDFFF74EF86D
:10196000FBE700BF600B002000B583B04FF0B04331
:101970005A6E42F001025A665B6E03F00103019356
:10198000019B00221146322008F0ACFD322008F005
:10199000EDFD03B000BD0CB400B583B004AB53F84B
:1019A000042B019310F06EFE03B05DF804EB02B05F
:1019B0007047000030B585B004460D4602A810F00F
:1019C000CDFBBDF90C300093029B054A1021204647
:1019D000FFF7E1FF2046FEF7D3FB288005B030BDBE
:1019E000B036010808B54FF0B042936823F40043C5
:1019F000936010F037FC00F047F80C4B4FF40042B6
:101A00001A6110F00BFA0A4810F02EFA022010F0BA
:101A100031FAFFF709F8FEF751FD00F03DF810F03C
:101A200009FB0121084610F025FB08BD00400058C5
:101A3000B519000808B50121022010F005FB08BD0A
:101A400008B50021022010F0FFFA08BD08B50022F9
:101A50000F214FF0FF3008F045FD002008BD0000C9
:101A600000B583B001A800F0E7F9019B054AA2FB8D
:101A700003234FF47A7202FB00F000EB931003B0E3
:101A800000BD00BFD34D621008B508F0F5FC08F0AA
:101A9000FBFC08F001FD08BD00207047EFF3108348
:101AA00072B6044A1068BFF34F8FBFF36F8F83F392
:101AB000108870476C0B00200320704708B5014662
:101AC0004FF47A720023C003490CFEF761FB08BD96
:101AD0004FF47A73A0FB0303C00B40EA4340704706
:101AE00008B58446C903044A002341EA5C41C003A7
:101AF000FEF74EFB08BD00BF40420F004B01420104
:101B0000121A43EAD06363EB01034FEA422C5B02F3
:101B10001CEB000C43EAD25341EB030300B54FEA40
:101B20008C124FEA831EB2EB0C024EEA9C6E6EEBF7
:101B3000030E101841EB0E01C00B40EA4140C90BE7
:101B400000BD00BF0246022101480BF0D9BA00BF18
:101B5000280B002010B50246EFF3108472B603483C
:101B600000210BF0CDFA84F3108810BD280B002063
:101B700010B50246EFF3108472B6034801210BF052
:101B8000BFFA84F3108810BD280B002010B5EFF3C6
:101B9000108472B64FF4807108480AF049FEBFF312
:101BA0004F8FBFF36F8F064A0121D165034A4FF073
:101BB000FF33136384F31088002010BD280B00202E
:101BC00000280040034B186800B970470248002104
:101BD0000BF0AABA700B0020280B0020034B1868EA
:101BE00000B97047024801210BF09EBA700B00202B
:101BF000280B0020034B186800B9704702480221E7
:101C00000BF092BA700B0020280B0020EFF310812C
:101C100072B60B4B186848B10A4B98689A688242B2
:101C200003D09A6898688242FBD1C043064B186083
:101C3000BFF34F8FBFF36F8F81F31088704700BFE2
:101C4000700B0020002800406C0B002038B50D4BB5
:101C50001B680BB1002038BD0B4C4FF0FF352563DE
:101C6000FFF790FAFFF792FF256320460BF0C6F9C5
:101C70000020FFF767FFFFF7C9FF024B01221A6040
:101C8000E8E700BF700B0020280B002008B5084BC8
:101C90001B680BB9002008BDFFF778FF05480BF063
:101CA000CDF9FFF7B3FF024B00221A60F2E700BF45
:101CB000700B0020280B0020EFF3108C72B60B4B3A
:101CC0000B4A1B6810684BB10A4A936891689942A5
:101CD00003D0916893689942FBD1DB43BFF34F8FE8
:101CE000BFF36F8F8CF31088181A7047700B0020A9
:101CF0006C0B002000280040EFF3108172B6094BF6
:101D0000186810B981F310887047074B98689A6873
:101D1000824203D09A6898688242FBD1C04381F323
:101D200010887047700B00200028004070B50546F1
:101D3000EFF3108672B60D4B1C684CB10C4A9468D8
:101D40009168A14203D091689468A142FBD1E44319
:101D5000FFF750FF014686F31088C4F30E00FFF72B
:101D6000B7FEE20B288042EA414070BD700B0020B4
:101D70000028004070B504468CB0EFF3108572B6B1
:101D80002C220021684610F027FEEFF3108672B671
:101D90004FF4807117480AF04BFDBFF34F8FBFF32C
:101DA0006F8F154B13490122DA654FF0FF330B6338
:101DB00086F31088114B0F481B682344DB430193C3
:101DC0004FF0005306934FF480730A936946002343
:101DD000079305930AF0F8FE20B985F310880020D8
:101DE0000CB070BDFEF70AFE85F3108800200CB021
:101DF00070BD00BF280B0020002800406C0B0020A5
:101E000010F062BB08B50A4B1B6833B9BDE8084047
:101E10000848012202210BF073B9022105480BF09A
:101E200083F9BDE80840421C022102480BF068B962
:101E3000700B0020280B0020F8B50646EFF3108742
:101E400072B60E4B1C684CB10D4A94689168A14261
:101E500003D091689468A142FBD1E443FFF7CAFE26
:101E6000054687F3108800210C19C4F30E00FFF714
:101E700045FEE40B306044EA4540F8BD700B00209D
:101E80000028004008B51748174B03604FF4E133B2
:101E9000436000238360C360036108224261836161
:101EA000C3610362436283620CF080FF70B900215A
:101EB0000C480DF09FF960B900210A480DF0E4F9D3
:101EC00050B908480DF05CF948B908BDFEF796FD19
:101ED000EDE7FEF793FDEFE7FEF790FDF1E7FEF784
:101EE0008DFDF2E7D40B00200044004030B597B0E0
:101EF00004460021119112911391149115913822E9
:101F000003A810F069FD22682D4B9A4201D017B04A
:101F100030BD022303932B4B059303A80AF070FAFC
:101F2000002844D14FF0B0439A6D42F400329A65D4
:101F30009A6D02F400320292029ADA6C42F00102C7
:101F4000DA64DB6C03F001030193019B042311931A
:101F5000022312930025139503231493072315934B
:101F600011A94FF0904009F00FF81748174B036084
:101F70001423436010238360C5608023036145619F
:101F80008561C561056208F0F9FB98B910210E481A
:101F900008F0D0FE88B90C4BE3679C6200220F2149
:101FA000252008F09FFA252008F0E0FAAFE7FEF7B9
:101FB00025FDB7E7FEF722FDE8E7FEF71FFDEAE79C
:101FC0000044004004000C00740B00205800024044
:101FD00002680C4B9A4200D0704710B504464FF08F
:101FE000B042936D23F40033936504214FF0904089
:101FF00009F0FAF8E06F08F0BFFC252008F0CCFAF1
:1020000010BD00BF0044004008B5084B1860FFF742
:1020100039FF074AD2F8803043F00063C2F88030BD
:1020200004480FF09FFF002008BD00BF6C0C00208B
:1020300000080058BC36010808B54FF0B0439A6B51
:1020400042F400329A639A6B22F400329A63044895
:10205000FFF7BEFF0F2008F09FFA002008BD00BF69
:10206000D40B002008B50A46014602480BF010FECA
:10207000002008BDD40B002010B582B0124B1860B0
:102080004FF400130093114C02AB13E906002046F5
:102090000CF0D2FF2368DA6912F4803FFBD1DA69D1
:1020A00012F4800FFBD09A6842F480029A60074CC9
:1020B00020460DF04DF80122054920460CF06CFF3A
:1020C000002002B010BD00BF680C0020D40B00201F
:1020D000700C002008B50268044B9A4200D008BD7D
:1020E000034B1B6800209847F9E700BF00440040FD
:1020F0006C0C002002680A4B9A4200D0704710B561
:102100000446084B1B682BB1D0F8902012B901216E
:10211000054898470122044920460CF03DFF10BDB8
:1021200000440040680C0020700C0020F8B54FF00F
:10213000E0260746B46975690DF056F90135104B74
:1021400005FB00F101F5FA71A3FB0121890907FBE9
:1021500001F101F5FA71A3FB013189090023B2698C
:10216000A81A944203EB040C034404D2234499427A
:1021700005D91446F3E7ACEB02039942F9D8F8BD50
:10218000D34D621010B504460DF02EF94FF47A725B
:10219000A4FB00010023FDF7FBFF01300DF06AFAFC
:1021A00000B910BDBDE8104001489421FEF7BCBF46
:1021B000C4360108844610B5BCE80F00114C82B04B
:1021C0000FC49CE80300104B84E803001868022148
:1021D0000DF06EF9041E01DB02B010BD0DF106001A
:1021E000FFF7A4FDBDF806304FF47A7C0146224685
:1021F0000CFB013105480FF0B5FE02B0BDE8104000
:10220000FEF7FCBB800C00207C0C0020E4360108AB
:1022100010B5322082B008F0BFF9124B5A68012184
:1022200022F001025A60D9600F4B102118680DF09E
:102230003FF9041E01DB02B010BD0DF10600FFF7EF
:1022400075FDBDF806304FF47A7C014622460CFB42
:10225000013106480FF086FE02B0BDE81040FEF7DF
:10226000CDBB00BF000800587C0C002038370108A7
:1022700010B5012182B010200FF0E6FE0E4B0121B7
:1022800018680DF015F9041E01DB02B010BD0DF148
:102290000600FFF74BFDBDF806304FF47A7C01468F
:1022A00022460CFB013105480FF05CFE02B0BDE890
:1022B0001040FEF7A3BB00BF7C0C00209C37010838
:1022C000F0B583B0044604F02DFAC8BBDCBB5F4C0C
:1022D00094F85D30052B00F0918094F85D30062B6A
:1022E0000DF1060631D0002110200FF0ADFE94F85C
:1022F0005D30012B4BD105254FF47A7701F0A0FC1E
:1023000004460B2C304634D1FFF710FDBDF8061003
:1023100007FB00114E480FF025FE0A20FFF732FFA1
:10232000013DEBD13046FFF701FDBDF80630014617
:102330004FF47A754748224605FB01310FF012FE33
:10234000002003B0F0BD0DF1060601F095FC044637
:102350003046002C36D1FFF7E9FCBDF806303B4C87
:1023600002464FF47A713C4801FB02310FF0FAFD4E
:10237000B9E7002CD6D1FFF7D9FCBDF806300246EC
:102380004FF47A71354801FB02310FF0EBFD344810
:102390003449354A002303700B60136004F074F86D
:1023A00004463046E4B9FFF7C1FCBDF806300246EA
:1023B0004FF47A7101FB02312C480FF0D3FD01205C
:1023C00003B0F0BDFFF7B2FCBDF8063001464FF494
:1023D0007A75224605FB013125480FF0C3FDAFE7B2
:1023E000FFF7A4FCBDF8063001464FF47A7522468B
:1023F00005FB01311F480FF0B5FDA1E70A2001F0F0
:102400006FFC0DF106060546304675B1FFF78EFCF0
:10241000BDF806304FF47A7101FB00312A461648A8
:102420000FF0A0FD94F85D308FE7FFF77FFCBDF85B
:1024300006304FF47A7101FB003110480FF092FD25
:1024400094F85D30062B7FF44EAF7EE7C40A00207F
:102450004C390108B039010814390108103A010853
:10246000A00C00209C0C0020980C0020A43A01082D
:10247000B4380108483A01080838010874380108DE
:102480002DE9F04F6B4DDFF8B0812B786B4E022BAE
:1024900008BF002383B008BF2B7001F027FD002880
:1024A00000F089802878032800F2B480DFE800F08B
:1024B0001323021001A8FFF739FCBDF804300246CF
:1024C0004FF47A715E4801FB02310FF04BFD05209D
:1024D00003B0BDE8F08F5B4801AA102101F054FD64
:1024E00000284DD1019C102C52D0032307202B70C3
:1024F00003B0BDE8F08F01F0F9FCD8F80030326885
:1025000003F10E04504BA41AA3FB0434E4088442E4
:1025100028BF0446082CA34628BF4FF0080B4FEAFB
:102520000B17484801AA394601F02EFD40BB019B1C
:102530009F42DAD1002C40D0DFF81091444F824600
:1025400013E03268D8F80040A41A0F2C28BF0F24DB
:10255000B818224607F0AAFD32680AF1010A1444AD
:10256000D345346009F1100928D919F8012C022A41
:102570004946E6D003230B202B7003B0BDE8F08F53
:1025800006284FF003032B700CBF082009209FE79B
:102590002C4B1F78012F34D0022F2ED029492C48E4
:1025A000224607F083FD2449244A0C60022314606C
:1025B0002B7000208CE701208AE73468D8F80030BF
:1025C000A34212D8022233602A70F2E71D4B204842
:1025D0001C460D22D91C07F069FD174BB4F80120E9
:1025E0001A60164B2F700D221A6001F07FFC013823
:1025F00003307FF652AF02206AE703232B700A20D4
:1026000066E7B3F80130B3F5907FDFD903232B7071
:1026100006205DE701A8FFF789FBBDF804302A78A2
:1026200001464FF47A7404FB01310A480FF09AFC1A
:102630004DE700BFA00C00209C0C0020980C00204F
:10264000E03A0108240D002089888888250D0020A3
:10265000A40D0020343B01082DE9F04F984E994F0E
:10266000DFF864B2DFF864A2DFF86482DFF8649216
:10267000012387B00022F3600521062007F032FF16
:10268000062007F073FF0DF11600FFF74FFBBDF8B2
:1026900016304FF47A7101FB00318F480FF062FC65
:1026A0004FF0FF3200211F200CF07AFF041EC0F211
:1026B0009380A0075CD53B68022B0DF1160000F05B
:1026C000E380FFF733FBBDF816103A684FF47A75D4
:1026D00005FB001181480FF045FC0DF11600FFF7D6
:1026E00025FB7B69BDF8161002933B690193FB68DB
:1026F000009305FB0011D7E9012379480FF032FC64
:10270000322007F049FF7368012223F00103736050
:1027100044F01004F2604FF090439A610520FFF7F7
:1027200005FD0DF11600FFF701FBBDF816304FF463
:102730007A7101FB00316B480FF014FCC4F3C00048
:10274000FFF7BEFD98B34FF0904301229A6204F068
:1027500083F80DF11600FFF7E9FABDF816300246CE
:102760004FF47A7101FB02315F480FF0FBFB97E7F2
:1027700014F0180F41D04FF0904301229A610520C8
:10278000FFF7D4FCE106CCD40DF11600FFF7CEFA2A
:10279000BDF816304FF47A7101FB003153480FF049
:1027A000E1FBC4F3C000FFF78BFD0028CBD10DF196
:1027B0001600FFF7BBFABDF8163002464FF47A71E7
:1027C00001FB02314A480FF0CDFB0123F36073682F
:1027D00043F00103736063E70DF11600FFF7A6FAFB
:1027E000BDF816304FF47A7101FB003122464148A2
:1027F0000FF0B8FBFEF702F95BE7620750D4E3077E
:102800007FF54EAF23E070BBD8F80010D9F8002058
:10281000394805F061FA054688B10A280FD00DF154
:102820001600FFF783FABDF816304FF47A7101FBFA
:1028300000312A4631480FF095FBFFF7E9FC0CF018
:1028400089FE08B1844236D101F050FB98B3FFF7FE
:1028500017FE01280546F2D00228D4D1D8F800107E
:102860000F29ECD9D2E70DF11600FFF75FFABDF89A
:1028700016304FF47A7101FB00312A4620480FF0E0
:1028800071FBFFF7C5FCDAE7FFF750FABDF8163029
:102890004FF47A7101FB00311A480FF063FB2FE708
:1028A000DBF80010DAF8000004F022F90028A6D0C6
:1028B000FFF7AEFCA3E7002110200FF0C5FBEFE609
:1028C00000080058800C0020740C0020780C0020B8
:1028D000980C00209C0C0020783B0108383C010833
:1028E000743C0108003D0108943D0108503D010879
:1028F000CC3D0108AC3B0108A40D00200C3E0108B2
:102900005C3E0108FC3B010870B5052482B000253F
:102910004FF090460220FFF709FC3369DB0705F111
:10292000010548BF0025013CF4D1022D04D8154B08
:102930000122DA6002B070BD322007F02DFE114B8B
:102940005A68012122F001025A60D9600E4B082119
:1029500018680CF0ADFD041EECDA0DF10600FFF76F
:10296000E5F9BDF8063001464FF47A75224605FBBD
:10297000013106480FF0F6FA02B0BDE87040FEF7EC
:102980003DB800BF000800587C0C0020C43E010880
:1029900030B587B04FF0B043DB6C13F0010F04D1BA
:1029A0004FF401714348FEF7BFFB062007F0F4FD2A
:1029B000112302930023039302230493012401941F
:1029C0004FF09045AC610520FFF7B0FB01A9284608
:1029D00008F0DAFA94FAA4F4B4FA84F404F07C036C
:1029E00003F1804303F580339A6804F00304A400E4
:1029F0000721A14022EA01029A602F4B1A6822F0B7
:102A000001021A605A6822F001025A60D3F880204D
:102A100042F00102C3F88020D3F8842022F00102A2
:102A2000C3F884202549264801F0E0F8044658B947
:102A300007F0E2FA0446B0B9224B1B6813B3FFF764
:102A4000E7FB204607B030BD01A8FFF76FF9BDF8DE
:102A5000043022464FF47A7101FB00311A480FF01E
:102A600081FA0524EDE701A8FFF760F9BDF804300D
:102A700022464FF47A7101FB003114480FF072FACC
:102A80000524DEE7124A002112480CF0B0FC0D4B81
:102A900018600028D3D101A8FFF748F9BDF8043029
:102AA0004FF47A7101FB00310B480FF05BFA0624FA
:102AB000C7E700BF303F010800080058B5210008F3
:102AC000712200087C0C0020683F0108BC3F01080F
:102AD0004070010859260008104001082DE9F04F08
:102AE00083B0002860D00D4600295DD0B1F5907FFD
:102AF00046D8834601F0B0F9102D044666D95C4BE8
:102B00006E1CA3FB0636F6080136B042C0F090807A
:102B1000DFF8609159464FF0010A0D2209F10300D8
:102B2000A9F8015089F800A007F0C0FA10270BF1AE
:102B30000D0B0D3D09EB07064FF00208013602E0D0
:102B40001036002D4DD00F2D2C4628BF0F2459468E
:102B50002246304606F8018C07F0A8FA631C1F4491
:102B60007F2FA5EB0405A344EAD93946484601F076
:102B700081FA074600283AD14E4675B38246DDE712
:102B80000DF10600FFF7D2F8BDF806404FF47A7158
:102B900001FB00414FF4907337482A460FF0E2F9E9
:102BA000032003B0BDE8F08F0DF10600FFF7BEF87B
:102BB000BDF8063002464FF47A7101FB02312F480E
:102BC0000FF0D0F9022003B0BDE8F08F00B3294622
:102BD000584601F04FFA00283AD1002003B0BDE872
:102BE000F08F2448394601F045FA0028F5D00DF160
:102BF0000600FFF79BF8BDF8063001464FF47A74E3
:102C00001F48524604FB01310FF0ACF90520C8E71C
:102C10000DF10600FFF78AF8BDF8063002464FF4C2
:102C20007A71184801FB02310FF09CF90420B8E7D3
:102C30000DF10600FFF77AF8BDF806504FF47A71EF
:102C400001FB0051234632460F480FF08BF9EDE7A8
:102C50000DF10600FFF76AF8BDF8063001464FF4A3
:102C60007A74012204FB013108480FF07BF9CDE7AB
:102C700089888888A40C0020C440010868400108A5
:102C80002042010820410108C041010870410108AB
:102C900030B585B0EFF3108472B601A8FFF7CCF819
:102CA0000546214BDB6A9B0404D5204840F22251A3
:102CB000FEF73AFA1E480FF085FB84F310881D4A90
:102CC000D16803AB02AAC1F30221322007F07EFCD7
:102CD000029B052B0BD01848184B01990560196011
:102CE00000220521322007F0FDFB05B030BD322067
:102CF00007F052FC124B042118680CF0D9FB041E9B
:102D0000F3DA0DF10200FFF711F8BDF802300146C9
:102D10004FF47A75224605FB01310A480FF022F97B
:102D2000FDF76CFE05B030BD00080058303F0108CB
:102D30003412002000ED00E0780C0020740C00201C
:102D40007C0C00206C4201082DE9F041EFF310816A
:102D500072B6214C2268536823F002035360026864
:102D6000136823F0010313601C4B02681C4ED768E4
:102D7000D3F800801B4BDFF870E03568D3F800C053
:102D800007F11003984598BF7346BDB963451AD043
:102D9000D3600268E38F9BB253600268136843F00C
:102DA0000A03136002681368022443F001031360EE
:102DB00080F8254081F31088BDE8F08167451CBF8D
:102DC00000233360E6E701221D605D609D60DD60E9
:102DD00032600268DCE700BFC40A0020E00E002079
:102DE000D00E0020E80E0020EC0E002030B5224C62
:102DF00083B020460AF04AFB204A236893422CD035
:102E000002F57842934217D14FF0B0450A202B6C5F
:102E100043F480532B64FFF789F92B6C23F4805320
:102E20002B640023144884F85D300AF091F9144BA8
:102E300000221A6003B030BD0DF10600FEF776FFE8
:102E4000BDF80630226801464FF47A750D4805FB3F
:102E500001310FF087F80120E9E74FF0B0450A2073
:102E6000AB6B43F48043AB63FFF760F9AB6B23F4C8
:102E70008043AB63D5E700BFC40A002000380040A0
:102E8000C40E0020D44201082DE9F04182B007466B
:102E9000FEF7E6FD824C834A94F85C30D2F800805D
:102EA000012B00F0A280012384F85C3094F85D309F
:102EB000012BDEB241D002267B4F7C4D384608F014
:102EC0001DF8284608F01AF83B682A68D3F800C0B5
:102ED00010681A6822F001021A6029680A6822F054
:102EE000010220230A6093FAA3F32BB1B3FA83F310
:102EF0005B00032202FA03F34FF090414FF0020E01
:102F00000A6813430B603B68276829687A6822F0D7
:102F100003027A60664ADA60664AC3F804E0CA606F
:102F2000C1F804E0C3F800C02B68186000233046E5
:102F300084F85C3002B0BDE8F081054602214FF014
:102F4000904008F0EFF9F8B90DF10600FEF7EEFE3B
:102F5000BDF806304FF47A7101FB003156480FF08E
:102F600001F87B1C67D102214FF0904008F0DAF99C
:102F700050B9EFF30583A3B300BF02214FF0904097
:102F800008F0D0F90028F4D0474807F071FF054653
:102F9000A0B9464807F06CFF054658BB2268136885
:102FA00043F04003136002214FF0904008F0BAF95B
:102FB00098B3052384F85D302E46B7E70DF106007F
:102FC000FEF7B4FEBDF806304FF47A7101FB003114
:102FD0002A463A480EF0C6FF236E43F010032366DC
:102FE0006AE701200CF046FBBDE70226304602B03E
:102FF000BDE8F0810DF10600FEF798FEBDF8063041
:103000004FF47A7101FB00312A462D480EF0AAFFD9
:10301000236E43F0100323664EE70DF10600FEF722
:1030200085FEBDF806304FF47A7101FB003125486A
:103030000EF098FF40E7C8F3CB3802214FF09040E4
:1030400007FB08F808F06EF900289DD1EFF305831F
:1030500093B100BFFEF704FD401BB84210D2B8F197
:10306000000F0DD002214FF0904008F1FF3808F01A
:1030700059F90028EAD087E701200CF0FBFAE9E7CC
:103080000DF10600FEF752FEBDF8063002464FF481
:103090007A710D4801FB02310EF064FF03260BE745
:1030A000C40A002018080020A409002044090020B8
:1030B000D80E0020D40E002030430108F043010850
:1030C00060440108CC44010898430108F8B503F1B5
:1030D000FF3C1D46354B9C4504460F46164610D80E
:1030E00094F82430012B15D094F825300120834228
:1030F00084F8240010D00023802284F82430E26376
:10310000F8BD2B484FF47771FEF70EF894F8243091
:10311000012BE9D10220F8BD022384F825300023D9
:10312000E3632368E16C1A6822F001021A60D4E9B3
:103130001402486012B1D4E916104860616C206C2A
:1031400001F01C0C012101FA0CF14160A1685D60E5
:1031500010290BBF9E609F60DF60DE601968E06A27
:1031600021F00E01196018B1196841F002011960CF
:10317000216B39B1196841F00C011960196841F0EF
:1031800008011960A16C0868C0030AD41AB111685B
:1031900041F4807111601A6842F0010200201A6047
:1031A000F8BD086840F480700860EFE7FDFF030099
:1031B000444501082DE9F041A048A14C82B007F038
:1031C0009DFEA04807F09AFE23685A6822F020026C
:1031D0005A605A6892071FD45A68D10700F1EF80ED
:1031E0000020A4F84600E087226E402A4FF000023B
:1031F00018BF20660092D9680091996800910099E3
:1032000001929B680193019A08BF0120062384F86C
:103210005D3002B0BDE8F0815A68606D22F00202B4
:1032200000215A60816307F0A3FC002840F03D8133
:10323000FEF716FC0646844F23683D689B6805EB45
:103240008505C5EBC5052D0D05EB850513F4C05FA0
:103250004FEA45050DD0FEF703FC801B09282368C3
:1032600047D8002D45D09B6813F4C05F05F1FF35AA
:10327000F1D1FEF7F5FB064623683D689B68C5F370
:10328000CB3505EB85051B064FEA45050BD5FEF74B
:10329000E7FB801B092823682BD855B39B681806C9
:1032A00005F1FF35F3D4FEF7DBFB06463D68D4F8A5
:1032B000008005EB8505D8F80830C5EBC5052D0D58
:1032C00005EB850513F4C06F4FEA450508BF43467B
:1032D00007D12EE06DB19A6812F4C06F05F1FF3589
:1032E00027D098F80C30FEF7BBFB801B0928236819
:1032F000F0D95A68A16A22F0E0025A601A68B1F562
:10330000005F22F040021A6007D11A6822F40052CE
:103310001A601A6842F400521A60012284F85D2093
:10332000226E42F0200222660021402284F85C10C6
:1033300022661A6822F040021A60FEF791FB0646E8
:103340003D68276805EB8505BB68C5EBC5052D0DF8
:1033500005EB850513F4C06F4FEA450508D1C6E0BB
:103360006DB19A6812F4C06F05F1FF353FF434AFC8
:103370003B7BFEF775FB801B09282368F0D95A6850
:10338000A16A22F0E0025A601A68B1F5005F22F0EB
:1033900040021A6007D11A6822F400521A601A68B3
:1033A00042F400521A6000214022012084F85D009E
:1033B00084F85C1022665A68D1077FF511AF5A680D
:1033C000A06D22F0010200215A60816307F0D0FB5A
:1033D000002867D12268136823F040031360FEF7CA
:1033E0003FFB0646184F23683D689B68C5F3CB3505
:1033F00005EB85051A064FEA45050CD5FEF730FBAF
:10340000801B0928236853D8002D51D09B681B06C8
:1034100005F1FF35F2D4FEF723FB06463D68276829
:1034200005EB8505BB68C5EBC5052D0D05EB8505D1
:1034300013F4C06F4FEA450510D156E0A4090020EF
:10344000C40A002044090020180800206DB19A68C1
:1034500012F4C06F05F1FF353FF4C2AE3B7BFEF7BF
:10346000FFFA801B09282368F0D95A68A16A22F064
:10347000E0025A601A68B1F5005F22F040021A605B
:1034800007D11A6822F400521A601A6842F40052F6
:103490001A6001200021402284F85D0084F85C104D
:1034A00022669DE64023236694E740232366BFE619
:1034B0005A68A16A22F0E0025A601A68B1F5005F0A
:1034C00022F040021A6007D11A6822F400521A60F2
:1034D0001A6842F400521A6001210022402384F845
:1034E0005D1084F85C20236695E73B4678E63B4612
:1034F00072E600BFF0B585B0022393FAA3F3B3FAE6
:1035000083F303F07C0202F1804202F5803291687D
:1035100003F003039B00072000FA03F321EA0303EF
:103520009360AE4B1A6822F002021A605A6822F0C9
:1035300002025A600222DA60A94B1A6841F20103C2
:10354000B3EB124F80F0BE80A44A136843F002032D
:103550001360A24BD3F8802042F00202C3F880200F
:10356000D3F8842022F00202C3F884209D4A9E49A9
:103570000A6002F5D8709D4B18609D4B9D48036012
:1035800003F5C0739C4803600B68043B9A4203D95F
:1035900003F5D8739A42FBD8984A1A60984B9B6DF2
:1035A000002B00F09980964B5B6D002B00F09A8009
:1035B000934B9B68002B40F09B80914BDB68B3F5ED
:1035C000E06F40F09B808E4B1B69002B40F09C808D
:1035D0008C4B5B69B3F5807F40F09C80894B9B6985
:1035E000B3F5806F40F09C80864BDB69202B40F068
:1035F0009D80854B5B69002B40F09E80824B9B69D0
:10360000002B40F09F80804BDB69202B40F0A08096
:103610007B4B5B6D9A69B2F5806F00F0AB80002A3E
:1036200040F09C805B69002B40F0AF80744B5B6D79
:10363000DB69002B40F0AF80714B9B6D9A69B2F54E
:10364000806F00F0BA80002A40F0AB805B69002BED
:1036500040F0BE806A4B9B6DDB69202B40F0D88028
:10366000674B93F85C30012B00F07E82644B0122A3
:1036700083F85C2093F85D30DDB2934200F0CE8099
:103680000225604F384607F039FC5F4E304607F0A0
:1036900035FC5B4C2268536823F0030353603846C3
:1036A00007F066FA304607F063FA606D07F060FADB
:1036B000A06D07F05DFA524B002283F85C2028468B
:1036C00005B0F0BD454B1A6842F002021A605A6814
:1036D00042F002025A603CE740F2BE214B48FDF73F
:1036E00023FD60E740F2BF214848FDF71DFD5FE77D
:1036F00040F2C2214548FDF717FD5EE740F2C521C3
:103700004248FDF711FD5EE740F2C6213F48FDF754
:103710000BFD5DE740F2CA213C48FDF705FD5DE782
:1037200040F2CB213948FDF7FFFC5DE74FF43371E0
:103730003648FDF7F9FC5CE740F2CF213348FDF74E
:10374000F3FC5BE74FF434713048FDF7EDFC5AE7CA
:1037500040F2D1212D48FDF7E7FC59E74FF43571D0
:103760002A48FDF7E1FC264B5B6D9A69B2F5806F44
:103770007FF458AF5B69B3F5807F3FF457AF40F2F9
:10378000D7212248FDF7D0FC50E740F2DB211F484B
:10379000FDF7CAFC4AE740F2DE211C48FDF7C4FCF5
:1037A0004AE740F2E1211948FDF7BEFC144B9B6D3E
:1037B0009A69B2F5806F7FF449AF5B69B3F5807F9A
:1037C0003FF448AF4FF439711048FDF7ADFC41E7C5
:1037D0004FF43A710D48FDF7A7FC3BE7000800588D
:1037E000002004E06C100020E40E0020DC0E00201D
:1037F000EC0E0020E80E0020E00E0020EFBEADDE53
:10380000C40A0020A40900204409002044450108FE
:1038100040F2EA21AD48FDF787FC21E7FFF7CAFC3B
:10382000002840F0E780AA4B012283F85D20A84BD6
:1038300000221A66A749996310219987D987A6495A
:1038400019644FF4D871A3F84410A3F84610DA6451
:103850001A659B6AB3F5005F00F0EE809C4A116820
:103860004B6823F4C0434B604B6823F480434B60A8
:103870004B6823F400534B60536D9B69B3F5806F25
:1038800000F0E680924B9B6D9B69B3F5806F00F072
:10389000E4804B6843F480534B608D48836D8F4ABE
:1038A0005A63826D00231363826DD362826D9363CA
:1038B000B0F846309BB2026C0C31806DFFF706FC0D
:1038C0000446002840F0D5808148436D834A5A63FE
:1038D000436D834ADA62426D00231363426D936342
:1038E000804B01221A60C38F02689BB20C32816B3D
:1038F000406DFFF7EBFB0446002840F0D080744A8F
:103900001368596821F0C0015960596841F02001DD
:10391000596000210191986801900198029198687E
:103920000290186820F040001860029B0391136811
:10393000D9680391996803910399196841F400715A
:10394000196011680B6823F480730B6013685B685F
:103950009BB2654A538043F003031380202494FAFA
:10396000A4F4B4FA84F4640024F007014FF0904604
:103970003268CA40D2B2611A032000FA01F7FFB2DE
:10398000DFF868E122EA070C022303FA01F14CEAAE
:1039900001018EF800103A438EF80120316800FAD8
:1039A00004F20A43326052484C4A426351494A6326
:1039B00000220263C26282630A63CA628A63444A63
:1039C000126804324849FFF781FB0646002840F0A0
:1039D0009D80E208022302F1904244494548FFF7E6
:1039E00075FB0446002840F0A880434B01221A6072
:1039F000054660E603A8FEF799F9BDF80C300122F0
:103A00004FF47A7101FB00313C480EF0ABFAFFF73E
:103A1000EDF9044600283FF40AAF03A8FEF786F943
:103A2000BDF80C3022464FF47A7101FB0031344866
:103A30000EF098FA254624E6254A11680B6823F40F
:103A400000530B601268136843F40053136005E7DA
:103A5000D38FC3F34E03D38714E74B6823F480530B
:103A60004B601B4AB2F84630C3F34E03A2F846300F
:103A700013E703A8FEF75AF9BDF80C3022464FF4BD
:103A80007A7101FB00311F480EF06CFA104B1A6E70
:103A900042F010021A66012283F85D20F1E503A8C6
:103AA000FEF744F9BDF80C3022464FF47A7101FB61
:103AB000003115480EF056FA054B1A6E42F010020E
:103AC0001A66012283F85D20DBE500BF444501084A
:103AD000C40A0020EC0E00206C100020793B000886
:103AE000492D0008D00E0020D80E0020D40E002052
:103AF000A409002044090020C40E002084450108C8
:103B0000E84501085C460108A84601080DF10200DD
:103B1000FEF70CF9BDF8023032464FF47A7101FB22
:103B2000003112480EF01EFA114B1A6E42F01002CC
:103B30001A66012283F85D20A3E50DF10200FEF76D
:103B4000F5F8BDF8023022464FF47A7101FB0031DE
:103B500008480EF007FA064B1A6E42F010021A6679
:103B6000012283F85D208CE50225A8E5F4460108D2
:103B7000C40A00205447010870B5164C164D236E38
:103B80002A6843F01003012186B0236684F85D1093
:103B9000A2B11249124B134A206809681B681268C7
:103BA000266E806809681B68126803930E4B0096A6
:103BB0001B6801901B68029104920593FFF7FAFAC3
:103BC0002A682AB1009B216E0B43684600939047F8
:103BD00006B070BDC40A0020C80E0020640A002090
:103BE000040A0020A40900204409002010B582B076
:103BF0000F4B1B681BB10824204602B010BD0D4BB3
:103C000018600D4B1960FFF775FC04460028F3D0CF
:103C10000DF10600FEF78AF8BDF8063022464FF493
:103C20007A7101FB003105480EF09CF90A24E3E7A4
:103C3000C40E0020CC0E0020C80E0020B0470108A2
:103C400008B50B4B1B6883B10A4B1B681B685B06EE
:103C500001D5092008BD6420FFF716F90028F9D026
:103C6000032814BF0A200B2008BD072008BD00BF91
:103C7000C40E0020C40A002010B582B0FFF79AFAE3
:103C8000FFF7B4F828B9FFF735FC0446A0B902B035
:103C900010BD04460DF10600FEF748F8BDF80630E9
:103CA00001464FF47A7C0C4822460CFB01310EF0A1
:103CB00059F90A2002B010BD0DF10600FEF736F8E2
:103CC000BDF8063001464FF47A7C22460CFB0131E8
:103CD00002480EF047F9ECE7E84501080048010802
:103CE000F8B50446FDF7BCFE0546661C03D006F099
:103CF000ABFBB4FBF0F44A4B4A491A68096841F23D
:103D00000103B3EB124F66D2474A136823F0020354
:103D10001360454B454E0222DA60326853689807BB
:103D200004D0631C67D153689907FCD1EFF3108569
:103D300072B6D6E915139A6909681B68CE685C6883
:103D40003B4BB2F5806F08BF64009E423DD3394BB8
:103D50001B68B34239D3384A3849394804F1110352
:103D6000A2FB03239B080A683649374C03EBC303C5
:103D7000A2EB43039A4298BF0B4603603348043BCF
:103D80000660002030607060B060F0608B424FF0E1
:103D90000100206003D2521A13448B42FCD32C49F9
:103DA0001F4A1960126841F20103B3EB124F1CD392
:103DB0001D4B1A6842F002021A605A6842F0020271
:103DC0005A6085F310880020F8BD22484FF4AD6199
:103DD000FDF7AAF9BFE7144B1A6822F002021A6035
:103DE0005A6822F002025A6093E70F4A136843F0C0
:103DF00002031360E5E71A2701FB07F73F0D04FBF9
:103E000007F7FDF72DFE401BA04207D237B13368FC
:103E10005B689A0707F1FF37F3D187E70320F8BD06
:103E2000002004E01808002000080058C40A002000
:103E3000EC0E0020E00E0020398EE338DC0E00206E
:103E4000E40E00206C100020D00E0020E80E0020B0
:103E5000EFBEADDE44450108F8B5EFF3108272B64F
:103E60001C4B1D49586D1B680068C4685F680D686D
:103E700082F31088194EAE4220D8194B1B68AB4212
:103E80001CD3A6420BD8164B1B68A34207D3AC42E7
:103E90000CD019D2C5F5C07525442809F8BD1148C4
:103EA0004FF4B461FDF740F9AC42F2D1BB070ED537
:103EB0000D4B1868002818BF1820F8BD094840F2BB
:103EC0009F51FDF731F9DCE7601B0009F8BD1820B0
:103ED000F8BD00BFC40A0020E80E0020EC0E002050
:103EE000E00E002044450108D00E002030B4EFF36E
:103EF000108272B61E4B9B6D99691B6858681D4BEA
:103F0000B1F5806F1C6808BF400082F310881A4A20
:103F1000231F934205D219490968891A0B44934219
:103F2000FCD31968164B99421DD11649134D00F167
:103F30001103A1FB03039B08286803EBC303A0EB59
:103F40004303984288BF1A46A24209D096BFC4F5DF
:103F5000D870101B8018A1FB0010800830BC70477F
:103F6000002030BC70474FF0FF3030BC704700BFBE
:103F7000C40A0020E40E00206C100020DC0E00209B
:103F8000EFBEADDE398EE338002868D02DE9F04F62
:103F9000904683B0002A57D00F2955D900230746F1
:103FA0004FEA11191360EFF31083019372B6FFF714
:103FB0009DFF431C4ED02B4D2B4E2C684845A4F141
:103FC000040428BF4846B44205D2284B1B689B1BFB
:103FD0001C44B442FCD380B3DFF894B0DFF88CA06B
:103FE00007EB001929681022384606F05FF82268AE
:103FF0005A452DD12A68DAF8001012322A602A6850
:104000008A4207F1100706D32A683244521A2A60FE
:104010002A688A42F8D212348C4228BF721A02D31C
:1040200014448C42FCD2D8F80020B94502F11002A9
:10403000C8F80020C4F800B0D4D10020019B83F35D
:10404000108803B0BDE8F08F022003B0BDE8F08F08
:104050000620F3E7019B83F310880620F1E7022096
:10406000704700BFE40E00206C100020DC0E002022
:10407000EFBEADDE2DE9F04F11F00F0685B00C4616
:10408000054639D0C6F1100601EB060B002839D0E1
:10409000BBF5C07F36D8EFF31083009372B6DFF81C
:1040A000B8A1DFF8B891DAF80070B94575D86C4A54
:1040B0001268BA4271D36B4A516D12680968D1F81F
:1040C0000C805268C14502F0020301931ED8644A75
:1040D000126842451AD347451FD086BFC7F5C07244
:1040E0004244A8EB07025A451DD20520009B83F3EA
:1040F000108805B0BDE8F08F20B119B18B46BBF533
:10410000C07FC8D9022005B0BDE8F08F564840F204
:104110006D61FDF709F84745DFD1019B1BB1534A9B
:104120001268002ADFD04E4B1B6804EB0708984545
:1041300039D9DA1B7DD19B46B846F91A0C1908D03B
:10414000A9184046224605F0B1FF454BD3F800B010
:10415000A04408EB06045C4532D8002E44D1A8EBFD
:104160000906C14506F00F0603D83D4B1B684345C1
:1041700004D23D4840F2EC61FCF7D6FF26B13A4844
:1041800040F2ED61FCF7D0FFCAF80080019B13B943
:104190001A46364B1A600020A8E7334840F26461A3
:1041A000FCF7C2FF87E722462946384605F07EFF26
:1041B0002B4BD3F800B0D8450ED0CAD9042095E7D0
:1041C000BBEB08021CD1A4EB0B04404622460021A5
:1041D00005F0DAFFA044C2E709EB0604A045DFF8CA
:1041E0007C80EDD3002EC0D032464046002105F041
:1041F000CBFF1B4B1B689C420ED0DFD8A046AEE71E
:104200004046002105F0C0FF154B1A685A450DD0F5
:1042100028BFD846D2D3D6E7A14504D9124840F2E8
:10422000EC61FCF781FFDFF83480ADE7DFF82C802C
:10423000C9E729463846CDE9022305F037FF084B88
:10424000029AD3F800B0039B5B4502D0B6D89846DB
:1042500073E7DFF8088070E7E80E0020EC0E00201E
:10426000E00E0020C40A002044450108D00E0020C2
:10427000EFF3108372B6024A106883F31088704718
:10428000E80E0020024B1B6803B11847704700BFBF
:10429000CC0E002030B52F4C236859689A688906E7
:1042A0008BB031D555060AD5216E002041F00401AE
:1042B00021660190D9680191996801910199900650
:1042C0000CD5216E002041F0010121660290996811
:1042D0000291196821F0400119600299D10508D5B1
:1042E000216E002041F00801216603909968039136
:1042F0000399D20606D5226E4FF6EF7142F0020204
:1043000022669960226E0AB90BB030BD124D2A6840
:104310009AB11249124A08681168226E04929A688A
:1043200003680968CDE905230E4A0F4B12681B6824
:1043300012681B680993CDE90712FEF73BFF2A6854
:10434000002AE1D0049B216E0B4304A804939047FC
:104350000BB030BDC40A0020C80E0020640A002043
:10436000040A0020A4090020440900204A7991F899
:1043700003C00B88A2F10102B2FA82F2520963442F
:1043800003EBC20391F804C08A79C979BCF1000F2C
:1043900018BF0132062906D8DFE801F01005040530
:1043A000100504000232006803EBC2034FF47A7177
:1043B000421E01FB0323B3FBF0F070470132F2E72A
:1043C0002DE9F047454D2B68022B86B05FD14FF0A9
:1043D000904301249C610520FDF7A8FE404BDC6062
:1043E0005A6822435A603F4C2378022B61D0082B35
:1043F00019D0012B0ED10DF11600FDF797FCBDF879
:1044000016304FF47A7101FB0031374B37481A6888
:104410000DF0A8FD2B680021022B217030D0002068
:1044200006B0BDE8F087304B314F1B684FEA236977
:1044300023F07F482F4B1B68A7FB03239B09A7FB97
:104440000327BF094FF47A7A0DF116000AFB1736DD
:10445000FDF76CFCBDF81610CDF80090B9F1000F17
:10446000B4BF254B254B0AFB0011CDE9017624484A
:1044700042460DF077FD2B680021022B2170CED132
:1044800008200DF0E1FD002006B0BDE8F087EFF355
:10449000108472B61B480EF005F8D0B984F310886A
:1044A000012108200DF0D0FD012108200DF0E2FDD2
:1044B0008DE70DF11600FDF739FCBDF816304FF40D
:1044C0007A7101FB0031084B0F481A680DF04AFD64
:1044D000A0E70C480DF076FFE0E700BF6413002072
:1044E00000080058541200205012002054480108BF
:1044F000D34D62105C13002084330108504801083A
:10450000AC4801081C12002080480108F8B5214A77
:10451000D2F8903023F40043C2F890300446FDF7FF
:104520009FFA0646651C03D005F08EFFB4FBF0F43D
:10453000184D6B69980704D5621C0DD16B699B07F8
:10454000FCD4144A1449D2F89030002043F40043BC
:10455000C2F890300871F8BD104A17681A2303FB9F
:1045600007F73F0D04FB07F7FDF77AFA801B84423B
:1045700006D92FB16B69990707F1FF37F4D4E0E74B
:10458000044AD2F8903043F40043C2F89030082037
:10459000F8BD00BF00040058600B00201808002080
:1045A00010B5002882B00CBF9424962411488DF8D1
:1045B000054001230DF1050240F6AC0109F00EF9AA
:1045C000044610B9204602B010BD0DF10600FDF7FB
:1045D000ADFBBDF806C04FF47A71234601FB00C164
:1045E00040F6AC0204480DF0BDFC0424204602B0A5
:1045F00010BD00BF600B0020FC48010810B582B060
:1046000004468DF8051011488DF80440022301AAD4
:1046100040F6111109F0E2F8044610B9204602B044
:1046200010BD0DF10600FDF781FBBDF806C04FF48B
:104630007A71234601FB00C140F6111204480DF0C7
:1046400091FC0424204602B010BD00BF600B002086
:10465000FC48010830B583B0002104468DF80510F0
:10466000204801230DF1050240F6231109F0FEF860
:1046700090B99DF805301B4823F006031C430DF14B
:104680000502012340F623118DF8054009F0A6F834
:104690000446A8B903B030BD05460DF10600FDF78C
:1046A00045FBBDF806404FF47A7101FB00412B46F3
:1046B0000D4840F623120DF055FC042003B030BD28
:1046C0000DF10600FDF732FBBDF806504FF47A718C
:1046D00001FB0051234640F6231204480DF042FC32
:1046E000EBE700BF600B002054490108FC480108BB
:1046F00010B582B03148012301AA40F6161109F025
:10470000B5F8002847D19DF804402C4844F04004F7
:10471000012301AA40F616118DF8044009F05EF855
:10472000044620BB254801230DF1050240F6161171
:1047300009F09CF8044678BB9DF804209DF80530EC
:104740009A4225D00DF10600FDF7F0FABDF80640BB
:104750009DF805309DF804204FF47A7101FB00416B
:1047600017480DF0FFFB0B24204602B010BD0DF1E1
:104770000600FDF7DBFABDF806C04FF47A7101FBC5
:1047800000C123460F4840F616120DF0EBFB04243F
:10479000204602B010BD04460DF10600FDF7C6FA32
:1047A000BDF806C04FF47A7101FB00C1234640F604
:1047B000161205480DF0D6FBE9E700BF600B00209C
:1047C000AC490108FC4801085449010810B584B0FF
:1047D000044601230F488DF807400DF107028021A0
:1047E00009F07AF9044610B9204604B010BD0DF165
:1047F0000E00FDF79BFABDF80EC04FF47A71234608
:1048000001FB00C1802204480DF0ACFB04242046CB
:1048100004B010BD600B00201C4A010830B59C4656
:104820000025030A63F3070560F30F250B0A63F302
:1048300017450024130A63F3070462F30F244FEAB9
:104840001C2385B063F3174408236CF31F6461F3E2
:104850001F6510480DEB03021946CDE9025409F01B
:104860003BF9044610B9204605B030BD0DF10600F5
:10487000FDF75CFABDF806504FF47A71234601FB50
:104880000051082204480DF06DFB0424204605B0B9
:1048900030BD00BF600B00201C4A01082DE9F04725
:1048A000944D03682A68934282B03DD092490968CA
:1048B000012904463DD1914882424FD9834240F2BA
:1048C0009F8001AEE9468E498E488B428CBF1823EB
:1048D0001F238DF800304A46012340F2457108F04D
:1048E0007DFF0746002840F0AC8023688648A0FB87
:1048F000037243F60951120B01FB12339B0303F6BB
:104900004273A0FB0303920302EB133212BA01922B
:104910007C4804233246862109F0DEF80746002849
:1049200040F0B18023682B600025284602B0BDE826
:10493000F0870B273D4601AE3046FDF7F7F92268B8
:10494000BDF804404FF47A7101FB00413B466F48CB
:104950000DF008FB284602B0BDE8F0876C4EB2426D
:1049600033D9834240F28880E122E923002701AE57
:1049700030468DF800208DF80130FDF7D7F9BDF8ED
:1049800004104FF47A7A0AFB001162480DF0EAFA3B
:104990005C4802236A46982109F09EF88046E94661
:1049A0003046B8F1000F7DD1FDF7C0F95A4BBDF884
:1049B000041053F827200AFB001158480DF0D2FAD2
:1049C0002368002F3FF47FAF90E7554FBA424AD893
:1049D000DFF850C1624571D8DFF84CC162457BD821
:1049E0008342C1D8B34228D8BB4248D84D4A9342EB
:1049F0006ED84D4A93423DD96B226F230427B6E708
:104A0000434A934219D8464A934238D8454A93427A
:104A10005ED8454A9342EFD801AE3046FDF786F99D
:104A2000BDF804304FF47A7101FB003105223F4894
:104A300002270DF097FA3D467EE7D722DB230F468B
:104A400095E73046FDF772F9BDF804204FF47A710E
:104A500001FB00213B46364840F245720DF082FAD8
:104A600004273D4668E783423FF67EAFB342E4D871
:104A7000BB42CBD901AE39E7B342C4D9FAE7C12270
:104A8000C523022773E76846FDF750F9BDF80020FB
:104A90004FF47A7101FB00213B46862225480DF038
:104AA00061FADDE7FDF742F9BDF8041043460AFB61
:104AB000001198221F480DF055FAD1E783423FF6C6
:104AC00053AFB342B9D8BB42D9D86345D2D8A0E7D7
:104AD0007522812303274AE783423FF645AFB3425D
:104AE000ABD8BB42CBD80F4A9342F1D80E4A93427F
:104AF00092D9BFE75C13002064130020FFE8A435BF
:104B0000C0AFD235600B002083DE1B43244B01086D
:104B10007FF8A932B84A010894700108EC4A0108EC
:104B20007F44E52DFF0A6B1B7F47A119784A0108D6
:104B3000FC4801081C4A010810B5844682B04FEABF
:104B40001C21000C8DF804008DF805100F488DF81D
:104B500006C0032301AA822108F0BEFF044610B953
:104B6000204602B010BD0DF10200FDF7DFF8BDF8E0
:104B700002C04FF47A71234601FB00C1822204482F
:104B80000DF0F0F90424204602B010BD600B0020A7
:104B90001C4A010810B584B0044601230F488DF863
:104BA00007400DF10702962108F096FF044610B960
:104BB000204604B010BD0DF10E00FDF7B7F8BDF8AA
:104BC0000EC04FF47A71234601FB00C196220448BF
:104BD0000DF0C8F90424204604B010BD600B00207D
:104BE0001C4A010810B500F0070000240B0C60F30C
:104BF000070463F30F240B0A82B063F31744042302
:104C000061F31F640F4801940DEB0302972108F034
:104C100063FF044610B9204602B010BD0DF102003A
:104C2000FDF784F8BDF802C04FF47A71234601FB0A
:104C300000C1972204480DF095F90424204602B0E3
:104C400010BD00BF600B00201C4A010810B584B0E5
:104C5000044601230F488DF807400DF10702892112
:104C600008F03AFF044610B9204604B010BD0DF11B
:104C70000E00FDF75BF8BDF80EC04FF47A712346C5
:104C800001FB00C1892204480DF06CF90424204680
:104C900004B010BD600B00201C4A010810B582B0A2
:104CA00004468DF8051010488DF80440022301AA2F
:104CB0008F2108F011FF044610B9204602B010BD44
:104CC0000DF10600FDF732F8BDF806C04FF47A7119
:104CD000234601FB00C18F2204480DF043F9042450
:104CE000204602B010BD00BF600B00201C4A010826
:104CF00010B582B000241048ADF80440022301AA88
:104D0000072108F0E9FE044610B9204602B010BDA4
:104D10000DF10600FDF70AF8BDF806C04FF47A71F0
:104D2000234601FB00C1072204480DF01BF90424AF
:104D3000204602B010BD00BF600B00201C4A0108D5
:104D400070B5994B1B68012B86B003D00B25284604
:104D500006B070BD85780446FCF708FA012811D02A
:104D600002283ED080B105A8FCF7E0FFBDF8143062
:104D700002464FF47A718D4801FB02310DF0F2F8D2
:104D80000A25E4E7002D75D02168059188480423A1
:104D900005AA952108F0A0FE0546002878D1A27842
:104DA0008348002A14BF182138218DF80F100123E1
:104DB0000DF10F0240F6E70108F010FD054600B3C3
:104DC00005A8FCF7B3FFBDF814404FF47A7101FB5E
:104DD00000412B46774840F6E7020DF0C3F8042562
:104DE000B5E7002DD0D005A8FCF7A0FFBDF8143022
:104DF00002464FF47A7101FB02316F480DF0B2F8B0
:104E0000BEE76B48012304AA40F6E60108F02EFD38
:104E10000546F8B99DF81020654822F006028DF885
:104E20001020012304AA40F6E60108F0D7FC05464D
:104E300000283DD005A8FCF779FFBDF814404FF4D9
:104E40007A7101FB00412B4640F6E60259480DF00D
:104E500089F8C4E705A8FCF769FFBDF814404FF4D2
:104E60007A7101FB00412B4640F6E60253480DF0F3
:104E700079F8B4E705A8FCF759FFBDF814300246ED
:104E80004FF47A7101FB02314D480DF06BF877E772
:104E900004A8FCF74BFFBDF810404FF47A712B4685
:104EA00001FB0041952247480DF05CF804254EE7D0
:104EB000A27894F90430002A3BD1162B61DC6FF004
:104EC00008059D42B8BF1D46AB42EEB23BD16379A7
:104ED0008DF8113036488DF8106004AA02238E2117
:104EE00008F0FAFD054600284ED1374E072231461C
:104EF000204605F087F9B44207D000283FF427AFD9
:104F000007222146304605F0D1F805A8FCF70EFF30
:104F10002E4BBDF8141093F965304FF47A72002BC4
:104F200002FB0011CCBF2A4A2A4A2B480DF01AF87E
:104F30000DE70E2B05DC6FF010059D42B8BF1D4636
:104F4000C2E70E26354605A8FCF7F0FEBDF81410A2
:104F50004FF47A7303FB001194F9040094F90630BE
:104F6000401B002BA3EB0000CCBF194A194A0028B4
:104F7000CCBF174D174DCDE9005018480CF0F2FF8B
:104F8000A5E716263546DEE705A8FCF7CFFEBDF8F7
:104F900014404FF47A7101FB00412B468E220948E0
:104FA0000CF0E0FF1BE700BF64130020244C010855
:104FB000600B0020FC480108C84B01085449010857
:104FC0006C4B01081C4A0108CB1300206C13002015
:104FD0005048010884330108C44C0108684C01089A
:104FE00030B5054683B080B31B4801230DF105029F
:104FF000152108F083FC0446A0B9184A9DF8053035
:1050000012685B425B1042B96FF07F029342B8BFF7
:10501000134620462B7003B030BD114A92F95E2032
:105020009B1AF1E70DF10600FCF780FEBDF8063093
:1050300001464FF47A75224605FB013109480CF010
:1050400091FF0424204603B030BD074840F6F771B5
:10505000FCF76AF8C8E700BF600B00206813002067
:105060006C130020344D0108FC4C010830B583B0AE
:1050700005460223104801AA172108F03FFC044608
:1050800030B9BDF8043020465BBA2B8003B030BD88
:105090000DF10600FCF74AFEBDF8063001464FF45C
:1050A0007A75224605FB013104480CF05BFF0424AD
:1050B000204603B030BD00BF600B0020344D010816
:1050C00030B583B005460223114801AA132108F028
:1050D00015FC044640B99DF804209DF80530204693
:1050E000C5E9002303B030BD0DF10600FCF71EFE3C
:1050F000BDF8063001464FF47A75224605FB0131B2
:1051000004480CF02FFF0424204603B030BD00BF3C
:10511000600B0020344D01082DE9F04F824685B028
:105120008946EFF3108B72B661B102AD2846FFF7E6
:10513000C7FF002848D004248BF31088204605B010
:10514000BDE8F08F4749DFF820810222A1F10A0073
:10515000FFF70CF94FF4FA6303FB00F701A8FCF723
:105160006BFE02AD064605E09DF80220012A55D8E7
:105170009F4255D301230DF1020240F603013B4843
:1051800008F074FB04462846FCF756FEDDE90123CF
:10519000801B9B1A08FB0033002CE5D02846FCF747
:1051A000C5FDBDF808304FF47A7101FB003140F6BF
:1051B000030223462E480CF0D5FE04248BF31088FE
:1051C000204605B0BDE8F08F9DF80C10274802235B
:1051D000524608F015FC0546044680B99AF801309D
:1051E00002338DF80330B9F1000F20D0214BCAF8FB
:1051F00002308BF31088204605B0BDE8F08F01A87F
:10520000FCF794FDBDF804304FF47A7101FB0031D6
:1052100002222B4618480CF0A5FE8CE79F4285D24F
:1052200008248BF31088204605B0BDE8F08F0F48A6
:1052300001230DF1030240F2BB6108F0CFFA0546ED
:105240000028D3D001A8FCF771FDBDF804304FF45D
:105250007A7101FB003140F2BB622B4607480CF02B
:1052600081FE68E78E13002040420F00600B002093
:1052700054490108FECABAAB7C4D0108FC4801083C
:1052800000B51D4B1B78012B85B006D0022B1DD01D
:105290001A4B00221A6005B000BD0DF10E00FCF79C
:1052A00045FD174ABDF80EC09369D2F81CE0CDF851
:1052B00004E000934FF47A7192F8203092F82120A4
:1052C00001FB00C10F480CF04DFEE1E70DF10E00AF
:1052D000FCF72CFD0A4ABDF80EC092F8443000934A
:1052E0004FF47A7192F8463092F8452001FB00C1E4
:1052F00005480CF037FECBE7601300204C1200206D
:105300006C130020D84D0108304E010870B54FF0E5
:10531000B0446420D4F8943043F40043C4F894308B
:10532000FCF704FFD4F8943023F40043C4F894301D
:10533000FCF796FB054605F087F8D4F894305C043A
:1053400019D52D4B1B681A2202FB03F31B0D0526F2
:10535000B6FBF0F606FB03F4FCF782FB401B86422B
:105360004FF0B0433BD9002C39D0D3F894305904D6
:1053700004F1FF34F0D4214CD4F8903023F40043EE
:10538000C4F89030FCF76CFB054605F05DF86369E6
:105390009A0726D5184B1B681A2202FB03F31B0D34
:1053A0000A26B6FBF0F606FB03F4FCF759FB431B99
:1053B0009E42124A0CD95CB153699B0704F1FF3439
:1053C000F3D4D2F8903043F40043C2F890300EE0AA
:1053D0000A4AD2F8903043F40043C2F890300820D3
:1053E00070BDD4F8903043F40043C4F89030044BBF
:1053F0000020187170BD00BF18080020000400587C
:10540000600B0020F0B5012883B062D0022804466A
:1054100013D0002865D00DF10600FCF787FCBDF81D
:10542000063001464FF47A754348224605FB0131A8
:105430000CF098FD022003B0F0BD0124064627467B
:10544000FBF79CFEF0B100238DF805303B480123AB
:105450000DF1050240F6231108F008FA0546002870
:1054600058D19DF80530354823F006031E430DF151
:105470000502012340F623118DF8056008F0AEF90E
:105480000546A8BB2046FBF76DFE04460028D2D097
:105490000DF106063046FCF749FC2246BDF80640F1
:1054A0004FF47A7101FB00413B4625480CF05AFD50
:1054B0003046FCF73BFCBDF8063001464FF47A74E9
:1054C000042204FB01311F480CF04CFD042003B002
:1054D000F0BD1D4B93F8613033B9032702263C46DB
:1054E000AEE707460226ABE7022704263C46A7E7BD
:1054F0000DF106063046FCF719FCBDF806304FF4F6
:105500007A7101FB003140F623122B460F480CF054
:1055100029FDCDE70DF106063046FCF707FCBDF886
:1055200006304FF47A7101FB003140F623122B460E
:1055300007480CF017FDBBE7804E0108600B002008
:10554000B04E0108144F01086C130020FC480108FC
:105550005449010810B5194BB3F85520082322FA15
:1055600003F00021D2B260F3070162F30F2184B08F
:1055700060F3174162F31F61002402911048039405
:105580000DEB0302194608F0A7FA044610B92046AD
:1055900004B010BD0DF10600FCF7C8FBBDF806C055
:1055A0004FF47A71234601FB00C1082205480CF034
:1055B000D9FC0424204604B010BD00BF6C130020A9
:1055C000600B00201C4A0108F0B56C4883B00CF059
:1055D000F9FE6B480CF0F6FE01210820694D0CF035
:1055E00033FD012108200CF045FD2C68012C3DD035
:1055F00034F002043DD0FBF7C1FD08B300218DF863
:105600000510614801230DF1050240F6231108F051
:105610002DF9044600286ED19DF805105A4821F056
:10562000060141F002018DF8051001230DF105027C
:1056300040F6231108F0D2F80446002840F08C8090
:105640000020FBF78FFD0746002874D101264E4845
:105650008DF8056033460DF10502802108F03CFA13
:10566000044678B90A20FCF761FD2E60002003B0E3
:10567000F0BD0520FEF74AFF0646B0B108202C60B9
:1056800003B0F0BD0DF10600FCF750FBBDF806209D
:105690004FF47A7101FB002123463C4880220CF034
:1056A00061FC2F60042003B0F0BD394A364892F8FF
:1056B000571000290CBF942196218DF80510012365
:1056C0000DF1050240F6AC0108F088F80446002808
:1056D00091D00DF10600FCF729FBBDF806204FF430
:1056E0007A7101FB002123462A4840F6AC020CF0F7
:1056F00039FC2E60D6E70DF106052846FCF716FBAF
:10570000BDF806304FF47A7101FB003140F62312E8
:10571000214823460CF026FC2846FCF707FBBDF881
:10572000063001464FF47A74042204FB01311B4811
:105730000CF018FCB6E70DF106052846FCF7F6FA62
:10574000BDF806304FF47A7101FB00313A46002370
:1057500013480CF007FCDFE70DF106052846FCF7BF
:10576000E5FABDF806304FF47A7101FB003140F6DE
:105770002312234607480CF0F5FBCDE73412002036
:105780001C12002064130020600B00201C4A01083A
:105790006C130020FC48010854490108144F01080B
:1057A000B04E01082DE9F047A64B1C6884B0002CD0
:1057B00065D0A54EA54831780123C91AB1FA81F107
:1057C00049098DF80A100DF10A029F2108F084F9A9
:1057D0000446002840F08280FBF7D0FC08B39B48C9
:1057E0008DF80A4001230DF10A0240F6231108F05A
:1057F0003DF80446002840F088809DF80A10934840
:1058000021F0060141F002018DF80A1001230DF18B
:105810000A0240F6231107F0E1FF0446002840F099
:10582000C8800120FBF79EFC8146002840F099804B
:10583000874F03233B604FF6FF7203ADADF80C209A
:105840008DF80E2081482A46822108F045F98246CB
:105850000446002840F09580DFF8F881D8F8003041
:1058600043B13378012B00F0B680022B00F0D180D9
:10587000C8F800000024204604B0BDE8F08703AD5E
:105880002846FCF753FABDF80C30DFF8C8814FF416
:105890007A7101FB003170480CF064FBD8F80030DD
:1058A0004BB1694B1B78012B00F0C880022B00F034
:1058B000C780C8F800400B2634462846FCF736FA65
:1058C000BDF80C304FF47A7101FB00313246634869
:1058D0000CF048FB204604B0BDE8F08703AD284635
:1058E000FCF724FABDF80C20DFF868814FF47A71D8
:1058F00001FB002123465A489F220CF033FBD8F8C5
:1059000000302BBB04263446D7E703AD2846FCF70E
:105910000DFABDF80C204FF47A7101FB00212346EB
:10592000504840F623120CF01DFB2846FCF7FEF908
:10593000BDF80C30DFF81C814FF47A7101FB0031A7
:10594000042249480CF00EFBD8F80030002BD9D0C7
:105950003378012B3ED0022B5AD00023C8F80030F8
:10596000D0E703AD2846FCF7E1F9BDF80C304FF461
:105970007A7101FB00314A4601233C480CF0F2FAEF
:10598000D3E70DF10A00FCF7D1F9BDF80A20DFF8E2
:10599000C4804FF47A7101FB0021534630488222C3
:1059A0000CF0E0FAD8F80030C7F80090002BA9D02E
:1059B000CEE703AD2846FCF7B9F9BDF80C204FF44B
:1059C0007A7101FB0021234640F6231228480CF08F
:1059D000C9FAAAE704242846FCF7A8F9254ABDF825
:1059E0000C304FF47A7101FB0031D3690193936954
:1059F000009392F82030204892F821200CF0B2FA5F
:105A00000023C8F80030002C3FF434AF264654E79A
:105A100004242846FCF78AF9164ABDF80C304FF4E6
:105A20007A7101FB003192F84430009392F84630CD
:105A3000124892F845200CF095FAE1E70B24CAE7EA
:105A40000B24E6E76813002060130020600B0020A1
:105A5000641300204C120020584F0108B04F010879
:105A60001C4A010854490108144F0108B04E0108AE
:105A7000FC4801086C130020D84D0108304E010885
:105A80002DE9F041824882B00CF09CFC814C2368E7
:105A9000022B03D1002002B0BDE8F0817C480CF05D
:105AA00091FC7D480CF08EFC012108200CF0CCFA12
:105AB000012108200CF0DEFA2568012D76D035F0A2
:105AC000020569D0FBF75AFB38BB0020FBF74AFB05
:105AD0008046002840F0B980012701AD6F488DF85D
