:020000040800F2
:2000000010070020C5790008DD720008797300087B7300087D7300087F730008E9760008C9
:200020000000000000000000000000008173000883730008000000008573000887730008C4
:20004000E9760008E9760008E9760008E9760008E9760008E9760008E9760008E976000868
:20006000E9760008E9760008E9760008E9760008E9760008E9760008E9760008E976000848
:20008000E9760008E9760008E9760008E9760008E9760008E9760008E9760008E976000828
:2000A000E9760008E9760008E9760008E9760008E9760008E9760008E9760008E976000808
:2000C000E976000891730008E9760008E9760008E9760008E9760008E9760008E976000843
:2000E000E9760008E9760008E9760008E9760008E9760008E9760008A1730008E976000813
:20010000E9760008E9760008E9760008E9760008E9760008E9760008E9760008E9760008A7
:20012000E9760008E9760008E9760008E9760008E9760008E9760008E9760008E976000887
:20014000E9760008E9760008E9760008E9760008E9760008E9760008E9760008E976000867
:2001600010B5054C237833B9044B13B10448AFF300800123237010BD300800200000000085
:2001800054BF000808B5034B1BB103490348AFF3008008BD000000003408002054BF000878
:2001A00010B5040010461A4618BF00290AD0002818BF002A06D021610146204602F06BFD5E
:2001C000014B636110BD00BFFEAF1C5E10B5040007D002F0A4FD20461821BDE810400BF09A
:2001E0005FBE10BD002810B518BF002901D1012010BD002444618161C2610362002010BD48
:2002000002469069D36900684168006802F07EBCC16902F002BD70B50546E8690E46142296
:2002200002F049FD040049D1316800200861AA6910680368E8691A6803F0E4FF040038D19A
:20024000A869016830680A6800F10801E869126803F0D8FF040028D1A86931684268D369FE
:20026000032B30D00068091D0268E869126803F0C9FF040013D1A86931684268D369022B2D
:200280001ED100680C310268E869126803F0BAFF040013D03068011DE86903F0BEFF3068B3
:2002A00000F10801E86903F0B8FF3168E86903F0B4FFE8691422314602F01CFD204670BD1D
:2002C0000020C860FAE700224A60CA60F6E770B50C460025002C06461ABF2068002801255F
:2002E00023D0B1694A68D369022B04D100F10C01F06903F092FFB0694168C869032804D034
:200300002168F069091D03F088FF206800F10801F06903F082FF2168F06903F07EFFF06961
:200320001422214602F0E6FC2560284670BD0000F8B50F4600251646002F044618BF002E2B
:200340000BD0396800291CBFB868002805D03268002A1CBFB068002801D1012519E03B698C
:200360002046336103F094FF796800291FBF7268002A204603F08CFFB268B968204603F099
:2003800087FFF96800291FBFF268002A204603F07FFF2846F2BD70B50E46B16915460446BF
:2003A0000A680120D3693BB1022B01D007D370BD4968CB69032B14D0126869680CE01268D5
:2003C0002968204602F074FBB1694A68D369022B07D10868E96802682046BDE8704002F0E0
:2003E00067BB70BD70B506460D462869002440F001002861B1690868C2691AB1022A08D0F7
:2004000018D32DE02868002103F033FF686801210BE049682868CA69032A08BF012104D0D3
:20042000002103F026FF0121686803F022FF0021A86812E02868002103F01BFF68680121AA
:2004400003F017FFA868012103F013FFB0694168C869022805D10021E86803F00AFF00E01C
:200460000124204670BD2DE9FC4B16460025002E80468B461C461CBF0B9F002F05D0396895
:2004800000291CBFB868002803D101252846BDE8F68B0A9838614A683168404602F0D5FBB4
:2004A0003A685060786838B156F82B104268404602F0CBFB79684860B868002C42684046AB
:2004C0000CBF0121216802F0C0FBB9684860F86838B156F83B104268404602F0B6FBF9681A
:2004E00048604FF00209361F15E0404602F0ADFBB96841F82900F86858B150F8292009EB2F
:200500004B0056F82010404602F09FFBF96841F8290009F10109CB45B8D3386856F8291077
:2005200050F82920404602F090FB396841F82900786858B150F829200BEB090056F820102D
:20054000404602F082FB796841F82900B868002C50F829200EBF0021201F50F82910C4E72D
:2005600070B50446A0690D4600264168C869032818D8DFE800F00707020C226AE86821467F
:2005800002F0DDFA226A6868214602F0D8FA226A2868214602F0D3FA226AA868214602F0D4
:2005A000CEFA00E00126286940F004002861304670BD000038B50446A0690D464168C8690E
:2005C00003281FD8DFE800F009090210236AE269E868214602F0BBFAA8B9236AE2696868DF
:2005E000214602F0B4FA70B9236AE2692868214602F0ADFA38B9236AE269A868214602F031
:20060000A6FA00E00120296921F00401296132BDF8B5044600260D46002C18BF002D5ED04A
:20062000287C002100F0010002F017FB012856D0A868002103F0AAFE012850D0A06901682A
:200640002868096803F061FE002848D5A0694168CA69032A06D000680168686803F055FE33
:2006600000283CD5A1690968086900281CBF4869002835D0C86918B1022831D032D32EE03C
:200680006069236A22460168286802F0A5FAA069616900680B6802680169184601F092FEB1
:2006A0006069216A2346026800912968104602F070FAA0696269016810680A68496903461D
:2006C00001F080FE6069236A22464168686802F083FA60694168006803F017FE00B1042648
:2006E0003046F2BD6069236A22460168286802F073FA6069236A22464168686802F06CFA30
:200700006069226A234601680092A0690A460768386902F03EFAA269616917680868496818
:200720003A68034601F04EFE6069216A2346406800912968024602F02CFA6069216A2346ED
:20074000406800912968024602F023FA6069216A234640680091A76902463F68796902F0AF
:2007600018FAA16960690A68A96840681268034601F028FEADE70000F0B50F4685B00021AB
:20078000064603910491B06903A901250368F0691C68226803F036FD040040F0C680B0696E
:2007A0000168F0690A6804A9126803F02BFD040040F0B780387C002100F0040002F04DFA56
:2007C00020B9394630460025FFF7CAFEDFF87821D2E900345649CDE900340878554B002838
:2007E0000EBF0021042004211A585DF801005249821811601068012191605A6800995040DE
:200800001A6841404D4880EA010C01994C484A404240B06994444B4A036892EA0C0F049A69
:20082000186814BF6FF002016FF0010101F00EFFB0693246C469306A0290F1690398019133
:20084000049900906368B8682468A0470446B0694168C86903284AD8DFE800F0021F294042
:20086000336A04990398324602F0B6F9306A3A68049900903346104602F08BF9306A049AA4
:20088000334600900398114602F083F9316A7868334600910246049926E0316A38683346CB
:2008A00000910399024602F074F9786817E0316A3868334600910399024602F06AF9316A74
:2008C0007868334600910399024602F062F9306A33460090FA687968386805E03868316A57
:2008E000334602460091039902F053F900E00124316AB868334600910399024602F049F9EA
:20090000002D08BF002C04D139463046FFF752FE0446386904A940F002003861F06903F0F8
:200920007CFCF06903A903F078FC204605B0F0BD4C08002018C300082C7E82AD0485001240
:20094000FC68017AA8E29B8ED01E00082DE9F04788B00646B0691D4689469246016A006848
:2009600009EB0A0212F8017C0368F069D1F808801A6806A9FF0903F045FC040040F0418178
:20098000B0690168F0690A6807A9126803F03AFC040040F03281B0690168F0690A6803A9D7
:2009A000126803F02FFC040040F02381B0690168F0690A6805A9126803F024FC040040F00B
:2009C0001481B0690168F0690A6804A9126803F019FC04001AD1039A5146484603F029FD3C
:2009E00003980399006851F8202022F0004241F82020B06901680398096803F086FC0028D7
:200A000005D4F06904A9042403F007FCE9E06868002103F02EFC6A680399012003F038FC4C
:200A2000326A0398314602F08AF8336A05990398324602F0D1F8B0690168C0680A68011D51
:200A40000498126803F0F4FBB069079B016805980A68049901F047FD306A069A3346009056
:200A6000B06901680598496902F093F8B069069B01680A680499184601F0A4FC336A0399CE
:200A80000698324602F0A8F8306A039A069900903346104602F07DF8306A059A03990090AD
:200AA0000798334602F075F80399336A3246084602F092F8306A039A06990090334610460F
:200AC00002F067F8306A039A079900903346104602F05FF8B069049A6FF004010368186840
:200AE00001F0B4FD049A0321104601F040FCB069C469306A0290F169039801912A680499E7
:200B00000092636824683246A0470446F06904A903F083FB002C64D1316A28683346009136
:200B20000599024602F035F8336A03992868324602F052F8306A039A3346009006981146FE
:200B400002F027F80799039803F0DFFB98B1B069059A07990368186801F044FD0599039885
:200B600003F0D3FBB8B9316A2868334600910246414602F00EF8336AF2692868314601F057
:200B8000E6FF04002DD1012F07D12868002103F0FDFB012801D1042423E0B0692968026890
:200BA0000879126800F00100784001F081FF2869012140F002002861A86803F05AFBB06941
:200BC0004168C86902280CD1306A33460090EA686968286801F0DDFF326AE868314601F0BD
:200BE000AEFFF06905A903F018FBF06903A903F014FBF06907A903F010FBF06906A903F032
:200C00000CFB204608B0BDE8F0872DE9F0431F4605468846914687B008EB090010F8016C4D
:200C2000A86905A9F6090368E8691C68226803F0E9FA040040F01381A8690168E8690A6851
:200C400006A9126803F0DEFA040040F00481A8690168E8690A6803A9126803F0D3FA0400C0
:200C600040F0F580A8690168E8690A6804A9126803F0C8FA040040F0E6807A68A9F101019E
:200C8000404603F0D6FBA86901687868096803F03CFB002840F1BF800398002103F0E9FAEB
:200CA000039A7968012003F0F3FA2A6A0398294601F045FF2B6A049903982A4601F08CFF29
:200CC000A8690168C0680A68011D3868126803F0AFFAA869069B016804980A68396801F071
:200CE00002FC286A059A2B460090A86901680498496901F04EFFA869059B01680A68396891
:200D0000184601F0F0FB2B6A039906982A4601F063FF03992B6A2A46084601F05DFF286A39
:200D2000039A069900902B46104601F032FF2B6A049905982A4601F04FFF286A049A2B46DF
:200D400000900598114601F024FF286A039A049900902B46104601F01CFFA869049A6FF0BE
:200D600002010368186801F071FC049A0221104601F0FDFAA869C469286A0290E9690398D9
:200D800001913A6804990092636824682A46A047040054D1286A039A0599009006982B46AD
:200DA00001F0F7FE2B6A049906982A4601F014FF286A039A049900902B46104601F0E9FE0E
:200DC000296A38682B4600910399024601F0E1FE2B6A039938682A4601F0FEFE286A039ACD
:200DE0002B4600900598114601F0D3FE0699039803F08BFA78B92B6AEA693868294601F071
:200E0000A6FE04001BD1012E07D13868002103F0BDFA012801D1042411E0A869396802689C
:200E20000879126800F00100704001F041FEB868012103F01EFA386940F002003861E869DC
:200E400004A903F0EAF9E86903A903F0E6F9E86906A903F0E2F9E86905A903F0DEF9204643
:200E600007B0BDE8F08370B50646B0690C46154601680868026850F8220001F0FAFEB169BC
:200E800062680B684FF0FF319E69761E4E4032406260C0F12002D14022680126401E54F80A
:200EA000223086400B4044F82230226854F82230334344F822302868026850F82230194028
:200EC00040F8221070BD2DE9F44F05460E461F4684B06869D0F80080D0F80490D0F808A005
:200EE000C0680E9C2A4601907968D7F800B00391B868414602902B6AB06801F06DFE286A57
:200F00002B464A460090B068414601F042FE286A04992B46009009684246404601F039FE99
:200F2000286A04992B46009049684A46484601F030FEA8694346016840460A68316801F00E
:200F4000D2FAA8694B46016848460A68716801F0CAFAECB10021404603F018FA20603A68C1
:200F6000494603F0CDF983467A682068494603F0C7F90390BA682068494603F0C1F90290A9
:200F80000021484603F002FA216841EA40012160286A029A2B460090B068414601F0F9FD88
:200FA0002B6A2A465146404601F016FE286A019A2B4600905146404601F0EBFD286A2B46E3
:200FC000524600903068514601F0E3FDA8694346016850460A68514601F0F4F92B6A2A4664
:200FE0005946484601F0F8FDA8695B46016858460A68414601F077FAA8695B460168584611
:201000000A68019901F06FFAA8695346016850460A68594601F067FA286A2B465246009033
:201020005146484601F0B5FD286A019A2B4600907168104601F0ADFDA869039B0168504642
:201040000A68019905B0BDE8F04F01F04CBA2DE9F84F044660691E46D0F80090D0F804A05C
:20106000D0F80880D0F80CB0236A0D46A86817462246494601F0B0FD206A2346524600909F
:201080003868494601F085FD206A23464A460090A868494601F07DFD206A23464A4600907E
:2010A0007868494601F075FD236AB8682246414601F092FD206A23465A4600902868414608
:2010C00001F067FD206A234642460090B868414601F05FFD206A234642460090686841465A
:2010E00001F057FDA0695346016850460A68594601F0F9F9A0694B46016848460A6841468C
:2011000001F0F1F9206A2346514600903268B86801F03FFD206A23460090B2683168A868AD
:2011200001F037FD236A31682246504601F054FD206A2346009072683168504601F029FD81
:20114000206A2346524600903168584601F021FD236A31682246484601F03EFDA169306844
:201160000A6871680346126801F0BDF9206A7168234600900A46404601F00BFDA0694246FE
:2011800001685046096801F034FCA16930680A6841460346126801F0A6F9A06953460168C5
:2011A00050460A68316801F09EF9206A23464A4600905146484601F0ECFCA06971680268A9
:2011C00048460B46126801B0BDE8F04F01F08BB92DE9FE4F04460D46606916469846816800
:2011E0000768D0F8049001913168D0F80CA03A46404603F085F8716883463A46404603F074
:201200007FF80290B1683A46404603F079F80646236AA8682246394601F0DEFCA0694B460D
:20122000016828680A68394601F0CCF8A0693B46016828680A68394601F055F9206A234669
:201240003A4600904946384601F0A3FCA0694A4601683846096801F07AFBA0693B46016897
:2012600038460A68494601F0ADF8236A68682246494601F0B1FC206A019A234600902868B9
:20128000494601F086FC236A22465146384601F0A3FCA0695346016850460A68019901F014
:2012A00022F9A0695B46016850460A68019901F01AF9206A234632460090A968686801F08D
:2012C00068FC236A22464946484601F085FCA0695346016801980A68594601F004F9206AF9
:2012E00023463A4600905146384601F052FCA069029B016838460A68494603B0BDE8F04FFC
:2013000001F0F1B82DE9FE4F044660690768D0F80480D0F80890C0680D46164601903168A1
:2013200002983A4602F0ECFF8246716802983A4602F0E6FF8346B16802983A4602F0E0FF57
:201340000646A0693B46016868680A68A96801F039F8236A28682246414601F03DFC236A16
:2013600068682246494601F037FCA0695346016828680A68494601F025F8236A0199A868A1
:20138000224601F029FC236A22465146504601F023FCA0695346016850460A68414601F012
:2013A000A2F8A0695A4601684046096801F021FBA0694346016840460A68594601F002F800
:2013C000236A22465946484601F006FC236A22463946384601F000FCA0693B4601683846A8
:2013E0000A68494601F07FF8A0693346016838460A68019901F077F80199236A22460846D2
:2014000001F0EAFB206A019A23460090A06911460568286901F0BDFBA0693B460168404658
:201420000A68019900F0CEFFA069434601680A685946504601F057F8A06942460168404681
:20144000096801F0D6FA236A22464946384601F0C3FBA069019A01684046096801F0C9FAF1
:20146000A0695346016848460A68019901F03BF8A0694346016840460A68514601F033F8FD
:20148000A0694A4601685846096801F0B2FAA0694A4601684846096801F0ABFAA0694A466E
:2014A00001684846096801F0A4FA206A23463A4600904146384601F06CFBA0695B460168C2
:2014C00038460A68494603B0BDE8F04F01F00BB82DE9FC47044665690A98D5F80080D5F815
:2014E0000490D5F808A008B1002505601646226A0F461D460092316838682346424601F053
:2015000048FBA0694B46016838680A68796800F059FFA0692B68016830680A68716800F072
:2015200051FF206A234600906A687168786801F030FB206A2346524600906968404601F0CE
:2015400028FB206A234652460090A06951460668706901F01EFB206A23464A4600902968B8
:20156000484601F016FBA0694B46016848460A68414600F0B8FFA0694B46016848460A68A7
:20158000696800F0B0FF206A234642460090A06941460668306901F0FCFAA16968680A6806
:2015A00041460346126800F09EFF236A2968B868224601F011FBA0694346016828680A68B4
:2015C000514600F090FFA0695346016828680A68514600F0F7FE206A23464A4600904946CA
:2015E000404601F0D6FA206A2346494600902A68B86801F0CEFA206A23464A460090696843
:20160000504601F0C6FA206A2346494600906A68B86801F0BEFA206A234651460090AA68AA
:20162000404601F0B6FABDE8F3872DE9FC4704466069D0F800A0D0F80480D0F80890206A5A
:201640000D4617460090B968A8681E462346524601F09FFA206A23460090B268396828685C
:2016600001F097FAA0694346016828680A68696800F0A8FEA0693368016838680A68796884
:2016800000F0A0FE206A2346009072687968686801F07FFA206A23464A4600907168B06840
:2016A00001F077FA206A23464A460090A06949460568686901F06DFA206A2346424600907C
:2016C0003168404601F065FAA0694346016840460A68B16800F007FFA06943460168404618
:2016E0000A68716800F0FFFE206AB16823460090A0690A460568286901F04BFAA1697068A7
:201700000A68B1680346126800F0EDFE236A31682246504601F060FAA069B368016830680C
:201720000A68494600F0DFFEA0694B46016830680A68494600F046FE206A23464246009000
:20174000B068414601F025FA206A2346414600903268504601F01DFA206A2346424600908D
:201760007168484601F015FA206A2346414600907268504601F00DFA216AB06823460091F3
:201780000246494601F005FABDE8F3872DE9F84F044660690D461746066839689B46D0F88B
:2017A00004A03246584602F0ABFD796880463246584602F0A5FDB96881463246584602F094
:2017C0009FFD0746A0693346016828680A68696800F0F8FD236A28682246514601F0FCF97B
:2017E000206A234642460090A0695146D0F800E0DEF8100001F0CDF9236A22463146304617
:2018000001F0EAF9A0693346016830460A68514600F069FE236A68682246494601F0DCF919
:20182000A0695346016840460A68494600F0CAFDA0694346016840460A68494600F053FE9C
:20184000A0693346016830460A68494600F04BFE236AA8682246394601F0BEF9A0693A4638
:2018600001683846096801F0C4F8206A23464A4600904146504601F08CF9A0693B460168CA
:2018800050460A68394600F02EFE206A2346424600903946304601F07CF9206A23463A46CC
:2018A00000903946504601F074F9BDE8F18F2DE9F8430D4604466169089817461E46D1F81E
:2018C0000080D1F8049008B100210160A0692968434600680268686800F005FEA0694B469E
:2018E000016878680A68396800F06CFD206A2346424600904946404601F04BF9A0694B4644
:20190000016868680A68296800F05CFDA0693368016878680A68396800F0E5FD206A23467D
:201920004A4600903168484601F033F9A0693368016848460A68414600F0D5FDA0694B4653
:20194000016848460A68414600F03CFDA06972680168F868096801F04CF8206A7168234650
:201960000090A8680A4601F014F9A069F2680168E868096801F03DF8A06943460168F06873
:201980000A68716800F01EFDA169F0680A6871680346126800F0A7FD206A234649460090DB
:2019A000B268306801F0F5F8206A3168234600900A46404601F0EDF8206A23460090726872
:2019C000F168484601F0E5F8206AF168234600900A46404601F0DDF8BDE8F1832DE9F84370
:2019E0000446606917460D46D0F80490D0F80080A06929681E46006843460268686800F067
:201A000072FDA0694B46016878680A68396800F0D9FC206A2346424600904946404601F08B
:201A2000B8F8A0694B46016868680A68296800F0C9FCA0693368016878680A68396800F07B
:201A400052FD206A23464A4600903168484601F0A0F8A0693368016848460A68414600F0F0
:201A600042FDA0694B46016848460A68414600F0A9FCA06972680168F868096800F0B9FF43
:201A8000206A716823460090A8680A4601F081F8A069B2680168B868096800F0AAFF206AE0
:201AA00023460090F268B168E86801F072F8A06943460168F0680A68716800F083FCA169F8
:201AC000F0680A6871680346126800F00CFD206A234649460090B268306801F05AF8206A16
:201AE0003168234600900A46404601F052F8206A234600907268F168484601F04AF8206A42
:201B0000F168234600900A46404601F042F8BDE8F1832DE9FE4F0446984660690D46164656
:201B2000436807684046019331683A4602F0E8FB716881463A46404602F0E2FBB16882462D
:201B40003A46404602F0DCFBF16883463A46404602F0D6FB0646236A28682246394601F08A
:201B60003BF8236A68682246314601F035F8236AA8682246594601F02FF8A0695A4601680A
:201B80005846096800F035FFA0694B46016828680A68696800F016FC236A22464946484628
:201BA00001F01AF8A0694B46016848460A68394600F099FCA069524639460368186800F020
:201BC00011FDA0693B46016848460A68314600F08AFCA069019B016850460A68314600F09A
:201BE000F1FBA0693346016850460A68314600F07AFCA0695346016801980A68594600F084
:201C000072FC206A0199234600905A46504600F0C0FF206A23464A4600905146384600F03C
:201C2000B8FF206A2346524600900198314600F0B0FF206A2346324600903146384600F043
:201C4000A8FFBDE8F78F2DE9F8430446606916460D46D0F80490D0F80080A0691F46B9686C
:201C6000006843460268386800F0ACFBA0694B46016838680A68B96800F035FCA0693B68CF
:201C8000016830680A68B16800F09CFBA069BB68016830680A68B16800F025FC216AB868BD
:201CA000234600910246414600F073FF236A22464146404600F090FF216A38682346009153
:201CC0000246494600F065FF236A22464946484600F082FFA06933680168B8680A68396816
:201CE00000F070FBA169B8680A6839680346126800F0F9FB3068236A2246014600F06CFF76
:201D0000B868236A2246014600F066FF206A23460090B268B968286800F03BFF206A2346A7
:201D2000494600903A68404600F033FFA0694B46016840460A68494600F0D5FB206A2346FD
:201D40000090A069BA6801684846096900F021FFA0694346016840460A68B96800F032FB1E
:201D6000206A234649460090BA68404600F011FFBDE8F183FEB5064600200C461746019031
:201D800022691D4600212A61207C00F0010000F064FF012807D1387C002100F0010000F012
:201DA0005CFF012836D0207C002100F0010000F054FF012802D12A46394609E0387C0021FF
:201DC00000F0010000F049FF012804D12A462146FEF7AEFAF7BD3A4601A80090B7692B466A
:201DE0002146D7F804C03046DCF80470B8470198C10713D5C0F3400060B13046B669012326
:201E00002A4677682146D7F800C0E04720694008400002E0286940F001002861F7BDF8B5B7
:201E200006460F4638691D4614462861387C002100F0010000F011FF012807D1207C002196
:201E400000F0010000F009FF01283BD0387C002100F0010000F001FF012802D12A462146DC
:201E600009E0207C002100F0010000F0F6FE012805D12A463946BDE8F840FEF759BA394695
:201E8000B7692B462246D7F804C03046DCF80870B847A868002102F079FA012816D12868BF
:201EA000002102F073FA01280CD13046B66901232A4677682146D7F800C0E04720694008A6
:201EC000400002E0286940F001002861F1BD000004B00101001701452DE9F84F94B000250E
:201EE0000C460A950995089506950795059504956CB3110002921FBF1E9F002FDDF880B0B9
:201F0000BBF1000F23D0050021D06869A24988421DD12869C169606A014208BF9F4C17D048
:201F200094F82800810758BF9D4C11D503932168086802F041FA08304FEAD0090398484551
:201F400002BFDDF884A04FEA4908C24501D0954C1EE12B692A4621460BA8FEF743F94246AE
:201F600005A9284600F0A7FE8F4C0028F0D111981F9E016A2846CA6804A94244B21800F08E
:201F80009AFE00284ED11198006AC2680169049809F084FF119B04984A46D3F820C0594681
:201FA000DCF80C30184409F079FF119B04980299D3F820C04A46DCF80C304B44184409F032
:201FC0006DFF119B394604981F6A3246FB684344184409F063FF11980021059B006A0191C6
:201FE000CDF80080C2680068049942440068B21800F03EF907461198016AC86804A94044CC
:202000003218284600F076FEB7F5003F18BF674C08D11198016828468A680AA9126802F0C5
:20202000F1F8002840F0AF8009F10307BF087A0009A9284602F0E6F8002816D1099A0598AC
:20204000414602F0F6F911980A9A2B4601680998896800F01AFB09A9284602F0DEF83A46F2
:2020600008A9284602F0CEF8002840F088800BEB0800801E4178077811984FF6FF7647EAC1
:2020800001270168886802F097F9C0EBC900C640F64337420DD1089A49460BEB090002F011
:2020A000C8F9119801680898896802F02EF9002801D43F4C5FE006A90BA8FEF7ACF80028B9
:2020C00059D107A90BA8FEF7A6F800284FD10BA8FEF796F8002846D1119F079B039A3E6A8C
:2020E00002990BA87768B84718B1042838D1314C36E0079A0BA90120FEF74DF9119F069824
:20210000089B079A0A9900907F690BA83E68B04730BB06990BA8FEF72FFB08BB06980599B5
:202120004A46406802F0D1F9069A05981368224A401E10F809105C68204B41EAC41100F8E1
:202140000910229801921E4903901868059A029100904B464FEA5A01584601F0DBFF044605
:202160000BA8FEF755F807A90BA8FEF7B0F806A90BA8FEF7ACF808A9284602F04EF80AA965
:20218000284602F04AF8424605A9284600F0B2FD204615B0BDE8F08FFEAF1C5E0E000600D0
:2021A0000F000600030006000C00060001000600090006000800060026C7060030C60008DA
:2021C000936E0600002880B505491CBF0268002A03D012680AB190470146084602BD00BFEC
:2021E00003000200002880B505491CBF0268002A03D052680AB190470146084602BD00BF8E
:2022000003000200002880B5064A1CBF0368002B06D09B68002B18BF002901D0984702469F
:20222000104602BD0300020000281CBF0368002B03D0DB680BB111B912B10348704718472B
:202240004FF40030704700BF03000200002810B5064B1CBF0468002C06D02469002C18BF79
:20226000002901D0A0470346184610BD0300020038B50C46002811461A46094B1CBF05684A
:20228000002D0AD04AB104B939B9049828B1059B009303462046A8470346184632BD00BFF2
:2022A000030002002DE9F04104460E46216817461D464A6890478046B8F5003F19D122683C
:2022C00006992046936898478046B8F5003F10D1236831463A46DE682046B0478046B8F5F4
:2022E000003F06D123682946079A1D692046A8478046216820460A6890474046BDE8F081B8
:2023000040B1016829B1044A914202D10121034B1970406803F036BD000037484C0800201B
:2023200010B5002204E050F8224043F82240521C8A42F8D310BDF0B503460E4601274FF010
:20234000030C02241F22002507FB03F000210CEA0000001BA94124EA0101CF1964004FEA3C
:202360004C0080F0010C521EEED13760F0BD00232029F0B528BF012322D214680568AC423A
:2023800038BF03231CD301240AE000EB84077F68C1F1200E07FA0EF73E4342F824602C462E
:2023A00050F824600768651CCE40BC42EDD342F8246002E042F825306D1C1068A842F9D2B0
:2023C0001846F0BD2DE9FF4E8246002017469C46CDE902003A68DCF800300E4600219342C0
:2023E00021BFDAF800B093453568954201D2032076E0AB4503D3CDF804A0009503E0CDF877
:2024000000B00196AB465B454FF0010E38BF9B46002515E05AF82E2056F82E40801841EB84
:202420000509021957F82E0049EB05030021101A63EB01014CF82E000846C9170EF1010E71
:202440003A687245E6D2009C74451CD35AF82E2056F82E400023002514195D4100196941F5
:202460004CF82E000846C9170EF1010EEBE7019C002354F82E20801859414CF82E00084690
:20248000C9170EF1010EF345F1D2664686464FF0010CDDE90201002510E057F82C2056F8C8
:2024A0002C40002302EA0E02A2186B418018594146F82C00084600210CF1010C3A686245CD
:2024C000EBD2346864450AD356F82C208018694146F82C00084600210CF1010CF1E7002066
:2024E00004B0BDE8F08E2DE9F44F8E4684B0049A0021CDE902111C6815688346AC4238BF6D
:2025000003206CD3DEF80050DBF80090A94506D3CDF80090CDF804B0A9468C4604E0CDF8D1
:2025200004E000954FF0FF3C009D98464FF0010AAC4238BF00940022002300250FE05BF8BE
:202540002A005EF82A40161843EB0107321B67EB050348F82A201A46DB170AF1010AD1458E
:20256000EDD20098504511D3019E56F82A0020EA0C0412196B4100EA0C00121A8B4148F855
:202580002A201A46DB170AF1010AEAE716460127DDF810C0DDE902010EE05CF8272058F8FD
:2025A000274000233240A2186B418018594148F82700084600217F1CDCF80020BA42ECD268
:2025C000D8F80040BC4209D358F827208018694148F82700084600217F1CF1E7002005B01A
:2025E000BDE8F08FF0B51368066800240025B34201D20320F0BD8E464FF0010C064617467F
:2026000000210FE056F82C2000235EF82C00A2186B41141A63EB010547F82C402C46ED1762
:202620000CF1010CDEF800006045EBD2326862450AD356F82C0024184D4147F82C402C46D9
:20264000ED170CF1010CF1E70020F0BDF0B50446666815460027721847EBE1736A60022686
:202660001A46DB1708E054F8260012187B4145F826201A46DB17761C2068B042F3D21046CC
:20268000524222EA0000C00FF0BD2DE9FE4F8AB00C462168054654F8210000F0EAFA0021F9
:2026A0000690099122680C98694601F0ABFD10B10220099047E10121049502940AE0049AF7
:2026C0001468201A081802EB80004268009840F82120491C029800688142F0D30098002255
:2026E00040F821200499029B0A681868121A0698521C0592C0F120008DF804001AE058F8C2
:202700002620002382185AF826004B41794208400021101A63EB010148F826000846C91780
:20272000761CDAF80020B242E9D20598CDF808A0401E05900598002800F0F7800498059903
:20274000009C236850F821209DF8040054F82350211F51F8236085400698C64035430795E8
:20276000029D2E6854F826000890039405E051F82300039C44F823005B1E012BF7D8039825
:2027800000271F244260029A9DF804509DF804601068134653F820201B1F53F8200002FAB2
:2027A00005F5069AD04005430398039A006852F8203051F82000069903FA06F6C84006439B
:2027C0000798294600F049FA00F044FA079A002100F03BFA8046C4F1200908FA09F126FAE3
:2027E00004F040EA010A5146284600F03BFA00F031FA014628FA04F040EA010BAAEB05003E
:2028000020FA09F14246584600F01FFA804605FA04F0311A3246584600F017FA06460BFA09
:2028200004F00743641ED6D13146284600F01AFA00F010FA074348EA07070021384600F035
:202840000CFA00F007FA7A1E002100F0FEF9044607982946012700F000FA00F0FBF922462B
:202860004FF0FF3100F0F1F9039E00240025B846DDF808A0039024E05AF82800039A02906A
:2028800056F82810E2FB0045A1EB04092C464846002500F0E7F946F82890029924186D4187
:2028A000484600F0DFF902998346484600F0D5F900F0D0F95A46394600F0C7F9074608F144
:2028C0000108DAF800004045D6D2B04608992646304600F0C7F940EA050408983146264611
:2028E00000F0C0F920EA05052F43A743002000214FF0010C002510E05AF82C2058F82C40C3
:2029000073421A400023A2186B418018594148F82C000846C9170CF1010CDAF800206245B0
:20292000EAD2002000210126FBE60B9C0021204601F09FFC00992246012001F0A9FC0C987C
:20294000694601F06AFC09980DB0BDE8F08F2DE9F045154642688E460168DEF8003002F06A
:2029600001067642994202D12C688C4201D201203DE0DEF80470002300243740D2196341E0
:2029800004466A6000214FF00208184618E007465EF8280054F828200023304010185CF8F5
:2029A000042C59413818594145F8280055F8283008460021DB0743EA5203D0464CF8043CEC
:2029C000226805EB880C08F1010A4245DFD25CF8043CC00740EA53004CF8040C03E045F861
:2029E0002A100AF1010A28685045F8D20020BDE8F0852DE9F047904602680B689A4203D1BE
:202A0000D8F80040944201D201204FE044684A68002364004FF00009A21A69EB030315460F
:202A20001A46DB17022784468E4618E00CEB870454F8040C5CF827105EF82740C00F40EA66
:202A40004100161843EB090A08EB8700321B40F8045C6AEB090315461A46DB177F1CDCF8EA
:202A60000000B842E2D2644654F82010464646F8205002EBD173C84600254FF0010C11E0A7
:202A80005EF82C0056F82C2000211840101849EB010118EB00004D4146F82C00A846ED1756
:202AA0000CF1010C20686045EAD20020BDE8F0872DE9F84300240025002918BF002A03D050
:202AC0000B681668B34201D201201DE0012781460E46904613E058F82700002156F82720E6
:202AE000201869410023841A61EB03052146484600F0ABF846F827002C46ED177F1CD8F811
:202B00000000B842E7D20020BDE8F283F8B5174605462A680E461846520007F1080101F0EB
:202B200071FB040009D17E603D60686807F10C01FFF701FCF8684042F8602046F2BD0B4668
:202B400080B500925968024600F023F802BD2DE9FC411F4600230546904601932A680E4665
:202B600001A9404601F04EFB04000FD10198012101F07FFB0097019933462A46284600F069
:202B800008F8044601A9404601F047FB2046BDE8F681FEB514461D462A6823681668B34206
:202BA00001D20320FEBDEB68089F121D01930092AA68D7F800C0091D131D3246001DE04762
:202BC000E868231D00902968A8687C680A1D3146001DA0470020FEBDF8B50C4615462968E8
:202BE00022681F460E68B24201D20320F2BDEA680B1D001D0092A968D7F808C00A1D314668
:202C0000E047E868231D00902968A868FC680A1D3146001DA0470020F2BD0A460021016025
:202C2000C160816821B100F10801104601F0F5BA704710B582B0049C009313460A460194A9
:202C4000014601F073FC02B010BD4042514008405040704780F0010070474840414208432E
:202C6000C00F70470A1A4140504008405040C00F7047014610B5202001221F2321FA03F478
:202C800004F0010484F001042240801A5B1E13F1010FF3D110BD0023002918BF002A04D087
:202CA0000160002142608360C1607047014648688968401A704720B511B11AB9002008604A
:202CC000012020BD8368D21C4568920803EB8202954203D200200860022020BD05682B4455
:202CE0000B6082601146C268914238BF1146C160002020BD10B50446002000291CBF0B6821
:202D0000002B03D012B1A368934201D2012010BDD21C92080860A3EB8202A26010BD10B5BB
:202D200004466168206809F0BBF8002000210022002384E80F0010BD2DE9F8430D46914603
:202D4000089FD9F80010804638680A68904238BF012022D30A9C0121384601F08AFA224611
:202D600049463846FFF7EBFE2E6800E0761E002E03DD55F826000028F8D0760108E0281D48
:202D8000710950F8212006F01F00C240D10706D4761EF4D5002E02D50020BDE8F283234662
:202DA0004A4639463846FFF717FF281D710950F8212006F01F00C240D10706D500944B4643
:202DC0003A4641463846FFF7E4FE761EE2E72DE9F64F8BB006468946B16900270A689068DD
:202DE00001F0EAFAB1698A681368B0FBF3F81D465A1E05FB18058DF810209DF810000093FC
:202E0000012383405B1E09930A6813681C6802230297059407938A6806924868C1690229C5
:202E200004BF032007900021484601F0AFFA50B9B0690068C169012907D08168484601F0AF
:202E400064FA002801D4012493E1B0694168F0698A6906F114019200FFF72DFF0400F3D1E8
:202E6000BA460DE00068016870690A6800EB8A01F06901F0C7F9040040F06F810AF1010A9F
:202E8000B06941688A699245ECDBCDF828A002A93046FDF7C0F9040040F05481029930466A
:202EA0004446FDF79FFA99F80400B84600F001000890B1690868494682680898C0F101008A
:202EC000FFF7F6FDDDF800A00BE008F1010B04FB0B520121484601F088FA00FA08F00743E9
:202EE000D846AAF101008045EFD30C9930467F1CFDF778FA0C98069A062101900798009149
:202F0000131D111D4743059A01207F1C574301EB87020599A71EFDF7A6FA52E07A1904FBA4
:202F20000B2201214846521C01F05FFA00FA0BF040EA08080BF1010BD345EFD3D6F818E025
:202F40009DF810000C9ADEF804C028FA00F000F0010BDCF800C0012311463046E047029838
:202F60000621009101900698ABF10101DDF81CE0021D099881EA0801DDF814C00840401C7A
:202F800000FB0EF000236146401C00FB0CF0CBF1010B7F1E02EB80020120FDF764FA029A38
:202FA00031465846FDF7F7F90C9B0020029A0090D6F818C019463046DCF804E0DEF804C058
:202FC000E047681E8041B7EBD07F03DB4FF00008C346B1E79DBB002709E004FB07F201214A
:202FE0004846521C01F001FAB84005437F1C5745F3D3B4690C9A0123646811469DF81000FD
:20300000D4F800C025FA00F73046E0470298062107F00107019006980091791E021D09989A
:20302000DDF81CA04D4005406D1C05FB0AF5059C00236D1C6543214602EB85024BE006980C
:20304000059A6F1E011D01EB82040C9D924629E001232A4629463046E0477A1C0121484644
:2030600001F0C3F9804602980621009101900023224651460120FDF7F6F9029AC8F1010876
:2030800031464046FDF787F90020029A0090D6F818C02B462946DCF804E030467F1EDEF84C
:2030A00004C0E047B069002F4168D1F800C0CFDC2A460C95012311463046E0470122012192
:2030C000484601F092F9074602980621009101900023224651460120FDF7C5F9029AC7F16D
:2030E000010731463846FDF756F90C9B03A8029A0090B4691946304665686C68A047B4697B
:20310000039B0C9A656803F001031146D5F800A03046D047B069089C0168C4F10104204610
:203120008A684946FFF7C4FC0C9A31462046FDF732F90C993046FDF73DFA044602A9304605
:20314000FDF7C5F8DDF828A007E0716901EB8A02111F01F062F8AAF1010AF069BAF1000FB4
:20316000F3DCB1694A6806F1140192699200FFF7C1FD20460DB0BDE8F08F00002DE9F04FCB
:203180000E4699B04FF0FF3117461291119110910191012100220546179107920692A969D4
:2031A0001C464FF002090868026813680A93CA6813680992DFF83C2604930498401E400817
:2031C00002EB80031A1F0C92DFF82C2602EB8000031F0B934868DDF88880C1692846022902
:2031E000414608BF4FF00309FDF7FCF841462846FDF7B6F9A86900680894C169012910D06D
:203200008168304601F081F8002807D5A86901680898896801F079F8002802D401200590C0
:20322000E3E2A8694168E8698A6905F114019200FFF741FD05900028F2D100240CE00968F9
:203240000A686969126801EB840100F0DBFF0590002840F0BF82641CA969E8694A689369B6
:203260009C42ECD3049B0122A346991E8A409200159202A9FFF71FFD0590002840F0A1827F
:20328000049901200024891E00FA01FA10E0029800EB84012846FCF7BEFF0590002840F0AB
:2032A0008982029850F824102846641CFDF79AF85445ECD3039518943C46207C002100F0AE
:2032C0000400FFF7CAFC20B9179003982146FDF747F903982146FDF79BF90590002840F001
:2032E0005E820398029F012385693A6821466D68EF68B84702990020009003984B68096862
:20330000856922466D682F690225B847039F10E0D7F818C00298DCF804E050F82530026832
:2033200000EB8500DEF814C050F8041C38466D1CE04701200E905545EAD3089801F03CF802
:203340000546304601F038F885422CBF0898304601F032F80D960F94019DCDF85890129C69
:20336000119EDDF840A0814675E0DDF830C0039A06980191169E101AA0F1010E4FEADE0E98
:20338000401E8000099A00F01C00062100915CF82EC0131D111D2CFA00F000F00F004643AA
:2033A0000A9A0120761C724301EB82020A99FDF75AF80298394602680120FCF7ECFF3AE00C
:2033C0000399081A0B99421ED20851F82250401E800000F01C00C5409DF8026005F00F05A7
:2033E000761B76B2AEBB0298069A016801988242BBDADDF818C00C9E169A4FEADC0C01915C
:203400000621009156F82C60DDF818C00A9909984FEA8C0E0EF01C0E26FA0EF606F00F06FF
:203420007243031D001D521C514300EB81020A990120FDF718F8029900200090BE690A687E
:203440004346D6F804C041463846DCF81060B047109EA9F10109B9F1000FD8BF002C06DC61
:20346000BAF1000FDCBF002E002D40F33C81B9F1000F0AD4D7F818C001234246DCF804E00A
:2034800041463846DEF80CC0E047002C02DD641E64B206E0BAF1000FC4BFAAF101004FFAB3
:2034A00080FA002E02DD761E76B203E0002DC4BF6D1E6DB204990E98491C8840401E8DF839
:2034C000030004980E99421E049891400191411E8DF802100E980499049A88400499039078
:2034E000A2EB0902A9EB0101149104998DF801200498A9EB0101C9F1010212918DF800207F
:20350000401C002CA9F101014FF0FF321390C8BFBAF1000F1191109256DCB9F1000F06DD21
:20352000119A0D98022100F060FFC0B207E00D9841689DF8000001FA00F000F00300002C83
:2035400041D5BAF1000F3FDC00F0010191EA600F00F082801498002805D4129A13990D9808
:2035600000F043FF08E00D9841689DF8010001FA00F09DF803100840019A0199801AC0B231
:20358000079088420BDA07990B98C90850F821200798810001F01C0122FA01F00CE0039985
:2035A000081A0B99421ED20851F82210401E800000F01C0021FA00F09DF8024000F00F0ABB
:2035C000A4EB0A0464B2002C46D107980199884218DA07990C984346C90850F82100079959
:2035E0008A00B96902F01C02D0404A6810F00F00546901D10F9A02E0029951F82020414679
:20360000384627E003980799411A0C984A1ED20850F82200491E890001F01C01C84002999E
:2036200010F00F000A680CBF0F9951F820100120FCF77EFE0298394602680120FCF7ABFE4D
:20364000BC6902984346D4F804C0026841463846DCF81440A047109C002EC8BF002D15DC95
:20366000B9F1000F06DD119A0898022100F0BDFEC0B207E0089841689DF8000001FA00F073
:2036800000F00300002E7FF5ADAE002D3FF7E1AE00F0010191EA600F3FF4DBAE14980028DC
:2036A00005D4129A1399089800F09FFE08E0089841689DF8010001FA00F09DF8031008400A
:2036C000019A0199801AC0B206908842BFF678AE06990B98C90850F821500698810001F092
:2036E0001C01CD4078E603970D9C0F9E089FDDF828A0099DB9F1000F46D103980123424651
:20370000D0F818E04146DEF80490D9F80CC0E0472079C10717D50298314602680120FCF758
:2037200007FE0298039902680120FCF734FE0398029A4346D0F818C012684146DCF8044025
:20374000D4F814C0E0473879C1071DD5029806222B1D01680092281D019100EB8A0251464D
:203760000120FCF780FE0298039902680120FCF712FE02990020009003980A684346876922
:2037800041467C682769B847179840B903983146FCF710FF059003984146FCF70BFF039D1F
:2037A000189C07E0029800EB8401091F2846FCF78EFD641E002CF5D1159AE86902A9FFF73B
:2037C00099FA5C4606E0696901EB8402111F00F024FD641EE869002CF5D1A9694A6805F1CA
:2037E000140192699200FFF785FA059819B0BDE8F08F00BFFC3700080838000810010000D5
:2038000040245215613673070120000003100120021001402DE9FC47814600200F469246B7
:2038200000903A681E4669464846002500F0EAFC5FEA000838D100980021012400F019FD7C
:20384000009A39460120AAF1010700F021FD04FA07F71CE00021715513E000984168C8079B
:20386000F8D504FA0AF0421E11404AB27BB29A42A8BFC91B7155009A49B249421046FEF751
:20388000E5FE009A01216D1C1046FEF770FD0098002100F07BFD0028DFD00A9800B1056098
:2038A0006946484600F0B9FC4046BDE8F687000000B581B00168074A914200D110B9064823
:2038C00001B000BD7C2108F0EBFA4FF4003001B000BD00BFA8390008030002000F4A2DE903
:2038E000F04790B0B2E8F8516946DFF834A0A1E8F851B2E8F851A1E8F851D0F80090D1451F
:2039000000D118B9074810B0BDE8F08740226946083000F06EFF10B0BDE8F08758C3000835
:20392000A839000803000200412904D20268044B9A4200D108B903487047083000F068BFE1
:20394000A83900080300020010B481B013460268074CA24200D118B901B0064810BC704766
:2039600000F1240201B0083010BC00F055BF00BFA83900080300020010B481B01346026812
:20398000074CA24200D118B901B0064810BC70470A4600F1240101B0083010BC00F090BF72
:2039A000A839000803000200B1380008DD380008293900084939000879390008F0B504466E
:2039C000BDB00B480D4616461F460290094B1022802104A800F009FF42980097334601903B
:2039E0002A46214602A8FEF75DFC3DB0F0BD00BFA839000820C6000810B5040008BF002414
:203A000008D005482060054B1022802104F1080000F0EBFE204610BDA839000820C60008FE
:203A20002DE9F14FADF5327D0A6812A80DF1C80C13BA4A684FF0100E12BACDE912238A685C
:203A400013BACA6812BAC0E902230A6913BA4A6912BAC0E904238A6913BACA6912BAC0E9D6
:203A600006230A6A13BA4A6A12BAC0E908238A6A13BACA6A12BAC0E90A230A6B13BA4A6BFA
:203A800012BAC0E90C238A6B13BACA6B12BAC0E90E230A6C13BA4A6C12BAC0E910238A6C4E
:203AA00013BACA6C12BAC0E912230A6D13BA4A6D12BAC0E914238A6D13BACA6D12BAC0E942
:203AC00016230A6E13BA4A6E12BAC0E918238A6E13BACA6E12BAC0E91A230A6F13BA4A6F52
:203AE00012BAC0E91C238A6FC96F13BA91FA81F2C0E91E235CE90401C70C43034FEAC10AC5
:203B0000C60047EA413743EAD1434AEA507A46EA5176800940EA81607E4083EA0A0A86EABD
:203B200000078AEA911B5CE90E015CE91E4838184BEB010122465FEA58034FEA3202250A2F
:203B400045EA08654FEA046A43EAC4734AEA182A82EA0506E20942EA486283EA0A0A8AEA1B
:203B6000D81372405CE9207B80185941C01941EB0B01CCE900015CE9026AF70C47EA4A3769
:203B80004FEA463949EADA495CE91C23F500CDE900794FEACA0949EA567945EA5A75DDE99D
:203BA000007BB60946EA8A667D408BEA0909754089EA9A195CE90C6AAE19154649EB0A0A67
:203BC0005FEA53094FEA3505CDE9006A2F46150A4FEA026A49EAC27B45EA03654AEA132AFC
:203BE000D60946EA43667D408BEA0A096E4089EAD31ADDE90059AE1949EB0A0A34194FEA06
:203C000040394AEB0808C70C47EA413749EAD149CCE902485CE91A6ACDE900794FEAC10923
:203C2000C50049EA507945EA5175DDE9007B800940EA81607D408BEA0909454089EA911913
:203C40005CE90A012818354649EB01015FEA5A094FEA3505CDE900012F46350A310649EA2F
:203C6000C67B45EA0A6541EA1A21F00940EA4A607D408BEA0109684089EADA11DDE90059D1
:203C8000281849EB010182184B41CCE90423E50C5CE9180145EA4837630343EAD84B4FEAC0
:203CA000C803E20043EA547342EA5872A40944EA88647A408BEA0303544083EA98185CE97B
:203CC0000823A71848EB030B04465FEA510848EAC0734FEA34044FEA0068050A48EA1128DC
:203CE00045EA0165C00940EA416083EA0809654089EAD111684038184BEB0101801941EB2E
:203D00000A01CCE906010CF1200CBEF1010E7FF4F1AEB298B29EDDF8C8C2D0E92848D0E908
:203D20002A23DCE93259DDF8C8E2D0E92C01D6E92E6ADCE9307BCDE90859DEE93459DDF87A
:203D4000C8E2DFF858C3CDE90659DEE93659CDE90401CDE90A6ACDE910592825CDF838C04E
:203D60000DF1480E38465946DDE9106AAC460E9D08350E95083DD5E90059CDE90C59FEE8B8
:203D8000027BCDE9006A850BCDE9027B4FEA804A870C4FEA803945EA81464AEA913A47EA15
:203DA000813749EA914986EA0705C6058AEA09094FEAC15A4AEA502A46EA51266E4089EAA7
:203DC0000A0ADDE90059AE1949EB0A0ADDE9085900EA050701EA090BDDE9065985437D40DB
:203DE00029EA01098BEA090975194AEB0909DDE90C6ACDE90C48AD1949EB0A09DDE9026AC5
:203E0000AE1949EB0A0A270F4FEA041947EA081749EA1879A50745EA9805CDE900794FEA13
:203E2000887949EA9409DDE9007B7D408BEA0909CDE900594FEA4869650649EAD41945EA79
:203E4000D815DDE9007B7D408BEA0909CDE90059DDE90459554004EA050783EA090908EABE
:203E6000090BDDE9045915407D4003EA09098BEA0909DDE9007B0E9C7D194BEB0909DDE9E4
:203E8000067BCDE9107BDDE9087BCDE90801DDE90A01CDE9067BDDE9047B801941EB0A013B
:203EA000CDE9042372194AEB090308340E94DDE91059CDE90A7B083CD4E90048FEE8026A76
:203EC000CDE90259870B4FEA804947EA814749EA9139CDE90079870C47EA81354FEA8039AC
:203EE00049EA9149DDE9007B7D408BEA0909CDE900594FEAC159C50549EA502945EA5125B3
:203F0000DDE9007B7D408BEA0909DDE9027B7D194BEB0909CDE90059DDE9085900EA0507CF
:203F200001EA090BDDE90659854329EA01097D408BEA0909DDE9007B7D194BEB09092C19D0
:203F400049EB0808A41948EB0A08150F45EA03164FEA021A4FEA837995074AEA137A49EA95
:203F6000920945EA930575408AEA09094FEA436A56064AEAD21A46EAD3166E4089EA0A0AF4
:203F8000CDE9006ADDE90C59DDE9046ADDE90C7B6E4089EA0A0ADDE90459164003EA0A0AA6
:203FA0003D400BEA09096E408AEA090ADDE90059DDE9087BCDE90801AD1949EB0A09DDE94E
:203FC000066ACDE9067BDDE90A01DDE9047B001941EB0801CDE90A7BDDE90C7B641948EB9E
:203FE0000908CDE9047BBCF1010C7FF4C0AEDDF8C8C2CDE90C23DDE90823DCE9287BDDE97D
:2040000006593C194BEB0808CCE92848B29CDDF8C8C2D4E92A7BDDE90C483C194BEB0808BD
:20402000CCE92A48B29CDDF8C8C2D4E92C7BDDE904483C194BEB0808CCE92C48B29CDDF84F
:20404000C8C2D4E92E7BDDE90A483C194BEB0808CCE92E48B29CD4E9307B38184BEB010154
:20406000C4E93001B298D0E93248A21848EB0303C0E93223B299D1E93423521943EB0903F3
:20408000C1E93423B299D1E93623921943EB0A03C1E936230DF5337DBDE8F08FA0C3000897
:2040A000F8B501240094002300240DE0009D065D0F5D641C7E40F643761CF60F86F001066F
:2040C00035400095009DEB189442EFD31846F2BDF8B5002301240094002A11E0009C8518B4
:2040E00015F8016C8F1817F8015C6E40F643761CF60F86F0010634400094009CE318521E29
:20410000ECD11846F2BD0000A1400008D1400008010000002DE9F84F1D46DDF828900B9FDB
:204120000D9C4FF0FF330093D9F800B00E469246804632465146D847834664B3D9F804304C
:2041400032465146404698476FEA0B02521C009942EA0B026FEAD2735B1C1940C243009141
:20416000521C009902436FEAD2735B1C1940009186F05531484087EA000181F05531216086
:2041800080F05531C943491C009A08436FEAD070401C82430092D9F80800012809D17540F6
:2041A000E943491C00980D436FEAD572521C90430AE0F11C85EA91020098D243521C154339
:2041C0006FEAD5735B1C984386F0AA3686EA0B0686F0AA33F243DB43C2F3C0725B1C009081
:2041E00042EAD3720C980099D243521C914300910099774087F0AA37884300990F40384353
:20420000BDE8F28F38B51546AA000C46121DFEF752FD08B921680D6032BD10B50C46236879
:204220001A689200121DFEF765FD0023236010BD03460020002B70B518BF002900D00AB925
:20424000012070BD1C68A24228BF2246012406E001EB840555F8046C43F82460641CA242F9
:20426000F6D21968A14224BF43F82400641CF8D270BD024600200AB9012070475160022182
:2042800002E042F82100491C13688B42F9D270472DE9F84307461646306888460025401CD1
:2042A0007A42D8F8004004E058F82010401C11400D438442F8D23068A04238BF04465FEA3D
:2042C00004090AE056F8292058F829103846FEF7BCFC46F82900B9F10109F3D1641C791EA6
:2042E00005E056F82400084046F82400641C3068A042F6D2002D14BF03200020BDE8F2839E
:20430000404251400840504070472DE9F04784468E46DEF80050DCF8001000270126BA46B8
:20432000A9420FD3084664460121854224D254F820200023524263EB430303F001031F43A9
:20434000401EF2E728460D4674464FF0FF31EEE75CF820205EF8204000250023B4EB02082C
:2043600065EB03096240521E06EA090563F1000345EA0A0A1E40401E0028E9D106EB4A025C
:204380003846521EBDE8F047FEF75FBC10B50A460023016803E050F82140491E234302291E
:2043A000F9D240680021424042EA0300FEF755FCBDE81040FEF74EBCF8B505462E680022CE
:2043C00034000BE05742174355F82410FF43F80FFEF73BFC0246A6EBD776641EF2D1104614
:2043E000FEF747FC00EB4610F2BDF8B5064630680C46570902F01F05791CFEF733FCBB1CAC
:2044000041420B4056F82310002204F01F04FEF71CFC06EB87014A68EA40C5F1200500FADD
:2044200005F5012000FA04F41543641E04EA0500F2BDF8B500230AB110B909B10120F2BD15
:204440001468CD1CB4EB950F01D20320F2BDB9B3002410E0061996F802C0F77802EB85053A
:204460004FEA0C4C4CEA076C77783678241D4CEA07273E436E60A508CE1EB442EAD311F024
:20448000030F11D06D1C42F825300BE0075D52F825604FEAC30C07FA0CF73E4342F82560A7
:2044A0005B1C641C8C42F1D3E41CA408641C00211068A04224BF42F82410641CF8D202E04F
:2044C0001046FFF7D6FE0020F2BDF0B5034618684C1E0025800001E0A554521E9042FBD386
:2044E00012F003001FD0950803EB85067568461EF60025FA06F7A754521E401EF7D112E0DC
:20450000940853F824508818001F2D0EC57053F82450121F2D0C857053F824502D0A457048
:2045200053F824400470002AEAD1F0BD2DE9F04F0AB4DDF82C404FEA82024FF0000C5FEA21
:20454000020EBEF1040E43F80EC07FF4FAAF5FEA020E50F804AB51F804BB1F684FF0000641
:20456000EAFB6B670C9D06FB05FB20CC4FF00008B146EBFB6589B2F104055E6851F8048B92
:20458000EAFB6867B04640CCEBFB668943F8048B2D1FF2D100990B9C17EB0C064FF000071D
:2045A00047EB070716EB09084FF0000949EB0909C3F8008007EB090C019BBEF1040EC8D1E3
:2045C0009A46A346151E35B140CB80CCBE41A5F10405FFF7F8BF66EB0606B4446FEA0C0C91
:2045E00053465C46151E4DB1D3F8006080CC07EA0C07BE4140C3A5F10405F4E702B0BDE801
:20460000F08F2DE9F04FDDF8244009924FEA81014FF0000BABFB0BA58C46BCF1040C50F8C0
:204620000CE043F80CE000D0F7E70844D3F80090ABFB0B7809FB04F90E469E46DEF800706A
:2046400052F804CBA6F10406E9FB6C7856B1DEF8047052F804CBA6F10406E9FB6C784EF8BF
:20466000047BF3E7099A80C84FF0010CEAFB6C78CEF80070C24605F104058D42D6DB9C4642
:2046800093460D1E35B15CF8046B80CABE41A5F10405F7E766EB06060AEB060C6FEA0C0CD2
:2046A0009A465A460D1E4DB180CA5AF8046B07EA0C07BE4140C3A5F10405F4E7BDE8F08FA2
:2046C0002DE9704F92005FF000095FEA420BABF1040B04D0BBF1040B43F80B90FAD15FEA61
:2046E000020B17D0002450F804CB9E4692460E46DEF8005056F8048BECFB68544EF8045B30
:20470000BAF1040AF4D1CEF8004003F10403BBF1040BE7D1BDE8708F4022A03007F0BEBB61
:204720002DE9F84F826800258346970802F0030200927A0102F02008C8F120080E4629E049
:20474000A900680801F0040101EBC001741869010BEBC00A01F02009DAE92801C9F12009FE
:204760004A4600F0D7F9E070DAE928014A466D1C00F0D0F9000AA070DAE928014A4600F055
:20478000C9F9000C6070DAE928014A4600F0C2F9000E2070BD42D3D30024009D11E00BF163
:2047A000A0017A0801EBC203D3E90001424600F0B1F9E100C1F11801C84004EB8702B05416
:2047C000641CAC42EBD3BDE8F18F70B5C468036900220025E31AD418044404F81C5F8E5CF2
:2047E000521C082A2672F6D370BD0360C1600261704738B5154604460022626023685A682A
:20480000904700206061A061A5604FF4003032BD81604FF4003070472DE9F8430446207939
:20482000D4F80C80450748BF244844D466691D46A8F1010000EAD60306EBC5066661B6EB96
:20484000C50F02D2A669761CA661A669174606EB5576A6610E46E918884224D2A8EB030925
:204860004A463146F81807F019FB226839460EE04246384607F012FB2368394620461A6823
:20488000904707E0311811F00300F1D12268204613689847484600EB0809A9F10101A942F0
:2048A000F0D3002300E000202A1A3118F81807F0F5FA4FF40030BDE8F28300BF040002003D
:2048C0002DE9FC4F85B00246D06813690027DFF86CC1A0EB030A50680DF10C0EDFF86081FB
:2048E00040F00400506003A80290D8E9003403A8544DC0E900342878534D00280CBF002323
:20490000042399465CF803305EF80940012623441D601C689E60DCF80430039DDCF80090D2
:20492000DEF804605D406540484C654089EA0606474C66407519474CD8E9006B65400028F0
:2049400003ACC4E9006B029E0EBF0024042004245CF800003459012620183F4C0460046818
:2049600086600398029E434063407068374C634089EA0000364C60400344384843402800EB
:2049800018BF01205B1E9B41042F2CBFC0B2D80F02F1140353F8200007F00303C3F1030327
:2049A000DB00D8400DF807007F1C082F9DD315466A69AB69E868D20842EA4372401E0023E8
:2049C00000EA020702400C469B420AD8524508D28020E0557F1C574516D2AAEB0701E01996
:2049E00010E08020E05500E0E355E8687F1C8742FAD32A68284613689847BAF1000F03D072
:204A00005146204607F04CFA2A68069E059F93686946284698472A6821462846D2F80090CA
:204A2000C8472B6839462846DA6890470EB1A86830604FF4003007B0BDE8F08F18C300083E
:204A4000604A00084C0800205FC5109304850012FC68017AC0F524FF24AF33D426AF698B74
:204A600004B0010100170145034613F8012B002AFBD1181A0138704770B4840746D04C1E5C
:204A8000002941D0D5B2034602E0611EE4B30C4603F8015B9907F8D1032C2ED9D5B245EA16
:204AA00005250F2C45EA054519D9264603F11001103E0F2E41F8105C41F80C5C41F8085C47
:204AC00041F8045C01F11001F2D8A4F1100121F00F0104F00F041031032C0B440DD91E4699
:204AE00021460439032946F8045BFAD8211F21F0030104310B4404F003042CB1D2B21C44E2
:204B000003F8012BA342FBD170BC70470C460346C2E70000D0400B00D1409C46203AD3401B
:204B200018435242634693401843704753B94AB9002908BF00281CBF4FF0FF314FF0FF3019
:204B400000F0B2B9ADF1080C6DE904CE00F006F8DDF804E0DDE9022304B070472DE9F04FCE
:204B60008C46099E04460F46002B48D18A4215465ED9B2FA82F33BB1C3F120029F409D40DC
:204B80009C4020FA02F217434FEA154E1FFA85FC220CB7FBFEF10EFB117701FB0CF042EA17
:204BA0000742904207D9AA1801F1FF3702D2904200F258813946121AA4B2B2FBFEF00EFBFA
:204BC000102200FB0CFC44EA0244A4450BD92C1900F1FF322CBF01270027A44502D9002FCB
:204BE00000F04381104640EA0140A4EB0C0400211EB1DC400023C6E90043BDE8F08F8B428F
:204C000006D90EB1C6E9000100210846BDE8F08FB3FA83F1002951D16345C0F01681824294
:204C200040F213810846002EE7D0C6E90047E4E7002A00F0AF80B2FA82F3002B40F0C280B3
:204C40008A1A4FEA154EAFB20121200CB2FBFEFC0EFB1C2240EA024207FB0CF090420ED952
:204C6000AA180CF1FF382CBF4FF001094FF00009904203D9B9F1000F00F0F080C446121AC5
:204C8000A4B2B2FBFEF00EFB102200FB07F744EA0244A7420ED92C1900F1FF322CBF4FF01A
:204CA000010E4FF0000EA74203D9BEF1000F00F0D2801046E41B40EA0C4099E7C1F12005B1
:204CC0008B400CFA01F400FA01F922FA05F72CFA05FC8A401F4320FA05F3380C23431FFADA
:204CE00087FE1C0CBCFBF0F800FB18CC44EA0C4408FB0EFCA4450ED93C1908F1FF3A2CBFBC
:204D00004FF0010B4FF0000BA44503D9BBF1000F00F0B880D046A4EB0C041FFA83FCB4FB5A
:204D2000F0F300FB134403FB0EFE4CEA0444A6450ED93C1903F1FF302CBF4FF0010C4FF0F6
:204D4000000CA64503D9BCF1000F00F09F80034643EA0840A4EB0E04A0FB02EC644573466B
:204D6000E04602D307D1F14505D2BEEB02036CEB070C0138E0465EB1B9EB030264EB0804C9
:204D800004FA05F522FA01F3CC401D43C6E90054002132E742082F464B08AC4642EAC172FF
:204DA000AE46C407110C92B241EA034142EA0142B1FBF5F1B3FBF5F01F23A2EB0C0241EAC8
:204DC000004142E79D40C3F1200299409C402CFA02FC4FEA154E20FA02F2AFB2BCFBFEF825
:204DE0000A430EFB18CC110C41EA0C4108FB07FC8C4550D9691808F1FF302CBF4FF0010907
:204E00004FF000098C4502D9B9F1000F30D0A1EB0C01B1FBFEF808FB07FC0EFB181192B22E
:204E200042EA0142624534D2AA1808F1FF312CBF4FF001094FF000096245BED2B9F1000FFF
:204E4000BBD1A8F102012A44B7E7841A6CEB030201201746E7E62C4402382BE7ACF1020C72
:204E60002A440CE702392A44A5E62C440238BAE6A5EB0C0CA8F102006144B1FBFEF808FBC6
:204E800007FCCAE7A8F102083C4444E7023B3C445EE7414691E7A1EB0C014046B1FBFEF84E
:204EA00008FB07FCB9E700BF704700BF084B984209D003F1E25303F5852303F22E43984208
:204EC00003D101207047002070470220704700BFDEC0DE5170B596B00446502302AA0021F5
:204EE000006802F039FB002842D105461398FFF7DDFF022840D0159B33F07F433ED02268BA
:204F0000926893423CD813F0030F3BD19DF857303F2B39D913F0400F0BD150269DF9573034
:204F2000002B15DB159BC3F31703B34221D009251FE00023019304230DEB030250212068EF
:204F400002F00AFB10B9019E5436E7E7032510E00023019304230DEB03023146206802F0B6
:204F6000FBFA18B90436019B1E44DBE7032500E00325284616B070BD0725FAE70925F8E7C6
:204F80000925F6E70925F4E70925F2E700B583B004230DEB03024421006802F0DDFA20B97B
:204FA0000198FFF783FF03B000BD0220FBE70000F8B504460E4601F01BFB054624B1012CCD
:204FC00007D008242046F8BD88B1012811D10B4F00E00B4F3846FFF77DFF04460028F1D1B7
:204FE0003846FFF7D3FF854205D13760EAE7054FF0E70724E6E70D24E4E700BF140700204D
:20500000100700201807002008B50A4604234821006802F0A1FA00B908BD0320FCE710B53F
:20502000A8B0044650230DEB03020021006802F093FAE8B9279AC2F31702149B043A042114
:20504000206801F063FCA0B90390279AC2F3170203AB009304AB443A4421206801F086FC2F
:2050600038B9402315AA039904A801F0FBFC00E0032028B010BD2DE9F04184B004460D462D
:205080001646042303AA4C21006802F065FA002840D10021029101919DF80F3013F0400F15
:2050A0000BD14FF050089DF90F30002B0FDB5021D5B1012D27D0012022E0042302AA502110
:2050C000206802F049FA38BB4FF05408EBE7029901EB080704230DEB03023946206802F000
:2050E0003BFAD8B9391DE3E79DF80F3013F0400F16D0029A33464146206802F08BFA98B9D2
:2051000004B0BDE8F0819DF90F30002B0ADA019A8846EFE70320F3E70320F1E70320EFE7B1
:205120000220EDE70220EBE70620E9E710B588B007A9FFF73DFF002838D10798FFF76FFF7C
:20514000044600283CD1012001F060FB044600283DD102AA00210798FFF78DFF0446002883
:205160003CD0022846D102AA01210798FFF783FF0446002845D0022850D101A90798FFF7EC
:2051800043FF0446002850D1019801F099FB0446002851D1002001F039FB044668B1034697
:2051A000294A2A49002001F0A5FC06E004460346254A2749002001F09DFC204608B010BD6A
:2051C0000346214A2349002001F094FCF5E703461D4A2149002001F08DFCEEE7049A1F49A3
:2051E000022001F087FC02A800F0E6FA04460028B9D0E2E70346144A1949002001F07AFC4B
:20520000DBE7049A1749022001F074FC164902A800F014F904460028AFD0CEE703460A4A02
:205220001249002001F066FCC7E70346064A1049002001F05FFCC0E70346034A0D490020E1
:2052400001F058FCB9E700BF1CD3000884C7000834C6000854C6000874C600089CC6000890
:20526000C0C60008E4C60008BC07002008C700082CC7000850C7000808B501F08BFA18B916
:20528000024800F01DF808BD0B20FCE7BC07002008B50A4800F07CF8022809D0032808D090
:2052A000012807D101F0DEF9022805D9032000E0012008BD0020FCE70220FAE7BC0700204B
:2052C00070B598B00446294E0C2315AA2849891B02F042F950BB482303AA1599891B204695
:2052E00002F03AF9034648BB139B224A93422CD1159A4432149B921B0021204601F006FB57
:20530000054658BB0021029102AB00931A4B159A921B204601F02AFB0546E0B9402303AA0A
:205320000299154801F09EFB054614E00346134A1349002001F0DEFB03250CE00F4A1149F9
:20534000002001F0D7FB032505E00C4A0E49002001F0D0FB0E25284618B070BD0346074AA4
:205360000A49002001F0C6FBF5E700BF0020010888210108298A44945008002064D3000850
:20538000ACC70008CCC70008ECC7000818C8000830B589B00446204D0C2305AA1F49491BD5
:2053A00002F0DAF8E0B9102301AA0699491B204602F0D2F80446E8B91022194901A806F06F
:2053C000FFFC28B31022174901A806F0F9FC08B31022154901A806F0F3FC98B9032406E09A
:2053E0000346124A1249002001F084FB0324204609B030BD03460D4A0E49002001F07AFB6D
:205400000324F4E7094A0C49002001F073FBEEE70224ECE70124EAE70020010888210108C4
:205420009CD300088CD300087CD3000848D30008ACC700083CC8000860C800082DE9F04314
:2054400083B007460E468A680021304602F0C6F8002844D18046002513E0224A224900202D
:2054600001F048FB4FF00308404603B0BDE8F08323461E4A2946304602F08FF8034618BB12
:205480002544BC68AC42EFD9641BB4F5807F28BF4FF480742346154A2946384602F05CF889
:2054A00003460028D9D1F268B4FBF2F302FB1343002BDDD0A2EB03094A46FF210B482044B8
:2054C00006F0A7FC4C44D3E7BA6801920095054A0749002001F00EFB4FF00408C4E74FF0B1
:2054E0000508C1E738D3000880C800085008002094C8000810B51446044806F0D4FC044B38
:205500001C60044B01221A7010BD00BFE0090020DC090020D809002070B505460E46074C61
:20552000204605F0D9FA4FF0FF33B2B22946204605F06EFD204605F0F5FA70BD2C0D002063
:2055400008B50B4601220146034805F0CAFD08B1002008BD0120FCE72C0D00202DE9F0418A
:205560001D46DDF818802D4B1B68002B52D0074616462B4B01221A7000225A70D87001B161
:2055800096B9284B1B78002B46D1002D40D0013D321DD2B22249214B186802F031FD01F0BE
:2055A00087FE00EB080408E03246181D06F07BFCE7E71A4B186802F05FFD01F079FEA04222
:2055C00003D2184909780029F3D0164B1B78002BD7D0144B00221A70134B1B68032BD0D99F
:2055E000124BDA78BA4206D1104B587810F0020006D1BDE8F0810E49002001F07BFAC0E78B
:205600003B460A4A92780B49002001F073FAB8E71720EEE71620ECE71720EAE7E00B002012
:20562000E00A0020D8090020DC090020E0090020C0C80008F4C8000830B585B0154B1B6800
:20564000DBB101248DF80C40134D0021286801F093FA642001F03EFE2146286801F08CFA1A
:20566000642300930A23224603A90220FFF776FF044648B9204605B030BD0849084802F05C
:205680006FFC044B1860DCE702460649002001F031FAEFE7E00B002024070020F5540008C5
:2056A0001C07002020C9000800B585B000238DF80C306423009301231A4603A90220FFF786
:2056C0004DFF48B9074B186820B102F095FC054B00221A6005B000BD02460349002001F054
:2056E00009FAEFE7E00B002020C9000830B585B004460D4601228DF80C20642300931346D7
:2057000003A90320FFF72AFF38BB254B1B680C2B29D9244B1A79012A2AD1224BD3F80530E7
:205720002B6002238DF80C306423009301231A4603A90320FFF712FF0546F0B9184B1B68AA
:205740000C2B20D9174B1A79022A22D1154BD3F805302360284605B030BD0246124900204F
:2057600001F0C8F9DDE71149002001F0C3F9D0E70F49002001F0BEF9D3E702460D4900203D
:2057800001F0B8F9E6E70949002001F0B3F91825E0E70749002001F0ADF91825DAE700BFC3
:2057A000DC090020E009002054C9000884C90008B0C90008ECC90008F0B585B00646FFF707
:2057C0003BFF044610B1204605B0F0BD00230393029303A902A8FFF789FF044640B9244BE8
:2057E00000251D601A7842F001021A705D601AE00346204A2049002001F07CF9EFE741F254
:20580000883300930123882219490520FFF7A6FE044608BB3D44164B5A6801325A601A781B
:2058200022F001021A70B368AB421DD95C1B2746802C28BF80273B46104A2946304601F0FC
:205840008BFE80B97F2CDAD8C7F18002FF210B48384406F0DEFAD2E702460949002001F0CE
:2058600049F9182400E00324FFF71EFFABE700BF50090020ACD3000818CA000858090020D4
:2058800034CA000808B5364A936A23F4E06323F0030343F4007343F002039362516B314B46
:2058A0000B4043F0807343F023035363136843F0807313602A4B1B6813F0007F0CD0284A8C
:2058C000936A43F480239362274A136823F00F0343F00303136002E000BFEBE700BF224BA0
:2058E0001B6803F00F03032BF8D11D4B1A6A22F007021A62D3F8002222F01002C3F80022B8
:20590000D3F8002222F0070242F00502C3F800221A6A22F070021A621A6A22F4E0621A628D
:205920005A6A22F070025A62DA6942F00302DA6100E000BF0A4BDB6903F00C030C2BF8D174
:205940000A4B00221A601A64094805F0D9FD094BD3F8883003B908BD064805F041F9FAE706
:20596000000C024600FEFF80002002400060024000D8B805EC0B002008B52B4B4FF480327E
:205980001A601A64294AD36923F00303D36100E000BF264BDB6913F00C0FF9D1234B9A6A65
:2059A00022F480229A621A6822F080721A601F4B1B6813F0007F01D000BFF8E71C4A136874
:2059C00023F00F03136000E000BF194B1B6813F00F0FF9D1154B1A6A22F007021A62D3F878
:2059E000002222F01002C3F80022D3F8002222F00702C3F800221A6A22F070021A621A6A97
:205A000022F4E0621A625A6A22F070025A62094805F076FD084BD3F8883003B908BD064850
:205A200005F0DEF8FAE700BF00600240000C0246002002400024F400EC0B002008B5164A57
:205A40001649022001F056F8154802F033FF154804F0EEF9144804F0F9FD00BF05F048FE8D
:205A60000028FAD005F03CFE104AD2F8883023F00103C2F88830FFF77FFF0D4B0222DA6076
:205A80001A6822F001021A60094B1B6813F0010F01D000BFF8E708BD0020010860CA00087C
:205AA000840E0020F40D00202C0D0020000C024600040340074A084B9A60084B1B6883F335
:205AC0000888074B1A68074B104619460968D1F800E008470020010800ED00E000200108D3
:205AE000E40B00200420010800B58BB0444B1A6822F004021A601A6842F001021A60FFF7B0
:205B0000C1FE01F0EFFE05F0D1FD3E4805F070FE3D4A3E49022000F0EDFF3D4A3D49022001
:205B200000F0E8FF3C4A3D49022000F0E3FF3C4A3C49022000F0DEFF02F052FD0990C0F307
:205B400007230093C0F30743020E3749022000F0D1FF05A805F0FAFE079B0193089B009313
:205B6000059B069A3149022000F0C4FF304BB3F8A0104FF6FF73994203D021B94FF480615D
:205B800001E04FF480612B4B9A0AB1EB932F22D0B3F5801F00D31A0DB3F5801F17D3264BB3
:205BA000B1F5806F15D3890A2348019000912349002000F09FFF00F06BFB214B03930023B3
:205BC000049303A8FCF79CFB90B90BB000BD1D4BE6E71C48E9E7B1F5806F07D3890A164B6C
:205BE0000A461949022000F085FFE6E7154BF7E71649002000F07EFF00F04AFBE5E700BFA6
:205C000000040340BCD1000890CA000898CA0008A8CA0008B0CA0008C4CA0008F8CA000880
:205C20000CCB000810CB00082CCB000844CB00080007F90B0000100088CA000870CB0008D4
:205C4000004142578CCA0008C8CB0008E4CB000808B5FFF7F3FE08BD10B53C4BD3F8F42026
:205C60003B490A60D3F8F41041F40001C3F8F41012F0806F1FD022F08060B0F1006F26D09A
:205C8000B2F1806F26D0B0F1805F3BD0B0F1007F3BD0B0F1905F3BD0B0F1005F3BD0B0F17F
:205CA000804F3BD0B0F1C04F3BD0B0F1004F08D10024284A10E02849012000F01BFF002440
:205CC0000EE02549012000F015FF002408E00024224A01E00024224A2249022000F00AFFB0
:205CE00034B14FF000531A681F4B9A421CD00024204600F0F9F91D49002000F0FBFE00F0AE
:205D0000C7FA10BD01241A4AE6E70024194AE3E70024184AE0E70024174ADDE70024164A34
:205D2000DAE70024144AD7E74FF000535A68134B9A4201D00024DBE71149022000F0DAFED9
:205D40004FF0005300221A605A60D1E7000C0246E40B002034CC00085CCC000800CC000834
:205D60004CCC0008A0CC00084CF9A36DE0CC000840CC000820CC000814CC0008B3065C92EF
:205D8000B8CC00080020704738B5EFF3108572B6084B1C6854B120220021204606F039F848
:205DA000204605F057FF034B00221A6085F3108838BD00BFE80B002070B5EFF3108672B6AC
:205DC0000D4B1B680BB1FFF7DFFF202005F03AFF0446094B186050B1084D0FCD2060616061
:205DE000A260E3600FCD20616161A261E36186F31088014B186870BDE80B002004CD000802
:205E0000F8B501F055FA0446334B186800F0C3FE28BB0121314B186800F0AEFE0A2001F0E4
:205E200059FA01F045FA001B42F20F739842EBD900212A4B186800F09FFE0121284B1868B8
:205E400000F09AFE244B186800F0A5FE044601F02FFA064601F02CFA054601271CE00021E1
:205E60001E4B186800F088FE00242046F8BD1A4B186800F090FE60B301F01AFA831BB3F5C3
:205E8000FA7F14D20A2001F025FA01F011FA431B41F28732934215D8002CE8D10E4B1868A3
:205EA00000F079FE044601F003FA0546E4E701F0FFF9064687F001073946094B186800F036
:205EC0005BFEDFE700240021054B186800F054FECBE70124F7E700BF300700202C0700202E
:205EE0002807002008B500F083FB013000F0010048BF4042C0B200F041FB0020FFF716F9BA
:205F000000B908BD0346034A0349002000F0F2FDF7E700BFECD3000828CD000810B584B0C8
:205F20000446FFF76DFF18B92CB9002004B010BDFFF7D8FFF8E70023039303A90120FFF736
:205F400037F8044608B10020F0E700F023FC0128ECD002A90398FFF757F808B12046E5E7AE
:205F600001A800F07DFC28B9029A019B9A42DDD90120DBE70120D9E7BFF34F8F0549CA6890
:205F800002F4E062044B1343CB60BFF34F8F00BFFDE700BF00ED00E00400FA0508B501F089
:205FA0005DFB18B901F0CEFA58B908BD0A49002000F0A0FD00BF05F09BFB0028FAD0FFF7F7
:205FC000DBFF0649002000F095FD00BF05F090FB0028FAD0FFF7D0FF4CCD000878CD000892
:205FE00008B50849022000F085FD0120FFF79EF800B908BD0346044A0449002000F07AFD69
:20600000F7E700BFA4CD000830D4000828CD000808B50849022000F06DFD0020FFF786F843
:2060200000B908BD0346044A0449002000F062FDF7E700BFC0CD0008FCD3000828CD000889
:2060400008B5FFF719F908BBFFF722F9012829D0022805D11F4900F04DFD00F04BFB21E0AC
:206060001D49022000F046FDFFF7D2FFFFF704F90346B8B1194A1A49002000F03BFD00BF2C
:2060800005F036FB0028FAD0FFF776FF0346134A1449012000F02EFDFFF7BAFFFFF7ECF8B5
:2060A000034650B900BF05F023FB0028FAD0FFF7CFFDFFF7FFFCFFF75FFF084A0849002000
:2060C00000F018FD00BF05F013FB0028FAD0FFF753FF00BFE0CD000800CE000818D4000881
:2060E00024CE000860CE000810B50446FFF756FF02F05AF900F07CFA02461049022000F0B8
:20610000F9FC2046FFF70AFF044602460C49022000F0F0FC1CB1012C03D1FFF761FFFFF726
:206120008FFF2346074A0849002000F0E3FC00BF05F0DEFA0028FAD0FFF71EFF8CCE0008E4
:20614000A0CE00084CD40008B0CE000800B583B00B4BD3F8882042F00102C3F88820D3F807
:20616000883003F001030193019B00220821212002F09EFA212002F0ABFA03B000BD00BF23
:20618000000C02462DE9F04389B003AD0024039404940594069407943A4BD3F88C2042F02A
:2061A0000102C3F88C20D3F88C2002F001020192019AD3F88C2042F00202C3F88C20D3F8FC
:2061C0008C3003F002030293029B2F4E01222021304603F070F9DFF8B4800122022140464F
:2061E00003F069F922464FF48061304603F063F922464FF48041404603F05DF920230393E5
:2062000001270497059406942946304603F01EF84FF00209CDF80C900497059406942946B2
:20622000404603F013F84FF4806303930497059406942946304603F009F84FF480430393DB
:206240000497059406942946404602F0FFFF802303930494059406942946404602F0F6FFAB
:206260003A464946304603F026F9CDF80C9011230493059406942946304602F0E7FF09B0B2
:20628000BDE8F083000C0246000002420004024208B500BF05F02CFA0028FAD072B6FEE770
:2062A00008B51448144B03604FF480034360002383600722C260036143614FF0806181613F
:2062C0004FF00051C161036243628362C2624FF0804242638363C3638364C3640365436529
:2062E0008365C365036603F003FD00B908BDFFF7CFFF00BFF40D00200020004608B509489C
:20630000094B0360002303714371C36060234361802383610323036202F08CFA00B908BD29
:20632000FFF7B6FF840E00200030024008B51248124B03604FF4E133436000238360C36094
:2063400003610C2242618361C36103624362836204F0B8FF50B94FF08041074805F086F89B
:2063600030B9054805F05EF820B908BDFFF790FFFFF78EFFFFF78CFFEC0B002000380140E5
:2063800008B51548154B03604FF4E133436000238360C36003610C2242618361C36103625B
:2063A0004362836204F0D0FF70B900210A4805F05DF858B90021084805F07DF840B9064877
:2063C00005F030F830B908BDFFF762FFFFF760FFFFF75EFFFFF75CFF2C0D002000440040C5
:2063E00008B5354A136823F00F031360324B1B6813F00F0FFAD1314AD36843F48033D3608F
:2064000002F58062136843F4807313602C4B1B6813F4806F0BD02A4A136923F4F81343F477
:2064200080131361D36923F00303D36102E000BFECE700BF224BDB6913F00C0FF9D1204B95
:206440001A6A22F007021A62D3F8002222F01002C3F800221A6A22F070021A621A6A22F415
:20646000E0621A625A6A22F070025A62154805F047F8124A936A43F0010393620F4B9B6AE5
:2064800013F0010F01D100BFF8E70D4AD2F8F03043F00103C2F8F030094BD3F8F03013F0E5
:2064A000020F01D100BFF7E70E2000F0FFFE00B908BDFFF7EDFE00BF002002400008024671
:2064C000000C02460024F40000B589B0002301930293039304930593069307931048114A6B
:2064E000026083600361436183614FF08042C26103624FF48073436203F0CCFA58B900231A
:20650000019304930593069301A9054803F046FB18B909B000BDFFF7BBFEFFF7B9FE00BF92
:20652000A80E00200078004600B583B002F030F8114BD3F8942042F00402C3F89420D3F878
:20654000943003F004030193019BFFF749FFFFF719FEFFF7A5FEFFF7F9FDFFF7B5FFFFF7DD
:20656000CDFEFFF7E3FEFFF70BFF01F0BBF9FFF7BBFAFFF771FBFEE7000C024610B584B095
:20658000044601281AD814488268002101F026F80346D8B9114B93E807008DE80700039455
:2065A00010236A4600210C4800F0F7FF034658B10B4A0C49002000F09DFA05E00346084A7A
:2065C0000949002000F096FA04B010BD044A0749002000F08FFADDE7A8070020F0D50008B1
:2065E00054D5000810CF0008D0CE0008ECCE000800B585B010236A460021144800F0ACFF36
:2066000088B90C221249684605F0DAFBB8B9039BD8B213F0FE0F10D003460E4A0E49002097
:2066200000F068FA05E003460A4A0C49002000F061FA0020FFF7A2FF002005B000BD054A2E
:206640000749002000F056FAF3E700BFA8070020F0D500087CD50008D0CE000834CF00084B
:2066600058CF000870B588B020236A4600211A4800F072FF10B90024264611E00346174AC3
:206680001749002000F036FA0326304608B070BD10221449284605F093FBA8B90136013489
:2066A000012CF2D80DEB041510220F49284605F087FB0028E9D010220C49284605F080FB1D
:2066C0000028E5D10236EAE72346044A0849002000F010FA0326D8E79407002034D50008FD
:2066E00034CF0008C4D50008B4D50008A4D5000880CF000870B588B020236A4600211F48AD
:2067000000F02AFFA8BB06460025012D29D80DEB051410221A49204605F052FB68B11022C4
:206720001849204605F04CFB88B110221649204605F046FBF8B90135E7E71023114A290183
:206740000E4800F02AFF064680B104260EE010230D4A2901094800F020FF064630B10426CA
:2067600004E00A4A0A49012000F0C4F9304608B070BD0326FAE70F26F8E700BF94070020CD
:20678000B4D50008C4D50008A4D500080CD50008A0CF000810B584B010236A46302114485D
:2067A00000F0DAFE0446B8B910221249684605F007FBC8B110221049684605F001FBA0B130
:2067C00010220E49684605F0FBFA70B10C4A0D49002000F08FF908E00346094A0A4900203C
:2067E00000F088F9002400E00124204604B010BD94070020D4D50008A4D50008B4D500089A
:20680000E4D40008C0CF000834CF000808B588B10346012807D10D488268002100F0DEFEAA
:2068200080B90B4A07E00B4A0B49002000F062F9012006E0094A10233021044800F0ADFE0A
:2068400010B908BD0520FCE70420FAE794070020D4D50008BCD40008DCCF0008A4D5000865
:2068600030B585B0044610236A4620210F4800F073FE054650B90C220D49684605F0A0FAC3
:2068800060B9039B2360284605B030BD0346094A0949002000F02EF90325F4E7054A0749E7
:2068A000012000F027F90F25EDE700BF94070020E4D500088CD4000834CF0008F4CF000826
:2068C00000B587B001900D4B0DF1080C93E807008CE80700019B0593102362462021084834
:2068E00000F05BFE08B907B000BD0346054A0649002000F0FFF80420F5E700BFE4D50008AC
:20690000940700205CD4000810CF00082DE9F047824688461746994600F082F900254FF0AF
