:020000040800F2
:2000000000FC0020CD1100083B1100083D1100084111000843110008451100080000000020
:20002000000000000000000000000000F145000847110008000000009146000849110008E1
:200040001D1200081D1200081D1200081D1200081D1200081D1200081D1200081D120008E8
:200060001D1200081D1200081D1200081D1200081D1200081D1200081D1200081D120008C8
:200080001D1200081D1200081D1200081D120008000000001D1200081D1200081D120008DF
:2000A0001D1200081D1200081D1200081D1200081D1200081D1200081D1200081D12000888
:2000C0001D1200081D1200081D1200081D1200084162000851620008616200081D120008DC
:2000E0001D1200081D1200081D1200081D1200081D12000800000000000000001D120008B6
:200100001D1200081D1200081D1200081D1200081D1200081D1200081D1200081D12000827
:180120001D1200081D1200081D1200081D1200081D1200081D1200087D
:2001400010B5054C237833B9044B13B10448AFF300800123237010BDD80100200000000004
:20016000E071000808B5034B1BB103490348AFF3008008BD00000000DC010020E07100087B
:2001800001F0FF01102A2BDB10F0070F08D010F8013B013A8B422DD010F0070F42B3F6D125
:2001A000F0B441EA012141EA014122F007047FF000070023F0E80256083C85EA010586EAD2
:2001C000010685FA47F5A3FA87F586FA47F6A5FA87F68EB9EED1F0BC01F0FF0102F00702CD
:2001E00032B110F8013B013A83EA010313B1F8D10020704701387047002D06BF3546033830
:20020000073815F0010F07D1013015F4807F02BF013015F4C03F0130F0BC0138704700BFF3
:2002200053B94AB9002908BF00281CBF4FF0FF314FF0FF3000F088B9ADF1080C6DE904CED4
:2002400000F006F8DDF804E0DDE9022304B070472DE9F047089D0F4604468C46002B48D1FA
:200260008A42164661D9B2FA82F34BB1C3F1200201FA03FC20FA02F29E4042EA0C0C9C4023
:200280004FEA164EB7B2BCFBFEF1220C0EFB11CC42EA0C4201FB07F0904209D9B21801F1C1
:2002A000FF3C80F0EE80904240F2EB8002393244121AA4B2B2FBFEF00EFB102244EA024439
:2002C00000FB07F7A74209D9341900F1FF3280F0DA80A74240F2D7803444023840EA014092
:2002E000E41B00211DB1DC400023C5E90043BDE8F0878B4206D90DB1C5E90001002108463C
:20030000BDE8F087B3FA83F1002948D1BB4202D3824200F20781841A67EB0302012094465E
:20032000002DE4D0C5E9004CE1E7002A00F09280B2FA82F3002B40F0A8808A1A4FEA164E09
:200340001FFA86FC0121200CB2FBFEF70EFB172240EA02420CFB07F0904207D9B21807F1F0
:20036000FF3802D2904200F2E2804746121AA4B2B2FBFEF00EFB102244EA02440CFB00FCF0
:20038000A44507D9341900F1FF3202D2A44500F2CB801046A4EB0C0440EA0740A2E7C1F18A
:2003A00020068B4022FA06FC4CEA030C07FA01F420FA06F3F7404FEA1C49234300FA01F8B2
:2003C0001FFA8CFEB7FBF9F01C0C09FB107744EA074400FB0EF7A74202FA01F20AD91CEBF1
:2003E000040400F1FF3A80F09B80A74240F2988002386444E41B9FB2B4FBF9F309FB1344E5
:2004000047EA044403FB0EFEA64509D91CEB040403F1FF3780F08280A6457FD9023B6444B9
:2004200043EA0040A4EB0E04A0FB02E7BC427346B94663D360D05DB1B8EB030264EB0904FC
:2004400004FA06F622FA01F31E43CC40C5E9006400214CE76208480842EAC1710B0C43EA63
:2004600000438AB242EA0342B3FBF6F1E407B4463746B6461F23B0FBF6F0D21B41EA00416D
:2004800061E7614614E7104628E7C3F1200120FA01F29E4027FA01F19F403A434FEA164E41
:2004A0001FFA86FCB1FBFEF70EFB1710110C41EA004107FB0CF8884504FA03F43AD97118E3
:2004C00007F1FF3001D288451FD8A1EB0801B1FBFEF808FB0CF70EFB181192B242EA01423C
:2004E000BA422FD2B21808F1FF31C6D2BA42C4D2A8F102013244C0E7F0459CD2BEEB0203D8
:2005000067EB0C070138B94695E7A6EB08084144B81EB1FBFEF808FB0CF7DCE73B467FE774
:20052000504667E70846FBE63444023832E7023F32441BE7A1EB08013846B1FBFEF808FB6C
:200540000CF7C8E7414698E7704700BF08B540680368DB68984708BD08B5406803689B68E3
:20056000984708BD08B5406803681B69984708BD08B5406803685B69984708BD012A05D0A7
:20058000032A04D01AB90023036000E0016000207047704710B50446082106F03DF8204669
:2005A00010BD08B5084611461A78096800F04EFB08BD000070B584B0124D01260296002470
:2005C00001940223009323460F4A2946052005F067FA02960194009423460C4A294605200E
:2005E00005F05EFA0A4BD3F880350A4A2946052005F056FA084A2946042005F051FA04B0D3
:2006000070BD00BF2872000818720008307200080070FF1F407200084C72000870B584B0A9
:20062000012005F073FF044605F0F2FF90F8200005F018FA294B186805F070FB05F0BCF955
:2006400005F0E6FFC56805F0E3FF466805F0E0FF036A0293019600952346214A21490520A9
:2006600005F01EFAFFF7A6FF00F044FB1E4804F0C9FD4FF47A7000F061FB10BB1A4804F0E9
:20068000F3FD04F0FFF800F0FBF80546E0B1154C2B46164A2146012005F002FA04F0F2F837
:2006A000134A2146012005F0FBF90F4804F0AAFD002000F043FB00F05DFB04F0DFF804B065
:2006C00070BD00F057FBD9E70A4A0649052005F0E7F904F0D7F800F017FAD8E74404002063
:2006E0006472000828720008F40100209C720008C07200088472000800B583B00B4B009346
:2007000003234FF420520021094805F05AFB08B103B000BD074B01937B230093064B074A60
:200720000749022005F0EEF8ABBEFDE7F87200081D06000820730008FC7200080C730008EA
:200740001873000800B585B080220E490E4805F0CBFD0E4B18600E490E4B0B6048606A46CC
:200760000023009301930C4B03930C4B02930C4804F038FC029B1BB1684603226946984710
:2007800005B000BD8805002000440040440400203C04002070790008A30500087D050008C3
:2007A000F401002008B5024804F071FD08BD00BFF401002010B582B00446254B254A264993
:2007C000072005F06DF92268244B9A421CD16368352B20D1D4F82920214B9A4222D8352A03
:2007E00020D9A26804321F4901F13500904220D80B44353B93421CD3D4F825301A4A93428A
:200800001ED1002002B010BD184A1349072005F047F90520F6E7164A0F49072005F040F921
:200820000520EFE7134A0C49072005F039F90B20E8E7114A0849072005F032F90B20E1E7DD
:2008400000920E4A0449072005F02AF90520D9E7C8730008D8730008447300080BB0FEC06F
:20086000006803000088000801000200DC730008EC73000800740008107400083074000808
:2008800010B51A4B1A4A1B49072005F009F91A48FFF790FF044698B9174B9A68136803F1F3
:2008A0006043B3F5803F12D85268134B03F13501914213D811490B4493420FD3204610BDB1
:2008C00003460F4A0B49032005F0EAF8F6E70D4A0849032005F0E4F80724EFE70A4A05490C
:2008E000032005F0DDF80724E8E700BF54740008D87300084473000800880008CB670300AB
:2009000064740008787400088C74000830B587B0274B284A2849072005F0C2F8274CC4F38A
:200920000A0323BB264DC5F30A033BBB254A2249062005F0B5F800F09BFD30BB224B4FF4D9
:2009400000421A61002302930223039304F17844E40A0494ED0A059502A903A800F022FE39
:200960000446C8B900F098FD204607B030BD174A1149012005F094F80D24F5E7144A0E49FE
:20098000012005F08DF80D24EEE7124A0A49032005F086F80124E7E7029B009303460E4AAD
:2009A0000549032005F07CF800F076FD0C24DBE7A0740008D873000844730008008800084A
:2009C000006803001075000800400058AC740008E074000820750008387500082DE9F04764
:2009E00082B007460E4614462C4B2D4A2D49072005F056F82C4B1F442C4A1344BB4243D93C
:200A00003A19934244D3002E44D0002C44D000F02FFD78B9264B4FF400421A61013CE4082E
:200A2000A6F108054FF00008C6F108063E444FF0010907E01F4A1B49032005F031F8012025
:200A400023E098467719F5E902233946484600F065FD824668B908F101034445F1D100F0A2
:200A60001BFD90B1144A0F49042005F019F850460BE000903B46114A0A49032005F010F8DD
:200A800000F00AFD0C2000E00B2002B0BDE8F0870B20FAE70720F8E70720F6E76075000867
:200AA000D87300084473000800880008006803000040005820750008907500086C750008FE
:200AC00038B505460C46084B084A0949072004F0E7FFFFF7D5FE30B9064BD3F821202A60FB
:200AE000D3F82530236038BDA8750008D873000844730008008800080123036003F50033E5
:200B00000B6000207047000030B585B0234D244B244A2946072004F0C3FF234C04F1180361
:200B2000029304F10C030193D4F825300093D4F821301E4A2946062004F0B2FF72B61C4889
:200B400001F098FD00F06BFB00F0E0FB4FF0E0231A6922F002021A614FF0FF321549C1F811
:200B60008020C3F88421C3F88821C3F88C21C3F89021C3F89421C3F89821C3F89C21A368D6
:200B80005A6801F540618B60002383F31488BFF36F8F62B6904705B030BD00BF447300081D
:200BA000B4750008D873000800880008C87500088805002000E100E00820704700207047B8
:200BC000012A05D0032A04D01AB90023036000E00160002070470000014B02221A707047F2
:200BE0007C050020012A05D0032A04D01AB90023036000E00160002070477047704710B5AF
:200C00000446042105F008FD204610BD10B50446042105F001FD204610BD000008B50A789F
:200C2000034B1A70034B186805F02CF908BD00BF7C0500208005002010B50446836813B16C
:200C4000032201469847204610BD0000032A46D930B583B00446043A8DF80720CA78204BD1
:200C6000DA70012058701870022A12D01D4B1B7883B3082A15D81C4B53F8220003689D6817
:200C80000DF10703194A0431A847154B987098B10DE00DF10703154A0431154803F026FE17
:200CA000F3E700238DF807300D4B08229A700C4A537843F0020353709DF807200432D2B25D
:200CC0008DF807200649204604F066FA054B1B78022B01D003B030BD03F0D0FDFAE7704786
:200CE0007C0400207C050020B079000880040020680400200C4B1B6803B1704700B583B025
:200D000005F0B5F8084B186008B103B000BD074B01937C230093064B064A0749022004F01E
:200D2000F1FDABBEFDE700BF8005002018760008107600080C7300081873000808B50146D2
:200D40000A4B186868B111B9094B01221A70084B1B78012B07D005F09DF8003818BF012037
:200D600008BD0020FCE70120FAE700BF800500207C0500200A4B1B6883B10A4B1B78012B84
:200D80000CD170B5064E4FF0FF35064C2946306805F080F82378012BF8D070BD704700BF92
:200DA000800500207C05002010B588B004AB002404940594164A174911601749116102F1F6
:200DC000040C93E803008CE803001449D160069407941846FFF730FF00940194104A1149EB
:200DE00011601149116102F1040CDDE900018CE803000E49D160029403946846FFF71CFF01
:200E00000B4B0C4A1A605C609C6008B010BD00BF68040020A47A00081D0C0008C10B0008F9
:200E200054040020F47A0008D90B0008E50B000848040020087B000808B50648064B40F855
:200E4000043BFFF7F9FE0548054B40F8043BFFF7F3FE08BD54040020F47A0008680400202C
:200E6000A47A000808B5FFF747FC002002F0A6FE08BD0000084BD3F8F03013F0010F0AD0B0
:200E8000064AD36B43F0004343F4A053D363536843F007035360704700ED00E0002004E0BB
:200EA00030B59BB008AD48220021284605F03BFD002402940394049405940694079400F080
:200EC00009FD4FF0B042D2F8903023F01803C2F8903002F58062136823F4C06343F4007371
:200EE0001360136803F4C0630193019B2C23089381230B93012310931194802212920F9439
:200F00000E931394284600F00BFE70B94F230293002303930493059306930793022102A80A
:200F200001F038F918B91BB030BD72B6FEE772B6FEE7000000B58FB0FFF79CFF00F0BEF9C0
:200F4000FFF7AEFF00240694079408944FF0B043DA6C42F00202DA64DA6C02F0020200923F
:200F6000009ADA6C42F00102DA64DA6C02F001020192019ADA6C42F08002DA64DA6C02F045
:200F800080020292029ADA6C42F00402DA64DB6C03F004030393039B41F2FC13049303266C
:200FA000059604AD29462B4800F04EFB49F6FA7304930596069429464FF0904000F044FBA5
:200FC00008230493059606942946234800F03CFB4FF4005304930596069429461F4800F0F1
:200FE00033FB1F481F4B03604FF4E13343608460C46004610C2343618461C461046244623F
:20100000846201F016FEE0B90021154801F08FFEC8B90021124801F0AFFEB0B9104801F004
:2010200067FEA0B909AC104D0FCD0FC42B682360002109A801F0CAFE0C4B186001F0C1FE11
:20104000FEE772B6FEE772B6FEE772B6FEE772B6FEE700BF00040048001C004800080048B8
:201060008805002000440040F87100088405002072B6FEE708B500220F216FF0010000F0B9
:201080005FF908BD10B596B00446002111911291139114911591382203A805F044FC2268C5
:2010A0001A4B9A4201D016B010BD022303934FF44023059303A801F0A1F918BB4FF0B04357
:2010C0009A6D42F400329A659A6D02F400320292029ADA6C42F00102DA64DB6C03F001034C
:2010E0000193019B042311931223129301231393002314930723159311A94FF0904000F0FC
:20110000A3FAD0E7FFF7B4FFD8E700BF0044004008B50268074B9A4200D008BD4FF0B042B5
:20112000936D23F40033936504214FF0904000F053FBF2E7004400407047FEE755BEFEE70A
:20114000FEE7FEE7FEE7704708B500F0CDF803F0C7F8012800D108BD03F0BCFAFBE701209A
:20116000704708B505F03CFC162303604FF0FF3008BD08B505F034FC16230360FEE700009C
:2011800008B503460C4A126852B10B4A106803440A4A0B49521A934206D8074A136008BD12
:2011A000054A08491160F0E705F01AFC0C2303604FF0FF30F3E700BF1C06002000FC002045
:2011C0000004000068090020704700000D488546FFF7FAFF0C480D490D4A002302E0D45882
:2011E000C4500433C4188C42F9D30A4A0A4C002301E013600432A242FBD305F0F7FBFFF748
:2012000099FEFEE700FC002000000020D8010020387C0008D801002068090020FEE710B52D
:201220004FF0B0439A6B4FF0FF329A63D96BDA63996B00249C63D96BDC63196C1A64196C57
:201240001C64596C5A64596C5C64996A9A62996A9C62D96ADA62D96ADC62196B1A631A6B80
:201260001C63FFF769FF204610BD0000114B1B780BB90120704710B5044600F041FC0D4B3F
:201280001A784FF47A73B3FBF2F3B0FBF3F000F0BFF868B90F2C01D901200AE000222146FA
:2012A0004FF0FF3000F04CF8034B1C60002000E0012010BD180000201C00002010B5032078
:2012C00000F02CF800F01CFC064B18600F20FFF7CDFF10B10124204610BD0446FFF7CAFE17
:2012E000F9E700BF14000020034A1168034B1B780B441360704700BF2006002018000020BE
:20130000014B1868704700BF200600204FF0E022136923F002031361704700000749CA68C3
:20132000030203F4E06322F4E0621204120C134343F0BF6343F40033CB60704700ED00E01E
:2013400000B5184BDB68C3F30223C3F1070CBCF1040F28BF4FF0040C03F1040EBEF1060FD0
:201360008CBF033B00234FF0FF3E0EFA0CFC21EA0C0199400EFA03FE22EA0E0211430028A3
:2013800008DB0901C9B200F1604000F5614080F8001300BD00F00F000901C9B2024B195438
:2013A000F7E700BF00ED00E014ED00E0002807DB410900F01F0001238340024A42F82130C1
:2013C000704700BF00E100E000280CDB430900F01F00012282402033034941F82320BFF3BA
:2013E0004F8FBFF36F8F704700E100E0BFF34F8F0549CA6802F4E062044B1343CB60BFF31D
:201400004F8F00BFFDE700BF00ED00E00400FA050138B0F1807F0BD24FF0E0235861054ABC
:20142000F02182F823100020986107221A6170470120704700ED00E010B50B460B4C62699D
:2014400042F480226261EFF3108E72B601F5807C411A1A685A5004336345FAD1034A13695D
:2014600013F4803FFBD18EF3108810BD00400058074B5B69002B01DB00207047044B054ACA
:201480009A6002F188329A605869C00F704700BF0040005823016745044B5A6942F00042B7
:2014A0005A615869C043C00F704700BF0040005870B50546FFF724FF0446164E336913F4F6
:2014C000803F06D0FFF71CFF001BA842F6D3032070BD104B1B6913F0010F02D00D4A01210B
:2014E00011614CF2FA3213400BD10A4E336913F4802F0CD0FFF704FF001BA842F6D3032071
:20150000E6E7044A1361044A53600120E0E70020DEE700BF0040005824060020F8B51F46BB
:20152000174B1B78012B29D004460D461646144B01221A7000225A604FF47A70FFF7B8FFD6
:2015400070B9012C10D031462846FFF775FF4FF47A70FFF7ADFF0B4A536923EA040353615E
:20156000074B00221A70F8BD064A536943F0010353612E60BFF36F8F6F60E8E70220F2E7EA
:201580002406002000400058054A536923F47E7343EAC00040F4803040F0020050617047EB
:2015A00000400058F8B5264B1B78012B46D005460E46234B01221A7000225A604FF47A70DD
:2015C000FFF776FF0146002833D12B68042B18D04FF0FF3333606C68AB6823449C421ED263
:2015E0004FF47A772046FFF7CFFF3846FFF760FF014698B901346B68AA681344A342F1D803
:201600000DE0104A536943F4803343F0040353614FF47A70FFF74CFF014607E03460094A6C
:20162000536923F47E7323F002035361054B1A681B68034B00221A700846F8BD0221FBE7C3
:2016400024060020004000580B68002B00F0BF802DE9F04F4FF0000C624601254FF0030E1D
:2016600007265B4C4FF00F084FE083680EFA0CFA23EA0A0ACB6803FA0CF343EA0A038360AB
:20168000436823EA07074B68C3F3001393403B43436045E0002707FA0BF747EA0A079F6084
:2016A00023686FEA0907D1F804A01AF4801F0CBF3B4049EA030323606368D1F804A01AF4D4
:2016C000001F0CBF3B4049EA03036360D4F88030D1F804A01AF4803F0CBF3B4049EA030374
:2016E000C4F88030D4F88430D1F804A01AF4003F0CBF1F4049EA0307C4F8847001320B6887
:201700000CF1020C33FA02F75FD005FA02F717EA0309F3D04B6803F00303013B012BA4D910
:201720004B6803F00303032B20D0C7680EFA0CF327EA03078B6803FA0CF33B43C3604B684B
:2017400003F00303022B11D1D70800EB87073B6A02F0070B4FEA8B0B08FA0BFA23EA0A0A89
:201760000B6903FA0BF343EA0A033B6207680EFA0CF327EA03074B6803F0030303FA0CF3EA
:201780003B4303604B6813F4403FB7D022F0030303F1804303F580339F6802F0030B4FEAEE
:2017A0008B0B06FA0BFA27EA0A0AB0F1904F3FF471AF084FB84206D007F58067B84214BFBF
:2017C0000727022767E7012765E7BDE8F08F70470008005800040048002976D02DE9F04FA5
:2017E0008C4600234FF001094FF0070B4FF0030A364F29E04FF0000808FA04F4AC4249D038
:20180000046859000AFA01F10C430460DD0800EB85052E6A03F00704A4004FF00F0E0EFA62
:2018200004F426EA04042C62846824EA01048460446824EA02024260C26822EA0102C2606C
:2018400001333CFA03F23ED009FA03F212EA0C06F6D023F0030101F1804101F580318D68E9
:2018600003F00304A4000BFA04FE0EEA0505B0F1904FBFD0DFF85880404508D008F58068C1
:20188000404514BF4FF007084FF00208B4E74FF00108B1E7D7F8804024EA0604C7F88040B8
:2018A000D7F8844024EA0604C7F884403C6824EA06043C607C6824EA06047C608C6824EAC8
:2018C0000E048C609CE7BDE8F08F70470008005800040048024A136843F4807313607047E5
:2018E00000040058024B186800F4C060704700BF0004005870B584B04FF0B043D3F808314A
:20190000C0F3031003F00F03304A52F82040304A52F82330B4FBF3F4FFF7E4FF05462D4B8F
:2019200093E8070004AB03E90700B5F5007F27D0294B9C423DD303F5B70303F67F539C42A6
:201940003ED903F5741303F510639C4298BF022330D90025214A136823F007032B4313601A
:20196000FFF7CEFC04461D4E336803F007039D4228D0FFF7C5FC001B0228F5D9032022E094
:20198000174B9C420CD9174B9C4210D903F5370303F5D8539C4298BF022302D90025D9E78A
:2019A000002304AA02EB830353F80C5CD2E70123F7E7002304AA02EB830353F80C5CC9E7CE
:2019C0000123F7E7002004B070BD00BFD4790008347A00080C720008C0CF6A000040005823
:2019E000BFEA21013F9334024FF0B0429368D26813F00C0314D00C2B0BD0042B49D0082B2B
:201A00004AD14FF0B0431A6812F4801247D139482DE002F00302012A02D00022104626E047
:201A20004FF0B042126812F008020DD04FF0B042126812F0080226D14FF0B041D1F89410C7
:201A40002D4951F822200EE04FF0B041096811F0080F14D14FF0B042D2F89420C2F3032270
:201A6000254951F82220002B0CBF104600204FF0B0439B6803F00C030C2B13D070474FF0BA
:201A8000B0410968ECE74FF0B0421268C2F30312D6E700221948EAE700221046E7E7002223
:201AA0001648E4E74FF0B043DB6803F00303022B09D0032B08D14FF0B0431B6813F4801F27
:201AC00015D10C4A00E00D4A4FF0B043D868D968DB68C0F3062002FB00F0C1F302120132DC
:201AE000B0FBF2F05B0F0133B0FBF3F0C6E7034AEAE700BF0048E801D47900080024F40005
:201B000008B5FFF771FF4FF0B0439B68C3F30313024A52F82330B0FBF3F008BD347A0008AF
:201B2000002800F01A832DE9F04104464FF0B0439D6805F00C05DE6806F00306036813F06F
:201B4000200F2BD0002D67D00C2D63D0236A002B00F0C5804FF0B042136843F00103136048
:201B6000FFF7CEFB07464FF0B048D8F8003013F0020F00F0AC804FF0B0431A6842F0080202
:201B80001A601A6822F0F002A16A0A431A605A68616A22F47F4242EA01225A60236813F078
:201BA000010F00F0E180082D00F0B4800C2D00F0AE804FF0B042136823F48013A1680B4367
:201BC00013606368B3F5803F00F0AD80B3F5041F00F0AE804FF0B0431A6822F480321A6064
:201BE0001A6822F400121A606368002B00F0AB80FFF786FB07464FF0B048D8F8003013F4AE
:201C0000003F40F0B180FFF77BFBC01B6428F4D90320AFE2012E99D1236A002B00F09F826E
:201C2000A06A4FF0B0431B6813F0080F4FF0B04312BF1B68D3F894301B0903F0F0039842D2
:201C40002BD9FFF757FE002840F08B824FF0B0431A6842F008021A601A6822F0F002A16AD5
:201C60000A431A605A68616A22F47F4242EA01225A60FFF745FFB94B1860B94B1868FFF700
:201C8000F5FA002840F07682236813F0010F8DD113F0020F00F0A2806CE04FF0B0431A68E3
:201CA00042F008021A601A6822F0F002A16A0A431A605A68616A22F47F4242EA01225A60A9
:201CC000A06AFFF717FE0028D3D0012052E2FFF717FBC01B02287FF648AF03204AE24FF0C8
:201CE000B042136823F001031360FFF709FB07464FF0B048D8F8003013F0020F3FF44EAF2B
:201D0000FFF7FEFAC01B0228F4D9032032E2032E7FF44FAF6368002B00F02582236813F00F
:201D2000020F27D15AE0136843F4803313605BE74FF0B0431A6842F400121A601A6842F418
:201D400080321A6050E7FFF7DBFA07464FF0B048D8F8003013F4003F06D0FFF7D1FAC01B19
:201D60006428F5D9032005E2236813F0020F35D0042D1CD00C2D18D02369002B69D04FF0EE
:201D8000B042136843F480731360FFF7B9FA06464FF0B0473B6813F4806F16D1FFF7B0FAEE
:201DA000801B0228F6D90320E4E1022EE4D12369002B00F0DA814FF0B0425368616923F0F7
:201DC000FE4343EA0163536008E04FF0B0425368616923F0FE4343EA01635360236813F0BA
:201DE000080F7ED0A369002B62D04FF0B043D3F8943003F01002E169914211D003F0030259
:201E0000022A00F0B48113F0010F38D14FF0B042D2F8943023F01003E1690B43C2F894305A
:201E20004FF0B042D2F8943043F00103C2F89430FFF766FA06464FF0B047D7F8943013F0C0
:201E4000020F4ED1FFF75CFA801B1128F5D9032090E14FF0B042136823F480731360FFF7B1
:201E60004FFA06464FF0B0473B6813F4806FB5D0FFF746FA801B0228F6D903207AE14FF0F2
:201E8000B042D2F8943023F00103C2F89430FFF737FA06464FF0B047D7F8943013F0020FDD
:201EA000B4D0FFF72DFA801B1128F5D9032061E14FF0B042D2F8943023F00103C2F8943026
:201EC000FFF71EFA06464FF0B047D7F8943013F0020F06D0FFF714FA801B1128F5D903202C
:201EE00048E1236813F0040F00F0B4801D4B1B6813F4807F10D1FFF7EDFCFFF701FA064606
:201F0000184F3B6813F4807F06D1FFF7F9F9801B0228F6D903202DE1E368002B66D023F06E
:201F20008003052B20D0FFF7EBF906464FF0B042D2F8903043F00103C2F890301746D7F840
:201F4000903013F0020F18D1FFF7DAF9801B41F288339842F3D903200CE100BF14000020C9
:201F60001C000020000400584FF0B042D2F8903043F00403C2F89030D5E7E36823F0040339
:201F8000812B19D0FFF7BCF906464FF0B042D2F8903023F08003C2F89030174641F288389A
:201FA000D7F8903013F4006F54D0FFF7A9F9801B4045F5D90320DDE0FFF7A2F906464FF076
:201FC000B042D2F8903043F08003C2F89030174641F28838D7F8903013F4006F3AD1FFF7FF
:201FE0008FF9801B4045F5D90320C3E0FFF788F906464FF0B042D2F8903023F08003C2F8D7
:202000009030174641F28838D7F8903013F4006F06D0FFF775F9801B4045F5D90320A9E0D7
:20202000FFF76EF906464FF0B042D2F8903023F00103C2F890301746D7F8903013F0020FAB
:2020400008D0FFF75DF9801B41F288339842F3D903208FE0E36A002B00F08B800C2D60D0BF
:20206000022B16D04FF0B042136823F080731360FFF746F904464FF0B0452B6813F0007F60
:2020800048D14FF0B042D168404B0B40D360002070E04FF0B042136823F080731360FFF729
:2020A0002FF905464FF0B046336813F0007F2AD14FF0B042D068236B616B0B433449014091
:2020C0000B43E16B0B43216C0B43616C0B43A16B43EA0123D360136843F080731360D36843
:2020E00043F08053D360FFF70BF904464FF0B0452B6813F0007F3FD1FFF702F9001B0A28CC
:20210000F6D9032036E0FFF7FBF8401B0A28CBD903202FE0FFF7F4F8001B0A28ADD9032093
:2021200028E0012B2AD04FF0B043DB6803F00301226B914224D103F07002616B8A4221D1C1
:2021400003F4FE42A16BB2EB012F1DD103F06043606C181A18BF01200CE001207047012010
:2021600008E0012006E0012004E0012002E0012000E00020BDE8F0810020FBE70120F9E72E
:202180000120F7E70120F5E70120F3E7FCFFFEEE8C80C111002800F006812DE9F0410C464B
:2021A0000546834B1B6803F007038B4227D32B6813F0020F39D12B6813F0400F4DD12B6878
:2021C00013F0040F65D12B6813F0080F79D12B6813F0010F00F0C1806B68022B00F08B80EA
:2021E000032B00F09080002B40F095804FF0B042126812F0020F40F094800120D1E06C4AB7
:20220000136823F007030B431360FFF779F80646674F3B6803F00703A342C8D0FFF770F881
:20222000801B0228F5D90320BBE04FF0B042936823F0F003A9680B439360FFF761F806462E
:202240004FF0B047BB6813F4803FB4D1FFF758F8801B0228F6D90320A3E04FF0B042D2F85F
:202260000831696923F00F0343EA1113C2F80831FFF746F806464FF0B047D7F8083113F425
:20228000803F9CD1FFF73CF8801B0228F5D9032087E04FF0B042936823F4E063E9680B43A6
:2022A0009360FFF72DF806464FF0B047BB6813F4003F88D1FFF724F8801B0228F6D9032003
:2022C0006FE04FF0B0429368296923F4605343EAC1039360FFF714F806464FF0B047BB689C
:2022E00013F4802F7FF473AFFFF70AF8801B0228F5D9032055E04FF0B042126812F4003FC0
:202300000FD101204DE04FF0B042126812F0007F07D1012045E04FF0B042126812F4806FA5
:2023200043D04FF0B0418A6822F0030213438B60FEF7E6FF06464FF0B04741F28838BB689E
:202340006A6803F00C03B3EB820F06D0FEF7D8FF801B4045F3D9032023E0154B1B6803F0F0
:202360000703A34215D9124A136823F0070323431360FEF7C5FF05460D4E336803F00703BC
:20238000A34206D0FEF7BCFF401B0228F5D9032007E0FFF7B5FB074B1860074B1868FEF73E
:2023A00065FFBDE8F081012070470120F9E700BF00400058140000201C00002008B5FFF750
:2023C0009FFB4FF0B0439B68C3F30223024A52F82330D84008BD00BF147A000808B5FFF785
:2023E0008FFB4FF0B0439B68C3F3C223024A52F82330D84008BD00BF147A000870B50446F9
:20240000036813F4803F40F0A5800020236813F0010F0AD062684FF0B041D1F8883023EA16
:20242000124392B21343C1F88830236813F0020F0AD0A2684FF0B041D1F8883023EA1243A6
:2024400092B21343C1F88830236813F0200F09D04FF0B042D2F8883023F4406321690B4396
:20246000C2F88830236813F4007F0CD0216A4FF0B042D2F888300D0C2D0423EA050343EA33
:202480000143C2F88830236813F4806F0CD0616A4FF0B042D2F888300D0C2D0423EA05034C
:2024A00043EA0143C2F88830236813F4006F0CD0A16A4FF0B042D2F888300D0C2D0423EA47
:2024C000050343EA0143C2F88830236813F0400F64D1236813F0800F71D1236813F4807F0F
:2024E0007ED1236813F0100F0DD04FF0B042D2F8883023F44073E1680B43C2F88830E36832
:20250000B3F5807F7DD0236813F4004F0FD04FF0B042D2F8883023F04043216B0B43C2F82A
:202520008830236B1BB9D36843F08073D360236813F4804F0DD04FF0B042D2F8883023F0E9
:202540004053E16A0B43C2F88830E36AB3F1005F5CD070BDFFF7BEF9FEF7D2FE0546444EE5
:20256000336813F4807F56D1FEF7CAFE401B0228F6D903204AE7FEF7C3FE05464FF0B046F8
:20258000D6F8903013F0020F65D1FEF7B9FE431B41F288329342F3D9032037E763694FF07F
:2025A000B045D5F88820190901F47F2122EA01021B0103F47F231343C5F8883089E7A369EF
:2025C0004FF0B045D5F88820190901F47F2122EA01021B0103F47F231343C5F888307CE7A9
:2025E000E3694FF0B045D5F88820190901F47F2122EA01021B0103F47F231343C5F88830A0
:202600006FE7D36843F08073D3607CE7D36843F48033D3609DE74FF0B043D3F8903003F4DD
:202620004073626B9A4216D04FF0B043D3F8901021F44070D3F8902042F48032C3F8902028
:20264000D3F8902022F48032C3F89020C3F8900011F0020F8FD14FF0B042D2F8903023F43D
:202660004073616B0B43C2F890300020CEE600BF00040058F0B138B505462423C0F8883094
:202680000268136823F001031360036800241C6003685C6003689C60FEF73AFDC5F8904079
:2026A000C5F88840C5F88C40EC662C6785F88440204638BD0120704770B50446016808686B
:2026C000A3682269134362691343E2691343A84A024013430B602268536823F44053E1681F
:2026E0000B435360A1692268A24B9A421CBF236A1943936823F06E4323F430630B4393600E
:202700002268D36A23F00F03616A0B43D3622368994A934219D0994A93422CD0954A9342EB
:202720004AD01022E069B0F5004F00F0AF80082A00F21A81DFE812F0DD00FF00DB00180199
:20274000020118011801180105014FF0B042D2F8882002F0030242F44032A2F54032032AAD
:2027600007D8DFE812F03F001701150104000822D8E71022D6E74FF0B042D2F8882002F0D3
:202780000C0242F44022A2F540220C2A12D8DFE812F0450011001100110003011100110013
:2027A00011000D001100110011000F000222B9E70822B7E71022B5E74FF0B043D3F88830AA
:2027C00003F44063B3F5006F5CD003D85BB3FFF70BF92AE0B3F5406F02D14FF4004027E07B
:2027E00001209FE0012263498B429BD1082A00F2AB8001A353F822F0272800084929000810
:202800008928000849290008CF270008492900084929000849290008212800080022E2E7DD
:202820004FF4004004E0FFF7C9FD002800F08E80626A534B33F81220B0FBF2F3656805EB3B
:202840004501994200F28480B3EB053F00F28280002633463146FDF7E3FC090241EA1061FB
:2028600000026B08C0182A46334641F10001FDF7D7FCA0F54072434B9A426DD82368D8606F
:2028800030464FE04048D3E73F48D1E7082A65D8DFE802F0072705642A6464640B003A4870
:2028A00003E0FFF78BFD00285AD06268616A344B33F81130B0FBF3F0530803EB4003B3FB1D
:2028C000F2F3A3F110014FF6EF7291424AD823F00F0292B22168C3F342031343CB60002046
:2028E00020E0FFF77BFDDEE7FFF77EF8DBE7264803E0FFF763FD002838D06368616A204AA0
:2029000032F81120B0FBF2F000EB5300B0FBF3F0A0F110024FF6EF739A4237D8236880B211
:20292000D86000200123A4F86A30A4F8683000236367A36770BDFFF751FDDCE7FFF754F844
:20294000D9E74FF40040D8E70120EBE70020E9E70120E7E70120E5E70120E3E70120E1E7E2
:202960000020DFE70120DDE70120DBE70020D9E7F369FFCF008000400038014000440040E2
:20298000747A0008FFFC0F000024F4000120C9E70222C7E60422C5E60422C3E6836A13F0ED
:2029A000080F06D00268536823F40043816B0B435360836A13F0010F06D00268536823F4AC
:2029C0000033C16A0B435360836A13F0020F06D00268536823F48033016B0B435360836A78
:2029E00013F0040F06D00268536823F48023416B0B435360836A13F0100F06D00268936815
:202A000023F48053C16B0B439360836A13F0200F06D00268936823F40053016C0B439360ED
:202A2000836A13F0400F0AD00268536823F48013416C0B435360436CB3F5801F0BD0836A42
:202A400013F0800F06D00268536823F40023C16C0B43536070470268536823F4C003816CDE
:202A60000B435360EBE72DE9F04106460C4615469846069F3268D16934EA01010CBF0123DD
:202A80000023AB4265D1B7F1FF3F38D0FEF738FCA0EB0800B8423DD8002F3BD033681A68E0
:202AA00012F0040FE6D0802CE4D0402CE2D0DA6912F4006FDED04FF400621A62326852E872
:202AC000003F23F4D07342E800310029F6D1326802F1080353E8003F23F00103083242E885
:202AE00000310029F3D12023C6F88830C6F88C30C6F89030002386F88430032008E0D3696B
:202B000034EA03030CBF01230023AB42F7D00020BDE8F081326852E8003F23F4D07342E8FE
:202B200000310029F6D1326802F1080353E8003F23F00103083242E800310029F3D1202386
:202B4000C6F88830C6F88C30002386F884300320DEE70020DCE730B583B004460023C0F828
:202B60009030FEF7CDFB05462268126812F0080F10D123681B6813F0040F19D12023C4F882
:202B80008830C4F88C300020E066206784F8840003B030BD6FF07E430093034600224FF417
:202BA00000112046FFF75FFF0028E2D00320EFE76FF07E4300932B4600224FF48001204607
:202BC000FFF751FF0028D9D00320E1E778B310B50446D0F888300BB32423C4F88830226836
:202BE000136823F001031360A36AE3B92046FFF763FD012811D02268536823F4904353607F
:202C00002268936823F02A0393602268136843F0010313602046FFF79EFF10BD80F884305B
:202C2000FEF730FAD8E72046FFF7B8FEDEE701207047002834D010B50446D0F8883033B366
:202C40002423C4F888302268136823F001031360A36A0BBB2046FFF72FFD012816D0226836
:202C6000536823F4904353602268936823F0220393602268936843F0080393602268136891
:202C800043F0010313602046FFF765FF10BD80F88430FEF7F7F9D3E72046FFF77FFED9E799
:202CA00001207047436E2BB90123A0F86A30A0F86830704730B403689A689968490F0A4D69
:202CC0006B5CDB00094C615C93FBF1F3A0F86A30C2F34262AB5CDB00A25C93FBF2F3A0F858
:202CE000683030BC704700BF947A00088C7A000890F88430012B18D0012380F884302423CF
:202D0000C0F8883003681A68196821F00101196022F000520023436601680A602022C0F84C
:202D2000882080F88430184670470220704738B590F88430012B1DD00446012380F88430F5
:202D40002423C0F8883003681D681A6822F001021A600268936823F0604319439160FFF75D
:202D6000A1FF23681D602023C4F88830002084F8840038BD0220FCE738B590F88430012B85
:202D80001DD00446012380F884302423C0F8883003681D681A6822F001021A60026893688F
:202DA00023F0606319439160FFF77CFF23681D602023C4F88830002084F8840038BD022089
:202DC000FCE708B500F06EFF002008BD30B585B084460B464068DCF80010BCF81020BCF9B7
:202DE00008C0BCF1840F14BF0CF10304002403AD0195009400F002FE01280CBF0398002057
:202E000005B030BD10B5182001F020FD044620B1002340F8043B00F003F9204610BD90B1F0
:202E20002DE9F0410C4616461D460746B1F1807F13D34FF0500383F31188BFF36F8FBFF363
:202E40004F8FABBEFEE74FF0500383F31188BFF36F8FBFF34F8FABBEFEE749B94FF0500383
:202E600083F31188BFF36F8FBFF34F8FABBEFEE701F036FA58B9069B4BB14FF0500383F3DE
:202E80001188BFF36F8FBFF34F8FABBEFEE700F047FFD7F8008065B904EA0803003B18BF5D
:202EA000012363B116B128EA04043C6000F0FCFF29E034EA08030CBF01230023F1E7069BB5
:202EC000002BF3D0311E18BF012109060DB141F08061069A2143381D01F0F2F800F0E4FFD6
:202EE00048B94FF0E0234FF08052C3F8042DBFF34F8FBFF36F8F01F01BFB804610F0007F06
:202F000004D028F07F484046BDE8F08101F082FBD7F8008045B904EA0803003B18BF012378
:202F200043B901F099FBECE734EA08030CBF01230023F5E7002EF4D028EA04043C60F0E7A7
:202F400078B170B50C460546B1F1807F13D34FF0500383F31188BFF36F8FBFF34F8FABBEB5
:202F6000FEE74FF0500383F31188BFF36F8FBFF34F8FABBEFEE701F04DFB2E6826EA040456
:202F80002C6001F069FB304670BDF8B570B10E460546B1F1807F13D34FF0500383F3118818
:202FA000BFF36F8FBFF34F8FABBEFEE74FF0500383F31188BFF36F8FBFF34F8FABBEFEE754
:202FC00000F10C0700F0ACFE2C692B6833432B60A7421CD000260EE0296832EA010108D1B9
:202FE00013F0807F18BF1643296841F0007101F0DBF8A7420CD020466468036823F07F4272
:2030000013F0806FE8D129680A42E9D1F1E700262B6823EA06032B6000F046FF2868F8BDC2
:2030200000F1080343604FF0FF328260C360036100230360704700230361704743684B6047
:203040009A688A60516099600861036801330360704730B40D68B5F1FF3F11D000F108039E
:203060001C465B681A68AA42FAD963684B6099608C606160086103680133036030BC7047C0
:203080000469F2E70369416882688A60416851605A68824204BF82685A60002202611A68B3
:2030A000013A1A601868704710B5044601F0B2FAA46B01F0D1FAB4FA84F0400910BD70B550
:2030C00004461546866B026C5AB903681BB100200136A66370BD806801F06EF90023A360AF
:2030E000F6E76DB9406803F0A7FC6368226C13446360A268934219D3236863602846E7E7C7
:20310000C06803F099FC226C5142E3689B1AE3602268934202D2A3680B44E360022D01D0CB
:203120000020D5E726B1013E0020D1E72846CFE70020CDE708B50346026C62B10846D968B7
:203140001144D960D3F808C0614524BF1968D960D96803F071FC08BD70B5054601F05AFAF0
:2031600095F8454064B2002C0FDD05F1240602E0013C64B24CB16B6A3BB1304600F0CEFFC9
:203180000028F5D001F0A6F8F2E7FF2385F8453001F062FA01F03EFA95F8444064B2002CFD
:2031A0000FDD05F1100602E0013C64B24CB12B693BB1304600F0B2FF0028F5D001F08AF8EE
:2031C000F2E7FF2385F8443001F046FA70BD38B5E0B10D46044601F01DFA2268216CE36B1D
:2031E00001FB03F3D018A0600020A06362605B1A1A44E260FF2384F8443084F8453005BB38
:2032000023696BB901F028FA012038BD4FF0500383F31188BFF36F8FBFF34F8FABBEFEE7A6
:2032200004F1100000F07AFF0028EBD04FF0E0234FF08052C3F8042DBFF34F8FBFF36F8FBE
:20324000E0E704F11000FFF7EBFE04F12400FFF7E7FED7E748B94FF0500383F31188BFF3BD
:203260006F8FBFF34F8FABBEFEE770B50C46064601FB00F0483001F0E9FA054648B154B12E
:2032800000F148032B60EE632C6401212846FFF79EFF284670BD0346F4E72DE9F04F85B01A
:2032A000019290B10E461D460446C1B1022D23D1E36B012B20D04FF0500383F31188BFF3E7
:2032C0006F8FBFF34F8FABBEFEE74FF0500383F31188BFF36F8FBFF34F8FABBEFEE7036C74
:2032E000002BE3D04FF0500383F31188BFF36F8FBFF34F8FABBEFEE700F0F2FF824658B907
:20330000019B5BB14FF0500383F31188BFF36F8FBFF34F8FABBEFEE74FF0000A02AF4FF09D
:2033200000090DF1040837E02A4631462046FFF7C6FE636A83B948B14FF0E0234FF0805207
:20334000C3F8042DBFF34F8FBFF36F8F01F084F9012005B0BDE8F08F04F1240000F0DEFEF4
:203360000028F3D04FF0E0234FF08052C3F8042DBFF34F8FBFF36F8FE8E701F06DF900209D
:20338000E7E7384600F056FF14E02046FFF7E4FE00F08AFD4FF0010A01F03CF9A26BE36B28
:2033A0009A42C1D3022DBFD0019B002BE5D0BAF1000FE6D001F050F900F0B2FC01F02AF907
:2033C00094F844305BB2B3F1FF3F08BF84F8449094F8452052B2B2F1FF3F08BF84F84590F9
:2033E00001F03AF94146384600F030FF00BB01F011F9D4F838B0D4F83CA001F02DF9D34544
:20340000C3D1019904F1100000F040FE2046FFF7A3FE00F049FD0028BCD14FF0E0234FF0E2
:203420008052C3F8042DBFF34F8FBFF36F8FB1E72046FFF791FE00F037FD002089E710B592
:20344000024600210120FFF705FF044638B1002181600160C1600B460A46FFF71EFF204617
:2034600010BD2DE9F84398B10F4616461C460546C1B1022C23D1EB6B012B20D04FF05003EF
:2034800083F31188BFF36F8FBFF34F8FABBEFEE74FF0500383F31188BFF36F8FBFF34F8FAE
:2034A000ABBEFEE7036C002BE3D04FF0500383F31188BFF36F8FBFF34F8FABBEFEE701F051
:2034C00095F9EFF311884FF0500383F31188BFF36F8FBFF34F8FAA6BEB6B9A4206D3022CB4
:2034E00004D0002088F31188BDE8F88395F845904FFA89F9224639462846FFF7E0FDB9F1A5
:20350000FF3F06D009F101035BB285F845300120E8E76B6A0BB90120E4E705F1240000F01B
:20352000FDFD18B126B101203060DBE70120D9E70120D7E72DE9F04784B0019290B189469A
:203540000446C9B100F0CCFE824610BB019B13B34FF0500383F31188BFF36F8FBFF34F8F17
:20356000ABBEFEE74FF0500383F31188BFF36F8FBFF34F8FABBEFEE7036C002BE2D04FF043
:20358000500383F31188BFF36F8FBFF34F8FABBEFEE74FF0000A02AD4FF0000801AE38E035
:2035A00049462046FFF7C6FD7B1EA36323692BB901F052F8012004B0BDE8F08704F110001D
:2035C00000F0ACFD0028F3D04FF0E0234FF08052C3F8042DBFF34F8FBFF36F8FE8E701F028
:2035E0003BF80020E7E7284600F024FE1CE02046FFF7B2FD00F058FC09E02046FFF7ACFDF1
:2036000000F052FC2046FFF74FFD002846D14FF0010A00F0FFFFA76B002FC1D1019B002BB3
:20362000DDD0BAF1000FDED001F016F800F078FB00F0F0FF94F844305BB2B3F1FF3F08BF7E
:2036400084F8448094F845305BB2B3F1FF3F08BF84F8458001F000F83146284600F0F6FD81
:203660000028CAD12046FFF71FFD0028BFD0019904F1240000F00AFD2046FFF76DFD00F0F8
:2036800013FC0028C3D14FF0E0234FF08052C3F8042DBFF34F8FBFF36F8FB8E700208AE7B0
:2036A0002DE9F04385B0019160B10446036C9BB14FF0500383F31188BFF36F8FBFF34F8F03
:2036C000ABBEFEE74FF0500383F31188BFF36F8FBFF34F8FABBEFEE700F002FE814658B9A5
:2036E000019B83B14FF0500383F31188BFF36F8FBFF34F8FABBEFEE74FF00008C14602ADCE
:20370000002701AE53E08046F9E7013BA36323684BB123695BB900F09FFF4FF00108404635
:2037200005B0BDE8F08300F00FFFA060F1E704F1100000F0F3FC0028EDD04FF0E0234FF09C
:203740008052C3F8042DBFF34F8FBFF36F8FE2E7B8F1000F09D04FF0500383F31188BFF3BE
:203760006F8FBFF34F8FABBEFEE700F075FFD6E7284600F05FFD25E000F04CFFA06800F05A
:20378000BFFD804600F068FF42E02046FFF7E4FC00F08AFB09E02046FFF7DEFC00F084FBEF
:2037A0002046FFF781FC002849D14FF0010900F031FFA36B002BA8D1019B002BC8D0B9F1CA
:2037C000000FD5D000F048FF00F0AAFA00F022FF94F844305BB2B3F1FF3F08BF84F8447073
:2037E00094F845305BB2B3F1FF3F08BF84F8457000F032FF3146284600F028FD0028CAD103
:203800002046FFF751FC0028BFD02368002BB3D0019904F1240000F039FC2046FFF79CFC43
:2038200000F042FB0028C0D14FF0E0234FF08052C3F8042DBFF34F8FBFF36F8FB5E7B8F1DE
:20384000000F3FF46CAF00F0E5FE616A19B1236B1968C1F10701A06800F008FE00F0FCFEF2
:203860004FF000085BE740B110B5044600F0D2FEA46B00F0F1FE204610BD4FF0500383F3D6
:203880001188BFF36F8FBFF34F8FABBEFEE708B510B100F0E7FF08BD4FF0500383F3118847
:2038A000BFF36F8FBFF34F8FABBEFEE7084B1B681B6823B9074B4FF0FF321A607047044B03
:2038C0001B68DB68DB685A68024B1A60704700BFAC0600204406002080B5174D174F184E3F
:2038E000DFF860802B68BBB100F094FEFB68DC68201DFFF7C7FB3368013B33602B68013BBB
:203900002B6000F0A9FE206B00F0ACFF204600F0A9FF2B68002BE7D1D8F80030012BE1D905
:203920004FF0E0234FF08052C3F8042DBFF34F8FBFF36F8FD6E700BF7C0600208006002044
:2039400064060020D806002070B504460D46244B1E68244B18680430FFF794FB48B9214B13
:203960001A6821490B68D06A0122824023EA02030B60B4F1FF3F0DD034441A4B1B685C6070
:20398000A6421FD9194B1868164B19680431FFF760FB70BD7DB9731E124A126853609E429E
:2039A000F0D8134B18680F4B19680431FFF751FB104B1B68EDE70B4B196804310E48FFF705
:2039C0003DFBE6E70A4B1868064B19680431FFF740FB084B1B68A342DBD9064B1C60D8E7DA
:2039E00060060020640700205C060020A8060020AC06002044060020680600202DE9F0474F
:203A000007460E4698469500284600F01FFF002800F0B1808146502000F018FF044600281D
:203A200000F0A380C0F83090043D4D4425F00705002E72D0731E00F133010B3613F8012F66
:203A400001F8012F0AB1B342F8D1002384F83F30089E062E28BF0626E66226644FF0000AAE
:203A6000C4F844A004F104094846FFF7E4FA04F11800FFF7E0FA2461C6F10706A66164624F
:203A8000C4F848A084F84CA042463946284600F09BFD2060099B03B11C6000F0BBFD3A4A9D
:203AA000136801331360394B1B68002B39D0384B1B683BB9354B1B68DA6AE36A9A429CBFE4
:203AC000324B1C60334A136801331360E06A324A1168012383400B43136000EB800049466D
:203AE0002E4B03EB8000FFF7A9FA00F0B5FD284B1B68002B43D0254B1B68DA6AE36A9A4210
:203B00003FD24FF0E0234FF08052C3F8042DBFF34F8FBFF36F8F01202FE0002380F83430E6
:203B200096E71A4B1C601368012BCBD11B4D05F18C062846FFF774FA1435B542F9D1184EB2
:203B40003046FFF76DFA174D2846FFF769FA1648FFF766FA1548FFF763FA1548FFF760FA56
:203B6000144B1E60144B1D60ACE7484600F07AFE4FF0FF3001E04FF0FF30BDE8F087012009
:203B8000FBE70120F9E700BF640600206407002058060020480600205C060020D806002002
:203BA000C4060020B0060020940600208006002068060020AC060020A806002038B5044680
:203BC00000F028FD002C37D0251D2846FFF75AFA70B9E26A02EB82039B002949CB583BB998
:203BE00028480368012101FA02F223EA02030360A36A1BB104F11800FFF744FA224A136863
:203C000001331360214B1B68A34218D0204A1368013B1360206B00F025FE204600F022FE99
:203C2000FFF744FE00F018FD1A4B1B681BB1174B1B68A3420CD038BD144B1C68C4E72946FB
:203C40001548FFF7FBF9154A136801331360E9E7134B1B684BB14FF0500383F31188BFF39C
:203C60006F8FBFF34F8FABBEFEE74FF0E0234FF08052C3F8042DBFF34F8FBFF36F8FDAE728
:203C8000D80600205C06002048060020640700206406002058060020800600207C0600205B
:203CA0003C06002000B583B0174B019300230093802216491648FFF7A1FE012804D0B0F17C
:203CC000FF3F16D003B000BD4FF0500383F31188BFF36F8FBFF34F8F0E4B4FF0FF321A602C
:203CE0000D4B01221A600D4B00221A6000F01CFDE8E74FF0500383F31188BFF36F8FBFF300
:203D00004F8FABBEFEE700BF4006002040760008D93800084406002058060020600600200D
:203D2000024A136801331360704700BF3C060020014B1868704700BF60060020034610B16B
:203D400003F134007047074B1B68002BF8D14FF0500383F31188BFF36F8FBFF34F8FABBE71
:203D6000FEE700BF640700202DE9F047434B1B68002B75D1424B1E6801361E60CEB9414B6A
:203D80001B681B684BB14FF0500383F31188BFF36F8FBFF34F8FABBEFEE73A4A11683A4B70
:203DA000186810601960394A136801331360FFF77DFD374B1B68B34243D8324B1B681B68ED
:203DC0003BB10025DFF8BC80DFF8C890DFF8C8A024E000252E4B4FF0FF321A6032E02C4A3D
:203DE00013602FE0E06AD9F80020012383401343C9F8003000EB800039460AEB8000FFF783
:203E00001DF9264B1B68E26ADB6A9A4228BF45F00105D8F800301B68002BDBD0D8F80030B0
:203E2000DB68DC6863689E42D9D3271D3846FFF729F9A36A002BD5D004F11800FFF722F9CF
:203E4000D0E70025154B1B68DB6A03EB83039B00114AD358012B94BF284645F0010004E0C2
:203E60000F4A13680133136000200E4B1B68002B18BF40F00100BDE8F08700BF3C0600205B
:203E800060060020AC060020A80600204C060020440600205C060020D80600206407002015
:203EA0005406002050060020384B1B684BB94FF0500383F31188BFF36F8FBFF34F8FABBEBE
:203EC000FEE72DE9F04100F0A5FB304B1A68013A1A601B68002B50D12D4B1B68002B52D05D
:203EE0002C4B1B684BB32B4F2B4EDFF8B08001E03B6803B3FB68DC6804F11800FFF7C2F832
:203F0000251D2846FFF7BEF8E06A3268012383401343336000EB8000294608EB8000FFF74E
:203F20008DF81F4B1B68E26ADB6A9A42E0D31D4B01221A60DCE7FFF7B9FC1B4B1C686CB175
:203F4000184E012501E0013C05D0FFF70DFF0028F9D03560F7E7144B00221A60114B1C68A1
:203F600064B14FF0E0234FF08052C3F8042DBFF34F8FBFF36F8F012400E0002400F06CFB2D
:203F80002046BDE8F0810024F8E700BF3C06002064060020940600205C060020D8060020BD
:203FA00064070020500600205406002010B5B0B10446104B1B684BB14FF0500383F311889B
:203FC000BFF36F8FBFF34F8FABBEFEE7FFF7A8FE00212046FFF7B8FCFFF766FF48B94FF0EB
:203FE000E0234FF08052C3F8042DBFF34F8FBFF36F8F10BD3C0600201F4B1B681BB11F4B2F
:2040000001221A6070471D4B00221A601C4B1B68B3FA83F3DBB2C3F11F0303EB83029200D3
:2040200018498A584AB94FF0500383F31188BFF36F8FBFF34F8FABBEFEE7124A03EB83013D
:2040400002EB810148684068486003EB830102EB81020832904209D003EB8303094A02EB76
:2040600083035B68DA68084B1A6070474068054A02EB81025060EFE73C060020500600206C
:204080005C060020D80600206407002058B110B50C460A4A11681831FEF7DBFF0121204688
:2040A000FFF752FC10BD4FF0500383F31188BFF36F8FBFF34F8FABBEFEE700BF6407002076
:2040C00078B110B514460246124B1B689BB94FF0500383F31188BFF36F8FBFF34F8FABBED2
:2040E000FEE74FF0500383F31188BFF36F8FBFF34F8FABBEFEE7084B186841F00041816185
:20410000196818311046FEF799FF01212046FFF71BFC10BD3C0600206407002038B5C3688B
:20412000DC682CB304F118052846FEF7ABFF184B1B683BBB251D2846FEF7A4FFE06A154A70
:204140001168012383400B43136000EB80002946114B03EB8000FEF771FF104B1B68E26A0B
:20416000DB6A9A4283BF01200D4B1860002038BD4FF0500383F31188BFF36F8FBFF34F8FF5
:20418000ABBEFEE729460748FEF758FFE5E700BF3C0600205C060020D806002064070020CF
:2041A000500600209406002038B51D4B1B684BB94FF0500383F31188BFF36F8FBFF34F8F12
:2041C000ABBEFEE741F000410160C468F4B1FEF759FF251D2846FEF755FFE06A114A116889
:2041E000012383400B43136000EB800029460E4B03EB8000FEF722FF0C4B1B68E26ADB6AF5
:204200009A4202D90A4B01221A6038BD4FF0500383F31188BFF36F8FBFF34F8FABBEFEE7D1
:204220003C0600205C060020D80600206407002050060020034B1B680360034B1B684360F3
:20424000704700BF4C0600206006002038B5D0B10C46054609B300F0DDF91C4B1A682368EF
:20426000B3F1FF3F2BD0696819480068D5F800C0844501D0914227D9501A834217D800238C
:20428000236001241CE04FF0500383F31188BFF36F8FBFF34F8FABBEFEE74FF0500383F343
:2042A0001188BFF36F8FBFF34F8FABBEFEE79B1A0B4423602846FFF7BDFF002400E0002408
:2042C00000F0CAF9204638BD0124F9E7600600204C060020014B01221A60704750060020BD
:2042E000054B1B6833B1054B1868B0FA80F040094000704701207047580600203C06002025
:20430000002850D038B50446C36A284A1268D26A93423FD28269002A05DB244A1268D26ACA
:20432000C2F10702826103EB8303214A02EB830362699A4205D01D4B1B68DB6AE36201207A
:2043400030E0251D2846FEF79DFE70B9E26A02EB82039B001649CB583BB91648036801212A
:2043600001FA02F223EA02030360104B1B68D86AE062104A1168012404FA00F30B431360CD
:2043800000EB800029460A4B03EB8000FEF756FE204607E0054B1B68006CDB6A98422CBFA1
:2043A0000020012038BD0020704700BF64070020D80600205C06002000284DD038B50446AA
:2043C000274B1B68834209D04FF0500383F31188BFF36F8FBFF34F8FABBEFEE7436C4BB968
:2043E0004FF0500383F31188BFF36F8FBFF34F8FABBEFEE7013B4364C16A026C91422DD042
:204400000BB1002038BD051D2846FEF73BFE68B9E16A01EB81039B00124AD35833B91248C9
:20442000036801228A4023EA02030360206CE062C0F10703A3610C4A1168012404FA00F33D
:204440000B43136000EB80002946064B03EB8000FEF7F4FD2046D5E7002070470020D1E74B
:2044600064070020D80600205C060020002857D038B50446436C4BB94FF0500383F3118857
:20448000BFF36F8FBFF34F8FABBEFEE7026C914238BF1146C26A8A4201D0012B00D038BD45
:2044A000204B1B68834231D0C1628369002BA4BFC1F10701816102EB82021B4B03EB8203C5
:2044C00042699A42EBD1051D2846FEF7DBFD68B9E16A01EB81039B00134AD35833B91348F6
:2044E000036801228A4023EA02030360E06A0F4A1168012383400B43136000EB8000294651
:20450000094B03EB8000FEF799FDC8E74FF0500383F31188BFF36F8FBFF34F8FABBEFEE770
:20452000704700BF64070020D80600205C060020044B1A68906919681A68CB6AC3F107033A
:204540009361704764070020054B1B6823B1044B1A68536C01335364014B1868704700BFC1
:204560006407002082B0002301930E4B1B68B3F1FF3F09D04FF0500383F31188BFF36F8FDF
:20458000BFF34F8FABBEFEE74FF0500383F31188BFF36F8FBFF34F8F019B002BFCD002B017
:2045A000704700BF2000002006480068006880F3088862B661B6BFF34F8FBFF36F8F00DFD6
:2045C00000BF000008ED00E04FF0807340F8043C21F0010140F8081C034B40F80C3C40F828
:2045E000202C4038704700BF6545000800000000074B19680868B0E8F00F80F30988BFF33F
:204600006F8F4FF0000080F311884EF00D0E7047640700204FF0500383F31188BFF36F8F65
:20462000BFF34F8F0B4A136801331360012B00D070474FF0E023D3F8043D13F0FF0FF7D09A
:204640004FF0500383F31188BFF36F8FBFF34F8FABBEFEE720000020094B1B684BB94FF0D1
:20466000500383F31188BFF36F8FBFF34F8FABBEFEE7013B024A13600BB983F311887047C5
:2046800020000020000000000000000000000000EFF30980BFF36F8F0D4B1A6820E9F00FDD
:2046A000106008B54FF0500080F31188FFF7A4FC4FF0000080F31188BDE808401968086873
:2046C000B0E8F00F80F30988BFF36F8F704700BF6407002008B54FF0500383F31188BFF37E
:2046E0006F8FBFF34F8FFFF73FFB28B14FF0E0234FF08052C3F8042D002383F3118808BDED
:204700004FF0E022002313619361054B1B680549A1FB03139B09013B536107231361704711
:2047200014000020D34D621010B582B02B4B1A78D2B20192FF221A701B78DBB28DF803301A
:204740009DF8033003F05003254A1370254B07221A609DF8033013F0800F11D006229DF84E
:2047600003305B00DBB28DF803309DF803301146013A13F0800FF2D103290BD0194B1960D3
:204780004FF0500383F31188BFF36F8FBFF34F8FABBEFEE7134B4FF440721A60019BDBB2F4
:2047A0000E4A13704FF0E023D3F8202D42F47002C3F8202DD3F8202D42F07042C3F8202D10
:2047C000FFF79EFF0024084B1C60FFF7EDFEFFF713FCFFF7C7FE204602B010BD00E400E009
:2047E0006C0700206807002020000020EFF305830F2B0FD9124A9A5C124B1B789A4209D2D2
:204800004FF0500383F31188BFF36F8FBFF34F8FABBEFEE74FF0E023D3F80C3D03F4E063D9
:20482000094A1268934209D94FF0500383F31188BFF36F8FBFF34F8FABBEFEE7704700BF4F
:20484000F0E300E06C0700206807002010B50446FFF766FA204601F01DFF0446FFF724FB4C
:20486000204610BD48B110B50446FFF759FA204601F018FFFFF718FB10BD704708B5FCF709
:20488000B5FD08BD024B4AF6AA221A60704700BF003000404FF0B043D3F89420D3F89410C8
:2048A000D3F89400D3F8943012F0005F08D111F0805F16D113F0006F14BF0321002100E09F
:2048C00001214FF0B042D2F8943043F40003C2F89430054B1B780BB9034B1970024B1878E4
:2048E00070470221EDE700BF6D07002000B585B01B78012B0FD10B78003B18BF01238DF8F0
:204900000F30C36883B103690DF10F0104309847002005B000BD01220092044A0449032067
:2049200001F0BEF80B20F4E701F098FE487600086876000810B50446064B0360C3681BB1DD
:2049400004300322014698471421204601F064FE204610BDA47A000810B50446044B0360D0
:20496000C3681BB10430032201469847204610BDA47A0008704700001878012809D109789D
:204980001170013905294AD8DFE801F00B1C2949323D08B5244A2549032001F081F80B20FB
:2049A00008BD2349D1F89005C2F80100D1F89405C2F80500D1F89815C2F809100D221A708A
:2049C000002070471A49D1F88005C2F80100D1F88415C2F8051009221A700020704714497A
:2049E000D1F8E015A2F8011003221A70002070470F49D1F8001501F01F01A2F801100322B1
:204A00001A70002070470B490968C2F801100A490968A2F8051003221A700020704700228A
:204A20001A700820704700BF74760008847600080070FF1F00ED00E0002004E010B50446EC
:204A4000042101F0E9FD204610BD704770B582B01C461B78012B0FD10D4616464FF0FF33F8
:204A6000019300930B78012B0DD0022B1CD008200023237002B070BD0E4A0F49032001F0E9
:204A80000FF80B20F6E7694601A8FCF719F80028EED12B783370019BC6F80130009BC6F89A
:204AA000053009232370E5E7694601A8FCF724F8EDE700BF747600089076000810B504462D
:204AC000042101F0A9FD204610BD704738B51C461B78022B16D115460B78012B03D0022B30
:204AE00008D007200FE000F073FE687002232370002008E04C7801F08BFD046201F0D2FC6D
:204B0000002000E00B2038BD10B50446042101F083FD204610BD000010B51C7834B9C3682C
:204B20005BB1036904309847204610BD044A0549032000F0B5FF0B24F6E701F08FFD00BF0C
:204B4000747600089876000810B50446064B0360C3681BB104300322014698471421204679
:204B600001F05AFD204610BDF47A000810B50446044B0360C3681BB104300322014698470D
:204B8000204610BDF47A0008704710B504460C2101F042FD204610BD30B583B012F01F0FCE
:204BA0000BD00C4B0193732300930B4B0B4A0C49022000F0A7FEABBEFDE704461546806875
:204BC000FBF70CFF636801336360A3682B44A36003B030BDB0760008A47600080C73000822
:204BE00018730008F0B583B01D7800221A70072D18D906460C460B7813F0010F49D04A68E5
:204C0000CAB913F0020F22D1082D2CD8444B019334230093434B444A4449022000F072FE99
:204C2000ABBEFDE7424A4349032000F039FF0727384603B0F0BD404B019332230093394B2D
:204C4000394A3A49022000F05DFEABBEFDE73B4B019333230093334B334A3449022000F007
:204C600051FEABBEFDE7002343608360FBF74EFE074638B9A5F1080204F108013046FFF769
:204C80008BFFD5E703462E4A2A49032000F008FFCEE713F0020F27D04B686BB9082D17D0CD
:204CA000284B01934D2300931E4B1F4A1F49022000F028FEABBEFDE71F4B01934B2300932C
:204CC000184B194A1949022000F01CFEABBEFDE7FBF7D6FD07460028AAD003461A4A154974
:204CE000032000F0DDFEA3E74B68426893420ED1A5F108020831FFF74FFF0746002897D032
:204D00000346124A0B49032000F0CAFE90E700920F4A0849032000F0C3FE072788E700BFDC
:204D2000F8760008CC7600080C730008187300087476000884760008D4760008E8760008ED
:204D40001C770008287700084C7700086C77000858770008012A02D1016000207047032A21
:204D6000FBD801A353F822F0794D00087F4D0008834D00085B4D000800230360EDE701607A
:204D8000EBE70B680360E8E770B588B00446061D304601F0A9F8FEF735F8204B186028B3EA
:204DA000012323600023059304941D4B07931D4B069303AD1C4B00930523A82204A928463F
:204DC00001F0A8F82946304601F09FF8284601F025F9069B1BB104A803220146984700F004
:204DE000CFFFA06070B1204608B070BD0F4B0193192300930E4B0F4A0F49022000F082FD21
:204E0000ABBEFDE70D4B019320230093084B094A0949022000F076FDABBEFDE77007002022
:204E2000994F0008554D00089877000890770008787700080C730008187300089C77000886
:204E400000B583B04B1E1E2B0BD90A4B019325230093094B094A0A49022000F053FDABBE4B
:204E6000FDE7012303FA01F1064B1868FEF78DF803B000BDAC770008A07700080C730008AF
:204E8000187300087007002070B504464FF0FF31806800F081FF236801252A4602FA05F69A
:204EA00033420BD133432360A06800F083FF3146064B1868FEF769F8284670BD0135202D72
:204EC000ECD1A06800F076FFF6E700BF7007002030B583B04B1E1E2B0BD9164B019354235B
:204EE0000093154B154A1649022000F00BFDABBEFDE704460D464FF0FF31806800F04CFF6B
:204F00002268012303FA05F52A420DD022EA05022260A06800F04EFF29460A4B1868FEF790
:204F200034F8012003B030BDA06800F043FF0020F8E700BFAC770008C47700080C73000897
:204F400018730008700700202DE9F04182B006460168104D4FF47A78002701E021EA04014F
:204F6000CDF800803B463A462868FDF758FF40F0010421462868FDF7E3FF316831EA040353
:204F8000ECD1FFF77FFC21462868FDF7D9FF3168E6E700BF7007002008B50068FFF7D4FF76
:204FA000012A02D1016000207047032AFBD801A353F822F0C54F0008CB4F0008CF4F000856
:204FC000A74F000800230360EDE70160EBE70B680360E8E708B5024801F020F808BD00BF0D
:204FE0007C07002030B583B00446034643F8041B0021416059609960D3680361956845B103
:20500000031D92E8030083E80300E56000239360D36004F5107000F067FF002184F8441235
:20502000019100910B460A4641F2210000F06AFAC4F82C01A0B10021019100910B460A46E5
:20504000072000F000FAC4F83001A8B1002323760423636104F12003E361204603B030BDF0
:205060000B4B0193152300930A4B0B4A0B49022000F048FCABBEFDE7094B01931823009324
:20508000044B054A0549022000F03CFCABBEFDE7DC770008D47700080C73000818730008C5
:2050A000E8770008C3695A1CC26119704369013B4361002B6CD130B583B00446037E032B36
:2050C00039D8DFE803F00217343A026A314B9A4204D101230376042343612CE0032200F15B
:2050E0002101203001F006FC01236361E369013BE36120E0032200F12401D0F8300100F073
:2051000063FA94F82730834203D194F82430012B07D9002323760423636104F12003E361C7
:2051200009E00223237694F82530636103E0032303760223436103B030BD00F1280590F892
:2051400025202946D0F82C0100F0B2FA94F82520A31893F8291093F8283043EA01239842AC
:2051600007D0002323760423636104F12003E361E1E701958DF80320E3683BB125690DF18C
:20518000030301AA2146201DA847EAE701F066FA704700BF55AAAA55F8B504460E4615468F
:2051A000174BC0F83431012380F8383180F83921002380F83A31032200F59C71D0F8300173
:2051C00000F002FA84F83B0104F59E772A463146384601F031FC2A463946D4F82C0100F0C2
:2051E00067FA631983F83C01000A83F83D0120680368DB6805F10A0204F59A719847F8BD87
:2052000055AAAA5590F8443203B1704730B589B00446012380F844320023059304900F4B04
:2052200007930F4B069303AD0E4B009305234FF4207204A9284600F06DFE294604F51070EA
:2052400000F063FE284600F0E9FE069B1BB104A803220146984709B030BD00BF1154000882
:20526000A14F0008F477000890F8443203B9704710B5002380F8443200F51074204600F0AD
:20528000E9FE00B910BD204600F0EDFEFAE710B50446D0F8300100F013F9D4F82C0100F092
:2052A00071F92046FFF7E0FF04F5107000F0B6FEE3681BB1201D032201469847204610BD5A
:2052C0002DE9F04385B00446006803681B699847484B1B68BFF35B8F13F0010F10D046489D
:2052E000FFF7D2FD0746D0B9444B0193A6230093434B444A4449022000F004FBABBEFDE78D
:205300003C4801F08BF90028E9D03B48FFF73CFD3E4801F0B8F9374801F08CF9DFE700F02E
:205320002BFD054694F84432002B42D00DF10F06DFF8C090DFF8C0800FE000232376042398
:20534000636104F12003E36100F016FD431BB3F57A7F10D894F844325BB3206803689B683D
:205360006422314698470028E7D09DF80F102046FFF798FEE8E7D9F80030BFF35B8F13F05D
:20538000010F07D039464046FFF75AFD00F0F4FC0546DFE7174801F041F90028F2D0164811
:2053A000FFF7F2FC194801F06EF9124801F042F9E8E7206803685B6998470E4B1B68BFF3D7
:2053C0005B8F13F0010F06D039460B48FFF780FD05B0BDE8F083074801F020F90028F3D0A4
:2053E0000548FFF7D1FC094801F04DF9014801F021F9E9E774070020780700200078000837
:20540000F87700080C73000818730008D54F000808B50068FFF754FF08BD014600231846D4
:205420004FF0010C02E00133082B0BD041FA03F212F0010FF7D0C3F107020CFA02F21043E9
:20544000C0B2F0E770472DE9F8430446884617461E469DF824900C2001F01CF9054660B14B
:20546000047180F80580C77106729DF820308371B9F1000F04D1002303602846BDE8F8838F
:205480004FF4807001F006F90646286098B101380021CBB2082213F0800F4FEA4303DBB22D
:2054A00018BF6340013AF6D100F8013F0131B1F5807FEED1E1E7284601F0F4F83546DCE751
:2054C00010B582B048B10446006808B101F0EAF8204601F0E7F802B010BD064B0193C7231A
:2054E0000093054B054A0649022000F00BFAABBEFDE700BF0C780008407B00080C73000832
:20550000187300082DE9F8430446884617461E469DF824900C2001F0BDF8054660B1848053
:20552000A0F806808772C672BDF820300381B9F1000F04D1002303602846BDE8F8834FF4AE
:20554000007001F0A7F806462860B0B1023806F5FF7C00210B46082213F4004F4FEA4303F5
:205560009BB218BF6340013AF6D120F8023F01F5807189B26045EDD1DEE7284601F092F8D6
:205580003546D9E710B582B048B10446006808B101F088F8204601F085F802B010BD064B60
:2055A00001934FF487730093044B054A0549022000F0A8F9ABBEFDE70C7800082C7B000860
:2055C0000C730008187300082DE9F04383B070B10746C9B14479D0F80080B8F1000F20D0A0
:2055E000002A4DD090F807900D468E1826E02B4B019340F283130093294B2A4A2A49022064
:2056000000F080F9ABBEFDE7284B01934FF4C2730093234B234A2449022000F073F9ABBE93
:20562000FDE76AB3C67988468D1822E02B786340DBB218F803400135B54221D0B9F1000FB8
:20564000F4D02878FFF7E9FE0346F0E798F800006040C4B2082314F0800F4FEA4404E4B26E
:205660001CBF3A795440013BF5D108F10108A84506D0002EEAD098F80000FFF7CEFEE7E739
:205680003B7A1BB12046FFF7C8FE0446BB7984EA0300C0B203B0BDE8F08300BF0C780008F0
:2056A000207B00080C73000818730008147800082DE9F04383B070B10746C9B1C488D0F821
:2056C0000080B8F1000F20D0002A52D090F80A900D468E182AE0354B019340F2B113009394
:2056E000334B344A3449022000F00CF9ABBEFDE7324B01934FF4D97300932D4B2D4A2E4934
:20570000022000F0FFF8ABBEFDE792B3867A88468D1827E02B7883EA1423DBB238F813302D
:205720002402A4B25C400135AE4222D0B9F1000FF0D02878FFF771FE0346ECE798F800000F
:2057400084EA002084B2082314F4004F4FEA4404A4B21CBFBA885440013BF5D108F1010877
:20576000A84506D0002EE9D098F80000FFF755FEE6E7FB7A9BB100221346012002E0013366
:20578000102B0BD044FA03F111F0010FF7D0C3F10F0100FA01F10A4392B2F0E714463B89B3
:2057A00084EA030080B203B0BDE8F0830C780008147B00080C7300081873000814780008AA
:2057C000002070470020704708B5FEF7B1FA08BD014B1879704700BF240000202DE9F04F0D
:2057E00087B082468B4604920593DFF8048108F105064FF48079D8F8080100F02FFAA0B1CC
:205800004A463146D6F8030100F0EEF9054656F8053C1B6801463046984704460146D6F880
:20582000030100F00AFAA542E5D0FFF7CDFF0346304A11680391304911F80A100291CDF84E
:2058400004B052F82A2000922C4A4FF480712C4800F0DEFF041E1CDBFF2CA8BFFF24C4F5FC
:205860008075059B049A29462548204401F034F8002813DB854214DD0444FE2C13DC621CEB
:205880001B4B19190D204871023413440A225A7110E0174BD3F8100100F08CFA07B0BDE806
:2058A000F08F4FF48074124B0D2283F803210A2283F804210E4BD3F8080100F0CFF980B91D
:2058C0000F4850F8053C1B6821469847A042E5D0411D074B221A1944D3F8080100F03CF946
:2058E000DCE707492246D1F8030100F035F9D5E72400002038010020A47B0008187800082A
:20590000290000200CB430B583B004460D46094BD3F80C315BB107AB0193069A29462046A6
:20592000FFF75CFF03B0BDE8304002B0704700F003F8F0E724000020194BD3F80C3103B1BF
:20594000704700B583B000F01BFA154BC3F8100168B14FF4007000F0E3F8114BC3F80801C0
:2059600088B10F4B0122C3F80C2103B000BD0D4B0193532300930C4B0C4A0D490220FFF709
:20598000C1FFABBEFDE70B4B019356230093064B064A07490220FFF7B5FFABBEFDE700BF3B
:2059A000240000202C7800088C7B00080C73000818730008387800082DE9F04383B0002872
:2059C00032D00446224BD3F80C31002B38D02368002B38D06368002B37D01D4D2B685B6858
:2059E00098472C60A8466E1D4FF48079D8F8080100F034F9A8B14A463146D6F8030100F06F
:205A0000F3F8054656F8053C1B6801463046984704460146D6F8030100F00FF9A542E5D0AB
:205A2000002003B0BDE8F0830A4B01935C230093094B0A4A0A490220FFF764FFABBEFDE7BD
:205A4000FFF77AFFC3E70720EBE70720E9E700BF2400002044780008787B00080C730008F4
:205A600018730008072802D8084B1871704700B583B0074B01937F230093064B064A074903
:205A80000220FFF73FFFABBEFDE700BF240000204C780008647B00080C7300081873000893
:205AA0000CB470B584B0072820D804460D46174B1B79834215D3154BD3F80C3113B3134ED7
:205AC0004FF0FF31D6F8100100F066F909AB0393089A29462046FFF781FED6F8100100F024
:205AE00069F904B0BDE8704002B07047084B0193E1230093074B084A08490220FFF702FF46
:205B0000ABBEFDE7FFF718FFD9E700BF240000204C780008547B00080C73000818730008AB
:205B200070B5B8B10646142000F0B4FD044650B1304600F0AFFD0546206030B12661002303
:205B4000E360A3606360204670BD204600F0AAFD2C46F8E70024F6E7002A44D02DE9F843CB
:205B600004460F4615460669964218D9D0F80880A6EB08094A451FD80068404400F05CFF44
:205B80002369E268991A8D4223D8A1682944B1FBF3F003FB1011A1602A44E2600AE0911B47
:205BA00032463944006800F047FF00236360A3602369E360BDE8F88300684A46404400F00E
:205BC0003BFFAA1B424407EB0901206800F034FFD6E7A2681544B5FBF3F203FB1255A5607A
:205BE0006560E360E6E770472DE9F843C56815B92846BDE8F88304460E46954228BF154688
:205C0000D0F810804768A8EB07094D4506D801682A463944304600F00FFFE9E701684A46D7
:205C20003944304600F008FFA5EB08023A44216806EB090000F000FFDAE7C36863B1994215
:205C400028BF19465B1AC360436819440369B1FBF3F203FB121141607047000008B1C06807
:205C6000704700B583B0064B0193AD230093054B054A06490220FFF745FEABBEFDE700BFE8
:205C80008C780008AC7B00080C730008187300080020704730B583B00346194A106850B19B
:205CA0000C46A3B1F9B1026895680A461946A847204603B030BD134B01930A230093124B7A
:205CC000124A13490220FFF71DFEABBEFDE7114B01930B2300930C4B0C4A0D490220FFF7C0
:205CE00011FEABBEFDE70C4B01930C230093064B064A07490220FFF705FEABBEFDE700BF83
:205D0000840700209C780008907800080C73000818730008A8780008AC78000818B1094A22
:205D200010600948704700B583B0084B019320230093074B074A08490220FFF7E3FDABBEF1
:205D4000FDE700BF8407002058010020CC780008B47800080C7300081873000808B54FF4E2
:205D60007A7303FB00F0034BA3FB00308009FEF71DF908BDD34D621008B5FDF7D9FF08BDF3
:205D800008B50120FDF75BFB08BD18B108B5FDF77EFD08BD7047000008B54FF47A7303FBBA
:205DA00001F1034BA3FB01318909FDF779FC08BDD34D621008B500231A461946FDF76DFA87
:205DC00008BD10B584B003AC019400930B4692B20699FDF713FE012809D04FF0500383F3EB
:205DE0001188BFF36F8FBFF34F8FABBEFEE7039808B104B010BD4FF0500383F31188BFF354
:205E00006F8FBFF34F8FABBEFEE708B5FDF7D6FE08BD08B50022FDF71DFA08BD18B108B527
:205E2000FDF735FD08BD704708B54FF47A7303FB02F2034BA3FB02329209FDF77BFB08BDF7
:205E4000D34D621000B583B00023019301AAFDF708FB019B4BB14FF0E0234FF08052C3F8C9
:205E6000042DBFF34F8FBFF36F8F03B000BD08B5032200210120FDF7EDF908BD08B5FDF7CD
:205E800006FD08BD08B500231A461946FDF705FA08BD000008B54FF47A7303FB01F1034BB8
:205EA000A3FB01318909FDF7FBFB08BDD34D621008B5FDF7D8FC08BD08B5FDF73FFF08BD41
:205EC00010B504464068FFF7F7FF636953B1A36904F10C009847A068FFF7D4FF6068FFF7D4
:205EE00094FF10BD00F0BAFB38B50546002404601C2000F0A2FB046044608460C46004619F
:205F0000446184612860284638BD0B68036000230B6070472DE9F04788B00646884691467B
:205F20009A46002505601C2000F087FB0446056045608560C5600561456185613060FFF773
:205F400096FFA0603468A368002B42D004AA0023049305930693D8F80C700797D8F808303D
:205F60004BB198E8030082E8030006930023C8F80830C8F80C3002AA04AD95E8030082E83E
:205F8000030004F10C0393E8030085E8030092E8030083E80300069A636906936261A2694E
:205FA0000792A7611BB128460322294698473468109B2360009353464A4621461148FFF757
:205FC00000FF606033685B687BB1304608B0BDE8F0870D4B01932B2300930C4B0C4A0D495E
:205FE0000220FFF78FFCABBEFDE70B4B019331230093064B064A07490220FFF783FCABBEEF
:20600000FDE700BFC15E0008E0780008D47800080C73000818730008EC78000838B5044645
:206020000368ABB14FF0FF319868FFF733FF23689868FFF723FF256855B16B6923B105F12E
:206040000C000322014698471C21284600F0E4FA204638BD08B503689868FFF729FFB0FA25
:2060600080F0400908BD38B50446012502E02846FFF774FE23689868FFF71AFF0028F6D005
:2060800038BD08B54068FFF7CFFE08BD38B50446C5682A6852E8003F43F0200342E80031FE
:2060A0000029F7D1296851E8003F43F0100341E800321046002AF6D195F904201E4BDB68A0
:2060C000C3F30223C3F10701042928BF042103F1040CBCF1060F88BFD81E4FF0FF338B40B1
:2060E000DB4303F005038340002A1DDB1B01DBB202F1604202F5614282F8003395F904008B
:20610000FBF754F92A68936813F0080F09D052E8003F23F00C0343F0040342E80031002967
:20612000F5D10123237738BD02F00F021B01DBB202498B54E2E700BF00ED00E014ED00E0DA
:2061400038B50446C56895F90400FBF73DF92A6852E8003F23F0200342E800310029F7D194
:206160002A6852E8003F23F0100342E800310029F7D10023237738BD30B583B004460F4B34
:206180000360FFF7DDFFE5685DB1A068FFF7FDFD6068FFF743FE00236B71AB60204603B055
:2061A00030BD074B019398230093064B064A07490220FFF7A7FBABBEFDE700BFCC7B0008B8
:2061C00000790008F87800080C7300081873000810B50446FFF7D0FF2021204600F01CFA2B
:2061E000204610BD70B582B0044685680368DA6912F0100F1CBF10221A620368DA6912F0D6
:20620000080F04D008221A622B6901332B612368DA6912F0200F11D00DF107065B6A8DF864
:20622000073031466868FFF70DFE10B96B6901336B612368DA6912F0200FEFD102B070BDA4
:2062400008B50248FFF7CEFF08BD00BF6001002008B50248FFF7C6FF08BD00BF6C0100209C
:2062600008B50248FFF7BEFF08BD00BF7801002010B582B00446164B036000230361436117
:206280008161037701211046FFF7C3FD606030B1FFF776FDA06070B1204602B010BD0D4B0C
:2062A00001938D2300930C4B0C4A0D490220FFF729FBABBEFDE70B4B019390230093064BFA
:2062C000064A07490220FFF71DFBABBEFDE700BFCC7B000808790008A07800080C73000863
:2062E0001873000814790008F0B583B078B10E4617460546274B00241968A94213D001345F
:206300000C33032CF8D10025284603B0F0BD224B019355230093214B214A22490220FFF7ED
:20632000F1FAABBEFDE75A79002AE8D1202000F084F905463A463146FFF79AFF04EB4402BC
:20634000144B03EB8203EB60AB685BB16B68ABB1104B04EB440203EB82029560134601225F
:206360005A71D1E7104B0193762300930B4B0C4A0C490220FFF7C6FAABBEFDE70B4B01936F
:2063800077230093054B064A06490220FFF7BAFAABBEFDE760010020CC7800081C7900085E
:2063A0000C73000818730008247900083079000810B504468069FCF709FCA3691A689368F4
:2063C00013F0080F09D052E8003F23F00C0343F0040342E800310029F5D110BDF8B50446E7
:2063E0000D461746C668EFF3058333B9EFF310831BB9EFF31183002B3DD0A369D3F88830E3
:20640000002B42D031688B6813F0080F09D051E8003F23F00C0343F0080341E80032002A63
:20642000F5D1E81957B1336815F8011B99623268D36913F0800FFBD08542F4D13268D36939
:2064400013F0400FFBD0936813F0080F09D052E8003F23F00C0343F0040342E800310029D8
:20646000F5D1EFF305832BB9EFF3108313B9EFF3118373B1F8BDFDF733FF0028BDD04FF05E
:20648000FF31A068FFF788FCB7E72046FFF790FFB8E7FDF725FF0028ECD0A068FFF78AFCA2
:2064A000E8E7000030B583B00B4B186840B10B4D0B4C2A462146FFF7FBF8285303B030BDA4
:2064C000084B019374230093074B084A08490220FFF718FAABBEFDE788070020FE0300008F
:2064E00000FC002048790008407900080C7300081873000808B5034A0021034800F013FA69
:2065000008BD00BF0004000000FC0020F0B583B00446354B1B68A3B1FEF7BCF90646324BEB
:20652000186838B3314F324D3A462946FFF7C0F82A68304B9A4229D0012C2FD0FFF7B2FF9F
:2065400027E00021019100910B460A4641F22100FEF7D8FF244B18600028DDD1264B01936D
:206560004A230093254B264A26490220FFF7CAF9ABBEFDE7204B019323230093224B204AF5
:2065800020490220FFF7BEF9ABBEFDE77B5B8342D2D1012C11D0002003B0F0BDFFF7AAFF0B
:2065A000134D144B2B6007236B62184BAB610123EB61FEF76FF92861C0E7012E07D00C4BD1
:2065C0009A6801329A601E61FFF76CFFE3E7084B1B7C012B03D0064B00225A61EFE7044AA7
:2065E000536901335361EAE788070020FE03000000FC0020BEBAFE5A4879000850790008F0
:206600000C7300081873000858790008010002000048704704FC002000F023B80268D20757
:20662000034605D4427802B1FFDE01205870704700207047012303607047012838BF0120F8
:2066400010B50446204600F025F800B110BD00F00BF808B900F010F88047F3E708B500F040
:206660000BF800F01FB80000024B1868BFF35B8F704700BF8C07002008B5062000F084F96E
:206680000120FAF776FD002301461A46184600F0E1B90000024B0146186800F02DB800BF1B
:2066A00084010020024B0146186800F02DBA00BF8401002070B50F4E0C463168054611B964
:2066C00000F07EF930602146284600F079F9431C03D14FF0FF34204670BDC41C24F0030459
:2066E000A042F8D0211A284600F06AF90130F2D1EFE700BF900700202DE9F843CD1C25F065
:20670000030508350C2D38BF0C25002D064601DBA94204D90C2333600020BDE8F883DFF8DD
:20672000D48000F069F8D8F800301C4644BB29463046FFF7BFFF431C044658D1D8F80040D8
:206740002746002F43D1002C4BD023683946304604EB030900F034F9814542D121686D1AC1
:2067600029463046FFF7A6FF01303AD023682B442360D8F800305A6862BBC8F800700FE0E3
:206780002268521B20D40B2A17D96119A342256018BF5960636808BFC8F8001062514B60B5
:2067A000304600F02FF804F10B00231D20F00700C21A1CBF1B1AA350AFE76268A3420CBF06
:2067C000C8F800205A60EBE723466468AEE73C467F68B6E71A465B68A342FBD100235360D3
:2067E000DEE70C233360304600F00CF894E70560D6E700BF94070020014800F01BB900BFC5
:20680000D4080020014800F016B900BFD40800200CB430B5184B0C1E1D689DB008DA8B2325
:206820002B604FF0FF301DB0BDE8304002B070474FF40273ADF814304FF000031B9314BFB0
:2068400004F1FF332346049307934FF6FF7302900690ADF81630209A21AB02A9284601937A
:2068600000F0FCF9431CBCBF8B232B60002CDAD0029B00221A70D6E78401002030B5144660
:20688000002C9BB005461A4605DA8B2303604FF0FF301BB030BD4FF40273ADF80C304FF0E8
:2068A0000003199314BF04F1FF332346029305934FF6FF7300910491ADF80E3069461E9B71
:2068C00000F0CCF9431CBCBF8B232B60002CE0D0009B00221A70DCE707B5009313460A4612
:2068E000014603480068FFF7C9FF03B000BD00BF84010020884210B501EB020402D98442EA
:20690000234607D8431EA14207D011F8012B03F8012FF8E70244824200D110BD13F8011D04
:2069200002F8011DF7E702440346934200D1704703F8011BF9E71F2938B505460C4604D9CF
