:020000040800F2
:108800000BB0FEC035000000008C00084A756C20DB
:10881000313620323032360031393A34323A313062
:108820000000000101010002000002000000000041
:08883000000000000000000040
:108C00000008002009990108F91601086D090108FA
:108C1000FD160108011701080517010800000000F2
:108C2000000000000000000000000000A1F60208A3
:108C3000091701080000000001F702082DC602080C
:108C400005990108059901080D1701080599010802
:108C50000599010805990108191701082D17010840
:108C60000599010859170108059901080599010896
:108C7000851701089117010805990108791701085E
:108C80000599010805990108059901080599010848
:108C900000000000059901080599010805990108DF
:108CA0000599010805990108059901080599010828
:108CB0000599010805990108059901080599010818
:108CC0000599010805990108813C010805990108E9
:108CD000059901089D1701080599010805990108E2
:108CE0000599010869170108A917010805990108E4
:108CF0000599010800000000000000000599010826
:108D00000599010805990108D1290108059901086B
:108D100005990108059901080599010805990108B7
:108D200005990108059901080599010805990108A7
:088D30000599010805990108ED
:108D400010B5054C237833B9044B13B10448AFF385
:108D500000800123237010BD680A0020000000007D
:108D6000F042030808B5034B1BB103490348AFF3B6
:108D7000008008BD000000006C0A0020F0420308DB
:108D80004FF4AD60704700BF08B500F075F90020E2
:108D900008BD00BF08B500F07BF9002008BD00BF8A
:108DA00000F078B910B584B00DF10F04CDE900439F
:108DB000069B00F021FB9DF90F0004B010BD00BF21
:108DC00010B584B00DF10F04CDE90043069B00F00F
:108DD0003FF89DF90F0004B010BD00BF00F066BA67
:108DE00000F0BABA30B587B0DDE90A5400950194B5
:108DF00005AD0DF11304CDE902450C9C00F086F899
:108E0000059B9DF91300236007B030BD30B587B0D6
:108E1000DDE90A540095019405AD0DF11304CDE987
:108E200002450C9C00F0DAF8059B9DF913002360C5
:108E300007B030BD00B585B0069901910DF10F0165
:108E4000009100F02DF99DF90F0005B05DF804FBCD
:108E50002DE9F04784B093F800A0DDF830909846F3
:108E6000002705460C46164627490D9A88F80070DB
:108E70005346002001F0D0FE89F800703B46CDF843
:108E8000009022463146284601F0FAFB99F900701D
:108E900017B104B0BDE8F0870DF10F03224631464B
:108EA00028468DF80F7000F0C3FB89F800006EB102
:108EB00004EB0616617B0197A3680093D4E90023B5
:108EC0002846103402F0F4FBB442F3D195F81015A3
:108ED000284602F077F8BAF1000F0BD1022389F887
:108EE00000300023C5F83033284600F09BFB04B067
:108EF000BDE8F0870D9BCDF80090524641462846CC
:108F000000F03CFFEDE700BF000008402DE9F04F06
:108F100085B0DDE9108A1D46DF2388F80030002483
:108F20001023172DCAF8004003932AD917460029A9
:108F300034D106460C4688F800108B4640F21739AB
:108F400001E00B2C20D049FA04F3DB0704F1010403
:108F5000F7D5DDE90E23CDF800B0E1B2304602F0DE
:108F600049FA0028EDD00F9B01930E9B009303AAB2
:108F700003462946384601F04FFD88F800000028D6
:108F8000DFD005B0BDE8F08F98F90030002BF8D1A4
:108F9000DDE90E12304600F041FE78B998F9004044
:108FA000002CEED1039BCAF800303846514600F041
:108FB000DFFD88F8004005B0BDE8F08F0F9B0193FE
:108FC0000E9B00932946034603AA384601F024FD70
:108FD000044688F80000002CD3D1E3E72DE9F04FD8
:108FE00085B0DDE9108A1D46DF2388F800300024B3
:108FF0001023182DCAF80040039329D9174651BBF6
:1090000006460C4688F800108B4640F2173901E0FE
:109010000B2C20D049FA04F3DB0704F10104F7D547
:10902000DDE90E23CDF800B0E1B2304602F00EFAD1
:109030000028EDD00F9B01930E9B009303AA0346DB
:109040002946384601F0E8FC88F800000028DFD007
:1090500005B0BDE8F08F98F90040002CF8D1039BD3
:10906000CAF800303846514600F082FD88F80040CA
:1090700005B0BDE8F08F00BF10B402200324012228
:1090800000230C70487010BC8A70CB70704700BF12
:1090900000F02EBA08B501F007F8002008BD00BFA7
:1090A0002DE9F04F8BB0DDE91464CDE906234FF0D4
:1090B000000800234FF000090546C4E9023300F51B
:1090C000A56184F839306387A38784F83E30142281
:1090D000C4E9008904F1100027F0C4FB05F2145123
:1090E00004F12400142227F0BDFB95F83C3584F8E8
:1090F000383095F85235012B02D0284600F092FA0C
:10910000DDE90623CDE9002300210DF1250009AF9B
:10911000B5F80EA5039022463170284631460297D5
:1091200000F008FC9DF8243013B10BB0BDE8F08FBF
:109130009DF825202146284600F0CEFF0DF1260996
:10914000034680460097CDF8049022460121284628
:1091500000F094FA9DF82430BDF826603BB195F8F4
:10916000223484F83A3095F8203484F83B30434672
:10917000CDE9007922460221284600F07FFA9DF8C9
:109180002430BDF826B0002B6ED143462246CDE9EF
:1091900000790321284600F071FA9DF82430BDF8CB
:1091A00026200592002B73D1CDE900794346224653
:1091B0000421284600F062FA9DF82430BDF826709C
:1091C00006AA2146284600F03FFEDDE9062305F504
:1091D000AC61C1E9002395F85235012B4DD0059BB8
:1091E0005E4528BF5E469E42B04628BF9846B845B9
:1091F00028BFB846C245B5F8163428BFC246B3FBEF
:10920000FAF80AFB1838AAEB080A1FFA8AFAB5F826
:10921000D063A5F81AA453449BB2B3FBF6F206FB45
:109220001233A5F8163400221E4B1F49ADF82660F4
:10923000002027F0ABFE05F045FA06F06DFFDDE9F2
:1092400006230E46A0FB0A01821806FB0A1141EB19
:1092500003030021C4E90023284685F81D1400F00B
:10926000CFFE0BB0BDE8F08F95F8213484F83C3088
:1092700095F8203484F83B3087E7B5F81634B3FB13
:10928000F8F008FB1030A8EB00081FFA88FABEE7D8
:1092900095F8203484F83B302146284600F0E2FB64
:1092A00082E700BF00001C40000024402DE9F04F81
:1092B0008BB08846DDF850901646002100F5AC6270
:1092C00005460DF11E0B00200DF1200AC2E9000138
:1092D0001C4631465B4640464A46CDF800A001F0A8
:1092E00021FA9DF91E3013BB0DF11F03083E0593B3
:1092F000089FB7424B4622465146404625D209AF09
:109300000297059FCDE900B701F046FC9DF91E309C
:10931000224628465BB99DF81F10FE290BD0099BF9
:1093200001F024FE03468DF81E00002BE0D0184605
:109330000BB0BDE8F08F099A214601F075FA03469B
:109340008DF81E00002BD3D0F1E79DF91E30184692
:109350000BB0BDE8F08F00BF2DE9F04F8BB00F468A
:10936000DDF850900DF11E0B0DF1200A1146154647
:1093700080461C4638465B464A46CDF800A001F0C0
:10938000D1F99DF91E3013BB0DF11F03083D059364
:10939000089EAE424B4622465146384625D209AE7B
:1093A0000296059ECDE900B601F0F6FB9DF91E3050
:1093B000224640465BB99DF81F10FE290BD0099B41
:1093C00002F04AF903468DF81E00002BE0D0184643
:1093D0000BB0BDE8F08F0999204601F001FB034670
:1093E0008DF81E00002BD3D0F1E79DF91E301846F2
:1093F0000BB0BDE8F08F00BF2DE9F04F8DB0002716
:1094000093F800A0DDF858901F7006460D461446EC
:1094100000F57A711E2204A8984627F023FA0DF170
:109420000F0189F800702B460091CDF80490224678
:10943000304604A98DF80F7000F05AF99DF80F30EE
:10944000002B42D186F81F3464BB0C2389F800300E
:1094500004A9304600F07EF9002839D199F90000BE
:1094600000282CDB204FDFF884B0002403E0651CCB
:109470001F2D2C4623D047FA04F3DB07F7D514F849
:109480000B200CAB03EB420102F2F31331F8222C58
:1094900036F81330651C9342E9B23046E8D000F04C
:1094A000E9FDE5E704AA0092CDF804902A4621469A
:1094B000304601F00DF899F90030002BC8DABAF106
:1094C000070F08D8F12389F800300DB0BDE8F08F00
:1094D00089F80000C4E7179A4146304600F0D4FAF4
:1094E0000DB0BDE8F08F00BFEF7912409CD10308AA
:1094F00010B5044601F0CEFC204600F0C1FF204626
:1095000000F060FE204610BD2DE9F0470646414DB3
:10951000414F02F075F8002303E05C1C1F2C23462A
:1095200010D045FA03F2D107F7D5DA5D02F2F31253
:109530005C1C36F81220E1B2304602F00FF91F2C05
:109540002346EED1304601F0DFFFDFF8C890324FFE
:10955000DFF8CC80002502E001351F2D35D049FA17
:1095600005F3DA07F8D5EB5D334493F80534002BA7
:10957000F2D038F915A0002402E001340B2CEBD016
:109580004AFA04F3DB07F8D5631E092B3FD8DFE85E
:1095900003F0051A18161412100E0C0A0221304698
:1095A00002F0B2F8E9E70B21F9E70A21F7E7092110
:1095B000F5E70821F3E70721F1E70621EFE70521A9
:1095C000EDE70421EBE70321E9E70024214686F8D3
:1095D0001C440F2206F2064027F0A2F80F4B86F833
:1095E0001844DB7806EB43032146B3F8420306F246
:1095F000244333F8022B904201F1010103D00429E6
:10960000F7D1BDE8F08786F81814BDE8F08701218E
:10961000C5E700BFEF7912409CD1030884D103084D
:10962000BCD1030890F81C3403B970476CE700BF45
:10963000F9B12DE9F041DFF84080864602EB011CCC
:109640000020517B4144D2E9006711F8011C0EEB68
:10965000C101D1E98045AF4208BFA64202F1100224
:1096600003D11978002908BF04209445E9D1BDE849
:10967000F0810846704700BF84D10308F0B4013977
:109680001A4C049D645C059E00EB44040027B4F86A
:1096900042432F70348090F85275012F1ED04FF640
:1096A000FF739C4213D0B0F81664B6FBF4F304FBCE
:1096B0001364A4B26CB9012390682B70C9B203FA89
:1096C00001F1014382F83D3082F83E309160F0BCF8
:1096D000704790F81D34002BF9D0ECE74FF6FF7778
:1096E000BC42F4D033801C46D9E700BF84D10308C4
:1096F00032B370B50C46049900220A701A79013A07
:10970000012A00D970BD1E6800210546304606F0CA
:109710005DFC049B003818BF012018700021304602
:1097200006F054FC0028EDD0228847F230539A42CC
:1097300007D062889A4204D00B23059A137070BD3B
:10974000704795F91E34002BF7D1012385F81D349D
:1097500070BD00BF2DE9F04F002306460D46704C4A
:10976000DFF8C0C183B019466FF000474FF0010E1B
:109770004FF6FF7005E0824218BF012101331F2B15
:1097800010D044FA03F2D207F8D513F80C203A446B
:1097900035F81220B2F5E16FEDD101331F2B86F8B9
:1097A0001FE4EED196F81F34ABBBB6F80E755C48DB
:1097B0005C4C394640FA03F2D20706D51A5D013AED
:1097C00035F81220914228BF114601331F2BF1D1E9
:1097D0004FF6FF74A14229D0B7FBF1F301FB1373DD
:1097E0009BB29BB94E4FDFF83CC147FA03F2D20758
:1097F00019D513F80C20013A35F81200A04212D006
:10980000B0FBF1F201FB120292B262B16FF00F00F5
:1098100003B0BDE8F08F00290CBF00206FF00F00EF
:1098200003B0BDE8F08F01331F2BDED14FF6FF717F
:109830003D4A3B4CDFF8ECE08C46002352F8040B29
:10984000000744FA03F710D5F8070ED513F80E00F9
:10985000013835F81000604507D0614504D08842D2
:1098600003D06FF01000D3E7014601331F2BE5D181
:109870004FF6FF73994251D006F22443002402E0D0
:109880000134042C09D033F8022B8A42F8D106EBBC
:109890004404B4F82C440434A4B2DFF884B0DFF8F4
:1098A0008CA0DFF88C90019400274BFA07F3DB07BC
:1098B0002FD51C4BFB5C013B35F81380404606F06E
:1098C0009DF996F8201496F82134019A044696F8EA
:1098D000220449004000C0B2C9B25B000144DBB2BF
:1098E0000B44134498B206F085F9514606F0DAF9B4
:1098F000494606F08BFA0146204606F071FB40B15E
:109900004FF6FF73984504D06FF0110003B0BDE827
:10991000F08F01371F2FC8D1002079E70424BCE75E
:10992000EF7912409CD10308FCD103080000C84223
:1099300000007A442DE9F04F87B000F5AC6B9246F9
:10994000129ADBE900894FF0000C82F800C0139AEC
:1099500082F800C058EA090204460F46DDE91030DB
:1099600011D104F5A961C4F84035C4F84405C1E932
:109970000089D4F85035384A23F07F43934257D0BA
:1099800007B0BDE8F08F94F8D223002AF1D194F803
:109990005225B3EB080660EB0901022A03910AD0B5
:1099A000D4F84025D4F844159B1A60EB0100C4F8A4
:1099B0004C05C4F84835294B2949B4F81A840022CB
:1099C000002027F0E3FA04F07DFE06F0A5FB0B462D
:1099D000A0FB0801851B0095039D03FB081161EBAB
:1099E00005050195DDE90089020942EA01720B11C2
:1099F000424573EB090522DB351A0495039D65EB9F
:109A000001010591DDE9040182428B41B1DA642351
:109A10003B70D4F85035104A23F07F439342AFD1C6
:109A20001399012200230A703B7007B0BDE8F08F44
:109A300097F90030642BF3D007B0BDE8F08FDBE975
:109A400000321B1841EB0202CAE90032129B64206B
:109A50000121387019708CE73075010000001C403E
:109A600000002440074B5B7B00EB43004FF6FF7385
:109A7000B0F842239A4203D08B6843F400538B60C2
:109A8000704700BF84D103082DE9F04F85B000274F
:109A9000CDE90212DFF8D0A02F4DDFF8D0B0009052
:109AA0003E4604E0731C0193019E182E50D0012302
:109AB00003FA06F8294B18EA030FF3D0029903982A
:109AC0000B780133DBB25A1E00EBC209741C0B7019
:109AD000019489F8044040F832A000240EE04FF6CB
:109AE000FF739E4207D006F085F801461C4806F039
:109AF0008DF9C9F8000001341F2CD5D045FA04F3C4
:109B0000DB07F8D55BF8243018EA030F5146F2D092
:109B1000144BD9F80070E35C009A03F2F313384653
:109B200032F8136006F052FA02463046002AD6D1C7
:109B300006F060F801460A4806F068F90646314624
:109B4000384606F04DFA0028D5D0C9F80060D2E7B3
:109B500005B0BDE8F08F00BFEF7912400F20E000A4
:109B60000000C8429CD1030800FF7F47FCD10308D6
:109B7000F0B589B004460D46274B029302A903A80D
:109B8000042226F06FFE9DF80F309DF80C009DF822
:109B90000D109DF80E20E37020706170A27004A972
:109BA00006A83D2600270822CDE9046726F05AFEC4
:109BB00006A9201D082226F055FE2B6802A9103B9D
:109BC00003A80422029326F04DFE9DF80C009DF898
:109BD0000D109DF80E209DF80F302073A273E373D3
:109BE00061732968204601AA04F01AFE2B689DF8CB
:109BF00004009DF805102344002218712B682344AB
:109C000059712B6823449A7128680444E2712B68C7
:109C100008332B6009B0F0BD000102032DE9F047C5
:109C200084B0064617460E240DF10702FE200D46AD
:109C30008DF8074004F018FD9DF807800390B8F1F7
:109C4000000F2AD0012406F5A56A06F21459E3B2E2
:109C5000013B0D2B0FD8DFE803F03A324A42521491
:109C60007169615A8179880796F83E0503AB3A46D7
:109C7000294601F01FFFA04504F101030CD01C464A
:109C8000E5E703AB3A46294606F59E6002F058F92F
:109C9000A04504F10103F2D10398ADF80A000222B5
:109CA0000DF10A0102A826F0DDFD9DF808209DF8BF
:109CB000093003982A706B7004B0BDE8F08796F8FD
:109CC000210403AB3A46294601F0F4FED3E796F8A7
:109CD000200403AB3A46294601F0ECFECBE703AB88
:109CE0003A46294606F2244002F0BCF8C3E796F84B
:109CF000220403AB3A46294601F0DCFEBBE703AB86
:109D00003A46294606F23C4002F0EEF8B3E703ABD0
:109D10003A462946484602F05FF9ACE703AB3A46BB
:109D2000294606F2115002F031F9A4E796F8100521
:109D300003AB3A46294601F0BDFE9CE7B6F80E0596
:109D400003AB3A46294601F0EBFD94E796F83C0553
:109D500003AB3A46294601F0ADFE8CE703AB3A4629
:109D60002946504602F038F985E796F83D0503ABE1
:109D70003A46294601F09EFE7DE700BF2DE9F04FEF
:109D8000D0F850452E4D24F07F44AC4289B040D0ED
:109D900005F1804505F58815DFF8A8B00F46904617
:109DA000994605F2BF4500244FF6FF7A02E00134E0
:109DB0001F2C2ED045FA04F3DB07F8D514F80B302E
:109DC00000EB43030126B3F85233534506FA04F27D
:109DD00022D0D0F830331A4204F10104E8D00DF15A
:109DE0001303E1B2009305AA06AB0391029001F0C0
:109DF00069FB3B7803F1010E5FFA8EFE0EF1FF3C2A
:109E00004345DDE9020109EB0C1C07D3129A032339
:109E1000137009B0BDE8F08F3444C9E7DDE90623CB
:109E200087F800E0CCE90023059A9DF813308CF800
:109E30000D108CF80C60CCF808208CF80E30B7E7C9
:109E4000307501009CD10308002B00F0B8802DE98B
:109E5000F043012381F8393090F85235012B87B057
:109E600004460D46164606D090F8183400EB43031E
:109E7000B3F832348B8194F8213485F83C3094F86F
:109E8000203485F83B3003A920460DF10B0304AACA
:109E900001F008FB0398002106F098F8E0B194F86F
:109EA0001D34CBB994F85235012B08D094F81824FE
:109EB00004EB4202022BB2F82A24EA8105D004F511
:109EC000A963D3E90023134376D1D6E90023C4E97B
:109ED000F62307B0BDE8F083D4E9F623D4E9F8010E
:109EE000824273EB0107CDE9042303DACDE90401D3
:109EF00002460B46D6E90001801A61EB030105F02A
:109F000093FE374905F082FF4FF08141039027F01F
:109F10002BF934490746039827F026F93249DDF832
:109F20000C808146384605F0BDFE3049074648465C
:109F300005F0B8FE0146384605F0ACFD414607463F
:109F4000404605F0AFFE2A4905F0ACFE0146384612
:109F500005F0A0FD27490746404605F0A3FE01464F
:109F6000384605F097FD244905F094FD234905F096
:109F700099FE27F0D3FC06F097F894F81D34E88199
:109F80000022EBB901930092D6E900231621204666
:109F900001F08EFB94F85235022B05D004F5A9632D
:109FA000D3E90023134307D194F81D34002B8CD040
:109FB000D6E90023C4E9F82307B0BDE8F083704771
:109FC0004FF07E5301920093D6E9002316212046DC
:109FD00001F06EFBAB6843F40013AB60DAE700BF3F
:109FE000286B6E4E00004040598207B0DFE0C2345B
:109FF0003767D9B85A8E863C6A92E43E00007A44AC
:10A00000F8B50446D0F8D803D4F8DC13101A63EB83
:10A01000010115461E4605F007FE134905F0F6FE40
:10A020001249074605F0DCFF20B91149384605F012
:10A03000F5FF18B1652384F81E34F8BDD4E9F801A2
:10A04000281A66EB010105F0EFFD074905F0DEFE79
:10A05000064905F0C5FF18B1662384F81E34F8BD23
:10A0600084F81E04F8BD00BF286B6E4E00007042DD
:10A07000000070430B4B0B4410B413F8013C00EB91
:10A080004301B1F8E643944204D0013B0344012468
:10A0900083F806440123A1F8E62310BC80F81C34A1
:10A0A000704700BF9CD103080139032900D97047CC
:10A0B00010B504465C3002F08BFF0121204601F010
:10A0C00023FB04F12C0003F015FD20460221BDE81E
:10A0D000104001F019BB00BFF0B590F85235012BCC
:10A0E00083B004460D4609D0022B39D00BB30023B0
:10A0F00084F852354FF6FF7003B0F0BD00F5AB6346
:10A1000000F5A961D1E90001D3E90067B04271EB24
:10A1100007032FDBB4F80E25B4F8500547F230538F
:10A1200002219A4284F85215E6D10023A4F816348D
:10A13000E2E7012380F81C34FFF7E6F9B4F84A138C
:10A14000A4F8501547F23053994220D0B1F5967FCC
:10A150001DD002234FF6FF7084F8523503B0F0BDD6
:10A1600000F5A963D3E900231343C0D04FF6FF7075
:10A1700003B0F0BD002ACDD194F83D350093B4F87A
:10A1800050352A4600F062FD4FF49670B4E7012383
:10A1900084F8523594F83D0500F0D6FC04F5AB6325
:10A1A000C3E9000194F83D35009304F5A961D1E9B4
:10A1B0000001B4F850352A4600F048FD4FF496707F
:10A1C00003B0F0BDF0B505460022002300F5AB64F6
:10A1D00000214FF6FF7785F85215A5F8507500F568
:10A1E000A860C4E9002305F5A964C0E90023C4E917
:10A1F0000023022005234FF4817285F83E1585F86F
:10A200003D05A5F8202485F8223418228B498BB00F
:10A2100005F2244005F23A4426F024FB05F2EE460E
:10A220003A46234623F8022FB342FBD1844B854F95
:10A230008549C5F83C34C5F84034C5F84C34C5F8F8
:10A240005434C5F86434814BC5F8DC14C5F848743F
:10A250004FF06411C5F86074C5F86C74C5F87834B3
:10A260007B4FC5F87C34C5F88034C5F88434C5F814
:10A270008834C5F88C34C5F89034764B764ADFF8CC
:10A28000F8E1C5F844144FF0640C40F2DC50C5F816
:10A290005014C5F85C14C5F86814C5F89C7441F2F4
:10A2A00070716E4FC5F8A0344FF49673A5F85AC478
:10A2B000A5F874C4C5F870E4A5F8DA04A5F8C804D4
:10A2C000C5F8BC24C5F8C024C5F89824A5F8961490
:10A2D000C5F8A474C5F8A824A5F8CA04C5F8AC2428
:10A2E000A5F8B014A5F858345D49402205F564700E
:10A2F00026F0B8FA08AB009395F83D0506AB04AA22
:10A3000002A904F01BFB049A069F08980299C5F85D
:10A3100098230023059ADDF81CC0C5F89473C5F88E
:10A320009003099F0398C5F89C13C5F8A4334FF018
:10A330008041C5F8A833C5F8AC33C5F8B823494BFC
:10A34000494AC5F8C413C5F8C823C5F8CC33C5F8C5
:10A35000B4C3C5F8B073C5F8BC03334605F20C515D
:10A360004FF6FF7223F8022F8B42FBD14FF0000C07
:10A3700047F230514FF4A0620A2385F8D2C3A5F802
:10A380000E15A5F8102585F81235384F384805F216
:10A39000125305F2265C4FF4A071052203E017F971
:10A3A000012F30F8021F23F8022F63459982F6D15E
:10A3B0000A22002385F83C25A5F8D0334FF6FF711B
:10A3C00034F8023F8B4205D0B5F8D0239A4238BF0B
:10A3D000A5F8D033B442F3D1264CDFF8A0C0002357
:10A3E000012744FA03F2D20711D513F80C2005EB2C
:10A3F0004201013AB1F8EE04B1F8E66386421CBFAF
:10A40000521982F80674A1F8E60385F81C7401332A
:10A410001F2BE6D105F2054305F21441012203F892
:10A42000012F8B42FBD195F81C340BB90BB0F0BD5A
:10A430002846FFF769F80BB0F0BD00BFC8D003088D
:10A440003075307564003075DC05DC052C012C019D
:10A4500070170807080708077017701708077017A4
:10A46000ECD003080000104100004040E0D0030899
:10A47000B4D00308EF791240307564009CD1030812
:10A480000022002330B4002100F5AC6480F81814D9
:10A49000A0F81614C4E90023C0E9F623C0E9F823A4
:10A4A00047F23053A0F81A3400F2054200F2E633C6
:10A4B00000F204454FF6FF7423F8024FAB4202F856
:10A4C000011FF9D14FF4CC0330BCC0F81C347047E5
:10A4D0002DE9F04F87B0DDF84480029369B3DFF8CF
:10A4E0009C9182460F46154601264FF0000B2979B4
:10A4F0004C1EE4B249FA04F3DB0721D51E2C1FD809
:10A50000CDF800809AF83D359AF83E25286800F08D
:10A51000A5FA98F9003023330FD0012303FA04F48D
:10A5200014EA0B0F19D0F32388F800303346BB42EE
:10A5300005F1080506F10106D9DB07B0BDE8F08F8B
:10A540000A2388F800303346BB4205F1080506F1BE
:10A550000106CCDB07B0BDE8F08F2A7929684248B4
:10A56000BAF80E45013AD2B293404BEA030B05F01C
:10A570004DFC27F0D3F905F097FD80B2ADF8160039
:10A5800004F0E8FE36A3D3E9002304F05DFF04F0F5
:10A5900099F805F009FABDF8163080B21A1A92B28D
:10A5A000944230D91A1892B294422CD22C680021CD
:10A5B000204605F00BFD002839D0F62388F800303E
:10A5C0002C680021204605F001FD0346204673B3A8
:10A5D0002979CDF800800AF23C430DF1160200F013
:10A5E0005BFA98F90030002BADDB29791F4BBDF8E1
:10A5F00016200B44109913F8013C03F10043013B72
:10A6000021F813209FE72C6819490393204605F091
:10A61000DDFC08B12046DBE7029B002BC7D1039B82
:10A62000B3F5E16FC3D00E2388F80030BEE71049C0
:10A63000204605F0CBFC0028ECD10E49204605F061
:10A64000EDFC28B90C49204605F0CAFC0028E1D0F1
:10A65000F22388F800302868BAE700BFAFF3008023
:10A660007B14AE47E17A843F0000C8429CD10308C6
:10A6700000FF7F47000020410E74DA3AEF79124064
:10A680002DE9F04F83B0DDF830900190E9B1234F10
:10A69000DFF88CB002F1080498460D4600264FF012
:10A6A000010A4A4661794B1EDBB2172B47FA03F0C9
:10A6B0000ED8C0070AFA03F30AD513EA080F594463
:10A6C00048EA030809D0FA23137003B0BDE8F08FFD
:10A6D000FF23137003B0BDE8F08F11F8019C0C92BA
:10A6E000019A2368009302EB89091846D9F88C1364
:10A6F00005F076FC009B0C9A0146184639B9D9F84A
:10A70000AC1305F08BFC01360C9A103410B1FE230B
:10A710001370DAE7AE42C5D1D7E700BF0F20E000E3
:10A7200084D10308F0B589B00C460E9D0021172C8A
:10A730001E46296003D8DB23337009B0F0BD944274
:10A7400003D9DA23337009B0F0BD074602A93A787D
:10A750007B788DF80820BA788DF809308DF80A20BA
:10A76000FB788DF80B30042203A826F07BF8039BBE
:10A770002C4A934204D0013302D0DE233370DCE74D
:10A780000822391D06A826F06DF8082206A904A89B
:10A7900026F068F8DDE90423002B08BF3D2A07D026
:10A7A000002B08BFB2F1FF3F02D0DD233370C4E7B6
:10A7B0003A7B7B7B8DF80820BA7B8DF8093002A9A3
:10A7C000FB7B8DF80A2003A804228DF80B3026F0BD
:10A7D00049F8039901F11803A34202D0D82333703A
:10A7E000ABE701AA3846103104F01AF838199DF881
:10A7F000042010F8043C9A4202D0DC2333709CE71A
:10A800009DF8052010F8033C9A42F6D110F8023C5E
:10A81000002BF2D110F8013C002BEED110222A605F
:10A8200033708AE7000102032DE9F04786B005ABDB
:10A8300004AECDE9003604460DF10F03FE200D46AF
:10A8400003F0E4FE9DF90F00002869D14FF0010AE2
:10A8500004F5A56904F2145804F211575FFA8AF35B
:10A86000013B0C2B00F2B080DFE803F0A7A0999227
:10A870008B847D76706A645D07003146284601F05E
:10A88000BDF884F83D050AF1010ABAF10F0FE5D1D0
:10A890009DF90F00002843D1A4F8D00304F23A43F5
:10A8A00004F2EE464FF6FF7533F8022FAA4205D0A8
:10A8B000B4F8D013914238BFA4F8D0239E42F3D10C
:10A8C000454EDFF818E100234FF0010C46FA03F281
:10A8D000D20711D513F80E2004EB4201013AB1F86A
:10A8E000EE54B1F8E673AF421CBF121982F806C4E9
:10A8F000A1F8E65384F81CC401331F2BE6D104F2FF
:10A90000054304F21441012203F8012F8B42FBD1CD
:10A9100094F81C3423B12046FEF7F6FD9DF90F0094
:10A9200006B0BDE8F0873146284601F067F884F8A4
:10A930003C05A8E74A463146284601F007FAA2E757
:10A9400042463146284601F001FA9CE73A46314634
:10A95000284601F0B9F996E73146284601F04EF84D
:10A9600084F810058FE73146284600F081FFA4F8EF
:10A970000E0588E704F59E623146284601F05AF933
:10A9800081E704F23C423146284601F02DF97AE78E
:10A9900004F224423146284601F0E8F873E73146D4
:10A9A000284601F02BF884F822046CE7314628464B
:10A9B00001F024F884F8210465E73146284601F0C7
:10A9C0001DF884F820045EE73146284601F016F8A9
:10A9D00084F83E0557E700BFEF7912409CD1030889
:10A9E000032916D910B582B0027843788DF8042077
:10A9F0000446022201A90DF106008DF8053025F06C
:10AA000031FFA378FE2B0CBF00206FF0630002B073
:10AA100010BD6FF067007047F0B41468049EE7182B
:10AA20008F4215D805998B4215D8002B0CDD711E6D
:10AA3000CD18C6F1010600E014687318234411F81C
:10AA4000014FC454A942F7D117600020F0BC7047F1
:10AA50006FF02800FAE76FF02500F7E7012A08B544
:10AA60000BD0A1F11B02032A0BD80A4905F0AEFA5C
:10AA700010B9029ADD23137008BDA1F11602032A52
:10AA8000F3D9022BF8D01F29F6D1029ADD231370D7
:10AA9000F2E700BF00FF7F472DE9F8430F46002192
:10AAA00090461D46064605F0B9FA002838D02449DC
:10AAB000304605F095FA68B3224B3B441EA7D7E910
:10AAC000006713F8013C05F1B40909EB430905EBF4
:10AAD000430535F8024C204604F03CFC32463B4628
:10AAE00004F0B2FC03F0EEFD04F05EFF80B2231A26
:10AAF000B8F800209BB204449A4205F11E05A4B2A6
:10AB000001D3A2420AD9A945E3D1089AF4231370CC
:10AB1000BDE8F8834FF6FF73A8F80030BDE8F8836E
:10AB200004460021304605F051FA0028F2D0A8F87A
:10AB30000040BDE8F88300BF7B14AE47E17A843F54
:10AB400000FF7F479CD10308B1F5967F0CD047F2F8
:10AB50003053994205D1012808D909A1D1E9000152
:10AB60007047002000217047012803D806A1D1E9D1
:10AB70000001704706A1D1E900017047AFF30080E2
:10AB8000009435770000000000C817A804000000FA
:10AB900000BA1DD2050000002DE9F04F83B0DDE9B9
:10ABA0000CA900248AF8004089F800400D46096885
:10ABB000064608449046427816F801C08DF80520F4
:10ABC00001A902220DF106009B468DF804C025F074
:10ABD00049FEBDF806700E9B5F451F6005D9E02356
:10ABE0008AF8003003B0BDE8F08F57B1234608F172
:10ABF000FF312A68F0180133825C01F8012F9F426F
:10AC0000F7D198F8023089F800302B683B442B606C
:10AC100003B0BDE8F08F00BF38B514461D460022D2
:10AC2000002304F0A1FE78B175B104EB05132246B0
:10AC3000002000210024002551739060117391734E
:10AC4000E2E804459A42F7D138BD00BF70B49DF8E0
:10AC50000C60022E04460D4614D0012E01D970BCA2
:10AC6000704755A1D1E90001A04271EB05031BDA41
:10AC700053A1D1E90001A04271EB050330DB444B45
:10AC8000D360ECE7B3F5967F12D047F230518B4298
:10AC9000E5D12FA1D1E90001A04271EB0503DEDB74
:10ACA0003C4BD36070BC70473B4BD36070BC70476B
:10ACB00027A1D1E90001A04271EB0503F0DA26A13A
:10ACC000D1E90001A04271EB050313DA24A1D1E917
:10ACD0000001A04271EB05030FDB304BD360BEE7F0
:10ACE00021A1D1E90001A04271EB0503A4BF2C4BC7
:10ACF000D360B4E72B4BD360B1E71DA1D1E90001CC
:10AD0000A04271EB050302DB274BD360A7E71AA132
:10AD1000D1E90001A04271EB050302DB234BD360B4
:10AD20009DE717A1D1E90001A04271EB050302DB09
:10AD30001F4BD36093E714A1D1E90001A04271EB4E
:10AD400005038CDB1B4BD36089E700BFAFF30080AA
:10AD5000FF93357700000000FFF1052A0100000095
:10AD6000FF0B774203000000FFC717A80400000094
:10AD7000FF9FACB903000000FFFD7C6C04000000E5
:10AD8000FF5B4D1F05000000FFB91DD2050000004C
:10AD90009600E0034001C4097C01E0034001E003A8
:10ADA000C800E0034001DC05400120034001260209
:10ADB00040015E014001C800FFE30B5402000000A7
:10ADC000FFD5117E03000000194B013970B45B5CA4
:10ADD00000EB43034FF6FF72B3F83643944206D0BC
:10ADE000144CD0F8342334F91140944302D000209D
:10ADF00070BC7047104CD0F81C5354F82140AC4341
:10AE0000F5D1B3F87C53B3F870636C1CA5B2B5FBF5
:10AE1000F6F406FB1454A4B2A3F87C43002CE6D14C
:10AE2000012303FA01F11143C0F834131846DFE798
:10AE300070D1030858D103082CD10308F8B54E1E71
:10AE400013498D5D00EB45010446B1F852734FF68E
:10AE5000FF70874200D1F8BD05F1B700691E069F5B
:10AE600044F8207004EBC505C5E9902307986518E0
:10AE700026F054FD05F018F985F82003D4F8303396
:10AE8000012101FA06F63343C4F83033F8BD00BFA0
:10AE90009CD10308F8B5044602F0DAF904F5BC7059
:10AEA00003F026F904F12C0002F03AFC04F15C00F6
:10AEB00001F0BAFA04F5887002F08EFE0A2104F55A
:10AEC000F87002F005FB002604F5307304F50272F9
:10AED00004F538750020002143F8046BAB42E2E82A
:10AEE0000201F9D100204FF0000CC4F81C0304F556
:10AEF000377304F5107104F21F3204F5467500260D
:10AF0000002743F804CFAB42E1E9026702F8010FE2
:10AF1000F7D1C4E9CC0004F54E7304F55175012056
:10AF200000214FF6FF725887A3F8461023F8022B32
:10AF30009D42F8D1A4F84423A4F84623A4F848235A
:10AF4000A4F84A23A4F84C23A4F84E23A4F85023D1
:10AF5000A4F8522304F2523304F55C714FF6FF72E9
:10AF600023F8022F8B42FBD12046F8BD10B44C1EB3
:10AF700011461A46092C06D8DFE804F0090D110520
:10AF800014050505191E6FF0630010BC704710BC56
:10AF90005C3001F0D1BA10BC2C3002F0DDBB10BC2B
:10AFA00002F062B910BC00F5BC7003F007BB10BC26
:10AFB00000F5887002F058BE10BC00F5F87002F081
:10AFC00093BA00BF2DE9F04FA5B000220D460A92BA
:10AFD00004460B920C921AAB23A943F8042F994212
:10AFE000FBD10023C4F83433052120460D920E9284
:10AFF0008DF825308DF826308DF82730FFF7E4FEE8
:10B0000050B1284604F0FAFD0146D4F8DC0204F001
:10B01000DDFF002840F0CE804FF0FF366FF0004794
:10B0200003212046FFF7D0FE50B1284604F0E6FD8C
:10B030000146D4F8DC0204F0C9FF002840F0298161
:10B0400001212046FFF7C0FE50B1284604F0D6FD8E
:10B050000146D4F8DC0204F0B9FF002840F0298151
:10B0600002212046FFF7B0FE50B1284604F0C6FD8D
:10B070000146D4F8DC0204F0A9FF002840F0498121
:10B0800009212046FFF7A0FE50B1284604F0B6FD86
:10B090000146D4F8DC0204F099FF002840F08A81D0
:10B0A00000260A212046FFF78FFE48B1284604F00B
:10B0B000A5FD0146D4F8DC0204F088FF002862D127
:10B0C000B4F85C234FF6FF739A4203D0D4F81C33D4
:10B0D00058074CD4B4F85E234FF6FF739A4203D05E
:10B0E000D4F81C33D90736D4B4F860234FF6FF7375
:10B0F0009A4203D0D4F81C339A0720D4B4F86223C0
:10B100004FF6FF739A4203D0D4F81C331B0705D4C3
:10B110000023C4F81C3325B0BDE8F08FD4F8CC323E
:10B12000009300220192D4E9882309212046FFF7E9
:10B1300085FE0023C4F81C3325B0BDE8F08FD4F899
:10B14000C432009300220192D4E9842308212046CE
:10B15000FFF774FED2E7D4F8C032009300220192C8
:10B16000D4E9822307212046FFF768FEBCE7D4F824
:10B17000C832009300220192D4E98623062120469A
:10B18000FFF75CFEA6E7D4F8C432D4F8C812324602
:10B1900004F5F870D4E9866702F0C2F9002105468B
:10B1A0000090019132463B460F2120460A95FFF759
:10B1B00045FE85E70DF126020DF125030DF1270768
:10B1C0000EAED4F8D402DFF82892CDE90232CDE9F0
:10B1D0000467002104F0FAFED4E98867B0FA80F32E
:10B1E000D4F8CC1200915B09019332463B4604F53A
:10B1F000BC7002F0ABFF99F80B8004EB48024FF6ED
:10B20000FF73B2F852239A4208F1FF3A19D09DF821
:10B21000250004F0EFFC08F1B70B04EBC80844F874
:10B220002B00C8E99067002026F078FB04F03CFF73
:10B23000A2448AF82003D4F8303343F40063C4F8FE
:10B24000303399F80C8004EB48024FF6FF73B2F8E4
:10B2500052239A4208F1FF393FF4E2AE9DF82600EE
:10B2600004F0C8FC08F1B70A04EBC80844F82A0047
:10B27000C8E99067002026F051FB04F015FFA144B7
:10B2800089F82003D4F8303343F48053C4F83033C2
:10B29000C6E60CA90BAACDE901210AAB0093D4F8AC
:10B2A000C432D4F8C822D4F8CC12204601F0F8FFFA
:10B2B000C6E6D4F8D832D4F8D40204930DF1340C95
:10B2C0001BAA0021CDE9052C04F080FE9DF827C0C3
:10B2D0009DF826809DF825E0CDF808C0B0FA80F0F2
:10B2E00004F15C0C40090C9B0B9A0A990390CDF871
:10B2F00004806046CDF800E001F078F90D9B0093E2
:10B30000002201923B46324612212046FFF796FD6D
:10B31000A6E619AB0DF15C0C15A813A911AA0593AB
:10B320000FABCDE9030CCDE9012100930D990E9BE4
:10B330001BAA04F12C0002F031FA109A0F9B019223
:10B34000009332463B4620460121FFF777FD129AD3
:10B35000119B0192009332463B4620460221FFF7A3
:10B360006DFD149A139B0192009332463B46204692
:10B370000321FFF763FD169A159B01920093324655
:10B380003B4620460421FFF759FD189A179B01926E
:10B39000009332463B4620461521FFF74FFD1A9A8F
:10B3A000199B0192009332463B461F212046FFF72E
:10B3B00045FD65E6D4E98689D4F8D032B4F85E104C
:10B3C0000291CDE900890393D4F8C81232463B4676
:10B3D00004F5887002F092FC00210646009001916D
:10B3E00042464B460E212046FFF728FD59E600BF96
:10B3F0009CD1030810B44C1E11461A469DF8043027
:10B40000092C06D8DFE804F0080C10051305050523
:10B41000181D002010BC704710BC5C3001F0B2BC9D
:10B4200010BC2C3002F0C8BA10BC01F08FBF10BCA9
:10B4300000F5BC7002F060BF10BC00F5887002F02F
:10B44000E3BC10BC00F5F87002F0AAB810B44C1EB2
:10B4500011461A469DF80430092C06D8DFE804F09E
:10B46000080C100513050505181D002010BC7047B9
:10B4700010BC5C3001F0F8BC10BC2C3002F0E0BA1B
:10B4800010BC01F095BF10BC00F5BC7002F080BF8D
:10B4900010BC00F5887002F017BD10BC00F5F87004
:10B4A00002F0B0B830B4D0F8D452D0F81C430D60DC
:10B4B000D0E98C01C4F34054C2E900011C7030BCD7
:10B4C000704700BFF0B401390E4C049D645C04F178
:10B4D000B70C00EBC40750F82C601660D7E99067F2
:10B4E000C3E900670444012294F81F332B70D0F89D
:10B4F000303302FA01F123EA0103F0BCC0F8303323
:10B50000704700BF9CD103082DE9F04F8446374EA9
:10B51000374CDFF8E8A083B0002140F217374FF630
:10B52000FF7E04E001310B2906F104065AD047FAE8
:10B5300001F3DB07F6D52F4B13F801800CEB48081D
:10B54000B8F83693F145EDD000231D460120019651
:10B5500000FA03F23A4210D0274E36F911B01BEA36
:10B56000020F0AD0234AD25C02F29B123CF812204E
:10B57000724502D0954238BF154601330B2BE7D1F7
:10B58000019E00234FF0010B0BFA03F222420DD073
:10B59000306802420AD013F80A200CEB4202B2F8DB
:10B5A0004223724502D0954238BF15460133182B0D
:10B5B000EAD1002DB6D0B9FBF5F205FB12991FFABE
:10B5C00089F392B23BB105F0010000EB5505AB42A7
:10B5D000A4BF013292B201310B29A8F8702306F101
:10B5E0000406A4D103B0BDE8F08F00BF2CD103083E
:10B5F0000F20E00070D1030858D1030884D103085C
:10B6000030B400F54E7300F55175012400214FF65A
:10B61000FF725C87A3F8461023F8022B9D42F8D1F5
:10B62000A0F84423A0F84623A0F84823A0F84A2312
:10B63000A0F84C23A0F84E23A0F85023A0F85223E2
:10B6400000F2523300F55C724FF6FF7123F8021FCF
:10B650009342FBD130BC704710B44C1E11461A46C1
:10B66000092C06D8DFE804F0090D110514050505BD
:10B67000191E6FF0630010BC704710BC5C3001F005
:10B6800055BD10BC2C3002F071BA10BC01F0C2BE26
:10B6900010BC00F5BC7002F0E9BE10BC00F588706B
:10B6A00002F046BC10BC00F5F87001F0DDBF00BF31
:10B6B0002DE9700F0139134C9DF82060645C00EB9C
:10B6C000C405D5E980AB9B4508BF92459046994695
:10B6D00004F1FF3410D0B034079B40F82430C5E9A2
:10B6E00080890122D0F81C3302FA01F10B43BDE836
:10B6F000700FC0F81C337047002EECD1BDE8700FFE
:10B70000704700BF84D103084B1E0A2B10D8124A81
:10B71000114411F8012C02F29B1230F81210092B7F
:10B7200009D8DFE803F0090C0F081108080808150C
:10B730004FF6FF71F3E770475C3001F081BC2C30AD
:10B7400002F0E2B901F082BE00F5BC7002F0E8BE82
:10B7500000F5F87001F0A4BF70D10308204B013947
:10B76000F0B55B5C1F4FDFF888E000EB43038446D5
:10B77000A3F852230126002340F2173506FA03F4FA
:10B780002C420DD037F91100204209D01EF80300D9
:10B790000CEB4000B0F83643944288BFA0F8362343
:10B7A00001330B2BEAD1104E1048DFF848E000239C
:10B7B000012505FA03F434420DD050F821703C42C3
:10B7C00009D01EF803400CEB4404B4F842739742CE
:10B7D00088BFA4F842230133182BEAD1F0BD00BF83
:10B7E0009CD10308BCD103080F20E000FCD1030862
:10B7F00070D1030884D10308F0B50F4609680346E9
:10B800004C1E00F10B0685B0234410460E4401ACDB
:10B8100013F8015F04F8015BB342F9D101A90C22CE
:10B8200025F020F83B680C333B6005B0F0BD00BF4D
:10B83000F0B51C461B680C33934285B003D9013226
:10B84000226005B0F0BD0C220F46014601A825F08C
:10B8500009F801AB0022BD18206813F8016B2E54C3
:10B8600001320C2AF7D123680C33236005B0F0BDF8
:10B8700010B50B68C21882B00C465278C35C8DF8C4
:10B88000052001A902220DF106008DF8043024F0F4
:10B89000E9FF2368BDF806000233236002B010BD43
:10B8A000F0B51C461B680C33934287B003D90132B4
:10B8B000226007B0F0BD0C220F460146684624F016
:10B8C000D1FF0C22694603A824F0CCFF03AB002271
:10B8D000BD18206813F8016B2E5401320C2AF7D1E1
:10B8E00023680C33236007B0F0BD00BF30B50D688E
:10B8F000034683B00C46411910465A5D8DF804206A
:10B900004D788B788DF80630032201A98DF805500B
:10B9100024F0A8FF23680333236003B030BD00BFC9
:10B9200030B51C461B6885B002339342ADF8060063
:10B9300003D90132226005B030BD0D4602220DF15F
:10B94000060103A824F08EFF23689DF80C20EA541A
:10B9500021689DF80D3029444B7023680233236021
:10B9600005B030BD30B50A6883B08318825C8DF8AD
:10B97000042058789D788DF805000C460422DB7869
:10B980008DF807300DEB020168468DF8065024F063
:10B9900069FF236800980433236003B030BD00BF03
:10B9A00070B51C461B680333934282B003D9013241
:10B9B000226002B070BD0278467883788DF800204E
:10B9C0000D460322694601A88DF802308DF801600A
:10B9D00024F048FF23689DF80420EA5423689DF86A
:10B9E00005109DF806202B445970216829448A705F
:10B9F00023680333236002B070BD00BF10B50B682D
:10BA000082B00C46C35C8DF8073001220DF10701AE
:10BA10000DF1060024F026FF23689DF8060001338F
:10BA2000236002B010BD00BF30B51C461B6885B056
:10BA300004339342019003D90132226005B030BD36
:10BA400004220D4603A80DEB020124F00BFF23682E
:10BA50009DF80C20EA5423689DF80D009DF80E1007
:10BA60009DF80F202B44587023682B44997021684F
:10BA70000D44EA7023680433236005B030BD00BF75
:10BA8000F0B50B6883B004461C440F4610460DF118
:10BA9000FF330DF1070614F8015B03F8015FB342B1
:10BAA000F9D10822694624F0DDFE3B6808333B608B
:10BAB00003B0F0BD30B51C461B6883B05D1C9542D9
:10BAC0008DF8070003D90132226003B030BDC818D9
:10BAD00001220DF1070124F0C5FE23680133236024
:10BAE00003B030BD30B50A6885B00D460DF10703CF
:10BAF00010440DF10F0410F8012B03F8012FA3429D
:10BB0000F9D108220DEB0201684624F0ABFE2B6848
:10BB1000DDE9000108332B6005B030BD70B51C466F
:10BB20001B680833934284B003D90132226004B009
:10BB300070BD08220D460146684624F093FE082297
:10BB40000DEB0200694624F08DFE0DF10703002283
:10BB5000A818216813F8016F46540132082AF7D15A
:10BB600023680833236004B070BD00BFF0B50B68D4
:10BB700087B00446013B1C440F4610466B4606AE98
:10BB800014F8015F03F8015BB342F9D1694618224A
:10BB900024F068FE3B6818333B6007B0F0BD00BF7F
:10BBA00070B584B0CDE90001089C266808369E4235
:10BBB00003D90133236004B070BD154608220DEB94
:10BBC0000200694624F04EFE0DF107020023E8183A
:10BBD000216812F8016F46540133082BF7D123680E
:10BBE0000833236004B070BDF0B50B68AFB00446F5
:10BBF000013B1C440F46104601AB2EAE14F8015F0A
:10BC000003F8015BB342F9D101A9B42224F02AFE62
:10BC10003B68B4333B602FB0F0BD00BF30B41C684C
:10BC2000651C95429CBF08551A68013230BC1A60E9
:10BC3000704700BFF0B50B6889B00446013B1C4457
:10BC40000F4610466B460DF11E0614F8015F03F80F
:10BC5000015BB342F9D169461E2224F003FE3B6822
:10BC60001E333B6009B0F0BD30B51C461B68043381
:10BC7000934283B003D90132226003B030BD028801
:10BC8000ADF8002004220D464388ADF80230694625
:10BC90000DEB020024F0E6FD23689DF80420EA5431
:10BCA00023689DF805009DF806109DF807202B4499
:10BCB000587023682B44997021680D44EA702368FA
:10BCC0000433236003B030BD30B50C460968451815
:10BCD00083B0034610466A785B5C8DF8052001A9A5
:10BCE00002228DF8043024F0BDFD23680233236066
:10BCF00003B030BD70B51D461B68143393428AB043
:10BD000003D901322A600AB070BD14220DEB02047F
:10BD10000E460146684624F0A5FD694614222046D9
:10BD200024F0A0FDC4F101030DF113020DF1270170
:10BD30002C689818204412F8014F34548A42F7D1E5
:10BD40002B6814332B600AB070BD00BFF0B50B68D0
:10BD500087B00446013B1C440F46104601AB06AEBB
:10BD600014F8015F03F8015BB342F9D101A9142271
:10BD700024F078FD3B6814333B6007B0F0BD00BF92
:10BD800030B51C461B6883B05D1C95428DF80700DA
:10BD900003D90132226003B030BDC81801220DF171
:10BDA000070124F05FFD23680133236003B030BD39
:10BDB00070B503460D6882B00C46411910465A5DB5
:10BDC0008DF8042004224E788D78CB788DF80730DA
:10BDD0000DEB02018DF805608DF8065024F042FD50
:10BDE00023680433236002B070BD00BF70B51C46E9
:10BDF0001B680833934282B003D90132226002B03B
:10BE000070BD08220D460146684624F02BFD0DF159
:10BE1000FF330022A818216813F8016F465401323D
:10BE2000082AF7D123680833236002B070BD00BF31
:10BE3000F0B50B6887B00446013B1C440F46104622
:10BE400001AB06AE14F8015F03F8015BB342F9D110
:10BE500001A9142224F006FD3B6814333B6007B0AF
:10BE6000F0BD00BF70B51D461B68183393428CB0FF
:10BE700003D901322A600CB070BD18220DEB020408
:10BE80000E460146684624F0EDFC6946182220461D
:10BE900024F0E8FCC4F101030DF117020DF12F01AC
:10BEA0002C689818204412F8014F34548A42F7D174
:10BEB0002B6818332B600CB070BD00BF10B50B6839
:10BEC00082B00C46C35C8DF8073001220DF10701EA
:10BED0000DF1060024F0C6FC23689DF9060001332D
:10BEE000236002B010BD00BF70B51D461B68B4339F
:10BEF0009342DAB003D901322A605AB070BDB4223D
:10BF00000DEB02040E460146684624F0ABFC694680
:10BF1000B422204624F0A6FCC4F101030DF1B302C3
:10BF20000DF267112C689818204412F8014F345410
:10BF30008A42F7D12B68B4332B605AB070BD00BF72
:10BF400070B51D461B681E33934288B003D9013279
:10BF50002A6008B070BD6C461E220E46014620467F
:10BF600024F080FCC4F101030DF1FF320DF11D013D
:10BF70002C689818204412F8014F34548A42F7D1A3
:10BF80002B681E332B6008B070BD00BF30B51C4657
:10BF90001B680233934283B003D90132226003B09D
:10BFA00030BD027843788DF800200D4602226946A4
:10BFB00001A88DF8013024F055FC23689DF8042079
:10BFC000EA5421689DF8053029444B7023680233F8
:10BFD000236003B030BD00BF70B51D461B6814332D
:10BFE00093428AB003D901322A600AB070BD14228C
:10BFF0000DEB02040E460146684624F033FC694608
:10C000001422204624F02EFCC4F101030DF113028A
:10C010000DF127012C689818204412F8014F345470
:10C020008A42F7D12B6814332B600AB070BD00BF71
:10C030002DE9F04F85B004469DF838909DF83C50AE
:10C040000395B9F1030F9DF840504068029588466A
:10C050001646009300F09680624903F023FE824664
:10C06000009B002B67D104EB89035046196903F04C
:10C0700011FD356807462946404603F009FD05468F
:10C08000608803F0B7FD584903F0C0FE04EB890B4C
:10C0900003465649DBF82000019303F097FF002880
:10C0A00073D15349504603F0FDFD514603F0F2FCB5
:10C0B00000218046284603F0B1FF00284CD009F04B
:10C0C000FD09B9F1010F09BF039BDFF838910D336A
:10C0D00054F82390029B63B94146284603F09EFF23
:10C0E00038B1039B434A013B32F9130003F086FD4C
:10C0F00081466068404903F0D5FD494603F086FE5D
:10C10000019903F0CFFD04460146284603F086FF5F
:10C1100000BB3168284603F0BDFC3946044603F0F5
:10C120005FFF00B92746009B0BB107F1004737605E
:10C1300005B0BDE8F08F356809F1010305F1004550
:10C14000356054F82310504603F0A2FC08F1004873
:10C15000074690E72546DCE7029B93B3DBF86810BF
:10C16000019B03F1004003F051FE24F081FF0146E2
:10C170004FF07E5003F08CFC0146284603F092FD00
:10C180000546C6E7D4F8B0A06AE7DBF804004146EC
:10C1900003F07EFC002125F0C1F901464FF07E50EE
:10C1A00003F076FC014603F07DFD4FF07D5103F076
:10C1B00079FD124903F076FD114903F06BFC01464D
:10C1C00070E7284625F056F9414603F027FF00287E
:10C1D000C4D0B9F1010FC1D10449E06E03F016FEDD
:10C1E0000146BDE7C178C63D0000C842000040409E
:10C1F0009A99993E7CD10308CBBECB3ECDCC4C3E28
:10C20000CDCCCC3D0000E1442DE9F04100EB8207AC
:10C2100084B004460E46786800211546984603F01F
:10C22000D5FE00B17E6002236A1C20460193314690
:10C23000CDF80880009504EB82020023FFF7F8FE9A
:10C240007868314603F0CCFE70B1386A4FF07E5109
:10C2500003F0BCFE40B13869002103F0B7FE18B10D
:10C26000B8F1000F00D17E6004B0BDE8F08100BFDE
:10C270002DE9F04300EB820885B004460E46D8F85D
:10C2800010009DF83090002115461F4603F09EFED9
:10C2900070B92A1D0123CDF80890009504EB8202A5
:10C2A000314620460193FFF7C3FE05B0BDE8F08399
:10C2B0003946D8F8040003F0EBFB0146304603F0A2
:10C2C000E7FB084903F08CFE0028EED0C8F81060A8
:10C2D0000021304603F07AFE0028DAD005B0BDE830
:10C2E000F08300BFBD378635F8B500EB83040D46FB
:10C2F000276900213846164603F068FEF8B16068E9
:10C30000314603F0C5FB002125F008F921690346F9
:10C3100030461C4603F0BCFB002125F0FFF8014627
:10C32000204625F011F9014603F0B4FB294603F03D
:10C330006DFDBDE8F8404FF07E5125F005B960680D
:10C34000394603F0A5FB294625F0E8F80546D6E76F
:10C350002DE9F0479DF820C000EB8C0705460E46FE
:10C36000386A2D49904699460CF1FF3403F02EFEB1
:10C37000002834D049464FF07E5003F089FB014637
:10C3800003F090FC4FF07D5103F08CFC234903F047
:10C3900089FC234903F07EFB8146D7F810A078681A
:10C3A000514603F075FB49460746304603F07AFCD8
:10C3B000314603F06FFB0146384603F011FE2C4472
:10C3C00028B95046002103F001FE034650B195F80C
:10C3D000783084F820304FF07E50BDE8F087DFF8E9
:10C3E0004490DAE7B8F1000F0ED194F82030FF2B1B
:10C3F00010D00133DBB284F8203095F878209A42CF
:10C4000008D94FF08040E8E784F820304FF08040B2
:10C41000BDE8F0870048E0E700004040CDCC4C3E4E
:10C42000CDCCCC3D9A99993EF0B4334E334D344A3D
:10C43000344F3549354CC6640565354E354D476535
:10C440008165354F3549C46586660A240326C5666D
:10C45000334DDFF8E0C007674167324F1168A0F83D
:10C460007A40A0F87C6054681669C0F88050D5689E
:10C47000C0F848C0C0F88470D2F808C0C0F89C105A
:10C48000002201210027C0F8A040C0F8A850264C87
:10C49000C0F8AC600225254E878604664FF6FF770C
:10C4A000446680F87850C0F8A4C00170026342620C
:10C4B0008663C66380F8225040F202261C4D046455
:10C4C00047800684C0F8B0508262F0BC426082604F
:10C4D000C260026142618261C261C26280F844103E
:10C4E00080F88810C0F88C20C0F89420C0F8902004
:10C4F000C0F89820704700BF10E9AFBFD881F3BEE5
:10C5000078D20308C7BA38BDD3BC63BC2B18953C9E
:10C510000000E14500C0A8474031774C004EED498E
:10C520000000604017B7D138000061450000E144C9
:10C530004260653CDE02C9BE2DE9F04786B004AB1F
:10C5400005AE04460078CDE900360DF10F030D4627
:10C5500002F05CF89DF90F00E8B94FF0010A04F110
:10C560009C0904F1480804F154075FFA8AF3013B7F
:10C57000052B35D8DFE803F02D261F18120342469D
:10C5800031462846FFF738F90AF1010ABAF1080FD7
:10C59000EBD19DF90F0006B0BDE8F0873A46314671
:10C5A0002846FFF729F9EFE704F1800231462846D3
:10C5B000FFF766FAE8E704F17A0231462846FFF70A
:10C5C000F7FBE1E704F1600231462846FFF714F972
:10C5D000DAE704F16C0231462846FFF70DF9D3E79C
:10C5E0004A4631462846FFF723FCCDE72DE9F04FB8
:10C5F0008FB0DDE91D569DF8604009949DF864A058
:10C600009DF8684004949DF86C400394059104469D
:10C6100017469846BAF1000F33D0039B002B40F029
:10C620008E817449104603F0E5FC002800F09281E9
:10C630007149384603F0E8FC002800F08B816F490F
:10C64000404603F0D7FC002800F0848100214046DA
:10C6500003F0DAFC002800F07D811C98002103F033
:10C66000B5FC002800F04383D4F830900021484600
:10C6700003F0ACFC002800F06A83039BCDE907A31C
:10C6800001E0CDE907AA6388642B00F05F81B3F570
:10C69000967F19BFA36CD4F854B0E36CD4F858B0AB
:10C6A00057490693404603F0FDFA544903F0AEFBA8
:10C6B00054498046384603F0F5FA534981463846D6
:10C6C00003F0E8F90146484603F0A0FB814624F058
:10C6D000CFFC4E4902463846174603F0DBF939468F
:10C6E0000746404603F0DEFA394603F08FFB48491F
:10C6F00003F0D8FA24F00EFD464903F0C9F9069B71
:10C70000194603F0CFFA594603F0C4F901460598DB
:10C7100003F0BEF9079B3060002B40F03881039B8B
:10C72000002B40F0AB803C49606803F0BBFAD6F8C0
:10C730000090A1680746484603F066FC002840F0D8
:10C74000FB806169484603F055FC089B00280CBF3C
:10C7500098464FF0010801234A4639462046FFF724
:10C76000C3FD099B002B00F0BF81BAF1000F59D027
:10C770004FF0010C034642463946CDF800C0204632
:10C78000FFF7E6FD24496062606803F08BFA3768C2
:10C79000E1688046384603F037FC30B9A069394675
:10C7A00003F032FC002800F08C8202233A46414616
:10C7B0002046FFF799FD034602205246414600906D
:10C7C0002046FFF7C5FDD4F8B070A062032332689D
:10C7D00039462046FFF788FD089B002B40F0618218
:10C7E0000E49384603F0F2FB002840F067820C4FF8
:10C7F00043E000BF0000AA42000020C20000C8427F
:10C800008195C340C3F58C41B81E7343339388436D
:10C8100033B3584307767C3FC178C63D4260653CE0
:10C820000000404094F87820AA4984F82020002392
:10C830006362606803F036FA3768E168814638461B
:10C8400003F0E2FBC846002800F062813A46494600
:10C8500002232046FFF748FD94F8783084F8213011
:10C860000027A76203233268D4F8B0102046FFF7F0
:10C870003BFD94F8783084F82230E762954960688F
:10C8800003F010FAD4F8089082460021484603F0DD
:10C890009DFB08B1D6F8009067690021384603F087
:10C8A00095FB20B15146484603F0F2F80746D4F80C
:10C8B0000C80636A03930021404603F087FB08B1B4
:10C8C000D6F80080D4F818B00021584603F07EFB5B
:10C8D00020B15146404603F0DBF88346D4F810A05F
:10C8E000D4F8B03005930021504603F06FFB08B137
:10C8F000D6F800A0039BC5F80090EF60AB61C5F8C7
:10C900000480C5F810B0A26AEA61C5F808A0E6691B
:10C910000021304603F05AFB20B10599504603F040
:10C92000B7F806466E61E36A2B6294F84430012B37
:10C9300014D00FB0BDE8F08F4FF001080BE70023D3
:10C94000CDE907336388642B7FF4A1AE236DD4F85F
:10C950005CB0A5E6039BCDE9073394E603985E49F6
:10C9600003F034FB58B1049B4BB1236E616EA26E91
:10C97000A3630023E163226484F84430D9E7574B72
:10C98000574AA363E36322640FB0BDE8F08F4846C3
:10C9900024F06EFB0146404603F084F9394603F06B
:10C9A00035FA504903F07EF924F0B4FB6388642B18
:10C9B000834600F07181B3F5967F00F06881A36C27
:10C9C000D4F85490069394F88830002B00F0B98086
:10C9D000059AC4F894B00023C4F898B0C4F88C2029
:10C9E000C4F8902084F888303A496068D6F800800E
:10C9F00003F058F907466069002103F0E7FA58B1DF
:10CA00003946A06803F044F8414603F007FB18B12B
:10CA1000C4F81480D6F800804146DDF81080012269
:10CA200043462046FFF7F0FBCDF800803B4601224D
:10CA300031682046FFF71CFC2649606803F032F994
:10CA400000210746A06903F0C1FAD6F8008060B162
:10CA50003946E06803F01CF80146404603F0C0FA8E
:10CA600018B1C4F81880D6F800804146DDF810806F
:10CA7000022243462046FFF7C7FBCDF800803B4625
:10CA80003168CDF8108002222046FFF7F1FB049BAD
:10CA90003168D4F8B07003222046FFF7B5FB089B3D
:10CAA000002B3FF43CAE049B009331683B4620468C
:10CAB0000322FFF7DDFBE7690021384603F086FA21
:10CAC00000287FF42CAE2069394602F0E1FFC4F85B
:10CAD000B00024E6C178C63D000040400000E144BB
:10CAE0000000614533B3584394F87820A04984F896
:10CAF000202000236362606803F0D4F83768814621
:10CB00003946E06803F076FAC84600287FF49EAE06
:10CB1000A169384603F06EFA00287FF497AE3A46D2
:10CB2000022341462046FFF7DFFB099A0346002A0D
:10CB30003FF492AEBAF1000F3FF48EAEDDF820A0C4
:10CB40003AE68B496068D6F8008003F0ABF84146BE
:10CB50000746A06802F09CFF4FF07F5107903846CF
:10CB600003F0A0F8079B0146184603F043FA00289B
:10CB70003FF441AF636A7F490793184603F026FAF2
:10CB8000002800F09180D4F89870D4F894800C9725
:10CB90003846414603F024FA002840F09C804FF0CC
:10CBA000FF374146584603F01BFA002840F09B80AF
:10CBB0007B1C07932146082241F8948F0BA823F091
:10CBC00051FEDDF82C800C9F4046394603F008FAF0
:10CBD000002800F08580B8460027D4F88C300B93ED
:10CBE0004146584603F01AFA002877D17B1CC34609
:10CBF000079AD4F89400C4F898B00EA901EB820704
:10CC000001EB8303D4F8902005990D910C9257F80D
:10CC10000C2C53F80C3CC4F88C205946C4F89030C6
:10CC200002F036FF24F026FC534903F0EDF900280A
:10CC30003FF4DAAED4F88C10D4F8900002F028FF5C
:10CC4000494602F025FFD4F894100746D4F898001E
:10CC500002F01EFF0146384603F0D8F8474903F0BA
:10CC600021F847490746069803F01CF80146384664
:10CC700002F010FF6388B3F5967F66D047F230521A
:10CC8000934260D0642B7FF4AFAE2065ACE6E36CDA
:10CC9000D4F85890069396E6236DD4F85C900693EA
:10CCA00091E64FF08047E8E5079B4FF0804118463A
:10CCB00003F08CF900283FF49EAE64E74FF07E57F6
:10CCC000DBE502233A4641462046FFF70DFBDDF83F
:10CCD00020A0034670E5B846002762E7022387E7F5
:10CCE0004FF0FF3779E70223D846079362E72149DF
:10CCF0001C9803F06BF900287FF4C3AC1C9803F078
:10CD0000ADF904EB40038346B3F87800D4F83090D3
:10CD100002F070FF0146484602F0BAFE0BF11F0B0D
:10CD2000069054F82B0024F0A3F9069B0146184600
:10CD300003F06CF80146484602F0AAFE039B20630C
:10CD4000CDE907339FE4A0644EE6E0644CE6A08E94
:10CD500002F050FF0146484602F09AFE01460020CC
:10CD600024F0DCFB039B2063CDE907338BE400BF99
:10CD7000C178C63D00004040CDCC4C3E00D7A33C1E
:10CD800048E17A3F2DE9F047072484B006469046F3
:10CD900000788DF807400DEB04020D4601F064FCAD
:10CDA0009DF8077003902FB3012406F19C0A06F149
:10CDB0004809E3B2013B062B0BD8DFE803F0352D21
:10CDC000453D4D10040003AB424629465046FEF750
:10CDD00091FFA74204F101030BD01C46E9E703AB26
:10CDE000424629464846FEF75BFDA74204F101038F
:10CDF000F3D10398ADF80A0002220DF10A0102A84E
:10CE000023F030FD9DF808209DF8093003982A7022
:10CE10006B7004B0BDE8F08703AB4246294606F1CB
:10CE20006000FEF73DFDD4E703AB4246294606F11C
:10CE30006C00FEF735FDCCE703AB4246294606F110
:10CE40008000FEF76BFEC4E703AB4246294606F1BD
:10CE50007A00FEF709FFBCE703AB4246294606F11C
:10CE60005400FEF71DFDB4E72DE9F04784B00646F7
:10CE7000174600780F240DF107020D468DF8074084
:10CE800001F0F2FB9DF807800390B8F1000F2AD063
:10CE9000012406F1940A06F18C09E3B2013B0E2B42
:10CEA00010D8DFE803F04941595139327770686092
:10CEB000867E8E150800D6F8B00003AB3A462946A8
:10CEC000FEF7B2FDA04504F101030BD01C46E4E7D8
:10CED00003AB3A4629465046FEF720FEA04504F132
:10CEE0000103F3D10398ADF80A0002220DF10A0103
:10CEF00002A823F0B7FC9DF808209DF8093003989C
:10CF00002A706B7004B0BDE8F087306B03AB3A4613
:10CF10002946FEF789FDD5E703AB3A46294606F1D7
:10CF20002400FEF7BDFCCDE703AB3A46294606F1E7
:10CF30001400FEF7B5FCC5E703AB3A46294606F1F7
:10CF40000800FEF7ADFCBDE703AB3A46294606F103
:10CF50002000FEF725FDB5E7708803AB3A46294669
:10CF6000FEF7DEFCAEE703AB3A46294606F1380091
:10CF7000FEF796FCA6E796F8780003AB3A462946FA
:10CF8000FEF798FD9EE7706803AB3A462946FEF728
:10CF90004BFD97E7B08E03AB3A462946FEF7C0FC3F
:10CFA00090E796F8880003AB3A462946FEF782FDE3
:10CFB00088E796F8440003AB3A462946FEF77AFD27
:10CFC00080E703AB3A4629464846FEF7A7FD79E7D6
:10CFD00030B4184A184D026400234FF6FF7440F233
:10CFE0000221012283864480002302240184134904
:10CFF000C0F8B05080F8784080F82240036330BC1D
:10D000004362836243608360C36003614361836101
:10D01000C361C362C0F88C30C0F89430C0F890305F
:10D02000C0F898308163C16380F8442080F888207C
:10D03000704700BF000061454260653C0000E1446C
:10D04000F8B54FF6FF7399423DD043888B420C46AA
:10D05000054638D0B1F5E16FD0F8A87041805BD0BB
:10D0600032D8642955D0B1F5967F3AD1D0F8A000D6
:10D070002C4BA3FB04235B09AB8624F04BF824F074
:10D08000F9F90646384624F045F824F0F3F901464C
:10D09000304602F0BBFE68600CB347F23053B3FB7E
:10D0A000F4F004FB10339BB280B253BB02F0A2FD3C
:10D0B00024F0AEF8014602F0EDFC24F0E9FB02F0AA
:10D0C000F3FF85F87800F8BD41F27073994226D0DD
:10D0D00047F23053994204D1D0F89C00C8E7124877
:10D0E000E6E7104BD5F89C00A3FB04235A09642102
:10D0F00001FB124292B2312A4FEA5313BCD90133D9
:10D10000BAE704F0010101EB5404A342A8BF0130C7
:10D11000CCE738460123AFE7D0F8A400A8E7D0F861
:10D12000AC00A5E71F85EB5100FF7F472DE9F047D5
:10D1300086B004AB05AE04460078CDE900360DF1AB
:10D140000F030D4601F062FA9DF90F0008BB4FF086
:10D15000010A04F1940904F18C0804F138075FFA1C
:10D160008AF3013B0D2B6CD8DFE803F0645D575068
:10D1700049433D37302A231C16074A463146284684
:10D18000FEF77EFC0AF1010ABAF1100FE7D19DF912
:10D190000F0006B0BDE8F087424631462846FEF74C
:10D1A0006FFCEFE731462846FEF728FC84F888003C
:10D1B000E8E731462846FEF721FC84F84400E1E721
:10D1C0003A4631462846FEF717FBDBE7314628464C
:10D1D000FEF714FC84F87800D4E731462846FEF7C1
:10D1E000C1FB6060CEE731462846FEF741FBA086D2
:10D1F000C8E731462846FEF7B5FB2063C2E704F1D5
:10D20000240231462846FEF7F7FABBE704F1200274
:10D2100031462846FEF76AFBB4E731462846FEF75A
:10D2200027FB6080AEE704F1140231462846FEF782
:10D23000E3FAA7E704F1080231462846FEF7DCFAD4
:10D24000A0E731462846FEF78DFBC4F8B00099E709
:10D2500010B50323044600F8043B01F0C9FE204644
:10D2600001F040FE204610BD70B586B004AB05AE9F
:10D2700004460078CDE900360DF10F030D4601F0AC
:10D28000C5F99DF90F0008B106B070BD284604F13C
:10D2900020023146FEF7B0FA9DF90F0006B070BDCE
:10D2A0002DE9F84F0D46044608462749DDF8309031
:10D2B000DDE90ABA17461E4602F09CFE00B1224D77
:10D2C000D4F810800021404602F080FE002833D1BF
:10D2D0002846656823F01EFF216902F0D9FB294624
:10D2E00002F0E0FC414602F0D5FBCBF80000656996
:10D2F0003846294602F0CCFBA16802F0D3FC29464F
:10D3000002F0C8FBCAF80000A5693046294602F0C1
:10D31000BFFBE16802F0C6FC294602F0BBFBC9F87E
:10D320000000DBF800302361DAF800306361D9F8DF
:10D330000030A361BDE8F88F284623F0EBFE67615B
:10D3400080462061A661C3E7000020412DE9F0413D
:10D3500084B001250646904600788DF807500DF1FF
:10D3600007020F4601F080F99DF80750039035B190
:10D3700020360024ACB10134A542FBD10398ADF8AE
:10D380000A0002220DF10A0102A823F06BFA9DF8AF
:10D3900008209DF8093003983A707B7004B0BDE80E
:10D3A000F08103AB424639463046FEF741FAE2E7E8
:10D3B0002DE9F04184B001250646904600788DF8AD
:10D3C00007500DF107020F4601F04EF99DF8075086
:10D3D000039035B110360024ACB10134A542FBD125
:10D3E0000398ADF80A0002220DF10A0102A823F009
:10D3F00039FA9DF808209DF8093003983A707B703F
:10D4000004B0BDE8F08103AB424639463046FEF732
:10D410000FFAE2E770B586B004AB05AE04460078BB
:10D42000CDE900360DF10F030D4601F0EFF89DF93F
:10D430000F0008B106B070BD284604F11002314655
:10D44000FEF7DAF99DF90F0006B070BDF0B504469D
:10D4500085B0084602F0CEFB01461C4802F0D6FC1F
:10D460004FF07C5102F01EFC01460546206A02F096
:10D47000CDFC4FF07E573946064602F0CFFDF0B1A5
:10D4800001972946606A02F0C1FC4FF07E57394689
:10D49000064602F0C3FDB0B102972946A06A02F029
:10D4A000B5FC4FF07E563146054602F0B7FD40B15F
:10D4B0000396201D01A901F031FD05B0F0BD0196D4
:10D4C000DFE70395F5E70296E7E700BF0000C842F3
:10D4D00010B5044600F8041B01F098FD204601F049
:10D4E00015FD204610BD00BF70B586B004AB05AE7B
:10D4F00004460078CDE900360DF10F030D4601F02A
:10D5000085F89DF90F0008B106B070BD284604F1FA
:10D5100010023146FEF7B4FA9DF90F0006B070BD57
:10D520002DE9F04104460F46184600211D4690465D
:10D5300002F060FD00282DD11749284602F06EFD4B
:10D5400030BBA6680021304602F040FD00B13E46E7
:10D550003146384602F09CFA616802F0A3FB31467E
:10D5600002F098FA2169A0600646284602F09AFB6C
:10D57000616902F08FFA294602F08CFA41460246B0
:10D58000304601F0E5F8BDE8F041034923F0DCBF87
:10D59000014DD6E7014DD4E70000C84217B7D13896
:10D5A0002DE9F04184B001250646904600788DF8BB
:10D5B00007500DF107020F4601F056F89DF807508D
:10D5C000039035B110360024ACB10134A542FBD133
:10D5D0000398ADF80A0002220DF10A0102A823F017
:10D5E00041F99DF808209DF8093003983A707B7046
:10D5F00004B0BDE8F08103AB424639463046FEF741
:10D60000F5FBE2E72DE9F04184B00746904600784B
:10D6100001240DF107020E468DF8074001F024F8B1
:10D620009DF8075003902DB10024ACB10134A54200
:10D63000FBD10398ADF80A0002220DF10A0102A8FD
:10D6400023F010F99DF808209DF8093003983270F6
:10D65000737004B0BDE8F081B86803AB4246314650
:10D66000FEF7E2F9E2E700BF70B586B004AB05AEA5
:10D6700004460078CDE900360DF10F030D4600F0A9
:10D68000C5FF9DF90F0008B106B070BD31462846B0
:10D69000FEF768F903469DF90F00A36006B070BD60
:10D6A000F8B50546084602F0A5FA0146194802F009
:10D6B000ADFB4FF07C5102F0F5FA4FF07E5701467A
:10D6C000154802F0A3FB394623F03EFF13490646F6
:10D6D00002F0E8FA23F0D2FE014602F0E3FA044633
:10D6E000014602F0DFFA214602F0D4F923F090FD62
:10D6F0003946034630461E4602F068FC40B92146D2
:10D70000304602F0C5F9014602F0C4F96860F8BD80
:10D710006F60F8BD0000C84299D4503CDB0FC93F90
:10D7200070B40B4A0B4915689668C56102240470F1
:10D730005468D56804621469466200228562C46236
:10D74000416070BC416181618260C260026170476A
:10D7500078D203080000484270B586B004AB05AE2D
:10D7600004460078CDE900360DF10F030D4600F0B8
:10D770004DFF9DF90F0008B106B070BD3146284637
:10D78000FEF7F0F804F11C02606031462846FEF70F
:10D790004FFB9DF90F0006B070BD00BF2DE9F04FA3
:10D7A000166883B00546304614469946884602F00E
:10D7B0006FF9E1680746304602F06AF901463846DB
:10D7C00002F024FB714902F06DFA714902F062F92E
:10D7D00001460020DDE90CBA23F0A0FE01466D48A9
:10D7E00023F0B2FEA968034638461F4602F05AFAF3
:10D7F000674902F04FF90146002023F08FFE4FF0F9
:10D800007E510646484602F0EBFB00287CD16F6152
:10D81000AE61CBF80070A369CBF80430CAF80060A1
:10D82000A369CAF80430D4F808904146484602F08B
:10D830002FF961690746484602F02AF90146384641
:10D8400002F0E4FA544902F02DFA514902F022F9AB
:10D85000002123F063FE119B119A1860236A536024
:10D860006868314602F0D0FB002847D04B4930466B
:10D8700002F018FA4A4902F00DF90146494823F02E
:10D880004DFE0E9B0E9A1860A3695360E9683046FE
:10D8900002F008FA296902F0FDF80146424823F037
:10D8A00063FC0146414823F039FE0146404823F01D
:10D8B0004BFE0F9B0F9A1860A36953606668414640
:10D8C000304602F0E5F821690546304602F0E0F8FE
:10D8D0000146284602F09AFA364902F0E3F9354942
:10D8E00023F032FE0146002023F018FE109B109A10
:10D8F0001860E369536003B0BDE8F08F2A493046F1
:10D9000002F0D0F90146B9E7A069002102F05EFB00
:10D9100000283FF47CAF4946484602F0C3F96B69E2
:10D92000019381463946184602F05AFB88B13846C1
:10D93000494602F0B7F9494607464FF07E5002F0DB
:10D94000A7F8019B194602F0ADF9394602F0A2F89A
:10D950000746AB6901933146184602F041FB0028A7
:10D960003FF457AF3046494602F09CF94946064617
:10D970004FF07E5002F08CF8019B194602F092F9AC
:10D98000314602F087F8064643E700BF0000164321
:10D99000000048420000FA43000066430000A04037
:10D9A00000007A430000C84300002041CDCCCC3DAC
:10D9B00000007A440000C8422DE9F04385B081465A
:10D9C0001646007802240DF107020D468DF8074037
:10D9D00000F04AFE9DF807700390FFB1012409F1A1
:10D9E0001C080CE0022B324603AB2946404601D10D
:10D9F000FEF780F9A74204F101030ED01C46E3B202
:10DA0000012BEFD103ABD9F8040032462946FEF7CB
:10DA10000BF8A74204F10103F0D10398ADF80A0016
:10DA200002220DF10A0102A822F01CFF9DF8082035
:10DA30009DF8093003982A706B7005B0BDE8F0833B
:10DA40002DE9F04184B006469046007805240DF19A
:10DA500007020D468DF8074000F006FE9DF807709E
:10DA6000039007B30124E3B2013B042B0AD8DFE89B
:10DA700003F03A0F332C0300306903AB42462946CA
:10DA8000FDF7D2FFA74204F101030BD01C46EAE7E1
:10DA900003ABB06942462946FDF7C6FFA74204F131
:10DAA0000103F3D10398ADF80A0002220DF10A0137
:10DAB00002A822F0D7FE9DF808209DF809300398AF
:10DAC0002A706B7004B0BDE8F081F06803AB424689
:10DAD0002946FDF7A9FFD5E7B06803AB42462946C2
:10DAE000FDF7A2FFCEE7706903AB42462946FDF77A
:10DAF0009BFFC7E70023034A426182618360C360E2
:10DB000003617047000048424FF6FF7399421FD0EF
:10DB1000B1F5E16F10B504461FD013D864291AD0AF
:10DB2000B1F5967F12D1006A23F0F4FA23F0A2FC3B
:10DB300001460B4802F06AF90A4A0B4BA060E2600A
:10DB4000236110BD41F27073994202D0E069EBE7A6
:10DB50007047C06AE8E7806AE6E7406AE4E700BF2A
:10DB6000000016434F57213C841C4BBFF0B587B0D3
:10DB700004AB05AF05460078CDE900370DF10F0382
:10DB80000E4600F043FD9DF90F0090B90124E3B269
:10DB9000013B39463046032B19D8DFE803F0141057
:10DBA0000C02FDF7DFFEE8600134062CEFD19DF991
:10DBB0000F0007B0F0BDFDF7D5FEA860F4E7FDF754
:10DBC000D1FEA861F0E7FDF7CDFE6861ECE7FDF757
:10DBD000C9FE2861E8E700BF30B409241549164A98
:10DBE000164D0470164C416002611649164A456193
:10DBF0008461164D164C416282621649164AC5620E
:10DC00008463164D164CC16302641649C564002234
:10DC10006FF0004504654FF0FF34C0E9164501661A
:10DC200030BC8260C260C2610262026342634264CD
:10DC30008264704707F0963D1C7CE13D3480D73FFD
:10DC40000000A040CDCC0C3E67D5273EE63F4CC03F
:10DC500091ED3CBFFB3A403FB15083405DFEE33E57
:10DC6000363C85BF000040402DE9F04786B004AB4C
:10DC700005AE04460078CDE900360DF10F030D46E0
:10DC800000F0C4FC9DF90F00E0B94FF0010A04F167
:10DC9000400904F12C0804F118075FFA8AF3013BEC
:10DCA000032B24D8DFE803F01D1711024A46314642
:10DCB0002846FEF7BDF80AF1010ABAF1060FECD1C9
:10DCC0009DF90F0006B0BDE8F08742463146284670
:10DCD000FEF7AEF8EFE73A4631462846FEF7A8F8D9
:10DCE000E9E7221D31462846FEF7A2F8E3E7314670
:10DCF0002846FDF737FE2066DDE700BF2DE9F04737
:10DD000082B0DDE90A9ABDF83040B4F5E16F05460E
:10DD1000884617461E466FD028D941F270739C4240
:10DD20002ED047F230539C4208BF012408D1D5E9D8
:10DD300016014FF0FF326FF0004300F029FE08B3E8
:10DD400000244FF0FF326FF000433846314600F0B8
:10DD50001FFE08B9C5E916762146404601F098FE37
:10DD60000D9901F095FE02B0BDE8F087642C05D056
:10DD7000B4F5967F08BF0424D9D0E1E70524D6E79F
:10DD80000224D4E7D5E91601B9EB00006AEB0101E2
:10DD900001F02CFB1AA3D3E9002301F07FFC0B4612
:10DDA0000246CDE900230FFA84F901F01DFE05EBD0
:10DDB000840455F82910824601F074FF616901F06E
:10DDC00069FEA16A8146504601F06CFFDDE900233F
:10DDD00082461946104601F037FB01F005FE014668
:10DDE000504601F057FEE16B01F054FE01464846F3
:10DDF00002F00CF80446A4E7046EA2E7AFF300803B
:10DE00000000000065CDCD412DE9F04784B0074604
:10DE10009046007805240DF107020D468DF8074065
:10DE200000F022FC9DF8076003902EB3012407F157
:10DE3000400A07F12C09E3B2013B042B0AD8DFE8C2
:10DE400003F03B0F342D0300386E03AB42462946E6
:10DE5000FDF7EAFDA64204F101030CD01C46EAE7F7
:10DE600003AB4246294607F11800FDF743FFA642DF
:10DE700004F10103F2D10398ADF80A0002220DF17A
:10DE80000A0102A822F0EEFC9DF808209DF8093056
:10DE900003982A706B7004B0BDE8F08703AB42466C
:10DEA00029465046FDF726FFD4E703AB42462946F4
:10DEB0004846FDF71FFFCDE703AB42462946381D14
:10DEC000FDF718FFC6E700BF2DE9F04387B0804695
:10DED0009146007801240DF10F020E468DF80F4097
:10DEE00000F0C2FB9DF80F50059035B1002405AF3E
:10DEF000ACB10134A542FBD10598ADF81200022265
:10DF00000DF1120104A822F0ADFC9DF810209DF83F
:10DF1000113005983270737007B0BDE8F083009738
:10DF2000D8E916014B463246FDF73AFEE1E700BF5D
:10DF300070B586B004AB05AE04460078CDE9003676
:10DF40000DF10F030D4600F061FB9DF90F0008B1C4
:10DF500006B070BD31462846FDF7C4FDC4E9160180
:10DF60009DF90F0006B070BD2DE9F04300F150059A
:10DF70009DB00C460646284600F0DCFB204623F008
:10DF8000C9F8B066284600F08BFB002800F09C80A2
:10DF90000EAF534B0E933846294615AA06F13404AA
:10DFA0000F931093119312931393149300F098FC12
:10DFB000204600F075FB002800F08B80204600F022
:10DFC000B9FB1B9BF364464B0E93204602A908AC99
:10DFD0000F931093119312931393149300F040FC3A
:10DFE00002A92246384600F04DFC02A9204600F066
:10DFF00049FBDFF8F88002AD286823F025F9414697
:10E0000001F050FE45F8040BAC42F5D102A800F037
:10E01000C5FC6D464FF00009A84654F8040B49466C
:10E0200001F0DEFF031E18BF0123A74208F8013BE1
:10E03000F3D19DF800309DF801209DF802009DF875
:10E0400003101A4410449DF8042001449DF8050073
:10E050000A448118AA1D00E02B7883F0010305F81B
:10E06000013B9542F8D19DF800309DF801209DF8C4
:10E0700002409DF803001A4414449DF804209DF8C2
:10E0800005302044024413448B42ACBF154C164C5F
:10E090000599049801F0FEFC4FF07C5101F002FE5E
:10E0A000214601F0A7FF68B196F86C300133DBB26E
:10E0B000042B86F86C3009D9012386F82A301DB06C
:10E0C000BDE8F08386F86C0086F82A001DB0BDE834
:10E0D000F08315A91C22204622F0C4FB73E700BF81
:10E0E0002549123E0AD7A33C0AD7A33BE12E65423D
:10E0F0001449C16100220023C0E908236421124BA6
:10E1000080F8281030B400220524C36204708261B4
:10E1100000F1340300F1500143F8042B8B429A6163
:10E12000FAD1002300240025C0E90245026730BC73
:10E13000426102610263A0F86C3080F829304385A7
:10E14000704700BFC9B28B5323291D562DE9F047F4
:10E150000446D0E9020116461F46D4E90823B6EB6F
:10E16000000867EB0109424573EB09039DF8245051
:10E17000DDF82CA003DB864277EB010354DA0023A1
:10E180004FF00008236184F82A80C4E9026794F8FC
:10E1900029307BB9D4E90201301A67EB010101F0A3
:10E1A00043FD616901F076FCA169606101F02CFF1B
:10E1B000002872D194F82B307BB9D4E90201301ACF
:10E1C00067EB010101F030FD216B01F063FCE16AB6
:10E1D000206301F019FF00285BD1B8F1000F00D1D6
:10E1E00085B3012E77F100030A9A94F82930BCBF59
:10E1F00001260027C4E90267137094F82A308AF8D0
:10E2000000300D9A94F82B3013709AF800302BB927
:10E21000E5690021284601F0D9FE58B10C9A4FF06B
:10E220007E531360BDE8F08750EA010394F82A801A
:10E23000ADD1AAE72069294601F0E8FD0C9B1860E2
:10E24000BDE8F08794F86D30022B2AD8002B3FD11F
:10E25000089822F05FFF216F054601F019FC256741
:10E2600023F008F922F0F0FF204901F01BFD4FF0E8
:10E270007E5101F0BFFE98B394F86C300133DBB2ED
:10E28000012B84F86C3029D90123194D84F82A30E8
:10E290000AE0012384F82B309FE7012384F829301A
:10E2A00088E7032B1AD1134DD4E90201301A67EB2A
:10E2B000010101F0B9FC216901F0ECFB2946206164
:10E2C00001F0A2FE00288CD0012384F82A3088E7D0
:10E2D0000899074D2046FFF747FEE5E7044DE3E7C1
:10E2E000034D84F86C8084F82A80DDE7E12E6542D6
:10E2F0002E8CD15376845F512DE9F04184B00746CE
:10E300009046007803240DF107020D468DF8074072
:10E3100000F0AAF99DF807600390C6B1012406E059
:10E32000012B2ED0A64204F101030FD01C46E3B20C
:10E33000022B1ED0032BF3D103ABF86A42462946C9
:10E34000FDF772FBA64204F10103EFD10398ADF88B
:10E350000A0002220DF10A0102A822F083FA9DF8B8
:10E3600008209DF8093003982A706B7004B0BDE84E
:10E37000F08197F9280003AB42462946FDF700FDDE
:10E38000D0E7B86903AB42462946FDF74DFBC9E724
:10E390002DE9F04186B006469046007807240DF13D
:10E3A0000F020D468DF80F4000F05EF99DF80F70DA
:10E3B000059017B30124E3B2013B062B0BD8DFE82D
:10E3C00003F0352E463E4D100400306B05AB42463F
:10E3D0002946FDF729FBA74204F101030CD01C4696
:10E3E000E9E705AB96F82B0042462946FDF716FCF7
:10E3F000A74204F10103F2D10598ADF81200022200
:10E400000DF1120104A822F02DFA9DF810209DF8BC
:10E41000113005982A706B7006B0BDE8F081706904
:10E4200005AB42462946FDF7FFFAD4E705AB00935A
:10E43000D6E9020143462A46FDF7B2FBCBE796F840
:10E44000290005AB42462946FDF7E8FBC3E73069E2
:10E4500005AB42462946FDF7E7FABCE796F82A00E5
:10E4600005AB42462946FDF7D9FBB4E7F0B587B0C6
:10E4700004AB05AF05460078CDE900370DF10F0379
:10E480000E4600F0C3F89DF90F00C0B90124E3B2B5
:10E49000013B052B3ED8DFE803F036302A1F14037A
:10E4A000059BF25C003A03F1010318BF012285F8D5
:10E4B0002B2005930134082CE9D19DF90F0007B0FA
:10E4C000F0BD059BF25C003A03F1010318BF012285
:10E4D00085F82A200593EDE7059BF25C003A03F1ED
:10E4E000010318BF012285F829200593E2E7394688
:10E4F0003046FDF737FA2861DCE739463046FDF74C
:10E5000031FA6861D6E739463046FDF7EBFAC5E9DE
:10E510000201CFE739463046FDF724FA2863C9E700
:10E520004FF6FF73994229D090F928201F4B01FB29
:10E5300002F210B402EB52021D4CC461A2FB032391
:10E540000024B1F5E16FC0E9082380F86D4026D0C2
:10E550000BD864291CD0B1F5967F04D1154BC3614B
:10E56000012380F86D3010BC704741F270739942FE
:10E57000F9D1042310BC80F86D307047002303618B
:10E58000002100220023C0E9022380F82A107047EE
:10E59000084BC361022310BC80F86D307047064BF6
:10E5A000C361032310BC80F86D30704780969800DB
:10E5B000C9B28B53C9B28B5276845F5170B586B0A5
:10E5C00004AB05AE04460078CDE900360DF10F032B
:10E5D0000D4600F01BF89DF90F0008B106B070BDA4
:10E5E00031462846FDF7BEF93146A0612846FDF7C1
:10E5F00065FC314684F828002846FDF7B3F9034648
:10E600009DF90F00E36206B070BD00BF2DE9F04137
:10E6100082B0DDE908751C46032A4FF000032B6029
:10E6200023703B6004D89823237002B0BDE8F081CA
:10E6300004232B600A784B788DF8042080460E4620
:10E64000022201A90DF106008DF8053022F00AF929
:10E65000BDF806303B60B37843451CBF9C23237054
:10E6600002B0BDE8F08100BF10B414780CB19C4238
:10E6700003D2002010BC10707047887010BC0420BA
:10E68000704700BF70B50D1F041F00F1140654F849
:10E69000040F22F0EFFEB44245F8040FF7D170BD2D
